{
	"contracts/1_Twitter.sol": {
		"Twitter": {
			"abi": [
				{
					"inputs": [
						{
							"internalType": "address",
							"name": "operator",
							"type": "address"
						}
					],
					"name": "allowAccess",
					"outputs": [],
					"stateMutability": "nonpayable",
					"type": "function"
				},
				{
					"inputs": [
						{
							"internalType": "address",
							"name": "followed",
							"type": "address"
						}
					],
					"name": "follow",
					"outputs": [],
					"stateMutability": "nonpayable",
					"type": "function"
				},
				{
					"inputs": [
						{
							"internalType": "address",
							"name": "user",
							"type": "address"
						},
						{
							"internalType": "address",
							"name": "followed",
							"type": "address"
						}
					],
					"name": "follow",
					"outputs": [],
					"stateMutability": "nonpayable",
					"type": "function"
				},
				{
					"inputs": [
						{
							"internalType": "uint256",
							"name": "count",
							"type": "uint256"
						}
					],
					"name": "getLatestTweets",
					"outputs": [
						{
							"components": [
								{
									"internalType": "uint256",
									"name": "id",
									"type": "uint256"
								},
								{
									"internalType": "address",
									"name": "author",
									"type": "address"
								},
								{
									"internalType": "string",
									"name": "content",
									"type": "string"
								},
								{
									"internalType": "uint256",
									"name": "createdAt",
									"type": "uint256"
								}
							],
							"internalType": "struct Twitter.Tweet[]",
							"name": "",
							"type": "tuple[]"
						}
					],
					"stateMutability": "view",
					"type": "function"
				},
				{
					"inputs": [
						{
							"internalType": "address",
							"name": "user",
							"type": "address"
						},
						{
							"internalType": "uint256",
							"name": "count",
							"type": "uint256"
						}
					],
					"name": "getLatestTweetsOfUser",
					"outputs": [
						{
							"components": [
								{
									"internalType": "uint256",
									"name": "id",
									"type": "uint256"
								},
								{
									"internalType": "address",
									"name": "author",
									"type": "address"
								},
								{
									"internalType": "string",
									"name": "content",
									"type": "string"
								},
								{
									"internalType": "uint256",
									"name": "createdAt",
									"type": "uint256"
								}
							],
							"internalType": "struct Twitter.Tweet[]",
							"name": "",
							"type": "tuple[]"
						}
					],
					"stateMutability": "view",
					"type": "function"
				},
				{
					"inputs": [
						{
							"internalType": "address",
							"name": "operator",
							"type": "address"
						}
					],
					"name": "removeAccess",
					"outputs": [],
					"stateMutability": "nonpayable",
					"type": "function"
				},
				{
					"inputs": [
						{
							"internalType": "address",
							"name": "user",
							"type": "address"
						},
						{
							"internalType": "address",
							"name": "to",
							"type": "address"
						},
						{
							"internalType": "string",
							"name": "mssg",
							"type": "string"
						}
					],
					"name": "sendMessage",
					"outputs": [],
					"stateMutability": "nonpayable",
					"type": "function"
				},
				{
					"inputs": [
						{
							"internalType": "address",
							"name": "to",
							"type": "address"
						},
						{
							"internalType": "string",
							"name": "mssg",
							"type": "string"
						}
					],
					"name": "sendMessage",
					"outputs": [],
					"stateMutability": "nonpayable",
					"type": "function"
				},
				{
					"inputs": [
						{
							"internalType": "address",
							"name": "user",
							"type": "address"
						},
						{
							"internalType": "string",
							"name": "content",
							"type": "string"
						}
					],
					"name": "tweet",
					"outputs": [],
					"stateMutability": "nonpayable",
					"type": "function"
				},
				{
					"inputs": [
						{
							"internalType": "string",
							"name": "content",
							"type": "string"
						}
					],
					"name": "tweet",
					"outputs": [],
					"stateMutability": "nonpayable",
					"type": "function"
				}
			],
			"devdoc": {
				"kind": "dev",
				"methods": {},
				"version": 1
			},
			"evm": {
				"assembly": "    /* \"contracts/1_Twitter.sol\":70:4962  contract Twitter {... */\n  mstore(0x40, 0x80)\n    /* \"contracts/1_Twitter.sol\":708:718  msg.sender */\n  caller\n    /* \"contracts/1_Twitter.sol\":692:718  address owner = msg.sender */\n  0x07\n  exp(0x0100, 0x00)\n  dup2\n  sload\n  dup2\n  0xffffffffffffffffffffffffffffffffffffffff\n  mul\n  not\n  and\n  swap1\n  dup4\n  0xffffffffffffffffffffffffffffffffffffffff\n  and\n  mul\n  or\n  swap1\n  sstore\n  pop\n    /* \"contracts/1_Twitter.sol\":70:4962  contract Twitter {... */\n  callvalue\n  dup1\n  iszero\n  tag_1\n  jumpi\n  0x00\n  dup1\n  revert\ntag_1:\n  pop\n  dataSize(sub_0)\n  dup1\n  dataOffset(sub_0)\n  0x00\n  codecopy\n  0x00\n  return\nstop\n\nsub_0: assembly {\n        /* \"contracts/1_Twitter.sol\":70:4962  contract Twitter {... */\n      mstore(0x40, 0x80)\n      callvalue\n      dup1\n      iszero\n      tag_1\n      jumpi\n      0x00\n      dup1\n      revert\n    tag_1:\n      pop\n      jumpi(tag_2, lt(calldatasize, 0x04))\n      shr(0xe0, calldataload(0x00))\n      dup1\n      0xc4a85bc1\n      gt\n      tag_13\n      jumpi\n      dup1\n      0xc4a85bc1\n      eq\n      tag_8\n      jumpi\n      dup1\n      0xce336dad\n      eq\n      tag_9\n      jumpi\n      dup1\n      0xd21d1596\n      eq\n      tag_10\n      jumpi\n      dup1\n      0xde6f24bb\n      eq\n      tag_11\n      jumpi\n      dup1\n      0xfb46d4c5\n      eq\n      tag_12\n      jumpi\n      jump(tag_2)\n    tag_13:\n      dup1\n      0x4dbf27cc\n      eq\n      tag_3\n      jumpi\n      dup1\n      0x4dc0a687\n      eq\n      tag_4\n      jumpi\n      dup1\n      0x8823da6c\n      eq\n      tag_5\n      jumpi\n      dup1\n      0x99d147c2\n      eq\n      tag_6\n      jumpi\n      dup1\n      0xb88e318d\n      eq\n      tag_7\n      jumpi\n    tag_2:\n      0x00\n      dup1\n      revert\n        /* \"contracts/1_Twitter.sol\":2342:2489  function follow(address followed) public {... */\n    tag_3:\n      tag_14\n      0x04\n      dup1\n      calldatasize\n      sub\n      dup2\n      add\n      swap1\n      tag_15\n      swap2\n      swap1\n      tag_16\n      jump\t// in\n    tag_15:\n      tag_17\n      jump\t// in\n    tag_14:\n      stop\n        /* \"contracts/1_Twitter.sol\":3647:4224  function getLatestTweets(uint256 count)... */\n    tag_4:\n      tag_18\n      0x04\n      dup1\n      calldatasize\n      sub\n      dup2\n      add\n      swap1\n      tag_19\n      swap2\n      swap1\n      tag_20\n      jump\t// in\n    tag_19:\n      tag_21\n      jump\t// in\n    tag_18:\n      mload(0x40)\n      tag_22\n      swap2\n      swap1\n      tag_23\n      jump\t// in\n    tag_22:\n      mload(0x40)\n      dup1\n      swap2\n      sub\n      swap1\n      return\n        /* \"contracts/1_Twitter.sol\":2958:3121  function removeAccess(address operator) public {... */\n    tag_5:\n      tag_24\n      0x04\n      dup1\n      calldatasize\n      sub\n      dup2\n      add\n      swap1\n      tag_25\n      swap2\n      swap1\n      tag_16\n      jump\t// in\n    tag_25:\n      tag_26\n      jump\t// in\n    tag_24:\n      stop\n        /* \"contracts/1_Twitter.sol\":2564:2727  function follow(address user, address followed) public {... */\n    tag_6:\n      tag_27\n      0x04\n      dup1\n      calldatasize\n      sub\n      dup2\n      add\n      swap1\n      tag_28\n      swap2\n      swap1\n      tag_29\n      jump\t// in\n    tag_28:\n      tag_30\n      jump\t// in\n    tag_27:\n      stop\n        /* \"contracts/1_Twitter.sol\":1943:2160  function sendMessage(... */\n    tag_7:\n      tag_31\n      0x04\n      dup1\n      calldatasize\n      sub\n      dup2\n      add\n      swap1\n      tag_32\n      swap2\n      swap1\n      tag_33\n      jump\t// in\n    tag_32:\n      tag_34\n      jump\t// in\n    tag_31:\n      stop\n        /* \"contracts/1_Twitter.sol\":2762:2923  function allowAccess(address operator) public {... */\n    tag_8:\n      tag_35\n      0x04\n      dup1\n      calldatasize\n      sub\n      dup2\n      add\n      swap1\n      tag_36\n      swap2\n      swap1\n      tag_16\n      jump\t// in\n    tag_36:\n      tag_37\n      jump\t// in\n    tag_35:\n      stop\n        /* \"contracts/1_Twitter.sol\":4230:4960  function getLatestTweetsOfUser(address user, uint256 count)... */\n    tag_9:\n      tag_38\n      0x04\n      dup1\n      calldatasize\n      sub\n      dup2\n      add\n      swap1\n      tag_39\n      swap2\n      swap1\n      tag_40\n      jump\t// in\n    tag_39:\n      tag_41\n      jump\t// in\n    tag_38:\n      mload(0x40)\n      tag_42\n      swap2\n      swap1\n      tag_23\n      jump\t// in\n    tag_42:\n      mload(0x40)\n      dup1\n      swap2\n      sub\n      swap1\n      return\n        /* \"contracts/1_Twitter.sol\":1202:1367  function tweet(address user, string memory content) public {... */\n    tag_10:\n      tag_43\n      0x04\n      dup1\n      calldatasize\n      sub\n      dup2\n      add\n      swap1\n      tag_44\n      swap2\n      swap1\n      tag_45\n      jump\t// in\n    tag_44:\n      tag_46\n      jump\t// in\n    tag_43:\n      stop\n        /* \"contracts/1_Twitter.sol\":1696:1867  function sendMessage(address to, string memory mssg) public {... */\n    tag_11:\n      tag_47\n      0x04\n      dup1\n      calldatasize\n      sub\n      dup2\n      add\n      swap1\n      tag_48\n      swap2\n      swap1\n      tag_45\n      jump\t// in\n    tag_48:\n      tag_49\n      jump\t// in\n    tag_47:\n      stop\n        /* \"contracts/1_Twitter.sol\":990:1139  function tweet(string memory content) public {... */\n    tag_12:\n      tag_50\n      0x04\n      dup1\n      calldatasize\n      sub\n      dup2\n      add\n      swap1\n      tag_51\n      swap2\n      swap1\n      tag_52\n      jump\t// in\n    tag_51:\n      tag_53\n      jump\t// in\n    tag_50:\n      stop\n        /* \"contracts/1_Twitter.sol\":2342:2489  function follow(address followed) public {... */\n    tag_17:\n        /* \"contracts/1_Twitter.sol\":2415:2420  owner */\n      0x07\n      0x00\n      swap1\n      sload\n      swap1\n      0x0100\n      exp\n      swap1\n      div\n      0xffffffffffffffffffffffffffffffffffffffff\n      and\n        /* \"contracts/1_Twitter.sol\":2401:2420  msg.sender == owner */\n      0xffffffffffffffffffffffffffffffffffffffff\n      and\n        /* \"contracts/1_Twitter.sol\":2401:2411  msg.sender */\n      caller\n        /* \"contracts/1_Twitter.sol\":2401:2420  msg.sender == owner */\n      0xffffffffffffffffffffffffffffffffffffffff\n      and\n      eq\n        /* \"contracts/1_Twitter.sol\":2393:2443  require(msg.sender == owner, \"Access not allowed\") */\n      tag_55\n      jumpi\n      mload(0x40)\n      0x08c379a000000000000000000000000000000000000000000000000000000000\n      dup2\n      mstore\n      0x04\n      add\n      tag_56\n      swap1\n      tag_57\n      jump\t// in\n    tag_56:\n      mload(0x40)\n      dup1\n      swap2\n      sub\n      swap1\n      revert\n    tag_55:\n        /* \"contracts/1_Twitter.sol\":2453:2482  _follow(msg.sender, followed) */\n      tag_58\n        /* \"contracts/1_Twitter.sol\":2461:2471  msg.sender */\n      caller\n        /* \"contracts/1_Twitter.sol\":2473:2481  followed */\n      dup3\n        /* \"contracts/1_Twitter.sol\":2453:2460  _follow */\n      tag_59\n        /* \"contracts/1_Twitter.sol\":2453:2482  _follow(msg.sender, followed) */\n      jump\t// in\n    tag_58:\n        /* \"contracts/1_Twitter.sol\":2342:2489  function follow(address followed) public {... */\n      pop\n      jump\t// out\n        /* \"contracts/1_Twitter.sol\":3647:4224  function getLatestTweets(uint256 count)... */\n    tag_21:\n        /* \"contracts/1_Twitter.sol\":3732:3746  Tweet[] memory */\n      0x60\n        /* \"contracts/1_Twitter.sol\":3797:3802  owner */\n      0x07\n      0x00\n      swap1\n      sload\n      swap1\n      0x0100\n      exp\n      swap1\n      div\n      0xffffffffffffffffffffffffffffffffffffffff\n      and\n        /* \"contracts/1_Twitter.sol\":3783:3802  msg.sender == owner */\n      0xffffffffffffffffffffffffffffffffffffffff\n      and\n        /* \"contracts/1_Twitter.sol\":3783:3793  msg.sender */\n      caller\n        /* \"contracts/1_Twitter.sol\":3783:3802  msg.sender == owner */\n      0xffffffffffffffffffffffffffffffffffffffff\n      and\n      eq\n        /* \"contracts/1_Twitter.sol\":3783:3834  msg.sender == owner || operators[owner][msg.sender] */\n      dup1\n      tag_61\n      jumpi\n      pop\n        /* \"contracts/1_Twitter.sol\":3806:3815  operators */\n      0x03\n        /* \"contracts/1_Twitter.sol\":3806:3822  operators[owner] */\n      0x00\n        /* \"contracts/1_Twitter.sol\":3816:3821  owner */\n      0x07\n      0x00\n      swap1\n      sload\n      swap1\n      0x0100\n      exp\n      swap1\n      div\n      0xffffffffffffffffffffffffffffffffffffffff\n      and\n        /* \"contracts/1_Twitter.sol\":3806:3822  operators[owner] */\n      0xffffffffffffffffffffffffffffffffffffffff\n      and\n      0xffffffffffffffffffffffffffffffffffffffff\n      and\n      dup2\n      mstore\n      0x20\n      add\n      swap1\n      dup2\n      mstore\n      0x20\n      add\n      0x00\n      keccak256\n        /* \"contracts/1_Twitter.sol\":3806:3834  operators[owner][msg.sender] */\n      0x00\n        /* \"contracts/1_Twitter.sol\":3823:3833  msg.sender */\n      caller\n        /* \"contracts/1_Twitter.sol\":3806:3834  operators[owner][msg.sender] */\n      0xffffffffffffffffffffffffffffffffffffffff\n      and\n      0xffffffffffffffffffffffffffffffffffffffff\n      and\n      dup2\n      mstore\n      0x20\n      add\n      swap1\n      dup2\n      mstore\n      0x20\n      add\n      0x00\n      keccak256\n      0x00\n      swap1\n      sload\n      swap1\n      0x0100\n      exp\n      swap1\n      div\n      0xff\n      and\n        /* \"contracts/1_Twitter.sol\":3783:3834  msg.sender == owner || operators[owner][msg.sender] */\n    tag_61:\n        /* \"contracts/1_Twitter.sol\":3762:3878  require(... */\n      tag_62\n      jumpi\n      mload(0x40)\n      0x08c379a000000000000000000000000000000000000000000000000000000000\n      dup2\n      mstore\n      0x04\n      add\n      tag_63\n      swap1\n      tag_57\n      jump\t// in\n    tag_63:\n      mload(0x40)\n      dup1\n      swap2\n      sub\n      swap1\n      revert\n    tag_62:\n        /* \"contracts/1_Twitter.sol\":3904:3905  0 */\n      0x00\n        /* \"contracts/1_Twitter.sol\":3896:3901  count */\n      dup3\n        /* \"contracts/1_Twitter.sol\":3896:3905  count > 0 */\n      gt\n        /* \"contracts/1_Twitter.sol\":3896:3924  count > 0 && count <= nextId */\n      dup1\n      iszero\n      tag_64\n      jumpi\n      pop\n        /* \"contracts/1_Twitter.sol\":3918:3924  nextId */\n      sload(0x05)\n        /* \"contracts/1_Twitter.sol\":3909:3914  count */\n      dup3\n        /* \"contracts/1_Twitter.sol\":3909:3924  count <= nextId */\n      gt\n      iszero\n        /* \"contracts/1_Twitter.sol\":3896:3924  count > 0 && count <= nextId */\n    tag_64:\n        /* \"contracts/1_Twitter.sol\":3888:3947  require(count > 0 && count <= nextId, \"count out of bound\") */\n      tag_65\n      jumpi\n      mload(0x40)\n      0x08c379a000000000000000000000000000000000000000000000000000000000\n      dup2\n      mstore\n      0x04\n      add\n      tag_66\n      swap1\n      tag_67\n      jump\t// in\n    tag_66:\n      mload(0x40)\n      dup1\n      swap2\n      sub\n      swap1\n      revert\n    tag_65:\n        /* \"contracts/1_Twitter.sol\":3957:3984  Tweet[] memory latestTweets */\n      0x00\n        /* \"contracts/1_Twitter.sol\":3999:4004  count */\n      dup3\n        /* \"contracts/1_Twitter.sol\":3987:4005  new Tweet[](count) */\n      0xffffffffffffffff\n      dup2\n      gt\n      iszero\n      tag_68\n      jumpi\n      tag_69\n      tag_70\n      jump\t// in\n    tag_69:\n    tag_68:\n      mload(0x40)\n      swap1\n      dup1\n      dup3\n      mstore\n      dup1\n      0x20\n      mul\n      0x20\n      add\n      dup3\n      add\n      0x40\n      mstore\n      dup1\n      iszero\n      tag_71\n      jumpi\n      dup2\n      0x20\n      add\n    tag_72:\n      tag_73\n      tag_74\n      jump\t// in\n    tag_73:\n      dup2\n      mstore\n      0x20\n      add\n      swap1\n      0x01\n      swap1\n      sub\n      swap1\n      dup2\n      tag_72\n      jumpi\n      swap1\n      pop\n    tag_71:\n      pop\n        /* \"contracts/1_Twitter.sol\":3957:4005  Tweet[] memory latestTweets = new Tweet[](count) */\n      swap1\n      pop\n        /* \"contracts/1_Twitter.sol\":4097:4106  uint256 i */\n      0x00\n        /* \"contracts/1_Twitter.sol\":4092:4189  for (uint256 i; i < count; i++) {... */\n    tag_75:\n        /* \"contracts/1_Twitter.sol\":4112:4117  count */\n      dup4\n        /* \"contracts/1_Twitter.sol\":4108:4109  i */\n      dup2\n        /* \"contracts/1_Twitter.sol\":4108:4117  i < count */\n      lt\n        /* \"contracts/1_Twitter.sol\":4092:4189  for (uint256 i; i < count; i++) {... */\n      iszero\n      tag_76\n      jumpi\n        /* \"contracts/1_Twitter.sol\":4156:4162  tweets */\n      0x00\n        /* \"contracts/1_Twitter.sol\":4156:4178  tweets[nextId - i - 1] */\n      dup1\n        /* \"contracts/1_Twitter.sol\":4176:4177  1 */\n      0x01\n        /* \"contracts/1_Twitter.sol\":4172:4173  i */\n      dup4\n        /* \"contracts/1_Twitter.sol\":4163:4169  nextId */\n      sload(0x05)\n        /* \"contracts/1_Twitter.sol\":4163:4173  nextId - i */\n      tag_78\n      swap2\n      swap1\n      tag_79\n      jump\t// in\n    tag_78:\n        /* \"contracts/1_Twitter.sol\":4163:4177  nextId - i - 1 */\n      tag_80\n      swap2\n      swap1\n      tag_79\n      jump\t// in\n    tag_80:\n        /* \"contracts/1_Twitter.sol\":4156:4178  tweets[nextId - i - 1] */\n      dup2\n      mstore\n      0x20\n      add\n      swap1\n      dup2\n      mstore\n      0x20\n      add\n      0x00\n      keccak256\n        /* \"contracts/1_Twitter.sol\":4138:4178  latestTweets[i] = tweets[nextId - i - 1] */\n      mload(0x40)\n      dup1\n      0x80\n      add\n      0x40\n      mstore\n      swap1\n      dup2\n      0x00\n      dup3\n      add\n      sload\n      dup2\n      mstore\n      0x20\n      add\n      0x01\n      dup3\n      add\n      0x00\n      swap1\n      sload\n      swap1\n      0x0100\n      exp\n      swap1\n      div\n      0xffffffffffffffffffffffffffffffffffffffff\n      and\n      0xffffffffffffffffffffffffffffffffffffffff\n      and\n      0xffffffffffffffffffffffffffffffffffffffff\n      and\n      dup2\n      mstore\n      0x20\n      add\n      0x02\n      dup3\n      add\n      dup1\n      sload\n      tag_81\n      swap1\n      tag_82\n      jump\t// in\n    tag_81:\n      dup1\n      0x1f\n      add\n      0x20\n      dup1\n      swap2\n      div\n      mul\n      0x20\n      add\n      mload(0x40)\n      swap1\n      dup2\n      add\n      0x40\n      mstore\n      dup1\n      swap3\n      swap2\n      swap1\n      dup2\n      dup2\n      mstore\n      0x20\n      add\n      dup3\n      dup1\n      sload\n      tag_83\n      swap1\n      tag_82\n      jump\t// in\n    tag_83:\n      dup1\n      iszero\n      tag_84\n      jumpi\n      dup1\n      0x1f\n      lt\n      tag_85\n      jumpi\n      0x0100\n      dup1\n      dup4\n      sload\n      div\n      mul\n      dup4\n      mstore\n      swap2\n      0x20\n      add\n      swap2\n      jump(tag_84)\n    tag_85:\n      dup3\n      add\n      swap2\n      swap1\n      0x00\n      mstore\n      keccak256(0x00, 0x20)\n      swap1\n    tag_86:\n      dup2\n      sload\n      dup2\n      mstore\n      swap1\n      0x01\n      add\n      swap1\n      0x20\n      add\n      dup1\n      dup4\n      gt\n      tag_86\n      jumpi\n      dup3\n      swap1\n      sub\n      0x1f\n      and\n      dup3\n      add\n      swap2\n    tag_84:\n      pop\n      pop\n      pop\n      pop\n      pop\n      dup2\n      mstore\n      0x20\n      add\n      0x03\n      dup3\n      add\n      sload\n      dup2\n      mstore\n      pop\n      pop\n        /* \"contracts/1_Twitter.sol\":4138:4150  latestTweets */\n      dup3\n        /* \"contracts/1_Twitter.sol\":4151:4152  i */\n      dup3\n        /* \"contracts/1_Twitter.sol\":4138:4153  latestTweets[i] */\n      dup2\n      mload\n      dup2\n      lt\n      tag_87\n      jumpi\n      tag_88\n      tag_89\n      jump\t// in\n    tag_88:\n    tag_87:\n      0x20\n      mul\n      0x20\n      add\n      add\n        /* \"contracts/1_Twitter.sol\":4138:4178  latestTweets[i] = tweets[nextId - i - 1] */\n      dup2\n      swap1\n      mstore\n      pop\n        /* \"contracts/1_Twitter.sol\":4119:4122  i++ */\n      dup1\n      dup1\n      tag_90\n      swap1\n      tag_91\n      jump\t// in\n    tag_90:\n      swap2\n      pop\n      pop\n        /* \"contracts/1_Twitter.sol\":4092:4189  for (uint256 i; i < count; i++) {... */\n      jump(tag_75)\n    tag_76:\n      pop\n        /* \"contracts/1_Twitter.sol\":4205:4217  latestTweets */\n      dup1\n        /* \"contracts/1_Twitter.sol\":4198:4217  return latestTweets */\n      swap2\n      pop\n      pop\n        /* \"contracts/1_Twitter.sol\":3647:4224  function getLatestTweets(uint256 count)... */\n      swap2\n      swap1\n      pop\n      jump\t// out\n        /* \"contracts/1_Twitter.sol\":2958:3121  function removeAccess(address operator) public {... */\n    tag_26:\n        /* \"contracts/1_Twitter.sol\":3037:3042  owner */\n      0x07\n      0x00\n      swap1\n      sload\n      swap1\n      0x0100\n      exp\n      swap1\n      div\n      0xffffffffffffffffffffffffffffffffffffffff\n      and\n        /* \"contracts/1_Twitter.sol\":3023:3042  msg.sender == owner */\n      0xffffffffffffffffffffffffffffffffffffffff\n      and\n        /* \"contracts/1_Twitter.sol\":3023:3033  msg.sender */\n      caller\n        /* \"contracts/1_Twitter.sol\":3023:3042  msg.sender == owner */\n      0xffffffffffffffffffffffffffffffffffffffff\n      and\n      eq\n        /* \"contracts/1_Twitter.sol\":3015:3065  require(msg.sender == owner, \"Access not allowed\") */\n      tag_93\n      jumpi\n      mload(0x40)\n      0x08c379a000000000000000000000000000000000000000000000000000000000\n      dup2\n      mstore\n      0x04\n      add\n      tag_94\n      swap1\n      tag_57\n      jump\t// in\n    tag_94:\n      mload(0x40)\n      dup1\n      swap2\n      sub\n      swap1\n      revert\n    tag_93:\n        /* \"contracts/1_Twitter.sol\":3109:3114  false */\n      0x00\n        /* \"contracts/1_Twitter.sol\":3075:3084  operators */\n      0x03\n        /* \"contracts/1_Twitter.sol\":3075:3096  operators[msg.sender] */\n      0x00\n        /* \"contracts/1_Twitter.sol\":3085:3095  msg.sender */\n      caller\n        /* \"contracts/1_Twitter.sol\":3075:3096  operators[msg.sender] */\n      0xffffffffffffffffffffffffffffffffffffffff\n      and\n      0xffffffffffffffffffffffffffffffffffffffff\n      and\n      dup2\n      mstore\n      0x20\n      add\n      swap1\n      dup2\n      mstore\n      0x20\n      add\n      0x00\n      keccak256\n        /* \"contracts/1_Twitter.sol\":3075:3106  operators[msg.sender][operator] */\n      0x00\n        /* \"contracts/1_Twitter.sol\":3097:3105  operator */\n      dup4\n        /* \"contracts/1_Twitter.sol\":3075:3106  operators[msg.sender][operator] */\n      0xffffffffffffffffffffffffffffffffffffffff\n      and\n      0xffffffffffffffffffffffffffffffffffffffff\n      and\n      dup2\n      mstore\n      0x20\n      add\n      swap1\n      dup2\n      mstore\n      0x20\n      add\n      0x00\n      keccak256\n      0x00\n        /* \"contracts/1_Twitter.sol\":3075:3114  operators[msg.sender][operator] = false */\n      0x0100\n      exp\n      dup2\n      sload\n      dup2\n      0xff\n      mul\n      not\n      and\n      swap1\n      dup4\n      iszero\n      iszero\n      mul\n      or\n      swap1\n      sstore\n      pop\n        /* \"contracts/1_Twitter.sol\":2958:3121  function removeAccess(address operator) public {... */\n      pop\n      jump\t// out\n        /* \"contracts/1_Twitter.sol\":2564:2727  function follow(address user, address followed) public {... */\n    tag_30:\n        /* \"contracts/1_Twitter.sol\":2637:2646  operators */\n      0x03\n        /* \"contracts/1_Twitter.sol\":2637:2652  operators[user] */\n      0x00\n        /* \"contracts/1_Twitter.sol\":2647:2651  user */\n      dup4\n        /* \"contracts/1_Twitter.sol\":2637:2652  operators[user] */\n      0xffffffffffffffffffffffffffffffffffffffff\n      and\n      0xffffffffffffffffffffffffffffffffffffffff\n      and\n      dup2\n      mstore\n      0x20\n      add\n      swap1\n      dup2\n      mstore\n      0x20\n      add\n      0x00\n      keccak256\n        /* \"contracts/1_Twitter.sol\":2637:2664  operators[user][msg.sender] */\n      0x00\n        /* \"contracts/1_Twitter.sol\":2653:2663  msg.sender */\n      caller\n        /* \"contracts/1_Twitter.sol\":2637:2664  operators[user][msg.sender] */\n      0xffffffffffffffffffffffffffffffffffffffff\n      and\n      0xffffffffffffffffffffffffffffffffffffffff\n      and\n      dup2\n      mstore\n      0x20\n      add\n      swap1\n      dup2\n      mstore\n      0x20\n      add\n      0x00\n      keccak256\n      0x00\n      swap1\n      sload\n      swap1\n      0x0100\n      exp\n      swap1\n      div\n      0xff\n      and\n        /* \"contracts/1_Twitter.sol\":2629:2687  require(operators[user][msg.sender], \"Access not allowed\") */\n      tag_96\n      jumpi\n      mload(0x40)\n      0x08c379a000000000000000000000000000000000000000000000000000000000\n      dup2\n      mstore\n      0x04\n      add\n      tag_97\n      swap1\n      tag_57\n      jump\t// in\n    tag_97:\n      mload(0x40)\n      dup1\n      swap2\n      sub\n      swap1\n      revert\n    tag_96:\n        /* \"contracts/1_Twitter.sol\":2697:2720  _follow(user, followed) */\n      tag_98\n        /* \"contracts/1_Twitter.sol\":2705:2709  user */\n      dup3\n        /* \"contracts/1_Twitter.sol\":2711:2719  followed */\n      dup3\n        /* \"contracts/1_Twitter.sol\":2697:2704  _follow */\n      tag_59\n        /* \"contracts/1_Twitter.sol\":2697:2720  _follow(user, followed) */\n      jump\t// in\n    tag_98:\n        /* \"contracts/1_Twitter.sol\":2564:2727  function follow(address user, address followed) public {... */\n      pop\n      pop\n      jump\t// out\n        /* \"contracts/1_Twitter.sol\":1943:2160  function sendMessage(... */\n    tag_34:\n        /* \"contracts/1_Twitter.sol\":2065:2074  operators */\n      0x03\n        /* \"contracts/1_Twitter.sol\":2065:2080  operators[user] */\n      0x00\n        /* \"contracts/1_Twitter.sol\":2075:2079  user */\n      dup5\n        /* \"contracts/1_Twitter.sol\":2065:2080  operators[user] */\n      0xffffffffffffffffffffffffffffffffffffffff\n      and\n      0xffffffffffffffffffffffffffffffffffffffff\n      and\n      dup2\n      mstore\n      0x20\n      add\n      swap1\n      dup2\n      mstore\n      0x20\n      add\n      0x00\n      keccak256\n        /* \"contracts/1_Twitter.sol\":2065:2092  operators[user][msg.sender] */\n      0x00\n        /* \"contracts/1_Twitter.sol\":2081:2091  msg.sender */\n      caller\n        /* \"contracts/1_Twitter.sol\":2065:2092  operators[user][msg.sender] */\n      0xffffffffffffffffffffffffffffffffffffffff\n      and\n      0xffffffffffffffffffffffffffffffffffffffff\n      and\n      dup2\n      mstore\n      0x20\n      add\n      swap1\n      dup2\n      mstore\n      0x20\n      add\n      0x00\n      keccak256\n      0x00\n      swap1\n      sload\n      swap1\n      0x0100\n      exp\n      swap1\n      div\n      0xff\n      and\n        /* \"contracts/1_Twitter.sol\":2057:2115  require(operators[user][msg.sender], \"Access not allowed\") */\n      tag_100\n      jumpi\n      mload(0x40)\n      0x08c379a000000000000000000000000000000000000000000000000000000000\n      dup2\n      mstore\n      0x04\n      add\n      tag_101\n      swap1\n      tag_57\n      jump\t// in\n    tag_101:\n      mload(0x40)\n      dup1\n      swap2\n      sub\n      swap1\n      revert\n    tag_100:\n        /* \"contracts/1_Twitter.sol\":2125:2153  _sendMessage(user, to, mssg) */\n      tag_102\n        /* \"contracts/1_Twitter.sol\":2138:2142  user */\n      dup4\n        /* \"contracts/1_Twitter.sol\":2144:2146  to */\n      dup4\n        /* \"contracts/1_Twitter.sol\":2148:2152  mssg */\n      dup4\n        /* \"contracts/1_Twitter.sol\":2125:2137  _sendMessage */\n      tag_103\n        /* \"contracts/1_Twitter.sol\":2125:2153  _sendMessage(user, to, mssg) */\n      jump\t// in\n    tag_102:\n        /* \"contracts/1_Twitter.sol\":1943:2160  function sendMessage(... */\n      pop\n      pop\n      pop\n      jump\t// out\n        /* \"contracts/1_Twitter.sol\":2762:2923  function allowAccess(address operator) public {... */\n    tag_37:\n        /* \"contracts/1_Twitter.sol\":2840:2845  owner */\n      0x07\n      0x00\n      swap1\n      sload\n      swap1\n      0x0100\n      exp\n      swap1\n      div\n      0xffffffffffffffffffffffffffffffffffffffff\n      and\n        /* \"contracts/1_Twitter.sol\":2826:2845  msg.sender == owner */\n      0xffffffffffffffffffffffffffffffffffffffff\n      and\n        /* \"contracts/1_Twitter.sol\":2826:2836  msg.sender */\n      caller\n        /* \"contracts/1_Twitter.sol\":2826:2845  msg.sender == owner */\n      0xffffffffffffffffffffffffffffffffffffffff\n      and\n      eq\n        /* \"contracts/1_Twitter.sol\":2818:2868  require(msg.sender == owner, \"Access not allowed\") */\n      tag_105\n      jumpi\n      mload(0x40)\n      0x08c379a000000000000000000000000000000000000000000000000000000000\n      dup2\n      mstore\n      0x04\n      add\n      tag_106\n      swap1\n      tag_57\n      jump\t// in\n    tag_106:\n      mload(0x40)\n      dup1\n      swap2\n      sub\n      swap1\n      revert\n    tag_105:\n        /* \"contracts/1_Twitter.sol\":2912:2916  true */\n      0x01\n        /* \"contracts/1_Twitter.sol\":2878:2887  operators */\n      0x03\n        /* \"contracts/1_Twitter.sol\":2878:2899  operators[msg.sender] */\n      0x00\n        /* \"contracts/1_Twitter.sol\":2888:2898  msg.sender */\n      caller\n        /* \"contracts/1_Twitter.sol\":2878:2899  operators[msg.sender] */\n      0xffffffffffffffffffffffffffffffffffffffff\n      and\n      0xffffffffffffffffffffffffffffffffffffffff\n      and\n      dup2\n      mstore\n      0x20\n      add\n      swap1\n      dup2\n      mstore\n      0x20\n      add\n      0x00\n      keccak256\n        /* \"contracts/1_Twitter.sol\":2878:2909  operators[msg.sender][operator] */\n      0x00\n        /* \"contracts/1_Twitter.sol\":2900:2908  operator */\n      dup4\n        /* \"contracts/1_Twitter.sol\":2878:2909  operators[msg.sender][operator] */\n      0xffffffffffffffffffffffffffffffffffffffff\n      and\n      0xffffffffffffffffffffffffffffffffffffffff\n      and\n      dup2\n      mstore\n      0x20\n      add\n      swap1\n      dup2\n      mstore\n      0x20\n      add\n      0x00\n      keccak256\n      0x00\n        /* \"contracts/1_Twitter.sol\":2878:2916  operators[msg.sender][operator] = true */\n      0x0100\n      exp\n      dup2\n      sload\n      dup2\n      0xff\n      mul\n      not\n      and\n      swap1\n      dup4\n      iszero\n      iszero\n      mul\n      or\n      swap1\n      sstore\n      pop\n        /* \"contracts/1_Twitter.sol\":2762:2923  function allowAccess(address operator) public {... */\n      pop\n      jump\t// out\n        /* \"contracts/1_Twitter.sol\":4230:4960  function getLatestTweetsOfUser(address user, uint256 count)... */\n    tag_41:\n        /* \"contracts/1_Twitter.sol\":4335:4349  Tweet[] memory */\n      0x60\n        /* \"contracts/1_Twitter.sol\":4400:4405  owner */\n      0x07\n      0x00\n      swap1\n      sload\n      swap1\n      0x0100\n      exp\n      swap1\n      div\n      0xffffffffffffffffffffffffffffffffffffffff\n      and\n        /* \"contracts/1_Twitter.sol\":4386:4405  msg.sender == owner */\n      0xffffffffffffffffffffffffffffffffffffffff\n      and\n        /* \"contracts/1_Twitter.sol\":4386:4396  msg.sender */\n      caller\n        /* \"contracts/1_Twitter.sol\":4386:4405  msg.sender == owner */\n      0xffffffffffffffffffffffffffffffffffffffff\n      and\n      eq\n        /* \"contracts/1_Twitter.sol\":4386:4437  msg.sender == owner || operators[owner][msg.sender] */\n      dup1\n      tag_108\n      jumpi\n      pop\n        /* \"contracts/1_Twitter.sol\":4409:4418  operators */\n      0x03\n        /* \"contracts/1_Twitter.sol\":4409:4425  operators[owner] */\n      0x00\n        /* \"contracts/1_Twitter.sol\":4419:4424  owner */\n      0x07\n      0x00\n      swap1\n      sload\n      swap1\n      0x0100\n      exp\n      swap1\n      div\n      0xffffffffffffffffffffffffffffffffffffffff\n      and\n        /* \"contracts/1_Twitter.sol\":4409:4425  operators[owner] */\n      0xffffffffffffffffffffffffffffffffffffffff\n      and\n      0xffffffffffffffffffffffffffffffffffffffff\n      and\n      dup2\n      mstore\n      0x20\n      add\n      swap1\n      dup2\n      mstore\n      0x20\n      add\n      0x00\n      keccak256\n        /* \"contracts/1_Twitter.sol\":4409:4437  operators[owner][msg.sender] */\n      0x00\n        /* \"contracts/1_Twitter.sol\":4426:4436  msg.sender */\n      caller\n        /* \"contracts/1_Twitter.sol\":4409:4437  operators[owner][msg.sender] */\n      0xffffffffffffffffffffffffffffffffffffffff\n      and\n      0xffffffffffffffffffffffffffffffffffffffff\n      and\n      dup2\n      mstore\n      0x20\n      add\n      swap1\n      dup2\n      mstore\n      0x20\n      add\n      0x00\n      keccak256\n      0x00\n      swap1\n      sload\n      swap1\n      0x0100\n      exp\n      swap1\n      div\n      0xff\n      and\n        /* \"contracts/1_Twitter.sol\":4386:4437  msg.sender == owner || operators[owner][msg.sender] */\n    tag_108:\n        /* \"contracts/1_Twitter.sol\":4365:4481  require(... */\n      tag_109\n      jumpi\n      mload(0x40)\n      0x08c379a000000000000000000000000000000000000000000000000000000000\n      dup2\n      mstore\n      0x04\n      add\n      tag_110\n      swap1\n      tag_57\n      jump\t// in\n    tag_110:\n      mload(0x40)\n      dup1\n      swap2\n      sub\n      swap1\n      revert\n    tag_109:\n        /* \"contracts/1_Twitter.sol\":4507:4508  0 */\n      0x00\n        /* \"contracts/1_Twitter.sol\":4499:4504  count */\n      dup3\n        /* \"contracts/1_Twitter.sol\":4499:4508  count > 0 */\n      gt\n        /* \"contracts/1_Twitter.sol\":4499:4527  count > 0 && count <= nextId */\n      dup1\n      iszero\n      tag_111\n      jumpi\n      pop\n        /* \"contracts/1_Twitter.sol\":4521:4527  nextId */\n      sload(0x05)\n        /* \"contracts/1_Twitter.sol\":4512:4517  count */\n      dup3\n        /* \"contracts/1_Twitter.sol\":4512:4527  count <= nextId */\n      gt\n      iszero\n        /* \"contracts/1_Twitter.sol\":4499:4527  count > 0 && count <= nextId */\n    tag_111:\n        /* \"contracts/1_Twitter.sol\":4491:4550  require(count > 0 && count <= nextId, \"count out of bound\") */\n      tag_112\n      jumpi\n      mload(0x40)\n      0x08c379a000000000000000000000000000000000000000000000000000000000\n      dup2\n      mstore\n      0x04\n      add\n      tag_113\n      swap1\n      tag_67\n      jump\t// in\n    tag_113:\n      mload(0x40)\n      dup1\n      swap2\n      sub\n      swap1\n      revert\n    tag_112:\n        /* \"contracts/1_Twitter.sol\":4592:4593  0 */\n      0x00\n        /* \"contracts/1_Twitter.sol\":4568:4576  tweetsOf */\n      0x01\n        /* \"contracts/1_Twitter.sol\":4568:4582  tweetsOf[user] */\n      0x00\n        /* \"contracts/1_Twitter.sol\":4577:4581  user */\n      dup6\n        /* \"contracts/1_Twitter.sol\":4568:4582  tweetsOf[user] */\n      0xffffffffffffffffffffffffffffffffffffffff\n      and\n      0xffffffffffffffffffffffffffffffffffffffff\n      and\n      dup2\n      mstore\n      0x20\n      add\n      swap1\n      dup2\n      mstore\n      0x20\n      add\n      0x00\n      keccak256\n        /* \"contracts/1_Twitter.sol\":4568:4589  tweetsOf[user].length */\n      dup1\n      sload\n      swap1\n      pop\n        /* \"contracts/1_Twitter.sol\":4568:4593  tweetsOf[user].length > 0 */\n      gt\n        /* \"contracts/1_Twitter.sol\":4560:4607  require(tweetsOf[user].length > 0, \"no tweets\") */\n      tag_114\n      jumpi\n      mload(0x40)\n      0x08c379a000000000000000000000000000000000000000000000000000000000\n      dup2\n      mstore\n      0x04\n      add\n      tag_115\n      swap1\n      tag_116\n      jump\t// in\n    tag_115:\n      mload(0x40)\n      dup1\n      swap2\n      sub\n      swap1\n      revert\n    tag_114:\n        /* \"contracts/1_Twitter.sol\":4617:4642  Tweet[] memory userTweets */\n      0x00\n        /* \"contracts/1_Twitter.sol\":4657:4662  count */\n      dup3\n        /* \"contracts/1_Twitter.sol\":4645:4663  new Tweet[](count) */\n      0xffffffffffffffff\n      dup2\n      gt\n      iszero\n      tag_117\n      jumpi\n      tag_118\n      tag_70\n      jump\t// in\n    tag_118:\n    tag_117:\n      mload(0x40)\n      swap1\n      dup1\n      dup3\n      mstore\n      dup1\n      0x20\n      mul\n      0x20\n      add\n      dup3\n      add\n      0x40\n      mstore\n      dup1\n      iszero\n      tag_119\n      jumpi\n      dup2\n      0x20\n      add\n    tag_120:\n      tag_121\n      tag_74\n      jump\t// in\n    tag_121:\n      dup2\n      mstore\n      0x20\n      add\n      swap1\n      0x01\n      swap1\n      sub\n      swap1\n      dup2\n      tag_120\n      jumpi\n      swap1\n      pop\n    tag_119:\n      pop\n        /* \"contracts/1_Twitter.sol\":4617:4663  Tweet[] memory userTweets = new Tweet[](count) */\n      swap1\n      pop\n        /* \"contracts/1_Twitter.sol\":4750:4773  uint256 userTweetsIndex */\n      0x00\n        /* \"contracts/1_Twitter.sol\":4800:4801  1 */\n      0x01\n        /* \"contracts/1_Twitter.sol\":4776:4784  tweetsOf */\n      dup1\n        /* \"contracts/1_Twitter.sol\":4776:4790  tweetsOf[user] */\n      0x00\n        /* \"contracts/1_Twitter.sol\":4785:4789  user */\n      dup8\n        /* \"contracts/1_Twitter.sol\":4776:4790  tweetsOf[user] */\n      0xffffffffffffffffffffffffffffffffffffffff\n      and\n      0xffffffffffffffffffffffffffffffffffffffff\n      and\n      dup2\n      mstore\n      0x20\n      add\n      swap1\n      dup2\n      mstore\n      0x20\n      add\n      0x00\n      keccak256\n        /* \"contracts/1_Twitter.sol\":4776:4797  tweetsOf[user].length */\n      dup1\n      sload\n      swap1\n      pop\n        /* \"contracts/1_Twitter.sol\":4776:4801  tweetsOf[user].length - 1 */\n      tag_122\n      swap2\n      swap1\n      tag_79\n      jump\t// in\n    tag_122:\n        /* \"contracts/1_Twitter.sol\":4750:4801  uint256 userTweetsIndex = tweetsOf[user].length - 1 */\n      swap1\n      pop\n        /* \"contracts/1_Twitter.sol\":4816:4825  uint256 i */\n      0x00\n        /* \"contracts/1_Twitter.sol\":4811:4927  for (uint256 i; i < count; i++) {... */\n    tag_123:\n        /* \"contracts/1_Twitter.sol\":4831:4836  count */\n      dup5\n        /* \"contracts/1_Twitter.sol\":4827:4828  i */\n      dup2\n        /* \"contracts/1_Twitter.sol\":4827:4836  i < count */\n      lt\n        /* \"contracts/1_Twitter.sol\":4811:4927  for (uint256 i; i < count; i++) {... */\n      iszero\n      tag_124\n      jumpi\n        /* \"contracts/1_Twitter.sol\":4873:4879  tweets */\n      0x00\n        /* \"contracts/1_Twitter.sol\":4873:4916  tweets[tweetsOf[user][userTweetsIndex - i]] */\n      dup1\n        /* \"contracts/1_Twitter.sol\":4880:4888  tweetsOf */\n      0x01\n        /* \"contracts/1_Twitter.sol\":4880:4894  tweetsOf[user] */\n      0x00\n        /* \"contracts/1_Twitter.sol\":4889:4893  user */\n      dup10\n        /* \"contracts/1_Twitter.sol\":4880:4894  tweetsOf[user] */\n      0xffffffffffffffffffffffffffffffffffffffff\n      and\n      0xffffffffffffffffffffffffffffffffffffffff\n      and\n      dup2\n      mstore\n      0x20\n      add\n      swap1\n      dup2\n      mstore\n      0x20\n      add\n      0x00\n      keccak256\n        /* \"contracts/1_Twitter.sol\":4913:4914  i */\n      dup4\n        /* \"contracts/1_Twitter.sol\":4895:4910  userTweetsIndex */\n      dup6\n        /* \"contracts/1_Twitter.sol\":4895:4914  userTweetsIndex - i */\n      tag_126\n      swap2\n      swap1\n      tag_79\n      jump\t// in\n    tag_126:\n        /* \"contracts/1_Twitter.sol\":4880:4915  tweetsOf[user][userTweetsIndex - i] */\n      dup2\n      sload\n      dup2\n      lt\n      tag_127\n      jumpi\n      tag_128\n      tag_89\n      jump\t// in\n    tag_128:\n    tag_127:\n      swap1\n      0x00\n      mstore\n      keccak256(0x00, 0x20)\n      add\n      sload\n        /* \"contracts/1_Twitter.sol\":4873:4916  tweets[tweetsOf[user][userTweetsIndex - i]] */\n      dup2\n      mstore\n      0x20\n      add\n      swap1\n      dup2\n      mstore\n      0x20\n      add\n      0x00\n      keccak256\n        /* \"contracts/1_Twitter.sol\":4857:4916  userTweets[i] = tweets[tweetsOf[user][userTweetsIndex - i]] */\n      mload(0x40)\n      dup1\n      0x80\n      add\n      0x40\n      mstore\n      swap1\n      dup2\n      0x00\n      dup3\n      add\n      sload\n      dup2\n      mstore\n      0x20\n      add\n      0x01\n      dup3\n      add\n      0x00\n      swap1\n      sload\n      swap1\n      0x0100\n      exp\n      swap1\n      div\n      0xffffffffffffffffffffffffffffffffffffffff\n      and\n      0xffffffffffffffffffffffffffffffffffffffff\n      and\n      0xffffffffffffffffffffffffffffffffffffffff\n      and\n      dup2\n      mstore\n      0x20\n      add\n      0x02\n      dup3\n      add\n      dup1\n      sload\n      tag_130\n      swap1\n      tag_82\n      jump\t// in\n    tag_130:\n      dup1\n      0x1f\n      add\n      0x20\n      dup1\n      swap2\n      div\n      mul\n      0x20\n      add\n      mload(0x40)\n      swap1\n      dup2\n      add\n      0x40\n      mstore\n      dup1\n      swap3\n      swap2\n      swap1\n      dup2\n      dup2\n      mstore\n      0x20\n      add\n      dup3\n      dup1\n      sload\n      tag_131\n      swap1\n      tag_82\n      jump\t// in\n    tag_131:\n      dup1\n      iszero\n      tag_132\n      jumpi\n      dup1\n      0x1f\n      lt\n      tag_133\n      jumpi\n      0x0100\n      dup1\n      dup4\n      sload\n      div\n      mul\n      dup4\n      mstore\n      swap2\n      0x20\n      add\n      swap2\n      jump(tag_132)\n    tag_133:\n      dup3\n      add\n      swap2\n      swap1\n      0x00\n      mstore\n      keccak256(0x00, 0x20)\n      swap1\n    tag_134:\n      dup2\n      sload\n      dup2\n      mstore\n      swap1\n      0x01\n      add\n      swap1\n      0x20\n      add\n      dup1\n      dup4\n      gt\n      tag_134\n      jumpi\n      dup3\n      swap1\n      sub\n      0x1f\n      and\n      dup3\n      add\n      swap2\n    tag_132:\n      pop\n      pop\n      pop\n      pop\n      pop\n      dup2\n      mstore\n      0x20\n      add\n      0x03\n      dup3\n      add\n      sload\n      dup2\n      mstore\n      pop\n      pop\n        /* \"contracts/1_Twitter.sol\":4857:4867  userTweets */\n      dup4\n        /* \"contracts/1_Twitter.sol\":4868:4869  i */\n      dup3\n        /* \"contracts/1_Twitter.sol\":4857:4870  userTweets[i] */\n      dup2\n      mload\n      dup2\n      lt\n      tag_135\n      jumpi\n      tag_136\n      tag_89\n      jump\t// in\n    tag_136:\n    tag_135:\n      0x20\n      mul\n      0x20\n      add\n      add\n        /* \"contracts/1_Twitter.sol\":4857:4916  userTweets[i] = tweets[tweetsOf[user][userTweetsIndex - i]] */\n      dup2\n      swap1\n      mstore\n      pop\n        /* \"contracts/1_Twitter.sol\":4838:4841  i++ */\n      dup1\n      dup1\n      tag_137\n      swap1\n      tag_91\n      jump\t// in\n    tag_137:\n      swap2\n      pop\n      pop\n        /* \"contracts/1_Twitter.sol\":4811:4927  for (uint256 i; i < count; i++) {... */\n      jump(tag_123)\n    tag_124:\n      pop\n        /* \"contracts/1_Twitter.sol\":4943:4953  userTweets */\n      dup2\n        /* \"contracts/1_Twitter.sol\":4936:4953  return userTweets */\n      swap3\n      pop\n      pop\n      pop\n        /* \"contracts/1_Twitter.sol\":4230:4960  function getLatestTweetsOfUser(address user, uint256 count)... */\n      swap3\n      swap2\n      pop\n      pop\n      jump\t// out\n        /* \"contracts/1_Twitter.sol\":1202:1367  function tweet(address user, string memory content) public {... */\n    tag_46:\n        /* \"contracts/1_Twitter.sol\":1279:1288  operators */\n      0x03\n        /* \"contracts/1_Twitter.sol\":1279:1294  operators[user] */\n      0x00\n        /* \"contracts/1_Twitter.sol\":1289:1293  user */\n      dup4\n        /* \"contracts/1_Twitter.sol\":1279:1294  operators[user] */\n      0xffffffffffffffffffffffffffffffffffffffff\n      and\n      0xffffffffffffffffffffffffffffffffffffffff\n      and\n      dup2\n      mstore\n      0x20\n      add\n      swap1\n      dup2\n      mstore\n      0x20\n      add\n      0x00\n      keccak256\n        /* \"contracts/1_Twitter.sol\":1279:1306  operators[user][msg.sender] */\n      0x00\n        /* \"contracts/1_Twitter.sol\":1295:1305  msg.sender */\n      caller\n        /* \"contracts/1_Twitter.sol\":1279:1306  operators[user][msg.sender] */\n      0xffffffffffffffffffffffffffffffffffffffff\n      and\n      0xffffffffffffffffffffffffffffffffffffffff\n      and\n      dup2\n      mstore\n      0x20\n      add\n      swap1\n      dup2\n      mstore\n      0x20\n      add\n      0x00\n      keccak256\n      0x00\n      swap1\n      sload\n      swap1\n      0x0100\n      exp\n      swap1\n      div\n      0xff\n      and\n        /* \"contracts/1_Twitter.sol\":1271:1329  require(operators[user][msg.sender], \"Access not allowed\") */\n      tag_139\n      jumpi\n      mload(0x40)\n      0x08c379a000000000000000000000000000000000000000000000000000000000\n      dup2\n      mstore\n      0x04\n      add\n      tag_140\n      swap1\n      tag_57\n      jump\t// in\n    tag_140:\n      mload(0x40)\n      dup1\n      swap2\n      sub\n      swap1\n      revert\n    tag_139:\n        /* \"contracts/1_Twitter.sol\":1339:1360  _tweet(user, content) */\n      tag_141\n        /* \"contracts/1_Twitter.sol\":1346:1350  user */\n      dup3\n        /* \"contracts/1_Twitter.sol\":1352:1359  content */\n      dup3\n        /* \"contracts/1_Twitter.sol\":1339:1345  _tweet */\n      tag_142\n        /* \"contracts/1_Twitter.sol\":1339:1360  _tweet(user, content) */\n      jump\t// in\n    tag_141:\n        /* \"contracts/1_Twitter.sol\":1202:1367  function tweet(address user, string memory content) public {... */\n      pop\n      pop\n      jump\t// out\n        /* \"contracts/1_Twitter.sol\":1696:1867  function sendMessage(address to, string memory mssg) public {... */\n    tag_49:\n        /* \"contracts/1_Twitter.sol\":1788:1793  owner */\n      0x07\n      0x00\n      swap1\n      sload\n      swap1\n      0x0100\n      exp\n      swap1\n      div\n      0xffffffffffffffffffffffffffffffffffffffff\n      and\n        /* \"contracts/1_Twitter.sol\":1774:1793  msg.sender == owner */\n      0xffffffffffffffffffffffffffffffffffffffff\n      and\n        /* \"contracts/1_Twitter.sol\":1774:1784  msg.sender */\n      caller\n        /* \"contracts/1_Twitter.sol\":1774:1793  msg.sender == owner */\n      0xffffffffffffffffffffffffffffffffffffffff\n      and\n      eq\n        /* \"contracts/1_Twitter.sol\":1766:1816  require(msg.sender == owner, \"Access not allowed\") */\n      tag_144\n      jumpi\n      mload(0x40)\n      0x08c379a000000000000000000000000000000000000000000000000000000000\n      dup2\n      mstore\n      0x04\n      add\n      tag_145\n      swap1\n      tag_57\n      jump\t// in\n    tag_145:\n      mload(0x40)\n      dup1\n      swap2\n      sub\n      swap1\n      revert\n    tag_144:\n        /* \"contracts/1_Twitter.sol\":1826:1860  _sendMessage(msg.sender, to, mssg) */\n      tag_146\n        /* \"contracts/1_Twitter.sol\":1839:1849  msg.sender */\n      caller\n        /* \"contracts/1_Twitter.sol\":1851:1853  to */\n      dup4\n        /* \"contracts/1_Twitter.sol\":1855:1859  mssg */\n      dup4\n        /* \"contracts/1_Twitter.sol\":1826:1838  _sendMessage */\n      tag_103\n        /* \"contracts/1_Twitter.sol\":1826:1860  _sendMessage(msg.sender, to, mssg) */\n      jump\t// in\n    tag_146:\n        /* \"contracts/1_Twitter.sol\":1696:1867  function sendMessage(address to, string memory mssg) public {... */\n      pop\n      pop\n      jump\t// out\n        /* \"contracts/1_Twitter.sol\":990:1139  function tweet(string memory content) public {... */\n    tag_53:\n        /* \"contracts/1_Twitter.sol\":1067:1072  owner */\n      0x07\n      0x00\n      swap1\n      sload\n      swap1\n      0x0100\n      exp\n      swap1\n      div\n      0xffffffffffffffffffffffffffffffffffffffff\n      and\n        /* \"contracts/1_Twitter.sol\":1053:1072  msg.sender == owner */\n      0xffffffffffffffffffffffffffffffffffffffff\n      and\n        /* \"contracts/1_Twitter.sol\":1053:1063  msg.sender */\n      caller\n        /* \"contracts/1_Twitter.sol\":1053:1072  msg.sender == owner */\n      0xffffffffffffffffffffffffffffffffffffffff\n      and\n      eq\n        /* \"contracts/1_Twitter.sol\":1045:1095  require(msg.sender == owner, \"Access not allowed\") */\n      tag_148\n      jumpi\n      mload(0x40)\n      0x08c379a000000000000000000000000000000000000000000000000000000000\n      dup2\n      mstore\n      0x04\n      add\n      tag_149\n      swap1\n      tag_57\n      jump\t// in\n    tag_149:\n      mload(0x40)\n      dup1\n      swap2\n      sub\n      swap1\n      revert\n    tag_148:\n        /* \"contracts/1_Twitter.sol\":1105:1132  _tweet(msg.sender, content) */\n      tag_150\n        /* \"contracts/1_Twitter.sol\":1112:1122  msg.sender */\n      caller\n        /* \"contracts/1_Twitter.sol\":1124:1131  content */\n      dup3\n        /* \"contracts/1_Twitter.sol\":1105:1111  _tweet */\n      tag_142\n        /* \"contracts/1_Twitter.sol\":1105:1132  _tweet(msg.sender, content) */\n      jump\t// in\n    tag_150:\n        /* \"contracts/1_Twitter.sol\":990:1139  function tweet(string memory content) public {... */\n      pop\n      jump\t// out\n        /* \"contracts/1_Twitter.sol\":2166:2272  function _follow(address user, address followed) internal {... */\n    tag_59:\n        /* \"contracts/1_Twitter.sol\":2234:2244  followings */\n      0x04\n        /* \"contracts/1_Twitter.sol\":2234:2250  followings[user] */\n      0x00\n        /* \"contracts/1_Twitter.sol\":2245:2249  user */\n      dup4\n        /* \"contracts/1_Twitter.sol\":2234:2250  followings[user] */\n      0xffffffffffffffffffffffffffffffffffffffff\n      and\n      0xffffffffffffffffffffffffffffffffffffffff\n      and\n      dup2\n      mstore\n      0x20\n      add\n      swap1\n      dup2\n      mstore\n      0x20\n      add\n      0x00\n      keccak256\n        /* \"contracts/1_Twitter.sol\":2256:2264  followed */\n      dup2\n        /* \"contracts/1_Twitter.sol\":2234:2265  followings[user].push(followed) */\n      swap1\n      dup1\n      0x01\n      dup2\n      sload\n      add\n      dup1\n      dup3\n      sstore\n      dup1\n      swap2\n      pop\n      pop\n      0x01\n      swap1\n      sub\n      swap1\n      0x00\n      mstore\n      keccak256(0x00, 0x20)\n      add\n      0x00\n      swap1\n      swap2\n      swap1\n      swap2\n      swap1\n      swap2\n      0x0100\n      exp\n      dup2\n      sload\n      dup2\n      0xffffffffffffffffffffffffffffffffffffffff\n      mul\n      not\n      and\n      swap1\n      dup4\n      0xffffffffffffffffffffffffffffffffffffffff\n      and\n      mul\n      or\n      swap1\n      sstore\n      pop\n        /* \"contracts/1_Twitter.sol\":2166:2272  function _follow(address user, address followed) internal {... */\n      pop\n      pop\n      jump\t// out\n        /* \"contracts/1_Twitter.sol\":1373:1625  function _sendMessage(... */\n    tag_103:\n        /* \"contracts/1_Twitter.sol\":1490:1503  conversations */\n      0x02\n        /* \"contracts/1_Twitter.sol\":1490:1509  conversations[user] */\n      0x00\n        /* \"contracts/1_Twitter.sol\":1504:1508  user */\n      dup5\n        /* \"contracts/1_Twitter.sol\":1490:1509  conversations[user] */\n      0xffffffffffffffffffffffffffffffffffffffff\n      and\n      0xffffffffffffffffffffffffffffffffffffffff\n      and\n      dup2\n      mstore\n      0x20\n      add\n      swap1\n      dup2\n      mstore\n      0x20\n      add\n      0x00\n      keccak256\n        /* \"contracts/1_Twitter.sol\":1528:1583  Message(nextMessageId, user, to, mssg, block.timestamp) */\n      mload(0x40)\n      dup1\n      0xa0\n      add\n      0x40\n      mstore\n      dup1\n        /* \"contracts/1_Twitter.sol\":1536:1549  nextMessageId */\n      sload(0x06)\n        /* \"contracts/1_Twitter.sol\":1528:1583  Message(nextMessageId, user, to, mssg, block.timestamp) */\n      dup2\n      mstore\n      0x20\n      add\n        /* \"contracts/1_Twitter.sol\":1551:1555  user */\n      dup6\n        /* \"contracts/1_Twitter.sol\":1528:1583  Message(nextMessageId, user, to, mssg, block.timestamp) */\n      0xffffffffffffffffffffffffffffffffffffffff\n      and\n      dup2\n      mstore\n      0x20\n      add\n        /* \"contracts/1_Twitter.sol\":1557:1559  to */\n      dup5\n        /* \"contracts/1_Twitter.sol\":1528:1583  Message(nextMessageId, user, to, mssg, block.timestamp) */\n      0xffffffffffffffffffffffffffffffffffffffff\n      and\n      dup2\n      mstore\n      0x20\n      add\n        /* \"contracts/1_Twitter.sol\":1561:1565  mssg */\n      dup4\n        /* \"contracts/1_Twitter.sol\":1528:1583  Message(nextMessageId, user, to, mssg, block.timestamp) */\n      dup2\n      mstore\n      0x20\n      add\n        /* \"contracts/1_Twitter.sol\":1567:1582  block.timestamp */\n      timestamp\n        /* \"contracts/1_Twitter.sol\":1528:1583  Message(nextMessageId, user, to, mssg, block.timestamp) */\n      dup2\n      mstore\n      pop\n        /* \"contracts/1_Twitter.sol\":1490:1593  conversations[user].push(... */\n      swap1\n      dup1\n      0x01\n      dup2\n      sload\n      add\n      dup1\n      dup3\n      sstore\n      dup1\n      swap2\n      pop\n      pop\n      0x01\n      swap1\n      sub\n      swap1\n      0x00\n      mstore\n      keccak256(0x00, 0x20)\n      swap1\n      0x05\n      mul\n      add\n      0x00\n      swap1\n      swap2\n      swap1\n      swap2\n      swap1\n      swap2\n      pop\n      0x00\n      dup3\n      add\n      mload\n      dup2\n      0x00\n      add\n      sstore\n      0x20\n      dup3\n      add\n      mload\n      dup2\n      0x01\n      add\n      exp(0x0100, 0x00)\n      dup2\n      sload\n      dup2\n      0xffffffffffffffffffffffffffffffffffffffff\n      mul\n      not\n      and\n      swap1\n      dup4\n      0xffffffffffffffffffffffffffffffffffffffff\n      and\n      mul\n      or\n      swap1\n      sstore\n      pop\n      0x40\n      dup3\n      add\n      mload\n      dup2\n      0x02\n      add\n      exp(0x0100, 0x00)\n      dup2\n      sload\n      dup2\n      0xffffffffffffffffffffffffffffffffffffffff\n      mul\n      not\n      and\n      swap1\n      dup4\n      0xffffffffffffffffffffffffffffffffffffffff\n      and\n      mul\n      or\n      swap1\n      sstore\n      pop\n      0x60\n      dup3\n      add\n      mload\n      dup2\n      0x03\n      add\n      swap1\n      dup2\n      tag_155\n      swap2\n      swap1\n      tag_156\n      jump\t// in\n    tag_155:\n      pop\n      0x80\n      dup3\n      add\n      mload\n      dup2\n      0x04\n      add\n      sstore\n      pop\n      pop\n        /* \"contracts/1_Twitter.sol\":1603:1616  nextMessageId */\n      0x06\n      0x00\n        /* \"contracts/1_Twitter.sol\":1603:1618  nextMessageId++ */\n      dup2\n      sload\n      dup1\n      swap3\n      swap2\n      swap1\n      tag_157\n      swap1\n      tag_91\n      jump\t// in\n    tag_157:\n      swap2\n      swap1\n      pop\n      sstore\n      pop\n        /* \"contracts/1_Twitter.sol\":1373:1625  function _sendMessage(... */\n      pop\n      pop\n      pop\n      jump\t// out\n        /* \"contracts/1_Twitter.sol\":725:921  function _tweet(address user, string memory content) internal {... */\n    tag_142:\n        /* \"contracts/1_Twitter.sol\":814:859  Tweet(nextId, user, content, block.timestamp) */\n      mload(0x40)\n      dup1\n      0x80\n      add\n      0x40\n      mstore\n      dup1\n        /* \"contracts/1_Twitter.sol\":820:826  nextId */\n      sload(0x05)\n        /* \"contracts/1_Twitter.sol\":814:859  Tweet(nextId, user, content, block.timestamp) */\n      dup2\n      mstore\n      0x20\n      add\n        /* \"contracts/1_Twitter.sol\":828:832  user */\n      dup4\n        /* \"contracts/1_Twitter.sol\":814:859  Tweet(nextId, user, content, block.timestamp) */\n      0xffffffffffffffffffffffffffffffffffffffff\n      and\n      dup2\n      mstore\n      0x20\n      add\n        /* \"contracts/1_Twitter.sol\":834:841  content */\n      dup3\n        /* \"contracts/1_Twitter.sol\":814:859  Tweet(nextId, user, content, block.timestamp) */\n      dup2\n      mstore\n      0x20\n      add\n        /* \"contracts/1_Twitter.sol\":843:858  block.timestamp */\n      timestamp\n        /* \"contracts/1_Twitter.sol\":814:859  Tweet(nextId, user, content, block.timestamp) */\n      dup2\n      mstore\n      pop\n        /* \"contracts/1_Twitter.sol\":797:803  tweets */\n      0x00\n        /* \"contracts/1_Twitter.sol\":797:811  tweets[nextId] */\n      dup1\n        /* \"contracts/1_Twitter.sol\":804:810  nextId */\n      sload(0x05)\n        /* \"contracts/1_Twitter.sol\":797:811  tweets[nextId] */\n      dup2\n      mstore\n      0x20\n      add\n      swap1\n      dup2\n      mstore\n      0x20\n      add\n      0x00\n      keccak256\n        /* \"contracts/1_Twitter.sol\":797:859  tweets[nextId] = Tweet(nextId, user, content, block.timestamp) */\n      0x00\n      dup3\n      add\n      mload\n      dup2\n      0x00\n      add\n      sstore\n      0x20\n      dup3\n      add\n      mload\n      dup2\n      0x01\n      add\n      exp(0x0100, 0x00)\n      dup2\n      sload\n      dup2\n      0xffffffffffffffffffffffffffffffffffffffff\n      mul\n      not\n      and\n      swap1\n      dup4\n      0xffffffffffffffffffffffffffffffffffffffff\n      and\n      mul\n      or\n      swap1\n      sstore\n      pop\n      0x40\n      dup3\n      add\n      mload\n      dup2\n      0x02\n      add\n      swap1\n      dup2\n      tag_159\n      swap2\n      swap1\n      tag_156\n      jump\t// in\n    tag_159:\n      pop\n      0x60\n      dup3\n      add\n      mload\n      dup2\n      0x03\n      add\n      sstore\n      swap1\n      pop\n      pop\n        /* \"contracts/1_Twitter.sol\":869:877  tweetsOf */\n      0x01\n        /* \"contracts/1_Twitter.sol\":869:883  tweetsOf[user] */\n      0x00\n        /* \"contracts/1_Twitter.sol\":878:882  user */\n      dup4\n        /* \"contracts/1_Twitter.sol\":869:883  tweetsOf[user] */\n      0xffffffffffffffffffffffffffffffffffffffff\n      and\n      0xffffffffffffffffffffffffffffffffffffffff\n      and\n      dup2\n      mstore\n      0x20\n      add\n      swap1\n      dup2\n      mstore\n      0x20\n      add\n      0x00\n      keccak256\n        /* \"contracts/1_Twitter.sol\":889:895  nextId */\n      sload(0x05)\n        /* \"contracts/1_Twitter.sol\":869:896  tweetsOf[user].push(nextId) */\n      swap1\n      dup1\n      0x01\n      dup2\n      sload\n      add\n      dup1\n      dup3\n      sstore\n      dup1\n      swap2\n      pop\n      pop\n      0x01\n      swap1\n      sub\n      swap1\n      0x00\n      mstore\n      keccak256(0x00, 0x20)\n      add\n      0x00\n      swap1\n      swap2\n      swap1\n      swap2\n      swap1\n      swap2\n      pop\n      sstore\n        /* \"contracts/1_Twitter.sol\":906:912  nextId */\n      0x05\n      0x00\n        /* \"contracts/1_Twitter.sol\":906:914  nextId++ */\n      dup2\n      sload\n      dup1\n      swap3\n      swap2\n      swap1\n      tag_161\n      swap1\n      tag_91\n      jump\t// in\n    tag_161:\n      swap2\n      swap1\n      pop\n      sstore\n      pop\n        /* \"contracts/1_Twitter.sol\":725:921  function _tweet(address user, string memory content) internal {... */\n      pop\n      pop\n      jump\t// out\n    tag_74:\n      mload(0x40)\n      dup1\n      0x80\n      add\n      0x40\n      mstore\n      dup1\n      0x00\n      dup2\n      mstore\n      0x20\n      add\n      and(0xffffffffffffffffffffffffffffffffffffffff, 0x00)\n      dup2\n      mstore\n      0x20\n      add\n      0x60\n      dup2\n      mstore\n      0x20\n      add\n      0x00\n      dup2\n      mstore\n      pop\n      swap1\n      jump\t// out\n        /* \"#utility.yul\":7:82   */\n    tag_162:\n        /* \"#utility.yul\":40:46   */\n      0x00\n        /* \"#utility.yul\":73:75   */\n      0x40\n        /* \"#utility.yul\":67:76   */\n      mload\n        /* \"#utility.yul\":57:76   */\n      swap1\n      pop\n        /* \"#utility.yul\":7:82   */\n      swap1\n      jump\t// out\n        /* \"#utility.yul\":88:205   */\n    tag_163:\n        /* \"#utility.yul\":197:198   */\n      0x00\n        /* \"#utility.yul\":194:195   */\n      dup1\n        /* \"#utility.yul\":187:199   */\n      revert\n        /* \"#utility.yul\":211:328   */\n    tag_164:\n        /* \"#utility.yul\":320:321   */\n      0x00\n        /* \"#utility.yul\":317:318   */\n      dup1\n        /* \"#utility.yul\":310:322   */\n      revert\n        /* \"#utility.yul\":334:460   */\n    tag_165:\n        /* \"#utility.yul\":371:378   */\n      0x00\n        /* \"#utility.yul\":411:453   */\n      0xffffffffffffffffffffffffffffffffffffffff\n        /* \"#utility.yul\":404:409   */\n      dup3\n        /* \"#utility.yul\":400:454   */\n      and\n        /* \"#utility.yul\":389:454   */\n      swap1\n      pop\n        /* \"#utility.yul\":334:460   */\n      swap2\n      swap1\n      pop\n      jump\t// out\n        /* \"#utility.yul\":466:562   */\n    tag_166:\n        /* \"#utility.yul\":503:510   */\n      0x00\n        /* \"#utility.yul\":532:556   */\n      tag_224\n        /* \"#utility.yul\":550:555   */\n      dup3\n        /* \"#utility.yul\":532:556   */\n      tag_165\n      jump\t// in\n    tag_224:\n        /* \"#utility.yul\":521:556   */\n      swap1\n      pop\n        /* \"#utility.yul\":466:562   */\n      swap2\n      swap1\n      pop\n      jump\t// out\n        /* \"#utility.yul\":568:690   */\n    tag_167:\n        /* \"#utility.yul\":641:665   */\n      tag_226\n        /* \"#utility.yul\":659:664   */\n      dup2\n        /* \"#utility.yul\":641:665   */\n      tag_166\n      jump\t// in\n    tag_226:\n        /* \"#utility.yul\":634:639   */\n      dup2\n        /* \"#utility.yul\":631:666   */\n      eq\n        /* \"#utility.yul\":621:684   */\n      tag_227\n      jumpi\n        /* \"#utility.yul\":680:681   */\n      0x00\n        /* \"#utility.yul\":677:678   */\n      dup1\n        /* \"#utility.yul\":670:682   */\n      revert\n        /* \"#utility.yul\":621:684   */\n    tag_227:\n        /* \"#utility.yul\":568:690   */\n      pop\n      jump\t// out\n        /* \"#utility.yul\":696:835   */\n    tag_168:\n        /* \"#utility.yul\":742:747   */\n      0x00\n        /* \"#utility.yul\":780:786   */\n      dup2\n        /* \"#utility.yul\":767:787   */\n      calldataload\n        /* \"#utility.yul\":758:787   */\n      swap1\n      pop\n        /* \"#utility.yul\":796:829   */\n      tag_229\n        /* \"#utility.yul\":823:828   */\n      dup2\n        /* \"#utility.yul\":796:829   */\n      tag_167\n      jump\t// in\n    tag_229:\n        /* \"#utility.yul\":696:835   */\n      swap3\n      swap2\n      pop\n      pop\n      jump\t// out\n        /* \"#utility.yul\":841:1170   */\n    tag_16:\n        /* \"#utility.yul\":900:906   */\n      0x00\n        /* \"#utility.yul\":949:951   */\n      0x20\n        /* \"#utility.yul\":937:946   */\n      dup3\n        /* \"#utility.yul\":928:935   */\n      dup5\n        /* \"#utility.yul\":924:947   */\n      sub\n        /* \"#utility.yul\":920:952   */\n      slt\n        /* \"#utility.yul\":917:1036   */\n      iszero\n      tag_231\n      jumpi\n        /* \"#utility.yul\":955:1034   */\n      tag_232\n      tag_163\n      jump\t// in\n    tag_232:\n        /* \"#utility.yul\":917:1036   */\n    tag_231:\n        /* \"#utility.yul\":1075:1076   */\n      0x00\n        /* \"#utility.yul\":1100:1153   */\n      tag_233\n        /* \"#utility.yul\":1145:1152   */\n      dup5\n        /* \"#utility.yul\":1136:1142   */\n      dup3\n        /* \"#utility.yul\":1125:1134   */\n      dup6\n        /* \"#utility.yul\":1121:1143   */\n      add\n        /* \"#utility.yul\":1100:1153   */\n      tag_168\n      jump\t// in\n    tag_233:\n        /* \"#utility.yul\":1090:1153   */\n      swap2\n      pop\n        /* \"#utility.yul\":1046:1163   */\n      pop\n        /* \"#utility.yul\":841:1170   */\n      swap3\n      swap2\n      pop\n      pop\n      jump\t// out\n        /* \"#utility.yul\":1176:1253   */\n    tag_169:\n        /* \"#utility.yul\":1213:1220   */\n      0x00\n        /* \"#utility.yul\":1242:1247   */\n      dup2\n        /* \"#utility.yul\":1231:1247   */\n      swap1\n      pop\n        /* \"#utility.yul\":1176:1253   */\n      swap2\n      swap1\n      pop\n      jump\t// out\n        /* \"#utility.yul\":1259:1381   */\n    tag_170:\n        /* \"#utility.yul\":1332:1356   */\n      tag_236\n        /* \"#utility.yul\":1350:1355   */\n      dup2\n        /* \"#utility.yul\":1332:1356   */\n      tag_169\n      jump\t// in\n    tag_236:\n        /* \"#utility.yul\":1325:1330   */\n      dup2\n        /* \"#utility.yul\":1322:1357   */\n      eq\n        /* \"#utility.yul\":1312:1375   */\n      tag_237\n      jumpi\n        /* \"#utility.yul\":1371:1372   */\n      0x00\n        /* \"#utility.yul\":1368:1369   */\n      dup1\n        /* \"#utility.yul\":1361:1373   */\n      revert\n        /* \"#utility.yul\":1312:1375   */\n    tag_237:\n        /* \"#utility.yul\":1259:1381   */\n      pop\n      jump\t// out\n        /* \"#utility.yul\":1387:1526   */\n    tag_171:\n        /* \"#utility.yul\":1433:1438   */\n      0x00\n        /* \"#utility.yul\":1471:1477   */\n      dup2\n        /* \"#utility.yul\":1458:1478   */\n      calldataload\n        /* \"#utility.yul\":1449:1478   */\n      swap1\n      pop\n        /* \"#utility.yul\":1487:1520   */\n      tag_239\n        /* \"#utility.yul\":1514:1519   */\n      dup2\n        /* \"#utility.yul\":1487:1520   */\n      tag_170\n      jump\t// in\n    tag_239:\n        /* \"#utility.yul\":1387:1526   */\n      swap3\n      swap2\n      pop\n      pop\n      jump\t// out\n        /* \"#utility.yul\":1532:1861   */\n    tag_20:\n        /* \"#utility.yul\":1591:1597   */\n      0x00\n        /* \"#utility.yul\":1640:1642   */\n      0x20\n        /* \"#utility.yul\":1628:1637   */\n      dup3\n        /* \"#utility.yul\":1619:1626   */\n      dup5\n        /* \"#utility.yul\":1615:1638   */\n      sub\n        /* \"#utility.yul\":1611:1643   */\n      slt\n        /* \"#utility.yul\":1608:1727   */\n      iszero\n      tag_241\n      jumpi\n        /* \"#utility.yul\":1646:1725   */\n      tag_242\n      tag_163\n      jump\t// in\n    tag_242:\n        /* \"#utility.yul\":1608:1727   */\n    tag_241:\n        /* \"#utility.yul\":1766:1767   */\n      0x00\n        /* \"#utility.yul\":1791:1844   */\n      tag_243\n        /* \"#utility.yul\":1836:1843   */\n      dup5\n        /* \"#utility.yul\":1827:1833   */\n      dup3\n        /* \"#utility.yul\":1816:1825   */\n      dup6\n        /* \"#utility.yul\":1812:1834   */\n      add\n        /* \"#utility.yul\":1791:1844   */\n      tag_171\n      jump\t// in\n    tag_243:\n        /* \"#utility.yul\":1781:1844   */\n      swap2\n      pop\n        /* \"#utility.yul\":1737:1854   */\n      pop\n        /* \"#utility.yul\":1532:1861   */\n      swap3\n      swap2\n      pop\n      pop\n      jump\t// out\n        /* \"#utility.yul\":1867:2002   */\n    tag_172:\n        /* \"#utility.yul\":1955:1961   */\n      0x00\n        /* \"#utility.yul\":1989:1994   */\n      dup2\n        /* \"#utility.yul\":1983:1995   */\n      mload\n        /* \"#utility.yul\":1973:1995   */\n      swap1\n      pop\n        /* \"#utility.yul\":1867:2002   */\n      swap2\n      swap1\n      pop\n      jump\t// out\n        /* \"#utility.yul\":2008:2213   */\n    tag_173:\n        /* \"#utility.yul\":2128:2139   */\n      0x00\n        /* \"#utility.yul\":2162:2168   */\n      dup3\n        /* \"#utility.yul\":2157:2160   */\n      dup3\n        /* \"#utility.yul\":2150:2169   */\n      mstore\n        /* \"#utility.yul\":2202:2206   */\n      0x20\n        /* \"#utility.yul\":2197:2200   */\n      dup3\n        /* \"#utility.yul\":2193:2207   */\n      add\n        /* \"#utility.yul\":2178:2207   */\n      swap1\n      pop\n        /* \"#utility.yul\":2008:2213   */\n      swap3\n      swap2\n      pop\n      pop\n      jump\t// out\n        /* \"#utility.yul\":2219:2372   */\n    tag_174:\n        /* \"#utility.yul\":2307:2311   */\n      0x00\n        /* \"#utility.yul\":2330:2333   */\n      dup2\n        /* \"#utility.yul\":2322:2333   */\n      swap1\n      pop\n        /* \"#utility.yul\":2360:2364   */\n      0x20\n        /* \"#utility.yul\":2355:2358   */\n      dup3\n        /* \"#utility.yul\":2351:2365   */\n      add\n        /* \"#utility.yul\":2343:2365   */\n      swap1\n      pop\n        /* \"#utility.yul\":2219:2372   */\n      swap2\n      swap1\n      pop\n      jump\t// out\n        /* \"#utility.yul\":2378:2486   */\n    tag_175:\n        /* \"#utility.yul\":2455:2479   */\n      tag_248\n        /* \"#utility.yul\":2473:2478   */\n      dup2\n        /* \"#utility.yul\":2455:2479   */\n      tag_169\n      jump\t// in\n    tag_248:\n        /* \"#utility.yul\":2450:2453   */\n      dup3\n        /* \"#utility.yul\":2443:2480   */\n      mstore\n        /* \"#utility.yul\":2378:2486   */\n      pop\n      pop\n      jump\t// out\n        /* \"#utility.yul\":2492:2600   */\n    tag_176:\n        /* \"#utility.yul\":2569:2593   */\n      tag_250\n        /* \"#utility.yul\":2587:2592   */\n      dup2\n        /* \"#utility.yul\":2569:2593   */\n      tag_166\n      jump\t// in\n    tag_250:\n        /* \"#utility.yul\":2564:2567   */\n      dup3\n        /* \"#utility.yul\":2557:2594   */\n      mstore\n        /* \"#utility.yul\":2492:2600   */\n      pop\n      pop\n      jump\t// out\n        /* \"#utility.yul\":2606:2705   */\n    tag_177:\n        /* \"#utility.yul\":2658:2664   */\n      0x00\n        /* \"#utility.yul\":2692:2697   */\n      dup2\n        /* \"#utility.yul\":2686:2698   */\n      mload\n        /* \"#utility.yul\":2676:2698   */\n      swap1\n      pop\n        /* \"#utility.yul\":2606:2705   */\n      swap2\n      swap1\n      pop\n      jump\t// out\n        /* \"#utility.yul\":2711:2870   */\n    tag_178:\n        /* \"#utility.yul\":2785:2796   */\n      0x00\n        /* \"#utility.yul\":2819:2825   */\n      dup3\n        /* \"#utility.yul\":2814:2817   */\n      dup3\n        /* \"#utility.yul\":2807:2826   */\n      mstore\n        /* \"#utility.yul\":2859:2863   */\n      0x20\n        /* \"#utility.yul\":2854:2857   */\n      dup3\n        /* \"#utility.yul\":2850:2864   */\n      add\n        /* \"#utility.yul\":2835:2864   */\n      swap1\n      pop\n        /* \"#utility.yul\":2711:2870   */\n      swap3\n      swap2\n      pop\n      pop\n      jump\t// out\n        /* \"#utility.yul\":2876:3122   */\n    tag_179:\n        /* \"#utility.yul\":2957:2958   */\n      0x00\n        /* \"#utility.yul\":2967:3080   */\n    tag_254:\n        /* \"#utility.yul\":2981:2987   */\n      dup4\n        /* \"#utility.yul\":2978:2979   */\n      dup2\n        /* \"#utility.yul\":2975:2988   */\n      lt\n        /* \"#utility.yul\":2967:3080   */\n      iszero\n      tag_256\n      jumpi\n        /* \"#utility.yul\":3066:3067   */\n      dup1\n        /* \"#utility.yul\":3061:3064   */\n      dup3\n        /* \"#utility.yul\":3057:3068   */\n      add\n        /* \"#utility.yul\":3051:3069   */\n      mload\n        /* \"#utility.yul\":3047:3048   */\n      dup2\n        /* \"#utility.yul\":3042:3045   */\n      dup5\n        /* \"#utility.yul\":3038:3049   */\n      add\n        /* \"#utility.yul\":3031:3070   */\n      mstore\n        /* \"#utility.yul\":3003:3005   */\n      0x20\n        /* \"#utility.yul\":3000:3001   */\n      dup2\n        /* \"#utility.yul\":2996:3006   */\n      add\n        /* \"#utility.yul\":2991:3006   */\n      swap1\n      pop\n        /* \"#utility.yul\":2967:3080   */\n      jump(tag_254)\n    tag_256:\n        /* \"#utility.yul\":3114:3115   */\n      0x00\n        /* \"#utility.yul\":3105:3111   */\n      dup5\n        /* \"#utility.yul\":3100:3103   */\n      dup5\n        /* \"#utility.yul\":3096:3112   */\n      add\n        /* \"#utility.yul\":3089:3116   */\n      mstore\n        /* \"#utility.yul\":2938:3122   */\n      pop\n        /* \"#utility.yul\":2876:3122   */\n      pop\n      pop\n      pop\n      jump\t// out\n        /* \"#utility.yul\":3128:3230   */\n    tag_180:\n        /* \"#utility.yul\":3169:3175   */\n      0x00\n        /* \"#utility.yul\":3220:3222   */\n      0x1f\n        /* \"#utility.yul\":3216:3223   */\n      not\n        /* \"#utility.yul\":3211:3213   */\n      0x1f\n        /* \"#utility.yul\":3204:3209   */\n      dup4\n        /* \"#utility.yul\":3200:3214   */\n      add\n        /* \"#utility.yul\":3196:3224   */\n      and\n        /* \"#utility.yul\":3186:3224   */\n      swap1\n      pop\n        /* \"#utility.yul\":3128:3230   */\n      swap2\n      swap1\n      pop\n      jump\t// out\n        /* \"#utility.yul\":3236:3593   */\n    tag_181:\n        /* \"#utility.yul\":3314:3317   */\n      0x00\n        /* \"#utility.yul\":3342:3381   */\n      tag_259\n        /* \"#utility.yul\":3375:3380   */\n      dup3\n        /* \"#utility.yul\":3342:3381   */\n      tag_177\n      jump\t// in\n    tag_259:\n        /* \"#utility.yul\":3397:3458   */\n      tag_260\n        /* \"#utility.yul\":3451:3457   */\n      dup2\n        /* \"#utility.yul\":3446:3449   */\n      dup6\n        /* \"#utility.yul\":3397:3458   */\n      tag_178\n      jump\t// in\n    tag_260:\n        /* \"#utility.yul\":3390:3458   */\n      swap4\n      pop\n        /* \"#utility.yul\":3467:3532   */\n      tag_261\n        /* \"#utility.yul\":3525:3531   */\n      dup2\n        /* \"#utility.yul\":3520:3523   */\n      dup6\n        /* \"#utility.yul\":3513:3517   */\n      0x20\n        /* \"#utility.yul\":3506:3511   */\n      dup7\n        /* \"#utility.yul\":3502:3518   */\n      add\n        /* \"#utility.yul\":3467:3532   */\n      tag_179\n      jump\t// in\n    tag_261:\n        /* \"#utility.yul\":3557:3586   */\n      tag_262\n        /* \"#utility.yul\":3579:3585   */\n      dup2\n        /* \"#utility.yul\":3557:3586   */\n      tag_180\n      jump\t// in\n    tag_262:\n        /* \"#utility.yul\":3552:3555   */\n      dup5\n        /* \"#utility.yul\":3548:3587   */\n      add\n        /* \"#utility.yul\":3541:3587   */\n      swap2\n      pop\n        /* \"#utility.yul\":3318:3593   */\n      pop\n        /* \"#utility.yul\":3236:3593   */\n      swap3\n      swap2\n      pop\n      pop\n      jump\t// out\n        /* \"#utility.yul\":3651:4595   */\n    tag_182:\n        /* \"#utility.yul\":3752:3755   */\n      0x00\n        /* \"#utility.yul\":3788:3792   */\n      0x80\n        /* \"#utility.yul\":3783:3786   */\n      dup4\n        /* \"#utility.yul\":3779:3793   */\n      add\n        /* \"#utility.yul\":3873:3877   */\n      0x00\n        /* \"#utility.yul\":3866:3871   */\n      dup4\n        /* \"#utility.yul\":3862:3878   */\n      add\n        /* \"#utility.yul\":3856:3879   */\n      mload\n        /* \"#utility.yul\":3892:3955   */\n      tag_264\n        /* \"#utility.yul\":3949:3953   */\n      0x00\n        /* \"#utility.yul\":3944:3947   */\n      dup7\n        /* \"#utility.yul\":3940:3954   */\n      add\n        /* \"#utility.yul\":3926:3938   */\n      dup3\n        /* \"#utility.yul\":3892:3955   */\n      tag_175\n      jump\t// in\n    tag_264:\n        /* \"#utility.yul\":3803:3965   */\n      pop\n        /* \"#utility.yul\":4049:4053   */\n      0x20\n        /* \"#utility.yul\":4042:4047   */\n      dup4\n        /* \"#utility.yul\":4038:4054   */\n      add\n        /* \"#utility.yul\":4032:4055   */\n      mload\n        /* \"#utility.yul\":4068:4131   */\n      tag_265\n        /* \"#utility.yul\":4125:4129   */\n      0x20\n        /* \"#utility.yul\":4120:4123   */\n      dup7\n        /* \"#utility.yul\":4116:4130   */\n      add\n        /* \"#utility.yul\":4102:4114   */\n      dup3\n        /* \"#utility.yul\":4068:4131   */\n      tag_176\n      jump\t// in\n    tag_265:\n        /* \"#utility.yul\":3975:4141   */\n      pop\n        /* \"#utility.yul\":4226:4230   */\n      0x40\n        /* \"#utility.yul\":4219:4224   */\n      dup4\n        /* \"#utility.yul\":4215:4231   */\n      add\n        /* \"#utility.yul\":4209:4232   */\n      mload\n        /* \"#utility.yul\":4279:4282   */\n      dup5\n        /* \"#utility.yul\":4273:4277   */\n      dup3\n        /* \"#utility.yul\":4269:4283   */\n      sub\n        /* \"#utility.yul\":4262:4266   */\n      0x40\n        /* \"#utility.yul\":4257:4260   */\n      dup7\n        /* \"#utility.yul\":4253:4267   */\n      add\n        /* \"#utility.yul\":4246:4284   */\n      mstore\n        /* \"#utility.yul\":4305:4378   */\n      tag_266\n        /* \"#utility.yul\":4373:4377   */\n      dup3\n        /* \"#utility.yul\":4359:4371   */\n      dup3\n        /* \"#utility.yul\":4305:4378   */\n      tag_181\n      jump\t// in\n    tag_266:\n        /* \"#utility.yul\":4297:4378   */\n      swap2\n      pop\n        /* \"#utility.yul\":4151:4389   */\n      pop\n        /* \"#utility.yul\":4476:4480   */\n      0x60\n        /* \"#utility.yul\":4469:4474   */\n      dup4\n        /* \"#utility.yul\":4465:4481   */\n      add\n        /* \"#utility.yul\":4459:4482   */\n      mload\n        /* \"#utility.yul\":4495:4558   */\n      tag_267\n        /* \"#utility.yul\":4552:4556   */\n      0x60\n        /* \"#utility.yul\":4547:4550   */\n      dup7\n        /* \"#utility.yul\":4543:4557   */\n      add\n        /* \"#utility.yul\":4529:4541   */\n      dup3\n        /* \"#utility.yul\":4495:4558   */\n      tag_175\n      jump\t// in\n    tag_267:\n        /* \"#utility.yul\":4399:4568   */\n      pop\n        /* \"#utility.yul\":4585:4589   */\n      dup1\n        /* \"#utility.yul\":4578:4589   */\n      swap2\n      pop\n        /* \"#utility.yul\":3757:4595   */\n      pop\n        /* \"#utility.yul\":3651:4595   */\n      swap3\n      swap2\n      pop\n      pop\n      jump\t// out\n        /* \"#utility.yul\":4601:4841   */\n    tag_183:\n        /* \"#utility.yul\":4712:4722   */\n      0x00\n        /* \"#utility.yul\":4747:4835   */\n      tag_269\n        /* \"#utility.yul\":4831:4834   */\n      dup4\n        /* \"#utility.yul\":4823:4829   */\n      dup4\n        /* \"#utility.yul\":4747:4835   */\n      tag_182\n      jump\t// in\n    tag_269:\n        /* \"#utility.yul\":4733:4835   */\n      swap1\n      pop\n        /* \"#utility.yul\":4601:4841   */\n      swap3\n      swap2\n      pop\n      pop\n      jump\t// out\n        /* \"#utility.yul\":4847:4981   */\n    tag_184:\n        /* \"#utility.yul\":4938:4942   */\n      0x00\n        /* \"#utility.yul\":4970:4974   */\n      0x20\n        /* \"#utility.yul\":4965:4968   */\n      dup3\n        /* \"#utility.yul\":4961:4975   */\n      add\n        /* \"#utility.yul\":4953:4975   */\n      swap1\n      pop\n        /* \"#utility.yul\":4847:4981   */\n      swap2\n      swap1\n      pop\n      jump\t// out\n        /* \"#utility.yul\":5043:6122   */\n    tag_185:\n        /* \"#utility.yul\":5204:5207   */\n      0x00\n        /* \"#utility.yul\":5233:5308   */\n      tag_272\n        /* \"#utility.yul\":5302:5307   */\n      dup3\n        /* \"#utility.yul\":5233:5308   */\n      tag_172\n      jump\t// in\n    tag_272:\n        /* \"#utility.yul\":5324:5431   */\n      tag_273\n        /* \"#utility.yul\":5424:5430   */\n      dup2\n        /* \"#utility.yul\":5419:5422   */\n      dup6\n        /* \"#utility.yul\":5324:5431   */\n      tag_173\n      jump\t// in\n    tag_273:\n        /* \"#utility.yul\":5317:5431   */\n      swap4\n      pop\n        /* \"#utility.yul\":5457:5460   */\n      dup4\n        /* \"#utility.yul\":5502:5506   */\n      0x20\n        /* \"#utility.yul\":5494:5500   */\n      dup3\n        /* \"#utility.yul\":5490:5507   */\n      mul\n        /* \"#utility.yul\":5485:5488   */\n      dup6\n        /* \"#utility.yul\":5481:5508   */\n      add\n        /* \"#utility.yul\":5532:5609   */\n      tag_274\n        /* \"#utility.yul\":5603:5608   */\n      dup6\n        /* \"#utility.yul\":5532:5609   */\n      tag_174\n      jump\t// in\n    tag_274:\n        /* \"#utility.yul\":5632:5639   */\n      dup1\n        /* \"#utility.yul\":5663:5664   */\n      0x00\n        /* \"#utility.yul\":5648:6077   */\n    tag_275:\n        /* \"#utility.yul\":5673:5679   */\n      dup6\n        /* \"#utility.yul\":5670:5671   */\n      dup2\n        /* \"#utility.yul\":5667:5680   */\n      lt\n        /* \"#utility.yul\":5648:6077   */\n      iszero\n      tag_277\n      jumpi\n        /* \"#utility.yul\":5744:5753   */\n      dup5\n        /* \"#utility.yul\":5738:5742   */\n      dup5\n        /* \"#utility.yul\":5734:5754   */\n      sub\n        /* \"#utility.yul\":5729:5732   */\n      dup10\n        /* \"#utility.yul\":5722:5755   */\n      mstore\n        /* \"#utility.yul\":5795:5801   */\n      dup2\n        /* \"#utility.yul\":5789:5802   */\n      mload\n        /* \"#utility.yul\":5823:5929   */\n      tag_278\n        /* \"#utility.yul\":5924:5928   */\n      dup6\n        /* \"#utility.yul\":5909:5922   */\n      dup3\n        /* \"#utility.yul\":5823:5929   */\n      tag_183\n      jump\t// in\n    tag_278:\n        /* \"#utility.yul\":5815:5929   */\n      swap5\n      pop\n        /* \"#utility.yul\":5952:6033   */\n      tag_279\n        /* \"#utility.yul\":6026:6032   */\n      dup4\n        /* \"#utility.yul\":5952:6033   */\n      tag_184\n      jump\t// in\n    tag_279:\n        /* \"#utility.yul\":5942:6033   */\n      swap3\n      pop\n        /* \"#utility.yul\":6062:6066   */\n      0x20\n        /* \"#utility.yul\":6057:6060   */\n      dup11\n        /* \"#utility.yul\":6053:6067   */\n      add\n        /* \"#utility.yul\":6046:6067   */\n      swap10\n      pop\n        /* \"#utility.yul\":5708:6077   */\n      pop\n        /* \"#utility.yul\":5695:5696   */\n      0x01\n        /* \"#utility.yul\":5692:5693   */\n      dup2\n        /* \"#utility.yul\":5688:5697   */\n      add\n        /* \"#utility.yul\":5683:5697   */\n      swap1\n      pop\n        /* \"#utility.yul\":5648:6077   */\n      jump(tag_275)\n    tag_277:\n        /* \"#utility.yul\":5652:5666   */\n      pop\n        /* \"#utility.yul\":6093:6097   */\n      dup3\n        /* \"#utility.yul\":6086:6097   */\n      swap8\n      pop\n        /* \"#utility.yul\":6113:6116   */\n      dup8\n        /* \"#utility.yul\":6106:6116   */\n      swap6\n      pop\n        /* \"#utility.yul\":5209:6122   */\n      pop\n      pop\n      pop\n      pop\n      pop\n        /* \"#utility.yul\":5043:6122   */\n      swap3\n      swap2\n      pop\n      pop\n      jump\t// out\n        /* \"#utility.yul\":6128:6585   */\n    tag_23:\n        /* \"#utility.yul\":6313:6317   */\n      0x00\n        /* \"#utility.yul\":6351:6353   */\n      0x20\n        /* \"#utility.yul\":6340:6349   */\n      dup3\n        /* \"#utility.yul\":6336:6354   */\n      add\n        /* \"#utility.yul\":6328:6354   */\n      swap1\n      pop\n        /* \"#utility.yul\":6400:6409   */\n      dup2\n        /* \"#utility.yul\":6394:6398   */\n      dup2\n        /* \"#utility.yul\":6390:6410   */\n      sub\n        /* \"#utility.yul\":6386:6387   */\n      0x00\n        /* \"#utility.yul\":6375:6384   */\n      dup4\n        /* \"#utility.yul\":6371:6388   */\n      add\n        /* \"#utility.yul\":6364:6411   */\n      mstore\n        /* \"#utility.yul\":6428:6578   */\n      tag_281\n        /* \"#utility.yul\":6573:6577   */\n      dup2\n        /* \"#utility.yul\":6564:6570   */\n      dup5\n        /* \"#utility.yul\":6428:6578   */\n      tag_185\n      jump\t// in\n    tag_281:\n        /* \"#utility.yul\":6420:6578   */\n      swap1\n      pop\n        /* \"#utility.yul\":6128:6585   */\n      swap3\n      swap2\n      pop\n      pop\n      jump\t// out\n        /* \"#utility.yul\":6591:7065   */\n    tag_29:\n        /* \"#utility.yul\":6659:6665   */\n      0x00\n        /* \"#utility.yul\":6667:6673   */\n      dup1\n        /* \"#utility.yul\":6716:6718   */\n      0x40\n        /* \"#utility.yul\":6704:6713   */\n      dup4\n        /* \"#utility.yul\":6695:6702   */\n      dup6\n        /* \"#utility.yul\":6691:6714   */\n      sub\n        /* \"#utility.yul\":6687:6719   */\n      slt\n        /* \"#utility.yul\":6684:6803   */\n      iszero\n      tag_283\n      jumpi\n        /* \"#utility.yul\":6722:6801   */\n      tag_284\n      tag_163\n      jump\t// in\n    tag_284:\n        /* \"#utility.yul\":6684:6803   */\n    tag_283:\n        /* \"#utility.yul\":6842:6843   */\n      0x00\n        /* \"#utility.yul\":6867:6920   */\n      tag_285\n        /* \"#utility.yul\":6912:6919   */\n      dup6\n        /* \"#utility.yul\":6903:6909   */\n      dup3\n        /* \"#utility.yul\":6892:6901   */\n      dup7\n        /* \"#utility.yul\":6888:6910   */\n      add\n        /* \"#utility.yul\":6867:6920   */\n      tag_168\n      jump\t// in\n    tag_285:\n        /* \"#utility.yul\":6857:6920   */\n      swap3\n      pop\n        /* \"#utility.yul\":6813:6930   */\n      pop\n        /* \"#utility.yul\":6969:6971   */\n      0x20\n        /* \"#utility.yul\":6995:7048   */\n      tag_286\n        /* \"#utility.yul\":7040:7047   */\n      dup6\n        /* \"#utility.yul\":7031:7037   */\n      dup3\n        /* \"#utility.yul\":7020:7029   */\n      dup7\n        /* \"#utility.yul\":7016:7038   */\n      add\n        /* \"#utility.yul\":6995:7048   */\n      tag_168\n      jump\t// in\n    tag_286:\n        /* \"#utility.yul\":6985:7048   */\n      swap2\n      pop\n        /* \"#utility.yul\":6940:7058   */\n      pop\n        /* \"#utility.yul\":6591:7065   */\n      swap3\n      pop\n      swap3\n      swap1\n      pop\n      jump\t// out\n        /* \"#utility.yul\":7071:7188   */\n    tag_186:\n        /* \"#utility.yul\":7180:7181   */\n      0x00\n        /* \"#utility.yul\":7177:7178   */\n      dup1\n        /* \"#utility.yul\":7170:7182   */\n      revert\n        /* \"#utility.yul\":7194:7311   */\n    tag_187:\n        /* \"#utility.yul\":7303:7304   */\n      0x00\n        /* \"#utility.yul\":7300:7301   */\n      dup1\n        /* \"#utility.yul\":7293:7305   */\n      revert\n        /* \"#utility.yul\":7317:7497   */\n    tag_70:\n        /* \"#utility.yul\":7365:7442   */\n      0x4e487b7100000000000000000000000000000000000000000000000000000000\n        /* \"#utility.yul\":7362:7363   */\n      0x00\n        /* \"#utility.yul\":7355:7443   */\n      mstore\n        /* \"#utility.yul\":7462:7466   */\n      0x41\n        /* \"#utility.yul\":7459:7460   */\n      0x04\n        /* \"#utility.yul\":7452:7467   */\n      mstore\n        /* \"#utility.yul\":7486:7490   */\n      0x24\n        /* \"#utility.yul\":7483:7484   */\n      0x00\n        /* \"#utility.yul\":7476:7491   */\n      revert\n        /* \"#utility.yul\":7503:7784   */\n    tag_188:\n        /* \"#utility.yul\":7586:7613   */\n      tag_291\n        /* \"#utility.yul\":7608:7612   */\n      dup3\n        /* \"#utility.yul\":7586:7613   */\n      tag_180\n      jump\t// in\n    tag_291:\n        /* \"#utility.yul\":7578:7584   */\n      dup2\n        /* \"#utility.yul\":7574:7614   */\n      add\n        /* \"#utility.yul\":7716:7722   */\n      dup2\n        /* \"#utility.yul\":7704:7714   */\n      dup2\n        /* \"#utility.yul\":7701:7723   */\n      lt\n        /* \"#utility.yul\":7680:7698   */\n      0xffffffffffffffff\n        /* \"#utility.yul\":7668:7678   */\n      dup3\n        /* \"#utility.yul\":7665:7699   */\n      gt\n        /* \"#utility.yul\":7662:7724   */\n      or\n        /* \"#utility.yul\":7659:7747   */\n      iszero\n      tag_292\n      jumpi\n        /* \"#utility.yul\":7727:7745   */\n      tag_293\n      tag_70\n      jump\t// in\n    tag_293:\n        /* \"#utility.yul\":7659:7747   */\n    tag_292:\n        /* \"#utility.yul\":7767:7777   */\n      dup1\n        /* \"#utility.yul\":7763:7765   */\n      0x40\n        /* \"#utility.yul\":7756:7778   */\n      mstore\n        /* \"#utility.yul\":7546:7784   */\n      pop\n        /* \"#utility.yul\":7503:7784   */\n      pop\n      pop\n      jump\t// out\n        /* \"#utility.yul\":7790:7919   */\n    tag_189:\n        /* \"#utility.yul\":7824:7830   */\n      0x00\n        /* \"#utility.yul\":7851:7871   */\n      tag_295\n      tag_162\n      jump\t// in\n    tag_295:\n        /* \"#utility.yul\":7841:7871   */\n      swap1\n      pop\n        /* \"#utility.yul\":7880:7913   */\n      tag_296\n        /* \"#utility.yul\":7908:7912   */\n      dup3\n        /* \"#utility.yul\":7900:7906   */\n      dup3\n        /* \"#utility.yul\":7880:7913   */\n      tag_188\n      jump\t// in\n    tag_296:\n        /* \"#utility.yul\":7790:7919   */\n      swap2\n      swap1\n      pop\n      jump\t// out\n        /* \"#utility.yul\":7925:8233   */\n    tag_190:\n        /* \"#utility.yul\":7987:7991   */\n      0x00\n        /* \"#utility.yul\":8077:8095   */\n      0xffffffffffffffff\n        /* \"#utility.yul\":8069:8075   */\n      dup3\n        /* \"#utility.yul\":8066:8096   */\n      gt\n        /* \"#utility.yul\":8063:8119   */\n      iszero\n      tag_298\n      jumpi\n        /* \"#utility.yul\":8099:8117   */\n      tag_299\n      tag_70\n      jump\t// in\n    tag_299:\n        /* \"#utility.yul\":8063:8119   */\n    tag_298:\n        /* \"#utility.yul\":8137:8166   */\n      tag_300\n        /* \"#utility.yul\":8159:8165   */\n      dup3\n        /* \"#utility.yul\":8137:8166   */\n      tag_180\n      jump\t// in\n    tag_300:\n        /* \"#utility.yul\":8129:8166   */\n      swap1\n      pop\n        /* \"#utility.yul\":8221:8225   */\n      0x20\n        /* \"#utility.yul\":8215:8219   */\n      dup2\n        /* \"#utility.yul\":8211:8226   */\n      add\n        /* \"#utility.yul\":8203:8226   */\n      swap1\n      pop\n        /* \"#utility.yul\":7925:8233   */\n      swap2\n      swap1\n      pop\n      jump\t// out\n        /* \"#utility.yul\":8239:8385   */\n    tag_191:\n        /* \"#utility.yul\":8336:8342   */\n      dup3\n        /* \"#utility.yul\":8331:8334   */\n      dup2\n        /* \"#utility.yul\":8326:8329   */\n      dup4\n        /* \"#utility.yul\":8313:8343   */\n      calldatacopy\n        /* \"#utility.yul\":8377:8378   */\n      0x00\n        /* \"#utility.yul\":8368:8374   */\n      dup4\n        /* \"#utility.yul\":8363:8366   */\n      dup4\n        /* \"#utility.yul\":8359:8375   */\n      add\n        /* \"#utility.yul\":8352:8379   */\n      mstore\n        /* \"#utility.yul\":8239:8385   */\n      pop\n      pop\n      pop\n      jump\t// out\n        /* \"#utility.yul\":8391:8816   */\n    tag_192:\n        /* \"#utility.yul\":8469:8474   */\n      0x00\n        /* \"#utility.yul\":8494:8560   */\n      tag_303\n        /* \"#utility.yul\":8510:8559   */\n      tag_304\n        /* \"#utility.yul\":8552:8558   */\n      dup5\n        /* \"#utility.yul\":8510:8559   */\n      tag_190\n      jump\t// in\n    tag_304:\n        /* \"#utility.yul\":8494:8560   */\n      tag_189\n      jump\t// in\n    tag_303:\n        /* \"#utility.yul\":8485:8560   */\n      swap1\n      pop\n        /* \"#utility.yul\":8583:8589   */\n      dup3\n        /* \"#utility.yul\":8576:8581   */\n      dup2\n        /* \"#utility.yul\":8569:8590   */\n      mstore\n        /* \"#utility.yul\":8621:8625   */\n      0x20\n        /* \"#utility.yul\":8614:8619   */\n      dup2\n        /* \"#utility.yul\":8610:8626   */\n      add\n        /* \"#utility.yul\":8659:8662   */\n      dup5\n        /* \"#utility.yul\":8650:8656   */\n      dup5\n        /* \"#utility.yul\":8645:8648   */\n      dup5\n        /* \"#utility.yul\":8641:8657   */\n      add\n        /* \"#utility.yul\":8638:8663   */\n      gt\n        /* \"#utility.yul\":8635:8747   */\n      iszero\n      tag_305\n      jumpi\n        /* \"#utility.yul\":8666:8745   */\n      tag_306\n      tag_187\n      jump\t// in\n    tag_306:\n        /* \"#utility.yul\":8635:8747   */\n    tag_305:\n        /* \"#utility.yul\":8756:8810   */\n      tag_307\n        /* \"#utility.yul\":8803:8809   */\n      dup5\n        /* \"#utility.yul\":8798:8801   */\n      dup3\n        /* \"#utility.yul\":8793:8796   */\n      dup6\n        /* \"#utility.yul\":8756:8810   */\n      tag_191\n      jump\t// in\n    tag_307:\n        /* \"#utility.yul\":8475:8816   */\n      pop\n        /* \"#utility.yul\":8391:8816   */\n      swap4\n      swap3\n      pop\n      pop\n      pop\n      jump\t// out\n        /* \"#utility.yul\":8836:9176   */\n    tag_193:\n        /* \"#utility.yul\":8892:8897   */\n      0x00\n        /* \"#utility.yul\":8941:8944   */\n      dup3\n        /* \"#utility.yul\":8934:8938   */\n      0x1f\n        /* \"#utility.yul\":8926:8932   */\n      dup4\n        /* \"#utility.yul\":8922:8939   */\n      add\n        /* \"#utility.yul\":8918:8945   */\n      slt\n        /* \"#utility.yul\":8908:9030   */\n      tag_309\n      jumpi\n        /* \"#utility.yul\":8949:9028   */\n      tag_310\n      tag_186\n      jump\t// in\n    tag_310:\n        /* \"#utility.yul\":8908:9030   */\n    tag_309:\n        /* \"#utility.yul\":9066:9072   */\n      dup2\n        /* \"#utility.yul\":9053:9073   */\n      calldataload\n        /* \"#utility.yul\":9091:9170   */\n      tag_311\n        /* \"#utility.yul\":9166:9169   */\n      dup5\n        /* \"#utility.yul\":9158:9164   */\n      dup3\n        /* \"#utility.yul\":9151:9155   */\n      0x20\n        /* \"#utility.yul\":9143:9149   */\n      dup7\n        /* \"#utility.yul\":9139:9156   */\n      add\n        /* \"#utility.yul\":9091:9170   */\n      tag_192\n      jump\t// in\n    tag_311:\n        /* \"#utility.yul\":9082:9170   */\n      swap2\n      pop\n        /* \"#utility.yul\":8898:9176   */\n      pop\n        /* \"#utility.yul\":8836:9176   */\n      swap3\n      swap2\n      pop\n      pop\n      jump\t// out\n        /* \"#utility.yul\":9182:9981   */\n    tag_33:\n        /* \"#utility.yul\":9269:9275   */\n      0x00\n        /* \"#utility.yul\":9277:9283   */\n      dup1\n        /* \"#utility.yul\":9285:9291   */\n      0x00\n        /* \"#utility.yul\":9334:9336   */\n      0x60\n        /* \"#utility.yul\":9322:9331   */\n      dup5\n        /* \"#utility.yul\":9313:9320   */\n      dup7\n        /* \"#utility.yul\":9309:9332   */\n      sub\n        /* \"#utility.yul\":9305:9337   */\n      slt\n        /* \"#utility.yul\":9302:9421   */\n      iszero\n      tag_313\n      jumpi\n        /* \"#utility.yul\":9340:9419   */\n      tag_314\n      tag_163\n      jump\t// in\n    tag_314:\n        /* \"#utility.yul\":9302:9421   */\n    tag_313:\n        /* \"#utility.yul\":9460:9461   */\n      0x00\n        /* \"#utility.yul\":9485:9538   */\n      tag_315\n        /* \"#utility.yul\":9530:9537   */\n      dup7\n        /* \"#utility.yul\":9521:9527   */\n      dup3\n        /* \"#utility.yul\":9510:9519   */\n      dup8\n        /* \"#utility.yul\":9506:9528   */\n      add\n        /* \"#utility.yul\":9485:9538   */\n      tag_168\n      jump\t// in\n    tag_315:\n        /* \"#utility.yul\":9475:9538   */\n      swap4\n      pop\n        /* \"#utility.yul\":9431:9548   */\n      pop\n        /* \"#utility.yul\":9587:9589   */\n      0x20\n        /* \"#utility.yul\":9613:9666   */\n      tag_316\n        /* \"#utility.yul\":9658:9665   */\n      dup7\n        /* \"#utility.yul\":9649:9655   */\n      dup3\n        /* \"#utility.yul\":9638:9647   */\n      dup8\n        /* \"#utility.yul\":9634:9656   */\n      add\n        /* \"#utility.yul\":9613:9666   */\n      tag_168\n      jump\t// in\n    tag_316:\n        /* \"#utility.yul\":9603:9666   */\n      swap3\n      pop\n        /* \"#utility.yul\":9558:9676   */\n      pop\n        /* \"#utility.yul\":9743:9745   */\n      0x40\n        /* \"#utility.yul\":9732:9741   */\n      dup5\n        /* \"#utility.yul\":9728:9746   */\n      add\n        /* \"#utility.yul\":9715:9747   */\n      calldataload\n        /* \"#utility.yul\":9774:9792   */\n      0xffffffffffffffff\n        /* \"#utility.yul\":9766:9772   */\n      dup2\n        /* \"#utility.yul\":9763:9793   */\n      gt\n        /* \"#utility.yul\":9760:9877   */\n      iszero\n      tag_317\n      jumpi\n        /* \"#utility.yul\":9796:9875   */\n      tag_318\n      tag_164\n      jump\t// in\n    tag_318:\n        /* \"#utility.yul\":9760:9877   */\n    tag_317:\n        /* \"#utility.yul\":9901:9964   */\n      tag_319\n        /* \"#utility.yul\":9956:9963   */\n      dup7\n        /* \"#utility.yul\":9947:9953   */\n      dup3\n        /* \"#utility.yul\":9936:9945   */\n      dup8\n        /* \"#utility.yul\":9932:9954   */\n      add\n        /* \"#utility.yul\":9901:9964   */\n      tag_193\n      jump\t// in\n    tag_319:\n        /* \"#utility.yul\":9891:9964   */\n      swap2\n      pop\n        /* \"#utility.yul\":9686:9974   */\n      pop\n        /* \"#utility.yul\":9182:9981   */\n      swap3\n      pop\n      swap3\n      pop\n      swap3\n      jump\t// out\n        /* \"#utility.yul\":9987:10461   */\n    tag_40:\n        /* \"#utility.yul\":10055:10061   */\n      0x00\n        /* \"#utility.yul\":10063:10069   */\n      dup1\n        /* \"#utility.yul\":10112:10114   */\n      0x40\n        /* \"#utility.yul\":10100:10109   */\n      dup4\n        /* \"#utility.yul\":10091:10098   */\n      dup6\n        /* \"#utility.yul\":10087:10110   */\n      sub\n        /* \"#utility.yul\":10083:10115   */\n      slt\n        /* \"#utility.yul\":10080:10199   */\n      iszero\n      tag_321\n      jumpi\n        /* \"#utility.yul\":10118:10197   */\n      tag_322\n      tag_163\n      jump\t// in\n    tag_322:\n        /* \"#utility.yul\":10080:10199   */\n    tag_321:\n        /* \"#utility.yul\":10238:10239   */\n      0x00\n        /* \"#utility.yul\":10263:10316   */\n      tag_323\n        /* \"#utility.yul\":10308:10315   */\n      dup6\n        /* \"#utility.yul\":10299:10305   */\n      dup3\n        /* \"#utility.yul\":10288:10297   */\n      dup7\n        /* \"#utility.yul\":10284:10306   */\n      add\n        /* \"#utility.yul\":10263:10316   */\n      tag_168\n      jump\t// in\n    tag_323:\n        /* \"#utility.yul\":10253:10316   */\n      swap3\n      pop\n        /* \"#utility.yul\":10209:10326   */\n      pop\n        /* \"#utility.yul\":10365:10367   */\n      0x20\n        /* \"#utility.yul\":10391:10444   */\n      tag_324\n        /* \"#utility.yul\":10436:10443   */\n      dup6\n        /* \"#utility.yul\":10427:10433   */\n      dup3\n        /* \"#utility.yul\":10416:10425   */\n      dup7\n        /* \"#utility.yul\":10412:10434   */\n      add\n        /* \"#utility.yul\":10391:10444   */\n      tag_171\n      jump\t// in\n    tag_324:\n        /* \"#utility.yul\":10381:10444   */\n      swap2\n      pop\n        /* \"#utility.yul\":10336:10454   */\n      pop\n        /* \"#utility.yul\":9987:10461   */\n      swap3\n      pop\n      swap3\n      swap1\n      pop\n      jump\t// out\n        /* \"#utility.yul\":10467:11121   */\n    tag_45:\n        /* \"#utility.yul\":10545:10551   */\n      0x00\n        /* \"#utility.yul\":10553:10559   */\n      dup1\n        /* \"#utility.yul\":10602:10604   */\n      0x40\n        /* \"#utility.yul\":10590:10599   */\n      dup4\n        /* \"#utility.yul\":10581:10588   */\n      dup6\n        /* \"#utility.yul\":10577:10600   */\n      sub\n        /* \"#utility.yul\":10573:10605   */\n      slt\n        /* \"#utility.yul\":10570:10689   */\n      iszero\n      tag_326\n      jumpi\n        /* \"#utility.yul\":10608:10687   */\n      tag_327\n      tag_163\n      jump\t// in\n    tag_327:\n        /* \"#utility.yul\":10570:10689   */\n    tag_326:\n        /* \"#utility.yul\":10728:10729   */\n      0x00\n        /* \"#utility.yul\":10753:10806   */\n      tag_328\n        /* \"#utility.yul\":10798:10805   */\n      dup6\n        /* \"#utility.yul\":10789:10795   */\n      dup3\n        /* \"#utility.yul\":10778:10787   */\n      dup7\n        /* \"#utility.yul\":10774:10796   */\n      add\n        /* \"#utility.yul\":10753:10806   */\n      tag_168\n      jump\t// in\n    tag_328:\n        /* \"#utility.yul\":10743:10806   */\n      swap3\n      pop\n        /* \"#utility.yul\":10699:10816   */\n      pop\n        /* \"#utility.yul\":10883:10885   */\n      0x20\n        /* \"#utility.yul\":10872:10881   */\n      dup4\n        /* \"#utility.yul\":10868:10886   */\n      add\n        /* \"#utility.yul\":10855:10887   */\n      calldataload\n        /* \"#utility.yul\":10914:10932   */\n      0xffffffffffffffff\n        /* \"#utility.yul\":10906:10912   */\n      dup2\n        /* \"#utility.yul\":10903:10933   */\n      gt\n        /* \"#utility.yul\":10900:11017   */\n      iszero\n      tag_329\n      jumpi\n        /* \"#utility.yul\":10936:11015   */\n      tag_330\n      tag_164\n      jump\t// in\n    tag_330:\n        /* \"#utility.yul\":10900:11017   */\n    tag_329:\n        /* \"#utility.yul\":11041:11104   */\n      tag_331\n        /* \"#utility.yul\":11096:11103   */\n      dup6\n        /* \"#utility.yul\":11087:11093   */\n      dup3\n        /* \"#utility.yul\":11076:11085   */\n      dup7\n        /* \"#utility.yul\":11072:11094   */\n      add\n        /* \"#utility.yul\":11041:11104   */\n      tag_193\n      jump\t// in\n    tag_331:\n        /* \"#utility.yul\":11031:11104   */\n      swap2\n      pop\n        /* \"#utility.yul\":10826:11114   */\n      pop\n        /* \"#utility.yul\":10467:11121   */\n      swap3\n      pop\n      swap3\n      swap1\n      pop\n      jump\t// out\n        /* \"#utility.yul\":11127:11636   */\n    tag_52:\n        /* \"#utility.yul\":11196:11202   */\n      0x00\n        /* \"#utility.yul\":11245:11247   */\n      0x20\n        /* \"#utility.yul\":11233:11242   */\n      dup3\n        /* \"#utility.yul\":11224:11231   */\n      dup5\n        /* \"#utility.yul\":11220:11243   */\n      sub\n        /* \"#utility.yul\":11216:11248   */\n      slt\n        /* \"#utility.yul\":11213:11332   */\n      iszero\n      tag_333\n      jumpi\n        /* \"#utility.yul\":11251:11330   */\n      tag_334\n      tag_163\n      jump\t// in\n    tag_334:\n        /* \"#utility.yul\":11213:11332   */\n    tag_333:\n        /* \"#utility.yul\":11399:11400   */\n      0x00\n        /* \"#utility.yul\":11388:11397   */\n      dup3\n        /* \"#utility.yul\":11384:11401   */\n      add\n        /* \"#utility.yul\":11371:11402   */\n      calldataload\n        /* \"#utility.yul\":11429:11447   */\n      0xffffffffffffffff\n        /* \"#utility.yul\":11421:11427   */\n      dup2\n        /* \"#utility.yul\":11418:11448   */\n      gt\n        /* \"#utility.yul\":11415:11532   */\n      iszero\n      tag_335\n      jumpi\n        /* \"#utility.yul\":11451:11530   */\n      tag_336\n      tag_164\n      jump\t// in\n    tag_336:\n        /* \"#utility.yul\":11415:11532   */\n    tag_335:\n        /* \"#utility.yul\":11556:11619   */\n      tag_337\n        /* \"#utility.yul\":11611:11618   */\n      dup5\n        /* \"#utility.yul\":11602:11608   */\n      dup3\n        /* \"#utility.yul\":11591:11600   */\n      dup6\n        /* \"#utility.yul\":11587:11609   */\n      add\n        /* \"#utility.yul\":11556:11619   */\n      tag_193\n      jump\t// in\n    tag_337:\n        /* \"#utility.yul\":11546:11619   */\n      swap2\n      pop\n        /* \"#utility.yul\":11342:11629   */\n      pop\n        /* \"#utility.yul\":11127:11636   */\n      swap3\n      swap2\n      pop\n      pop\n      jump\t// out\n        /* \"#utility.yul\":11642:11811   */\n    tag_194:\n        /* \"#utility.yul\":11726:11737   */\n      0x00\n        /* \"#utility.yul\":11760:11766   */\n      dup3\n        /* \"#utility.yul\":11755:11758   */\n      dup3\n        /* \"#utility.yul\":11748:11767   */\n      mstore\n        /* \"#utility.yul\":11800:11804   */\n      0x20\n        /* \"#utility.yul\":11795:11798   */\n      dup3\n        /* \"#utility.yul\":11791:11805   */\n      add\n        /* \"#utility.yul\":11776:11805   */\n      swap1\n      pop\n        /* \"#utility.yul\":11642:11811   */\n      swap3\n      swap2\n      pop\n      pop\n      jump\t// out\n        /* \"#utility.yul\":11817:11985   */\n    tag_195:\n        /* \"#utility.yul\":11957:11977   */\n      0x416363657373206e6f7420616c6c6f7765640000000000000000000000000000\n        /* \"#utility.yul\":11953:11954   */\n      0x00\n        /* \"#utility.yul\":11945:11951   */\n      dup3\n        /* \"#utility.yul\":11941:11955   */\n      add\n        /* \"#utility.yul\":11934:11978   */\n      mstore\n        /* \"#utility.yul\":11817:11985   */\n      pop\n      jump\t// out\n        /* \"#utility.yul\":11991:12357   */\n    tag_196:\n        /* \"#utility.yul\":12133:12136   */\n      0x00\n        /* \"#utility.yul\":12154:12221   */\n      tag_341\n        /* \"#utility.yul\":12218:12220   */\n      0x12\n        /* \"#utility.yul\":12213:12216   */\n      dup4\n        /* \"#utility.yul\":12154:12221   */\n      tag_194\n      jump\t// in\n    tag_341:\n        /* \"#utility.yul\":12147:12221   */\n      swap2\n      pop\n        /* \"#utility.yul\":12230:12323   */\n      tag_342\n        /* \"#utility.yul\":12319:12322   */\n      dup3\n        /* \"#utility.yul\":12230:12323   */\n      tag_195\n      jump\t// in\n    tag_342:\n        /* \"#utility.yul\":12348:12350   */\n      0x20\n        /* \"#utility.yul\":12343:12346   */\n      dup3\n        /* \"#utility.yul\":12339:12351   */\n      add\n        /* \"#utility.yul\":12332:12351   */\n      swap1\n      pop\n        /* \"#utility.yul\":11991:12357   */\n      swap2\n      swap1\n      pop\n      jump\t// out\n        /* \"#utility.yul\":12363:12782   */\n    tag_57:\n        /* \"#utility.yul\":12529:12533   */\n      0x00\n        /* \"#utility.yul\":12567:12569   */\n      0x20\n        /* \"#utility.yul\":12556:12565   */\n      dup3\n        /* \"#utility.yul\":12552:12570   */\n      add\n        /* \"#utility.yul\":12544:12570   */\n      swap1\n      pop\n        /* \"#utility.yul\":12616:12625   */\n      dup2\n        /* \"#utility.yul\":12610:12614   */\n      dup2\n        /* \"#utility.yul\":12606:12626   */\n      sub\n        /* \"#utility.yul\":12602:12603   */\n      0x00\n        /* \"#utility.yul\":12591:12600   */\n      dup4\n        /* \"#utility.yul\":12587:12604   */\n      add\n        /* \"#utility.yul\":12580:12627   */\n      mstore\n        /* \"#utility.yul\":12644:12775   */\n      tag_344\n        /* \"#utility.yul\":12770:12774   */\n      dup2\n        /* \"#utility.yul\":12644:12775   */\n      tag_196\n      jump\t// in\n    tag_344:\n        /* \"#utility.yul\":12636:12775   */\n      swap1\n      pop\n        /* \"#utility.yul\":12363:12782   */\n      swap2\n      swap1\n      pop\n      jump\t// out\n        /* \"#utility.yul\":12788:12956   */\n    tag_197:\n        /* \"#utility.yul\":12928:12948   */\n      0x636f756e74206f7574206f6620626f756e640000000000000000000000000000\n        /* \"#utility.yul\":12924:12925   */\n      0x00\n        /* \"#utility.yul\":12916:12922   */\n      dup3\n        /* \"#utility.yul\":12912:12926   */\n      add\n        /* \"#utility.yul\":12905:12949   */\n      mstore\n        /* \"#utility.yul\":12788:12956   */\n      pop\n      jump\t// out\n        /* \"#utility.yul\":12962:13328   */\n    tag_198:\n        /* \"#utility.yul\":13104:13107   */\n      0x00\n        /* \"#utility.yul\":13125:13192   */\n      tag_347\n        /* \"#utility.yul\":13189:13191   */\n      0x12\n        /* \"#utility.yul\":13184:13187   */\n      dup4\n        /* \"#utility.yul\":13125:13192   */\n      tag_194\n      jump\t// in\n    tag_347:\n        /* \"#utility.yul\":13118:13192   */\n      swap2\n      pop\n        /* \"#utility.yul\":13201:13294   */\n      tag_348\n        /* \"#utility.yul\":13290:13293   */\n      dup3\n        /* \"#utility.yul\":13201:13294   */\n      tag_197\n      jump\t// in\n    tag_348:\n        /* \"#utility.yul\":13319:13321   */\n      0x20\n        /* \"#utility.yul\":13314:13317   */\n      dup3\n        /* \"#utility.yul\":13310:13322   */\n      add\n        /* \"#utility.yul\":13303:13322   */\n      swap1\n      pop\n        /* \"#utility.yul\":12962:13328   */\n      swap2\n      swap1\n      pop\n      jump\t// out\n        /* \"#utility.yul\":13334:13753   */\n    tag_67:\n        /* \"#utility.yul\":13500:13504   */\n      0x00\n        /* \"#utility.yul\":13538:13540   */\n      0x20\n        /* \"#utility.yul\":13527:13536   */\n      dup3\n        /* \"#utility.yul\":13523:13541   */\n      add\n        /* \"#utility.yul\":13515:13541   */\n      swap1\n      pop\n        /* \"#utility.yul\":13587:13596   */\n      dup2\n        /* \"#utility.yul\":13581:13585   */\n      dup2\n        /* \"#utility.yul\":13577:13597   */\n      sub\n        /* \"#utility.yul\":13573:13574   */\n      0x00\n        /* \"#utility.yul\":13562:13571   */\n      dup4\n        /* \"#utility.yul\":13558:13575   */\n      add\n        /* \"#utility.yul\":13551:13598   */\n      mstore\n        /* \"#utility.yul\":13615:13746   */\n      tag_350\n        /* \"#utility.yul\":13741:13745   */\n      dup2\n        /* \"#utility.yul\":13615:13746   */\n      tag_198\n      jump\t// in\n    tag_350:\n        /* \"#utility.yul\":13607:13746   */\n      swap1\n      pop\n        /* \"#utility.yul\":13334:13753   */\n      swap2\n      swap1\n      pop\n      jump\t// out\n        /* \"#utility.yul\":13759:13939   */\n    tag_199:\n        /* \"#utility.yul\":13807:13884   */\n      0x4e487b7100000000000000000000000000000000000000000000000000000000\n        /* \"#utility.yul\":13804:13805   */\n      0x00\n        /* \"#utility.yul\":13797:13885   */\n      mstore\n        /* \"#utility.yul\":13904:13908   */\n      0x11\n        /* \"#utility.yul\":13901:13902   */\n      0x04\n        /* \"#utility.yul\":13894:13909   */\n      mstore\n        /* \"#utility.yul\":13928:13932   */\n      0x24\n        /* \"#utility.yul\":13925:13926   */\n      0x00\n        /* \"#utility.yul\":13918:13933   */\n      revert\n        /* \"#utility.yul\":13945:14139   */\n    tag_79:\n        /* \"#utility.yul\":13985:13989   */\n      0x00\n        /* \"#utility.yul\":14005:14025   */\n      tag_353\n        /* \"#utility.yul\":14023:14024   */\n      dup3\n        /* \"#utility.yul\":14005:14025   */\n      tag_169\n      jump\t// in\n    tag_353:\n        /* \"#utility.yul\":14000:14025   */\n      swap2\n      pop\n        /* \"#utility.yul\":14039:14059   */\n      tag_354\n        /* \"#utility.yul\":14057:14058   */\n      dup4\n        /* \"#utility.yul\":14039:14059   */\n      tag_169\n      jump\t// in\n    tag_354:\n        /* \"#utility.yul\":14034:14059   */\n      swap3\n      pop\n        /* \"#utility.yul\":14083:14084   */\n      dup3\n        /* \"#utility.yul\":14080:14081   */\n      dup3\n        /* \"#utility.yul\":14076:14085   */\n      sub\n        /* \"#utility.yul\":14068:14085   */\n      swap1\n      pop\n        /* \"#utility.yul\":14107:14108   */\n      dup2\n        /* \"#utility.yul\":14101:14105   */\n      dup2\n        /* \"#utility.yul\":14098:14109   */\n      gt\n        /* \"#utility.yul\":14095:14132   */\n      iszero\n      tag_355\n      jumpi\n        /* \"#utility.yul\":14112:14130   */\n      tag_356\n      tag_199\n      jump\t// in\n    tag_356:\n        /* \"#utility.yul\":14095:14132   */\n    tag_355:\n        /* \"#utility.yul\":13945:14139   */\n      swap3\n      swap2\n      pop\n      pop\n      jump\t// out\n        /* \"#utility.yul\":14145:14325   */\n    tag_200:\n        /* \"#utility.yul\":14193:14270   */\n      0x4e487b7100000000000000000000000000000000000000000000000000000000\n        /* \"#utility.yul\":14190:14191   */\n      0x00\n        /* \"#utility.yul\":14183:14271   */\n      mstore\n        /* \"#utility.yul\":14290:14294   */\n      0x22\n        /* \"#utility.yul\":14287:14288   */\n      0x04\n        /* \"#utility.yul\":14280:14295   */\n      mstore\n        /* \"#utility.yul\":14314:14318   */\n      0x24\n        /* \"#utility.yul\":14311:14312   */\n      0x00\n        /* \"#utility.yul\":14304:14319   */\n      revert\n        /* \"#utility.yul\":14331:14651   */\n    tag_82:\n        /* \"#utility.yul\":14375:14381   */\n      0x00\n        /* \"#utility.yul\":14412:14413   */\n      0x02\n        /* \"#utility.yul\":14406:14410   */\n      dup3\n        /* \"#utility.yul\":14402:14414   */\n      div\n        /* \"#utility.yul\":14392:14414   */\n      swap1\n      pop\n        /* \"#utility.yul\":14459:14460   */\n      0x01\n        /* \"#utility.yul\":14453:14457   */\n      dup3\n        /* \"#utility.yul\":14449:14461   */\n      and\n        /* \"#utility.yul\":14480:14498   */\n      dup1\n        /* \"#utility.yul\":14470:14551   */\n      tag_359\n      jumpi\n        /* \"#utility.yul\":14536:14540   */\n      0x7f\n        /* \"#utility.yul\":14528:14534   */\n      dup3\n        /* \"#utility.yul\":14524:14541   */\n      and\n        /* \"#utility.yul\":14514:14541   */\n      swap2\n      pop\n        /* \"#utility.yul\":14470:14551   */\n    tag_359:\n        /* \"#utility.yul\":14598:14600   */\n      0x20\n        /* \"#utility.yul\":14590:14596   */\n      dup3\n        /* \"#utility.yul\":14587:14601   */\n      lt\n        /* \"#utility.yul\":14567:14585   */\n      dup2\n        /* \"#utility.yul\":14564:14602   */\n      sub\n        /* \"#utility.yul\":14561:14645   */\n      tag_360\n      jumpi\n        /* \"#utility.yul\":14617:14635   */\n      tag_361\n      tag_200\n      jump\t// in\n    tag_361:\n        /* \"#utility.yul\":14561:14645   */\n    tag_360:\n        /* \"#utility.yul\":14382:14651   */\n      pop\n        /* \"#utility.yul\":14331:14651   */\n      swap2\n      swap1\n      pop\n      jump\t// out\n        /* \"#utility.yul\":14657:14837   */\n    tag_89:\n        /* \"#utility.yul\":14705:14782   */\n      0x4e487b7100000000000000000000000000000000000000000000000000000000\n        /* \"#utility.yul\":14702:14703   */\n      0x00\n        /* \"#utility.yul\":14695:14783   */\n      mstore\n        /* \"#utility.yul\":14802:14806   */\n      0x32\n        /* \"#utility.yul\":14799:14800   */\n      0x04\n        /* \"#utility.yul\":14792:14807   */\n      mstore\n        /* \"#utility.yul\":14826:14830   */\n      0x24\n        /* \"#utility.yul\":14823:14824   */\n      0x00\n        /* \"#utility.yul\":14816:14831   */\n      revert\n        /* \"#utility.yul\":14843:15076   */\n    tag_91:\n        /* \"#utility.yul\":14882:14885   */\n      0x00\n        /* \"#utility.yul\":14905:14929   */\n      tag_364\n        /* \"#utility.yul\":14923:14928   */\n      dup3\n        /* \"#utility.yul\":14905:14929   */\n      tag_169\n      jump\t// in\n    tag_364:\n        /* \"#utility.yul\":14896:14929   */\n      swap2\n      pop\n        /* \"#utility.yul\":14951:15017   */\n      0xffffffffffffffffffffffffffffffffffffffffffffffffffffffffffffffff\n        /* \"#utility.yul\":14944:14949   */\n      dup3\n        /* \"#utility.yul\":14941:15018   */\n      sub\n        /* \"#utility.yul\":14938:15041   */\n      tag_365\n      jumpi\n        /* \"#utility.yul\":15021:15039   */\n      tag_366\n      tag_199\n      jump\t// in\n    tag_366:\n        /* \"#utility.yul\":14938:15041   */\n    tag_365:\n        /* \"#utility.yul\":15068:15069   */\n      0x01\n        /* \"#utility.yul\":15061:15066   */\n      dup3\n        /* \"#utility.yul\":15057:15070   */\n      add\n        /* \"#utility.yul\":15050:15070   */\n      swap1\n      pop\n        /* \"#utility.yul\":14843:15076   */\n      swap2\n      swap1\n      pop\n      jump\t// out\n        /* \"#utility.yul\":15082:15241   */\n    tag_201:\n        /* \"#utility.yul\":15222:15233   */\n      0x6e6f207477656574730000000000000000000000000000000000000000000000\n        /* \"#utility.yul\":15218:15219   */\n      0x00\n        /* \"#utility.yul\":15210:15216   */\n      dup3\n        /* \"#utility.yul\":15206:15220   */\n      add\n        /* \"#utility.yul\":15199:15234   */\n      mstore\n        /* \"#utility.yul\":15082:15241   */\n      pop\n      jump\t// out\n        /* \"#utility.yul\":15247:15612   */\n    tag_202:\n        /* \"#utility.yul\":15389:15392   */\n      0x00\n        /* \"#utility.yul\":15410:15476   */\n      tag_369\n        /* \"#utility.yul\":15474:15475   */\n      0x09\n        /* \"#utility.yul\":15469:15472   */\n      dup4\n        /* \"#utility.yul\":15410:15476   */\n      tag_194\n      jump\t// in\n    tag_369:\n        /* \"#utility.yul\":15403:15476   */\n      swap2\n      pop\n        /* \"#utility.yul\":15485:15578   */\n      tag_370\n        /* \"#utility.yul\":15574:15577   */\n      dup3\n        /* \"#utility.yul\":15485:15578   */\n      tag_201\n      jump\t// in\n    tag_370:\n        /* \"#utility.yul\":15603:15605   */\n      0x20\n        /* \"#utility.yul\":15598:15601   */\n      dup3\n        /* \"#utility.yul\":15594:15606   */\n      add\n        /* \"#utility.yul\":15587:15606   */\n      swap1\n      pop\n        /* \"#utility.yul\":15247:15612   */\n      swap2\n      swap1\n      pop\n      jump\t// out\n        /* \"#utility.yul\":15618:16037   */\n    tag_116:\n        /* \"#utility.yul\":15784:15788   */\n      0x00\n        /* \"#utility.yul\":15822:15824   */\n      0x20\n        /* \"#utility.yul\":15811:15820   */\n      dup3\n        /* \"#utility.yul\":15807:15825   */\n      add\n        /* \"#utility.yul\":15799:15825   */\n      swap1\n      pop\n        /* \"#utility.yul\":15871:15880   */\n      dup2\n        /* \"#utility.yul\":15865:15869   */\n      dup2\n        /* \"#utility.yul\":15861:15881   */\n      sub\n        /* \"#utility.yul\":15857:15858   */\n      0x00\n        /* \"#utility.yul\":15846:15855   */\n      dup4\n        /* \"#utility.yul\":15842:15859   */\n      add\n        /* \"#utility.yul\":15835:15882   */\n      mstore\n        /* \"#utility.yul\":15899:16030   */\n      tag_372\n        /* \"#utility.yul\":16025:16029   */\n      dup2\n        /* \"#utility.yul\":15899:16030   */\n      tag_202\n      jump\t// in\n    tag_372:\n        /* \"#utility.yul\":15891:16030   */\n      swap1\n      pop\n        /* \"#utility.yul\":15618:16037   */\n      swap2\n      swap1\n      pop\n      jump\t// out\n        /* \"#utility.yul\":16043:16184   */\n    tag_203:\n        /* \"#utility.yul\":16092:16096   */\n      0x00\n        /* \"#utility.yul\":16115:16118   */\n      dup2\n        /* \"#utility.yul\":16107:16118   */\n      swap1\n      pop\n        /* \"#utility.yul\":16138:16141   */\n      dup2\n        /* \"#utility.yul\":16135:16136   */\n      0x00\n        /* \"#utility.yul\":16128:16142   */\n      mstore\n        /* \"#utility.yul\":16172:16176   */\n      0x20\n        /* \"#utility.yul\":16169:16170   */\n      0x00\n        /* \"#utility.yul\":16159:16177   */\n      keccak256\n        /* \"#utility.yul\":16151:16177   */\n      swap1\n      pop\n        /* \"#utility.yul\":16043:16184   */\n      swap2\n      swap1\n      pop\n      jump\t// out\n        /* \"#utility.yul\":16190:16283   */\n    tag_204:\n        /* \"#utility.yul\":16227:16233   */\n      0x00\n        /* \"#utility.yul\":16274:16276   */\n      0x20\n        /* \"#utility.yul\":16269:16271   */\n      0x1f\n        /* \"#utility.yul\":16262:16267   */\n      dup4\n        /* \"#utility.yul\":16258:16272   */\n      add\n        /* \"#utility.yul\":16254:16277   */\n      div\n        /* \"#utility.yul\":16244:16277   */\n      swap1\n      pop\n        /* \"#utility.yul\":16190:16283   */\n      swap2\n      swap1\n      pop\n      jump\t// out\n        /* \"#utility.yul\":16289:16396   */\n    tag_205:\n        /* \"#utility.yul\":16333:16341   */\n      0x00\n        /* \"#utility.yul\":16383:16388   */\n      dup3\n        /* \"#utility.yul\":16377:16381   */\n      dup3\n        /* \"#utility.yul\":16373:16389   */\n      shl\n        /* \"#utility.yul\":16352:16389   */\n      swap1\n      pop\n        /* \"#utility.yul\":16289:16396   */\n      swap3\n      swap2\n      pop\n      pop\n      jump\t// out\n        /* \"#utility.yul\":16402:16795   */\n    tag_206:\n        /* \"#utility.yul\":16471:16477   */\n      0x00\n        /* \"#utility.yul\":16521:16522   */\n      0x08\n        /* \"#utility.yul\":16509:16519   */\n      dup4\n        /* \"#utility.yul\":16505:16523   */\n      mul\n        /* \"#utility.yul\":16544:16641   */\n      tag_377\n        /* \"#utility.yul\":16574:16640   */\n      0xffffffffffffffffffffffffffffffffffffffffffffffffffffffffffffffff\n        /* \"#utility.yul\":16563:16572   */\n      dup3\n        /* \"#utility.yul\":16544:16641   */\n      tag_205\n      jump\t// in\n    tag_377:\n        /* \"#utility.yul\":16662:16701   */\n      tag_378\n        /* \"#utility.yul\":16692:16700   */\n      dup7\n        /* \"#utility.yul\":16681:16690   */\n      dup4\n        /* \"#utility.yul\":16662:16701   */\n      tag_205\n      jump\t// in\n    tag_378:\n        /* \"#utility.yul\":16650:16701   */\n      swap6\n      pop\n        /* \"#utility.yul\":16734:16738   */\n      dup1\n        /* \"#utility.yul\":16730:16739   */\n      not\n        /* \"#utility.yul\":16723:16728   */\n      dup5\n        /* \"#utility.yul\":16719:16740   */\n      and\n        /* \"#utility.yul\":16710:16740   */\n      swap4\n      pop\n        /* \"#utility.yul\":16783:16787   */\n      dup1\n        /* \"#utility.yul\":16773:16781   */\n      dup7\n        /* \"#utility.yul\":16769:16788   */\n      and\n        /* \"#utility.yul\":16762:16767   */\n      dup5\n        /* \"#utility.yul\":16759:16789   */\n      or\n        /* \"#utility.yul\":16749:16789   */\n      swap3\n      pop\n        /* \"#utility.yul\":16478:16795   */\n      pop\n      pop\n        /* \"#utility.yul\":16402:16795   */\n      swap4\n      swap3\n      pop\n      pop\n      pop\n      jump\t// out\n        /* \"#utility.yul\":16801:16861   */\n    tag_207:\n        /* \"#utility.yul\":16829:16832   */\n      0x00\n        /* \"#utility.yul\":16850:16855   */\n      dup2\n        /* \"#utility.yul\":16843:16855   */\n      swap1\n      pop\n        /* \"#utility.yul\":16801:16861   */\n      swap2\n      swap1\n      pop\n      jump\t// out\n        /* \"#utility.yul\":16867:17009   */\n    tag_208:\n        /* \"#utility.yul\":16917:16926   */\n      0x00\n        /* \"#utility.yul\":16950:17003   */\n      tag_381\n        /* \"#utility.yul\":16968:17002   */\n      tag_382\n        /* \"#utility.yul\":16977:17001   */\n      tag_383\n        /* \"#utility.yul\":16995:17000   */\n      dup5\n        /* \"#utility.yul\":16977:17001   */\n      tag_169\n      jump\t// in\n    tag_383:\n        /* \"#utility.yul\":16968:17002   */\n      tag_207\n      jump\t// in\n    tag_382:\n        /* \"#utility.yul\":16950:17003   */\n      tag_169\n      jump\t// in\n    tag_381:\n        /* \"#utility.yul\":16937:17003   */\n      swap1\n      pop\n        /* \"#utility.yul\":16867:17009   */\n      swap2\n      swap1\n      pop\n      jump\t// out\n        /* \"#utility.yul\":17015:17090   */\n    tag_209:\n        /* \"#utility.yul\":17058:17061   */\n      0x00\n        /* \"#utility.yul\":17079:17084   */\n      dup2\n        /* \"#utility.yul\":17072:17084   */\n      swap1\n      pop\n        /* \"#utility.yul\":17015:17090   */\n      swap2\n      swap1\n      pop\n      jump\t// out\n        /* \"#utility.yul\":17096:17365   */\n    tag_210:\n        /* \"#utility.yul\":17206:17245   */\n      tag_386\n        /* \"#utility.yul\":17237:17244   */\n      dup4\n        /* \"#utility.yul\":17206:17245   */\n      tag_208\n      jump\t// in\n    tag_386:\n        /* \"#utility.yul\":17267:17358   */\n      tag_387\n        /* \"#utility.yul\":17316:17357   */\n      tag_388\n        /* \"#utility.yul\":17340:17356   */\n      dup3\n        /* \"#utility.yul\":17316:17357   */\n      tag_209\n      jump\t// in\n    tag_388:\n        /* \"#utility.yul\":17308:17314   */\n      dup5\n        /* \"#utility.yul\":17301:17305   */\n      dup5\n        /* \"#utility.yul\":17295:17306   */\n      sload\n        /* \"#utility.yul\":17267:17358   */\n      tag_206\n      jump\t// in\n    tag_387:\n        /* \"#utility.yul\":17261:17265   */\n      dup3\n        /* \"#utility.yul\":17254:17359   */\n      sstore\n        /* \"#utility.yul\":17172:17365   */\n      pop\n        /* \"#utility.yul\":17096:17365   */\n      pop\n      pop\n      pop\n      jump\t// out\n        /* \"#utility.yul\":17371:17444   */\n    tag_211:\n        /* \"#utility.yul\":17416:17419   */\n      0x00\n        /* \"#utility.yul\":17371:17444   */\n      swap1\n      jump\t// out\n        /* \"#utility.yul\":17450:17639   */\n    tag_212:\n        /* \"#utility.yul\":17527:17559   */\n      tag_391\n      tag_211\n      jump\t// in\n    tag_391:\n        /* \"#utility.yul\":17568:17633   */\n      tag_392\n        /* \"#utility.yul\":17626:17632   */\n      dup2\n        /* \"#utility.yul\":17618:17624   */\n      dup5\n        /* \"#utility.yul\":17612:17616   */\n      dup5\n        /* \"#utility.yul\":17568:17633   */\n      tag_210\n      jump\t// in\n    tag_392:\n        /* \"#utility.yul\":17503:17639   */\n      pop\n        /* \"#utility.yul\":17450:17639   */\n      pop\n      pop\n      jump\t// out\n        /* \"#utility.yul\":17645:17831   */\n    tag_213:\n        /* \"#utility.yul\":17705:17825   */\n    tag_394:\n        /* \"#utility.yul\":17722:17725   */\n      dup2\n        /* \"#utility.yul\":17715:17720   */\n      dup2\n        /* \"#utility.yul\":17712:17726   */\n      lt\n        /* \"#utility.yul\":17705:17825   */\n      iszero\n      tag_396\n      jumpi\n        /* \"#utility.yul\":17776:17815   */\n      tag_397\n        /* \"#utility.yul\":17813:17814   */\n      0x00\n        /* \"#utility.yul\":17806:17811   */\n      dup3\n        /* \"#utility.yul\":17776:17815   */\n      tag_212\n      jump\t// in\n    tag_397:\n        /* \"#utility.yul\":17749:17750   */\n      0x01\n        /* \"#utility.yul\":17742:17747   */\n      dup2\n        /* \"#utility.yul\":17738:17751   */\n      add\n        /* \"#utility.yul\":17729:17751   */\n      swap1\n      pop\n        /* \"#utility.yul\":17705:17825   */\n      jump(tag_394)\n    tag_396:\n        /* \"#utility.yul\":17645:17831   */\n      pop\n      pop\n      jump\t// out\n        /* \"#utility.yul\":17837:18380   */\n    tag_214:\n        /* \"#utility.yul\":17938:17940   */\n      0x1f\n        /* \"#utility.yul\":17933:17936   */\n      dup3\n        /* \"#utility.yul\":17930:17941   */\n      gt\n        /* \"#utility.yul\":17927:18373   */\n      iszero\n      tag_399\n      jumpi\n        /* \"#utility.yul\":17972:18010   */\n      tag_400\n        /* \"#utility.yul\":18004:18009   */\n      dup2\n        /* \"#utility.yul\":17972:18010   */\n      tag_203\n      jump\t// in\n    tag_400:\n        /* \"#utility.yul\":18056:18085   */\n      tag_401\n        /* \"#utility.yul\":18074:18084   */\n      dup5\n        /* \"#utility.yul\":18056:18085   */\n      tag_204\n      jump\t// in\n    tag_401:\n        /* \"#utility.yul\":18046:18054   */\n      dup2\n        /* \"#utility.yul\":18042:18086   */\n      add\n        /* \"#utility.yul\":18239:18241   */\n      0x20\n        /* \"#utility.yul\":18227:18237   */\n      dup6\n        /* \"#utility.yul\":18224:18242   */\n      lt\n        /* \"#utility.yul\":18221:18270   */\n      iszero\n      tag_402\n      jumpi\n        /* \"#utility.yul\":18260:18268   */\n      dup2\n        /* \"#utility.yul\":18245:18268   */\n      swap1\n      pop\n        /* \"#utility.yul\":18221:18270   */\n    tag_402:\n        /* \"#utility.yul\":18283:18363   */\n      tag_403\n        /* \"#utility.yul\":18339:18361   */\n      tag_404\n        /* \"#utility.yul\":18357:18360   */\n      dup6\n        /* \"#utility.yul\":18339:18361   */\n      tag_204\n      jump\t// in\n    tag_404:\n        /* \"#utility.yul\":18329:18337   */\n      dup4\n        /* \"#utility.yul\":18325:18362   */\n      add\n        /* \"#utility.yul\":18312:18323   */\n      dup3\n        /* \"#utility.yul\":18283:18363   */\n      tag_213\n      jump\t// in\n    tag_403:\n        /* \"#utility.yul\":17942:18373   */\n      pop\n      pop\n        /* \"#utility.yul\":17927:18373   */\n    tag_399:\n        /* \"#utility.yul\":17837:18380   */\n      pop\n      pop\n      pop\n      jump\t// out\n        /* \"#utility.yul\":18386:18503   */\n    tag_215:\n        /* \"#utility.yul\":18440:18448   */\n      0x00\n        /* \"#utility.yul\":18490:18495   */\n      dup3\n        /* \"#utility.yul\":18484:18488   */\n      dup3\n        /* \"#utility.yul\":18480:18496   */\n      shr\n        /* \"#utility.yul\":18459:18496   */\n      swap1\n      pop\n        /* \"#utility.yul\":18386:18503   */\n      swap3\n      swap2\n      pop\n      pop\n      jump\t// out\n        /* \"#utility.yul\":18509:18678   */\n    tag_216:\n        /* \"#utility.yul\":18553:18559   */\n      0x00\n        /* \"#utility.yul\":18586:18637   */\n      tag_407\n        /* \"#utility.yul\":18634:18635   */\n      0x00\n        /* \"#utility.yul\":18630:18636   */\n      not\n        /* \"#utility.yul\":18622:18627   */\n      dup5\n        /* \"#utility.yul\":18619:18620   */\n      0x08\n        /* \"#utility.yul\":18615:18628   */\n      mul\n        /* \"#utility.yul\":18586:18637   */\n      tag_215\n      jump\t// in\n    tag_407:\n        /* \"#utility.yul\":18582:18638   */\n      not\n        /* \"#utility.yul\":18667:18671   */\n      dup1\n        /* \"#utility.yul\":18661:18665   */\n      dup4\n        /* \"#utility.yul\":18657:18672   */\n      and\n        /* \"#utility.yul\":18647:18672   */\n      swap2\n      pop\n        /* \"#utility.yul\":18560:18678   */\n      pop\n        /* \"#utility.yul\":18509:18678   */\n      swap3\n      swap2\n      pop\n      pop\n      jump\t// out\n        /* \"#utility.yul\":18683:18978   */\n    tag_217:\n        /* \"#utility.yul\":18759:18763   */\n      0x00\n        /* \"#utility.yul\":18905:18934   */\n      tag_409\n        /* \"#utility.yul\":18930:18933   */\n      dup4\n        /* \"#utility.yul\":18924:18928   */\n      dup4\n        /* \"#utility.yul\":18905:18934   */\n      tag_216\n      jump\t// in\n    tag_409:\n        /* \"#utility.yul\":18897:18934   */\n      swap2\n      pop\n        /* \"#utility.yul\":18967:18970   */\n      dup3\n        /* \"#utility.yul\":18964:18965   */\n      0x02\n        /* \"#utility.yul\":18960:18971   */\n      mul\n        /* \"#utility.yul\":18954:18958   */\n      dup3\n        /* \"#utility.yul\":18951:18972   */\n      or\n        /* \"#utility.yul\":18943:18972   */\n      swap1\n      pop\n        /* \"#utility.yul\":18683:18978   */\n      swap3\n      swap2\n      pop\n      pop\n      jump\t// out\n        /* \"#utility.yul\":18983:20378   */\n    tag_156:\n        /* \"#utility.yul\":19100:19137   */\n      tag_411\n        /* \"#utility.yul\":19133:19136   */\n      dup3\n        /* \"#utility.yul\":19100:19137   */\n      tag_177\n      jump\t// in\n    tag_411:\n        /* \"#utility.yul\":19202:19220   */\n      0xffffffffffffffff\n        /* \"#utility.yul\":19194:19200   */\n      dup2\n        /* \"#utility.yul\":19191:19221   */\n      gt\n        /* \"#utility.yul\":19188:19244   */\n      iszero\n      tag_412\n      jumpi\n        /* \"#utility.yul\":19224:19242   */\n      tag_413\n      tag_70\n      jump\t// in\n    tag_413:\n        /* \"#utility.yul\":19188:19244   */\n    tag_412:\n        /* \"#utility.yul\":19268:19306   */\n      tag_414\n        /* \"#utility.yul\":19300:19304   */\n      dup3\n        /* \"#utility.yul\":19294:19305   */\n      sload\n        /* \"#utility.yul\":19268:19306   */\n      tag_82\n      jump\t// in\n    tag_414:\n        /* \"#utility.yul\":19353:19420   */\n      tag_415\n        /* \"#utility.yul\":19413:19419   */\n      dup3\n        /* \"#utility.yul\":19405:19411   */\n      dup3\n        /* \"#utility.yul\":19399:19403   */\n      dup6\n        /* \"#utility.yul\":19353:19420   */\n      tag_214\n      jump\t// in\n    tag_415:\n        /* \"#utility.yul\":19447:19448   */\n      0x00\n        /* \"#utility.yul\":19471:19475   */\n      0x20\n        /* \"#utility.yul\":19458:19475   */\n      swap1\n      pop\n        /* \"#utility.yul\":19503:19505   */\n      0x1f\n        /* \"#utility.yul\":19495:19501   */\n      dup4\n        /* \"#utility.yul\":19492:19506   */\n      gt\n        /* \"#utility.yul\":19520:19521   */\n      0x01\n        /* \"#utility.yul\":19515:20133   */\n      dup2\n      eq\n      tag_417\n      jumpi\n        /* \"#utility.yul\":20177:20178   */\n      0x00\n        /* \"#utility.yul\":20194:20200   */\n      dup5\n        /* \"#utility.yul\":20191:20268   */\n      iszero\n      tag_418\n      jumpi\n        /* \"#utility.yul\":20243:20252   */\n      dup3\n        /* \"#utility.yul\":20238:20241   */\n      dup8\n        /* \"#utility.yul\":20234:20253   */\n      add\n        /* \"#utility.yul\":20228:20254   */\n      mload\n        /* \"#utility.yul\":20219:20254   */\n      swap1\n      pop\n        /* \"#utility.yul\":20191:20268   */\n    tag_418:\n        /* \"#utility.yul\":20294:20361   */\n      tag_419\n        /* \"#utility.yul\":20354:20360   */\n      dup6\n        /* \"#utility.yul\":20347:20352   */\n      dup3\n        /* \"#utility.yul\":20294:20361   */\n      tag_217\n      jump\t// in\n    tag_419:\n        /* \"#utility.yul\":20288:20292   */\n      dup7\n        /* \"#utility.yul\":20281:20362   */\n      sstore\n        /* \"#utility.yul\":20150:20372   */\n      pop\n        /* \"#utility.yul\":19485:20372   */\n      jump(tag_416)\n        /* \"#utility.yul\":19515:20133   */\n    tag_417:\n        /* \"#utility.yul\":19567:19571   */\n      0x1f\n        /* \"#utility.yul\":19563:19572   */\n      not\n        /* \"#utility.yul\":19555:19561   */\n      dup5\n        /* \"#utility.yul\":19551:19573   */\n      and\n        /* \"#utility.yul\":19601:19638   */\n      tag_420\n        /* \"#utility.yul\":19633:19637   */\n      dup7\n        /* \"#utility.yul\":19601:19638   */\n      tag_203\n      jump\t// in\n    tag_420:\n        /* \"#utility.yul\":19660:19661   */\n      0x00\n        /* \"#utility.yul\":19674:19882   */\n    tag_421:\n        /* \"#utility.yul\":19688:19695   */\n      dup3\n        /* \"#utility.yul\":19685:19686   */\n      dup2\n        /* \"#utility.yul\":19682:19696   */\n      lt\n        /* \"#utility.yul\":19674:19882   */\n      iszero\n      tag_423\n      jumpi\n        /* \"#utility.yul\":19767:19776   */\n      dup5\n        /* \"#utility.yul\":19762:19765   */\n      dup10\n        /* \"#utility.yul\":19758:19777   */\n      add\n        /* \"#utility.yul\":19752:19778   */\n      mload\n        /* \"#utility.yul\":19744:19750   */\n      dup3\n        /* \"#utility.yul\":19737:19779   */\n      sstore\n        /* \"#utility.yul\":19818:19819   */\n      0x01\n        /* \"#utility.yul\":19810:19816   */\n      dup3\n        /* \"#utility.yul\":19806:19820   */\n      add\n        /* \"#utility.yul\":19796:19820   */\n      swap2\n      pop\n        /* \"#utility.yul\":19865:19867   */\n      0x20\n        /* \"#utility.yul\":19854:19863   */\n      dup6\n        /* \"#utility.yul\":19850:19868   */\n      add\n        /* \"#utility.yul\":19837:19868   */\n      swap5\n      pop\n        /* \"#utility.yul\":19711:19715   */\n      0x20\n        /* \"#utility.yul\":19708:19709   */\n      dup2\n        /* \"#utility.yul\":19704:19716   */\n      add\n        /* \"#utility.yul\":19699:19716   */\n      swap1\n      pop\n        /* \"#utility.yul\":19674:19882   */\n      jump(tag_421)\n    tag_423:\n        /* \"#utility.yul\":19910:19916   */\n      dup7\n        /* \"#utility.yul\":19901:19908   */\n      dup4\n        /* \"#utility.yul\":19898:19917   */\n      lt\n        /* \"#utility.yul\":19895:20074   */\n      iszero\n      tag_424\n      jumpi\n        /* \"#utility.yul\":19968:19977   */\n      dup5\n        /* \"#utility.yul\":19963:19966   */\n      dup10\n        /* \"#utility.yul\":19959:19978   */\n      add\n        /* \"#utility.yul\":19953:19979   */\n      mload\n        /* \"#utility.yul\":20011:20059   */\n      tag_425\n        /* \"#utility.yul\":20053:20057   */\n      0x1f\n        /* \"#utility.yul\":20045:20051   */\n      dup10\n        /* \"#utility.yul\":20041:20058   */\n      and\n        /* \"#utility.yul\":20030:20039   */\n      dup3\n        /* \"#utility.yul\":20011:20059   */\n      tag_216\n      jump\t// in\n    tag_425:\n        /* \"#utility.yul\":20003:20009   */\n      dup4\n        /* \"#utility.yul\":19996:20060   */\n      sstore\n        /* \"#utility.yul\":19918:20074   */\n      pop\n        /* \"#utility.yul\":19895:20074   */\n    tag_424:\n        /* \"#utility.yul\":20120:20121   */\n      0x01\n        /* \"#utility.yul\":20116:20117   */\n      0x02\n        /* \"#utility.yul\":20108:20114   */\n      dup9\n        /* \"#utility.yul\":20104:20118   */\n      mul\n        /* \"#utility.yul\":20100:20122   */\n      add\n        /* \"#utility.yul\":20094:20098   */\n      dup9\n        /* \"#utility.yul\":20087:20123   */\n      sstore\n        /* \"#utility.yul\":19522:20133   */\n      pop\n      pop\n      pop\n        /* \"#utility.yul\":19485:20372   */\n    tag_416:\n      pop\n        /* \"#utility.yul\":19075:20378   */\n      pop\n      pop\n      pop\n        /* \"#utility.yul\":18983:20378   */\n      pop\n      pop\n      jump\t// out\n\n    auxdata: 0xa2646970667358221220443e7e8231b4a13732937d30f5f0c933b1fb05e683cca3a2164c1353a11fa59964736f6c63430008120033\n}\n",
				"bytecode": {
					"linkReferences": {},
					"object": "608060405233600760006101000a81548173ffffffffffffffffffffffffffffffffffffffff021916908373ffffffffffffffffffffffffffffffffffffffff16021790555034801561005157600080fd5b50611f43806100616000396000f3fe608060405234801561001057600080fd5b506004361061009e5760003560e01c8063c4a85bc111610066578063c4a85bc114610143578063ce336dad1461015f578063d21d15961461018f578063de6f24bb146101ab578063fb46d4c5146101c75761009e565b80634dbf27cc146100a35780634dc0a687146100bf5780638823da6c146100ef57806399d147c21461010b578063b88e318d14610127575b600080fd5b6100bd60048036038101906100b891906114b2565b6101e3565b005b6100d960048036038101906100d49190611515565b610280565b6040516100e69190611715565b60405180910390f35b610109600480360381019061010491906114b2565b6105e6565b005b61012560048036038101906101209190611737565b61070e565b005b610141600480360381019061013c91906118ac565b6107e5565b005b61015d600480360381019061015891906114b2565b6108be565b005b6101796004803603810190610174919061191b565b6109e6565b6040516101869190611715565b60405180910390f35b6101a960048036038101906101a4919061195b565b610e72565b005b6101c560048036038101906101c0919061195b565b610f49565b005b6101e160048036038101906101dc91906119b7565b610fe8565b005b600760009054906101000a900473ffffffffffffffffffffffffffffffffffffffff1673ffffffffffffffffffffffffffffffffffffffff163373ffffffffffffffffffffffffffffffffffffffff1614610273576040517f08c379a000000000000000000000000000000000000000000000000000000000815260040161026a90611a5d565b60405180910390fd5b61027d3382611085565b50565b6060600760009054906101000a900473ffffffffffffffffffffffffffffffffffffffff1673ffffffffffffffffffffffffffffffffffffffff163373ffffffffffffffffffffffffffffffffffffffff161480610386575060036000600760009054906101000a900473ffffffffffffffffffffffffffffffffffffffff1673ffffffffffffffffffffffffffffffffffffffff1673ffffffffffffffffffffffffffffffffffffffff16815260200190815260200160002060003373ffffffffffffffffffffffffffffffffffffffff1673ffffffffffffffffffffffffffffffffffffffff16815260200190815260200160002060009054906101000a900460ff165b6103c5576040517f08c379a00000000000000000000000000000000000000000000000000000000081526004016103bc90611a5d565b60405180910390fd5b6000821180156103d757506005548211155b610416576040517f08c379a000000000000000000000000000000000000000000000000000000000815260040161040d90611ac9565b60405180910390fd5b60008267ffffffffffffffff81111561043257610431611781565b5b60405190808252806020026020018201604052801561046b57816020015b610458611402565b8152602001906001900390816104505790505b50905060005b838110156105dc5760008060018360055461048c9190611b18565b6104969190611b18565b8152602001908152602001600020604051806080016040529081600082015481526020016001820160009054906101000a900473ffffffffffffffffffffffffffffffffffffffff1673ffffffffffffffffffffffffffffffffffffffff1673ffffffffffffffffffffffffffffffffffffffff16815260200160028201805461051f90611b7b565b80601f016020809104026020016040519081016040528092919081815260200182805461054b90611b7b565b80156105985780601f1061056d57610100808354040283529160200191610598565b820191906000526020600020905b81548152906001019060200180831161057b57829003601f168201915b505050505081526020016003820154815250508282815181106105be576105bd611bac565b5b602002602001018190525080806105d490611bdb565b915050610471565b5080915050919050565b600760009054906101000a900473ffffffffffffffffffffffffffffffffffffffff1673ffffffffffffffffffffffffffffffffffffffff163373ffffffffffffffffffffffffffffffffffffffff1614610676576040517f08c379a000000000000000000000000000000000000000000000000000000000815260040161066d90611a5d565b60405180910390fd5b6000600360003373ffffffffffffffffffffffffffffffffffffffff1673ffffffffffffffffffffffffffffffffffffffff16815260200190815260200160002060008373ffffffffffffffffffffffffffffffffffffffff1673ffffffffffffffffffffffffffffffffffffffff16815260200190815260200160002060006101000a81548160ff02191690831515021790555050565b600360008373ffffffffffffffffffffffffffffffffffffffff1673ffffffffffffffffffffffffffffffffffffffff16815260200190815260200160002060003373ffffffffffffffffffffffffffffffffffffffff1673ffffffffffffffffffffffffffffffffffffffff16815260200190815260200160002060009054906101000a900460ff166107d7576040517f08c379a00000000000000000000000000000000000000000000000000000000081526004016107ce90611a5d565b60405180910390fd5b6107e18282611085565b5050565b600360008473ffffffffffffffffffffffffffffffffffffffff1673ffffffffffffffffffffffffffffffffffffffff16815260200190815260200160002060003373ffffffffffffffffffffffffffffffffffffffff1673ffffffffffffffffffffffffffffffffffffffff16815260200190815260200160002060009054906101000a900460ff166108ae576040517f08c379a00000000000000000000000000000000000000000000000000000000081526004016108a590611a5d565b60405180910390fd5b6108b9838383611129565b505050565b600760009054906101000a900473ffffffffffffffffffffffffffffffffffffffff1673ffffffffffffffffffffffffffffffffffffffff163373ffffffffffffffffffffffffffffffffffffffff161461094e576040517f08c379a000000000000000000000000000000000000000000000000000000000815260040161094590611a5d565b60405180910390fd5b6001600360003373ffffffffffffffffffffffffffffffffffffffff1673ffffffffffffffffffffffffffffffffffffffff16815260200190815260200160002060008373ffffffffffffffffffffffffffffffffffffffff1673ffffffffffffffffffffffffffffffffffffffff16815260200190815260200160002060006101000a81548160ff02191690831515021790555050565b6060600760009054906101000a900473ffffffffffffffffffffffffffffffffffffffff1673ffffffffffffffffffffffffffffffffffffffff163373ffffffffffffffffffffffffffffffffffffffff161480610aec575060036000600760009054906101000a900473ffffffffffffffffffffffffffffffffffffffff1673ffffffffffffffffffffffffffffffffffffffff1673ffffffffffffffffffffffffffffffffffffffff16815260200190815260200160002060003373ffffffffffffffffffffffffffffffffffffffff1673ffffffffffffffffffffffffffffffffffffffff16815260200190815260200160002060009054906101000a900460ff165b610b2b576040517f08c379a0000000000000000000000000000000000000000000000000000000008152600401610b2290611a5d565b60405180910390fd5b600082118015610b3d57506005548211155b610b7c576040517f08c379a0000000000000000000000000000000000000000000000000000000008152600401610b7390611ac9565b60405180910390fd5b6000600160008573ffffffffffffffffffffffffffffffffffffffff1673ffffffffffffffffffffffffffffffffffffffff1681526020019081526020016000208054905011610c01576040517f08c379a0000000000000000000000000000000000000000000000000000000008152600401610bf890611c6f565b60405180910390fd5b60008267ffffffffffffffff811115610c1d57610c1c611781565b5b604051908082528060200260200182016040528015610c5657816020015b610c43611402565b815260200190600190039081610c3b5790505b509050600060018060008773ffffffffffffffffffffffffffffffffffffffff1673ffffffffffffffffffffffffffffffffffffffff16815260200190815260200160002080549050610ca99190611b18565b905060005b84811015610e6657600080600160008973ffffffffffffffffffffffffffffffffffffffff1673ffffffffffffffffffffffffffffffffffffffff1681526020019081526020016000208385610d049190611b18565b81548110610d1557610d14611bac565b5b90600052602060002001548152602001908152602001600020604051806080016040529081600082015481526020016001820160009054906101000a900473ffffffffffffffffffffffffffffffffffffffff1673ffffffffffffffffffffffffffffffffffffffff1673ffffffffffffffffffffffffffffffffffffffff168152602001600282018054610da990611b7b565b80601f0160208091040260200160405190810160405280929190818152602001828054610dd590611b7b565b8015610e225780601f10610df757610100808354040283529160200191610e22565b820191906000526020600020905b815481529060010190602001808311610e0557829003601f168201915b50505050508152602001600382015481525050838281518110610e4857610e47611bac565b5b60200260200101819052508080610e5e90611bdb565b915050610cae565b50819250505092915050565b600360008373ffffffffffffffffffffffffffffffffffffffff1673ffffffffffffffffffffffffffffffffffffffff16815260200190815260200160002060003373ffffffffffffffffffffffffffffffffffffffff1673ffffffffffffffffffffffffffffffffffffffff16815260200190815260200160002060009054906101000a900460ff16610f3b576040517f08c379a0000000000000000000000000000000000000000000000000000000008152600401610f3290611a5d565b60405180910390fd5b610f4582826112bd565b5050565b600760009054906101000a900473ffffffffffffffffffffffffffffffffffffffff1673ffffffffffffffffffffffffffffffffffffffff163373ffffffffffffffffffffffffffffffffffffffff1614610fd9576040517f08c379a0000000000000000000000000000000000000000000000000000000008152600401610fd090611a5d565b60405180910390fd5b610fe4338383611129565b5050565b600760009054906101000a900473ffffffffffffffffffffffffffffffffffffffff1673ffffffffffffffffffffffffffffffffffffffff163373ffffffffffffffffffffffffffffffffffffffff1614611078576040517f08c379a000000000000000000000000000000000000000000000000000000000815260040161106f90611a5d565b60405180910390fd5b61108233826112bd565b50565b600460008373ffffffffffffffffffffffffffffffffffffffff1673ffffffffffffffffffffffffffffffffffffffff168152602001908152602001600020819080600181540180825580915050600190039060005260206000200160009091909190916101000a81548173ffffffffffffffffffffffffffffffffffffffff021916908373ffffffffffffffffffffffffffffffffffffffff1602179055505050565b600260008473ffffffffffffffffffffffffffffffffffffffff1673ffffffffffffffffffffffffffffffffffffffff1681526020019081526020016000206040518060a0016040528060065481526020018573ffffffffffffffffffffffffffffffffffffffff1681526020018473ffffffffffffffffffffffffffffffffffffffff1681526020018381526020014281525090806001815401808255809150506001900390600052602060002090600502016000909190919091506000820151816000015560208201518160010160006101000a81548173ffffffffffffffffffffffffffffffffffffffff021916908373ffffffffffffffffffffffffffffffffffffffff16021790555060408201518160020160006101000a81548173ffffffffffffffffffffffffffffffffffffffff021916908373ffffffffffffffffffffffffffffffffffffffff16021790555060608201518160030190816112939190611e3b565b50608082015181600401555050600660008154809291906112b390611bdb565b9190505550505050565b604051806080016040528060055481526020018373ffffffffffffffffffffffffffffffffffffffff1681526020018281526020014281525060008060055481526020019081526020016000206000820151816000015560208201518160010160006101000a81548173ffffffffffffffffffffffffffffffffffffffff021916908373ffffffffffffffffffffffffffffffffffffffff16021790555060408201518160020190816113709190611e3b565b5060608201518160030155905050600160008373ffffffffffffffffffffffffffffffffffffffff1673ffffffffffffffffffffffffffffffffffffffff1681526020019081526020016000206005549080600181540180825580915050600190039060005260206000200160009091909190915055600560008154809291906113f990611bdb565b91905055505050565b604051806080016040528060008152602001600073ffffffffffffffffffffffffffffffffffffffff16815260200160608152602001600081525090565b6000604051905090565b600080fd5b600080fd5b600073ffffffffffffffffffffffffffffffffffffffff82169050919050565b600061147f82611454565b9050919050565b61148f81611474565b811461149a57600080fd5b50565b6000813590506114ac81611486565b92915050565b6000602082840312156114c8576114c761144a565b5b60006114d68482850161149d565b91505092915050565b6000819050919050565b6114f2816114df565b81146114fd57600080fd5b50565b60008135905061150f816114e9565b92915050565b60006020828403121561152b5761152a61144a565b5b600061153984828501611500565b91505092915050565b600081519050919050565b600082825260208201905092915050565b6000819050602082019050919050565b611577816114df565b82525050565b61158681611474565b82525050565b600081519050919050565b600082825260208201905092915050565b60005b838110156115c65780820151818401526020810190506115ab565b60008484015250505050565b6000601f19601f8301169050919050565b60006115ee8261158c565b6115f88185611597565b93506116088185602086016115a8565b611611816115d2565b840191505092915050565b6000608083016000830151611634600086018261156e565b506020830151611647602086018261157d565b506040830151848203604086015261165f82826115e3565b9150506060830151611674606086018261156e565b508091505092915050565b600061168b838361161c565b905092915050565b6000602082019050919050565b60006116ab82611542565b6116b5818561154d565b9350836020820285016116c78561155e565b8060005b8581101561170357848403895281516116e4858261167f565b94506116ef83611693565b925060208a019950506001810190506116cb565b50829750879550505050505092915050565b6000602082019050818103600083015261172f81846116a0565b905092915050565b6000806040838503121561174e5761174d61144a565b5b600061175c8582860161149d565b925050602061176d8582860161149d565b9150509250929050565b600080fd5b600080fd5b7f4e487b7100000000000000000000000000000000000000000000000000000000600052604160045260246000fd5b6117b9826115d2565b810181811067ffffffffffffffff821117156117d8576117d7611781565b5b80604052505050565b60006117eb611440565b90506117f782826117b0565b919050565b600067ffffffffffffffff82111561181757611816611781565b5b611820826115d2565b9050602081019050919050565b82818337600083830152505050565b600061184f61184a846117fc565b6117e1565b90508281526020810184848401111561186b5761186a61177c565b5b61187684828561182d565b509392505050565b600082601f83011261189357611892611777565b5b81356118a384826020860161183c565b91505092915050565b6000806000606084860312156118c5576118c461144a565b5b60006118d38682870161149d565b93505060206118e48682870161149d565b925050604084013567ffffffffffffffff8111156119055761190461144f565b5b6119118682870161187e565b9150509250925092565b600080604083850312156119325761193161144a565b5b60006119408582860161149d565b925050602061195185828601611500565b9150509250929050565b600080604083850312156119725761197161144a565b5b60006119808582860161149d565b925050602083013567ffffffffffffffff8111156119a1576119a061144f565b5b6119ad8582860161187e565b9150509250929050565b6000602082840312156119cd576119cc61144a565b5b600082013567ffffffffffffffff8111156119eb576119ea61144f565b5b6119f78482850161187e565b91505092915050565b600082825260208201905092915050565b7f416363657373206e6f7420616c6c6f7765640000000000000000000000000000600082015250565b6000611a47601283611a00565b9150611a5282611a11565b602082019050919050565b60006020820190508181036000830152611a7681611a3a565b9050919050565b7f636f756e74206f7574206f6620626f756e640000000000000000000000000000600082015250565b6000611ab3601283611a00565b9150611abe82611a7d565b602082019050919050565b60006020820190508181036000830152611ae281611aa6565b9050919050565b7f4e487b7100000000000000000000000000000000000000000000000000000000600052601160045260246000fd5b6000611b23826114df565b9150611b2e836114df565b9250828203905081811115611b4657611b45611ae9565b5b92915050565b7f4e487b7100000000000000000000000000000000000000000000000000000000600052602260045260246000fd5b60006002820490506001821680611b9357607f821691505b602082108103611ba657611ba5611b4c565b5b50919050565b7f4e487b7100000000000000000000000000000000000000000000000000000000600052603260045260246000fd5b6000611be6826114df565b91507fffffffffffffffffffffffffffffffffffffffffffffffffffffffffffffffff8203611c1857611c17611ae9565b5b600182019050919050565b7f6e6f207477656574730000000000000000000000000000000000000000000000600082015250565b6000611c59600983611a00565b9150611c6482611c23565b602082019050919050565b60006020820190508181036000830152611c8881611c4c565b9050919050565b60008190508160005260206000209050919050565b60006020601f8301049050919050565b600082821b905092915050565b600060088302611cf17fffffffffffffffffffffffffffffffffffffffffffffffffffffffffffffffff82611cb4565b611cfb8683611cb4565b95508019841693508086168417925050509392505050565b6000819050919050565b6000611d38611d33611d2e846114df565b611d13565b6114df565b9050919050565b6000819050919050565b611d5283611d1d565b611d66611d5e82611d3f565b848454611cc1565b825550505050565b600090565b611d7b611d6e565b611d86818484611d49565b505050565b5b81811015611daa57611d9f600082611d73565b600181019050611d8c565b5050565b601f821115611def57611dc081611c8f565b611dc984611ca4565b81016020851015611dd8578190505b611dec611de485611ca4565b830182611d8b565b50505b505050565b600082821c905092915050565b6000611e1260001984600802611df4565b1980831691505092915050565b6000611e2b8383611e01565b9150826002028217905092915050565b611e448261158c565b67ffffffffffffffff811115611e5d57611e5c611781565b5b611e678254611b7b565b611e72828285611dae565b600060209050601f831160018114611ea55760008415611e93578287015190505b611e9d8582611e1f565b865550611f05565b601f198416611eb386611c8f565b60005b82811015611edb57848901518255600182019150602085019450602081019050611eb6565b86831015611ef85784890151611ef4601f891682611e01565b8355505b6001600288020188555050505b50505050505056fea2646970667358221220443e7e8231b4a13732937d30f5f0c933b1fb05e683cca3a2164c1353a11fa59964736f6c63430008120033",
					"opcodes": "PUSH1 0x80 PUSH1 0x40 MSTORE CALLER PUSH1 0x7 PUSH1 0x0 PUSH2 0x100 EXP DUP2 SLOAD DUP2 PUSH20 0xFFFFFFFFFFFFFFFFFFFFFFFFFFFFFFFFFFFFFFFF MUL NOT AND SWAP1 DUP4 PUSH20 0xFFFFFFFFFFFFFFFFFFFFFFFFFFFFFFFFFFFFFFFF AND MUL OR SWAP1 SSTORE POP CALLVALUE DUP1 ISZERO PUSH2 0x51 JUMPI PUSH1 0x0 DUP1 REVERT JUMPDEST POP PUSH2 0x1F43 DUP1 PUSH2 0x61 PUSH1 0x0 CODECOPY PUSH1 0x0 RETURN INVALID PUSH1 0x80 PUSH1 0x40 MSTORE CALLVALUE DUP1 ISZERO PUSH2 0x10 JUMPI PUSH1 0x0 DUP1 REVERT JUMPDEST POP PUSH1 0x4 CALLDATASIZE LT PUSH2 0x9E JUMPI PUSH1 0x0 CALLDATALOAD PUSH1 0xE0 SHR DUP1 PUSH4 0xC4A85BC1 GT PUSH2 0x66 JUMPI DUP1 PUSH4 0xC4A85BC1 EQ PUSH2 0x143 JUMPI DUP1 PUSH4 0xCE336DAD EQ PUSH2 0x15F JUMPI DUP1 PUSH4 0xD21D1596 EQ PUSH2 0x18F JUMPI DUP1 PUSH4 0xDE6F24BB EQ PUSH2 0x1AB JUMPI DUP1 PUSH4 0xFB46D4C5 EQ PUSH2 0x1C7 JUMPI PUSH2 0x9E JUMP JUMPDEST DUP1 PUSH4 0x4DBF27CC EQ PUSH2 0xA3 JUMPI DUP1 PUSH4 0x4DC0A687 EQ PUSH2 0xBF JUMPI DUP1 PUSH4 0x8823DA6C EQ PUSH2 0xEF JUMPI DUP1 PUSH4 0x99D147C2 EQ PUSH2 0x10B JUMPI DUP1 PUSH4 0xB88E318D EQ PUSH2 0x127 JUMPI JUMPDEST PUSH1 0x0 DUP1 REVERT JUMPDEST PUSH2 0xBD PUSH1 0x4 DUP1 CALLDATASIZE SUB DUP2 ADD SWAP1 PUSH2 0xB8 SWAP2 SWAP1 PUSH2 0x14B2 JUMP JUMPDEST PUSH2 0x1E3 JUMP JUMPDEST STOP JUMPDEST PUSH2 0xD9 PUSH1 0x4 DUP1 CALLDATASIZE SUB DUP2 ADD SWAP1 PUSH2 0xD4 SWAP2 SWAP1 PUSH2 0x1515 JUMP JUMPDEST PUSH2 0x280 JUMP JUMPDEST PUSH1 0x40 MLOAD PUSH2 0xE6 SWAP2 SWAP1 PUSH2 0x1715 JUMP JUMPDEST PUSH1 0x40 MLOAD DUP1 SWAP2 SUB SWAP1 RETURN JUMPDEST PUSH2 0x109 PUSH1 0x4 DUP1 CALLDATASIZE SUB DUP2 ADD SWAP1 PUSH2 0x104 SWAP2 SWAP1 PUSH2 0x14B2 JUMP JUMPDEST PUSH2 0x5E6 JUMP JUMPDEST STOP JUMPDEST PUSH2 0x125 PUSH1 0x4 DUP1 CALLDATASIZE SUB DUP2 ADD SWAP1 PUSH2 0x120 SWAP2 SWAP1 PUSH2 0x1737 JUMP JUMPDEST PUSH2 0x70E JUMP JUMPDEST STOP JUMPDEST PUSH2 0x141 PUSH1 0x4 DUP1 CALLDATASIZE SUB DUP2 ADD SWAP1 PUSH2 0x13C SWAP2 SWAP1 PUSH2 0x18AC JUMP JUMPDEST PUSH2 0x7E5 JUMP JUMPDEST STOP JUMPDEST PUSH2 0x15D PUSH1 0x4 DUP1 CALLDATASIZE SUB DUP2 ADD SWAP1 PUSH2 0x158 SWAP2 SWAP1 PUSH2 0x14B2 JUMP JUMPDEST PUSH2 0x8BE JUMP JUMPDEST STOP JUMPDEST PUSH2 0x179 PUSH1 0x4 DUP1 CALLDATASIZE SUB DUP2 ADD SWAP1 PUSH2 0x174 SWAP2 SWAP1 PUSH2 0x191B JUMP JUMPDEST PUSH2 0x9E6 JUMP JUMPDEST PUSH1 0x40 MLOAD PUSH2 0x186 SWAP2 SWAP1 PUSH2 0x1715 JUMP JUMPDEST PUSH1 0x40 MLOAD DUP1 SWAP2 SUB SWAP1 RETURN JUMPDEST PUSH2 0x1A9 PUSH1 0x4 DUP1 CALLDATASIZE SUB DUP2 ADD SWAP1 PUSH2 0x1A4 SWAP2 SWAP1 PUSH2 0x195B JUMP JUMPDEST PUSH2 0xE72 JUMP JUMPDEST STOP JUMPDEST PUSH2 0x1C5 PUSH1 0x4 DUP1 CALLDATASIZE SUB DUP2 ADD SWAP1 PUSH2 0x1C0 SWAP2 SWAP1 PUSH2 0x195B JUMP JUMPDEST PUSH2 0xF49 JUMP JUMPDEST STOP JUMPDEST PUSH2 0x1E1 PUSH1 0x4 DUP1 CALLDATASIZE SUB DUP2 ADD SWAP1 PUSH2 0x1DC SWAP2 SWAP1 PUSH2 0x19B7 JUMP JUMPDEST PUSH2 0xFE8 JUMP JUMPDEST STOP JUMPDEST PUSH1 0x7 PUSH1 0x0 SWAP1 SLOAD SWAP1 PUSH2 0x100 EXP SWAP1 DIV PUSH20 0xFFFFFFFFFFFFFFFFFFFFFFFFFFFFFFFFFFFFFFFF AND PUSH20 0xFFFFFFFFFFFFFFFFFFFFFFFFFFFFFFFFFFFFFFFF AND CALLER PUSH20 0xFFFFFFFFFFFFFFFFFFFFFFFFFFFFFFFFFFFFFFFF AND EQ PUSH2 0x273 JUMPI PUSH1 0x40 MLOAD PUSH32 0x8C379A000000000000000000000000000000000000000000000000000000000 DUP2 MSTORE PUSH1 0x4 ADD PUSH2 0x26A SWAP1 PUSH2 0x1A5D JUMP JUMPDEST PUSH1 0x40 MLOAD DUP1 SWAP2 SUB SWAP1 REVERT JUMPDEST PUSH2 0x27D CALLER DUP3 PUSH2 0x1085 JUMP JUMPDEST POP JUMP JUMPDEST PUSH1 0x60 PUSH1 0x7 PUSH1 0x0 SWAP1 SLOAD SWAP1 PUSH2 0x100 EXP SWAP1 DIV PUSH20 0xFFFFFFFFFFFFFFFFFFFFFFFFFFFFFFFFFFFFFFFF AND PUSH20 0xFFFFFFFFFFFFFFFFFFFFFFFFFFFFFFFFFFFFFFFF AND CALLER PUSH20 0xFFFFFFFFFFFFFFFFFFFFFFFFFFFFFFFFFFFFFFFF AND EQ DUP1 PUSH2 0x386 JUMPI POP PUSH1 0x3 PUSH1 0x0 PUSH1 0x7 PUSH1 0x0 SWAP1 SLOAD SWAP1 PUSH2 0x100 EXP SWAP1 DIV PUSH20 0xFFFFFFFFFFFFFFFFFFFFFFFFFFFFFFFFFFFFFFFF AND PUSH20 0xFFFFFFFFFFFFFFFFFFFFFFFFFFFFFFFFFFFFFFFF AND PUSH20 0xFFFFFFFFFFFFFFFFFFFFFFFFFFFFFFFFFFFFFFFF AND DUP2 MSTORE PUSH1 0x20 ADD SWAP1 DUP2 MSTORE PUSH1 0x20 ADD PUSH1 0x0 KECCAK256 PUSH1 0x0 CALLER PUSH20 0xFFFFFFFFFFFFFFFFFFFFFFFFFFFFFFFFFFFFFFFF AND PUSH20 0xFFFFFFFFFFFFFFFFFFFFFFFFFFFFFFFFFFFFFFFF AND DUP2 MSTORE PUSH1 0x20 ADD SWAP1 DUP2 MSTORE PUSH1 0x20 ADD PUSH1 0x0 KECCAK256 PUSH1 0x0 SWAP1 SLOAD SWAP1 PUSH2 0x100 EXP SWAP1 DIV PUSH1 0xFF AND JUMPDEST PUSH2 0x3C5 JUMPI PUSH1 0x40 MLOAD PUSH32 0x8C379A000000000000000000000000000000000000000000000000000000000 DUP2 MSTORE PUSH1 0x4 ADD PUSH2 0x3BC SWAP1 PUSH2 0x1A5D JUMP JUMPDEST PUSH1 0x40 MLOAD DUP1 SWAP2 SUB SWAP1 REVERT JUMPDEST PUSH1 0x0 DUP3 GT DUP1 ISZERO PUSH2 0x3D7 JUMPI POP PUSH1 0x5 SLOAD DUP3 GT ISZERO JUMPDEST PUSH2 0x416 JUMPI PUSH1 0x40 MLOAD PUSH32 0x8C379A000000000000000000000000000000000000000000000000000000000 DUP2 MSTORE PUSH1 0x4 ADD PUSH2 0x40D SWAP1 PUSH2 0x1AC9 JUMP JUMPDEST PUSH1 0x40 MLOAD DUP1 SWAP2 SUB SWAP1 REVERT JUMPDEST PUSH1 0x0 DUP3 PUSH8 0xFFFFFFFFFFFFFFFF DUP2 GT ISZERO PUSH2 0x432 JUMPI PUSH2 0x431 PUSH2 0x1781 JUMP JUMPDEST JUMPDEST PUSH1 0x40 MLOAD SWAP1 DUP1 DUP3 MSTORE DUP1 PUSH1 0x20 MUL PUSH1 0x20 ADD DUP3 ADD PUSH1 0x40 MSTORE DUP1 ISZERO PUSH2 0x46B JUMPI DUP2 PUSH1 0x20 ADD JUMPDEST PUSH2 0x458 PUSH2 0x1402 JUMP JUMPDEST DUP2 MSTORE PUSH1 0x20 ADD SWAP1 PUSH1 0x1 SWAP1 SUB SWAP1 DUP2 PUSH2 0x450 JUMPI SWAP1 POP JUMPDEST POP SWAP1 POP PUSH1 0x0 JUMPDEST DUP4 DUP2 LT ISZERO PUSH2 0x5DC JUMPI PUSH1 0x0 DUP1 PUSH1 0x1 DUP4 PUSH1 0x5 SLOAD PUSH2 0x48C SWAP2 SWAP1 PUSH2 0x1B18 JUMP JUMPDEST PUSH2 0x496 SWAP2 SWAP1 PUSH2 0x1B18 JUMP JUMPDEST DUP2 MSTORE PUSH1 0x20 ADD SWAP1 DUP2 MSTORE PUSH1 0x20 ADD PUSH1 0x0 KECCAK256 PUSH1 0x40 MLOAD DUP1 PUSH1 0x80 ADD PUSH1 0x40 MSTORE SWAP1 DUP2 PUSH1 0x0 DUP3 ADD SLOAD DUP2 MSTORE PUSH1 0x20 ADD PUSH1 0x1 DUP3 ADD PUSH1 0x0 SWAP1 SLOAD SWAP1 PUSH2 0x100 EXP SWAP1 DIV PUSH20 0xFFFFFFFFFFFFFFFFFFFFFFFFFFFFFFFFFFFFFFFF AND PUSH20 0xFFFFFFFFFFFFFFFFFFFFFFFFFFFFFFFFFFFFFFFF AND PUSH20 0xFFFFFFFFFFFFFFFFFFFFFFFFFFFFFFFFFFFFFFFF AND DUP2 MSTORE PUSH1 0x20 ADD PUSH1 0x2 DUP3 ADD DUP1 SLOAD PUSH2 0x51F SWAP1 PUSH2 0x1B7B JUMP JUMPDEST DUP1 PUSH1 0x1F ADD PUSH1 0x20 DUP1 SWAP2 DIV MUL PUSH1 0x20 ADD PUSH1 0x40 MLOAD SWAP1 DUP2 ADD PUSH1 0x40 MSTORE DUP1 SWAP3 SWAP2 SWAP1 DUP2 DUP2 MSTORE PUSH1 0x20 ADD DUP3 DUP1 SLOAD PUSH2 0x54B SWAP1 PUSH2 0x1B7B JUMP JUMPDEST DUP1 ISZERO PUSH2 0x598 JUMPI DUP1 PUSH1 0x1F LT PUSH2 0x56D JUMPI PUSH2 0x100 DUP1 DUP4 SLOAD DIV MUL DUP4 MSTORE SWAP2 PUSH1 0x20 ADD SWAP2 PUSH2 0x598 JUMP JUMPDEST DUP3 ADD SWAP2 SWAP1 PUSH1 0x0 MSTORE PUSH1 0x20 PUSH1 0x0 KECCAK256 SWAP1 JUMPDEST DUP2 SLOAD DUP2 MSTORE SWAP1 PUSH1 0x1 ADD SWAP1 PUSH1 0x20 ADD DUP1 DUP4 GT PUSH2 0x57B JUMPI DUP3 SWAP1 SUB PUSH1 0x1F AND DUP3 ADD SWAP2 JUMPDEST POP POP POP POP POP DUP2 MSTORE PUSH1 0x20 ADD PUSH1 0x3 DUP3 ADD SLOAD DUP2 MSTORE POP POP DUP3 DUP3 DUP2 MLOAD DUP2 LT PUSH2 0x5BE JUMPI PUSH2 0x5BD PUSH2 0x1BAC JUMP JUMPDEST JUMPDEST PUSH1 0x20 MUL PUSH1 0x20 ADD ADD DUP2 SWAP1 MSTORE POP DUP1 DUP1 PUSH2 0x5D4 SWAP1 PUSH2 0x1BDB JUMP JUMPDEST SWAP2 POP POP PUSH2 0x471 JUMP JUMPDEST POP DUP1 SWAP2 POP POP SWAP2 SWAP1 POP JUMP JUMPDEST PUSH1 0x7 PUSH1 0x0 SWAP1 SLOAD SWAP1 PUSH2 0x100 EXP SWAP1 DIV PUSH20 0xFFFFFFFFFFFFFFFFFFFFFFFFFFFFFFFFFFFFFFFF AND PUSH20 0xFFFFFFFFFFFFFFFFFFFFFFFFFFFFFFFFFFFFFFFF AND CALLER PUSH20 0xFFFFFFFFFFFFFFFFFFFFFFFFFFFFFFFFFFFFFFFF AND EQ PUSH2 0x676 JUMPI PUSH1 0x40 MLOAD PUSH32 0x8C379A000000000000000000000000000000000000000000000000000000000 DUP2 MSTORE PUSH1 0x4 ADD PUSH2 0x66D SWAP1 PUSH2 0x1A5D JUMP JUMPDEST PUSH1 0x40 MLOAD DUP1 SWAP2 SUB SWAP1 REVERT JUMPDEST PUSH1 0x0 PUSH1 0x3 PUSH1 0x0 CALLER PUSH20 0xFFFFFFFFFFFFFFFFFFFFFFFFFFFFFFFFFFFFFFFF AND PUSH20 0xFFFFFFFFFFFFFFFFFFFFFFFFFFFFFFFFFFFFFFFF AND DUP2 MSTORE PUSH1 0x20 ADD SWAP1 DUP2 MSTORE PUSH1 0x20 ADD PUSH1 0x0 KECCAK256 PUSH1 0x0 DUP4 PUSH20 0xFFFFFFFFFFFFFFFFFFFFFFFFFFFFFFFFFFFFFFFF AND PUSH20 0xFFFFFFFFFFFFFFFFFFFFFFFFFFFFFFFFFFFFFFFF AND DUP2 MSTORE PUSH1 0x20 ADD SWAP1 DUP2 MSTORE PUSH1 0x20 ADD PUSH1 0x0 KECCAK256 PUSH1 0x0 PUSH2 0x100 EXP DUP2 SLOAD DUP2 PUSH1 0xFF MUL NOT AND SWAP1 DUP4 ISZERO ISZERO MUL OR SWAP1 SSTORE POP POP JUMP JUMPDEST PUSH1 0x3 PUSH1 0x0 DUP4 PUSH20 0xFFFFFFFFFFFFFFFFFFFFFFFFFFFFFFFFFFFFFFFF AND PUSH20 0xFFFFFFFFFFFFFFFFFFFFFFFFFFFFFFFFFFFFFFFF AND DUP2 MSTORE PUSH1 0x20 ADD SWAP1 DUP2 MSTORE PUSH1 0x20 ADD PUSH1 0x0 KECCAK256 PUSH1 0x0 CALLER PUSH20 0xFFFFFFFFFFFFFFFFFFFFFFFFFFFFFFFFFFFFFFFF AND PUSH20 0xFFFFFFFFFFFFFFFFFFFFFFFFFFFFFFFFFFFFFFFF AND DUP2 MSTORE PUSH1 0x20 ADD SWAP1 DUP2 MSTORE PUSH1 0x20 ADD PUSH1 0x0 KECCAK256 PUSH1 0x0 SWAP1 SLOAD SWAP1 PUSH2 0x100 EXP SWAP1 DIV PUSH1 0xFF AND PUSH2 0x7D7 JUMPI PUSH1 0x40 MLOAD PUSH32 0x8C379A000000000000000000000000000000000000000000000000000000000 DUP2 MSTORE PUSH1 0x4 ADD PUSH2 0x7CE SWAP1 PUSH2 0x1A5D JUMP JUMPDEST PUSH1 0x40 MLOAD DUP1 SWAP2 SUB SWAP1 REVERT JUMPDEST PUSH2 0x7E1 DUP3 DUP3 PUSH2 0x1085 JUMP JUMPDEST POP POP JUMP JUMPDEST PUSH1 0x3 PUSH1 0x0 DUP5 PUSH20 0xFFFFFFFFFFFFFFFFFFFFFFFFFFFFFFFFFFFFFFFF AND PUSH20 0xFFFFFFFFFFFFFFFFFFFFFFFFFFFFFFFFFFFFFFFF AND DUP2 MSTORE PUSH1 0x20 ADD SWAP1 DUP2 MSTORE PUSH1 0x20 ADD PUSH1 0x0 KECCAK256 PUSH1 0x0 CALLER PUSH20 0xFFFFFFFFFFFFFFFFFFFFFFFFFFFFFFFFFFFFFFFF AND PUSH20 0xFFFFFFFFFFFFFFFFFFFFFFFFFFFFFFFFFFFFFFFF AND DUP2 MSTORE PUSH1 0x20 ADD SWAP1 DUP2 MSTORE PUSH1 0x20 ADD PUSH1 0x0 KECCAK256 PUSH1 0x0 SWAP1 SLOAD SWAP1 PUSH2 0x100 EXP SWAP1 DIV PUSH1 0xFF AND PUSH2 0x8AE JUMPI PUSH1 0x40 MLOAD PUSH32 0x8C379A000000000000000000000000000000000000000000000000000000000 DUP2 MSTORE PUSH1 0x4 ADD PUSH2 0x8A5 SWAP1 PUSH2 0x1A5D JUMP JUMPDEST PUSH1 0x40 MLOAD DUP1 SWAP2 SUB SWAP1 REVERT JUMPDEST PUSH2 0x8B9 DUP4 DUP4 DUP4 PUSH2 0x1129 JUMP JUMPDEST POP POP POP JUMP JUMPDEST PUSH1 0x7 PUSH1 0x0 SWAP1 SLOAD SWAP1 PUSH2 0x100 EXP SWAP1 DIV PUSH20 0xFFFFFFFFFFFFFFFFFFFFFFFFFFFFFFFFFFFFFFFF AND PUSH20 0xFFFFFFFFFFFFFFFFFFFFFFFFFFFFFFFFFFFFFFFF AND CALLER PUSH20 0xFFFFFFFFFFFFFFFFFFFFFFFFFFFFFFFFFFFFFFFF AND EQ PUSH2 0x94E JUMPI PUSH1 0x40 MLOAD PUSH32 0x8C379A000000000000000000000000000000000000000000000000000000000 DUP2 MSTORE PUSH1 0x4 ADD PUSH2 0x945 SWAP1 PUSH2 0x1A5D JUMP JUMPDEST PUSH1 0x40 MLOAD DUP1 SWAP2 SUB SWAP1 REVERT JUMPDEST PUSH1 0x1 PUSH1 0x3 PUSH1 0x0 CALLER PUSH20 0xFFFFFFFFFFFFFFFFFFFFFFFFFFFFFFFFFFFFFFFF AND PUSH20 0xFFFFFFFFFFFFFFFFFFFFFFFFFFFFFFFFFFFFFFFF AND DUP2 MSTORE PUSH1 0x20 ADD SWAP1 DUP2 MSTORE PUSH1 0x20 ADD PUSH1 0x0 KECCAK256 PUSH1 0x0 DUP4 PUSH20 0xFFFFFFFFFFFFFFFFFFFFFFFFFFFFFFFFFFFFFFFF AND PUSH20 0xFFFFFFFFFFFFFFFFFFFFFFFFFFFFFFFFFFFFFFFF AND DUP2 MSTORE PUSH1 0x20 ADD SWAP1 DUP2 MSTORE PUSH1 0x20 ADD PUSH1 0x0 KECCAK256 PUSH1 0x0 PUSH2 0x100 EXP DUP2 SLOAD DUP2 PUSH1 0xFF MUL NOT AND SWAP1 DUP4 ISZERO ISZERO MUL OR SWAP1 SSTORE POP POP JUMP JUMPDEST PUSH1 0x60 PUSH1 0x7 PUSH1 0x0 SWAP1 SLOAD SWAP1 PUSH2 0x100 EXP SWAP1 DIV PUSH20 0xFFFFFFFFFFFFFFFFFFFFFFFFFFFFFFFFFFFFFFFF AND PUSH20 0xFFFFFFFFFFFFFFFFFFFFFFFFFFFFFFFFFFFFFFFF AND CALLER PUSH20 0xFFFFFFFFFFFFFFFFFFFFFFFFFFFFFFFFFFFFFFFF AND EQ DUP1 PUSH2 0xAEC JUMPI POP PUSH1 0x3 PUSH1 0x0 PUSH1 0x7 PUSH1 0x0 SWAP1 SLOAD SWAP1 PUSH2 0x100 EXP SWAP1 DIV PUSH20 0xFFFFFFFFFFFFFFFFFFFFFFFFFFFFFFFFFFFFFFFF AND PUSH20 0xFFFFFFFFFFFFFFFFFFFFFFFFFFFFFFFFFFFFFFFF AND PUSH20 0xFFFFFFFFFFFFFFFFFFFFFFFFFFFFFFFFFFFFFFFF AND DUP2 MSTORE PUSH1 0x20 ADD SWAP1 DUP2 MSTORE PUSH1 0x20 ADD PUSH1 0x0 KECCAK256 PUSH1 0x0 CALLER PUSH20 0xFFFFFFFFFFFFFFFFFFFFFFFFFFFFFFFFFFFFFFFF AND PUSH20 0xFFFFFFFFFFFFFFFFFFFFFFFFFFFFFFFFFFFFFFFF AND DUP2 MSTORE PUSH1 0x20 ADD SWAP1 DUP2 MSTORE PUSH1 0x20 ADD PUSH1 0x0 KECCAK256 PUSH1 0x0 SWAP1 SLOAD SWAP1 PUSH2 0x100 EXP SWAP1 DIV PUSH1 0xFF AND JUMPDEST PUSH2 0xB2B JUMPI PUSH1 0x40 MLOAD PUSH32 0x8C379A000000000000000000000000000000000000000000000000000000000 DUP2 MSTORE PUSH1 0x4 ADD PUSH2 0xB22 SWAP1 PUSH2 0x1A5D JUMP JUMPDEST PUSH1 0x40 MLOAD DUP1 SWAP2 SUB SWAP1 REVERT JUMPDEST PUSH1 0x0 DUP3 GT DUP1 ISZERO PUSH2 0xB3D JUMPI POP PUSH1 0x5 SLOAD DUP3 GT ISZERO JUMPDEST PUSH2 0xB7C JUMPI PUSH1 0x40 MLOAD PUSH32 0x8C379A000000000000000000000000000000000000000000000000000000000 DUP2 MSTORE PUSH1 0x4 ADD PUSH2 0xB73 SWAP1 PUSH2 0x1AC9 JUMP JUMPDEST PUSH1 0x40 MLOAD DUP1 SWAP2 SUB SWAP1 REVERT JUMPDEST PUSH1 0x0 PUSH1 0x1 PUSH1 0x0 DUP6 PUSH20 0xFFFFFFFFFFFFFFFFFFFFFFFFFFFFFFFFFFFFFFFF AND PUSH20 0xFFFFFFFFFFFFFFFFFFFFFFFFFFFFFFFFFFFFFFFF AND DUP2 MSTORE PUSH1 0x20 ADD SWAP1 DUP2 MSTORE PUSH1 0x20 ADD PUSH1 0x0 KECCAK256 DUP1 SLOAD SWAP1 POP GT PUSH2 0xC01 JUMPI PUSH1 0x40 MLOAD PUSH32 0x8C379A000000000000000000000000000000000000000000000000000000000 DUP2 MSTORE PUSH1 0x4 ADD PUSH2 0xBF8 SWAP1 PUSH2 0x1C6F JUMP JUMPDEST PUSH1 0x40 MLOAD DUP1 SWAP2 SUB SWAP1 REVERT JUMPDEST PUSH1 0x0 DUP3 PUSH8 0xFFFFFFFFFFFFFFFF DUP2 GT ISZERO PUSH2 0xC1D JUMPI PUSH2 0xC1C PUSH2 0x1781 JUMP JUMPDEST JUMPDEST PUSH1 0x40 MLOAD SWAP1 DUP1 DUP3 MSTORE DUP1 PUSH1 0x20 MUL PUSH1 0x20 ADD DUP3 ADD PUSH1 0x40 MSTORE DUP1 ISZERO PUSH2 0xC56 JUMPI DUP2 PUSH1 0x20 ADD JUMPDEST PUSH2 0xC43 PUSH2 0x1402 JUMP JUMPDEST DUP2 MSTORE PUSH1 0x20 ADD SWAP1 PUSH1 0x1 SWAP1 SUB SWAP1 DUP2 PUSH2 0xC3B JUMPI SWAP1 POP JUMPDEST POP SWAP1 POP PUSH1 0x0 PUSH1 0x1 DUP1 PUSH1 0x0 DUP8 PUSH20 0xFFFFFFFFFFFFFFFFFFFFFFFFFFFFFFFFFFFFFFFF AND PUSH20 0xFFFFFFFFFFFFFFFFFFFFFFFFFFFFFFFFFFFFFFFF AND DUP2 MSTORE PUSH1 0x20 ADD SWAP1 DUP2 MSTORE PUSH1 0x20 ADD PUSH1 0x0 KECCAK256 DUP1 SLOAD SWAP1 POP PUSH2 0xCA9 SWAP2 SWAP1 PUSH2 0x1B18 JUMP JUMPDEST SWAP1 POP PUSH1 0x0 JUMPDEST DUP5 DUP2 LT ISZERO PUSH2 0xE66 JUMPI PUSH1 0x0 DUP1 PUSH1 0x1 PUSH1 0x0 DUP10 PUSH20 0xFFFFFFFFFFFFFFFFFFFFFFFFFFFFFFFFFFFFFFFF AND PUSH20 0xFFFFFFFFFFFFFFFFFFFFFFFFFFFFFFFFFFFFFFFF AND DUP2 MSTORE PUSH1 0x20 ADD SWAP1 DUP2 MSTORE PUSH1 0x20 ADD PUSH1 0x0 KECCAK256 DUP4 DUP6 PUSH2 0xD04 SWAP2 SWAP1 PUSH2 0x1B18 JUMP JUMPDEST DUP2 SLOAD DUP2 LT PUSH2 0xD15 JUMPI PUSH2 0xD14 PUSH2 0x1BAC JUMP JUMPDEST JUMPDEST SWAP1 PUSH1 0x0 MSTORE PUSH1 0x20 PUSH1 0x0 KECCAK256 ADD SLOAD DUP2 MSTORE PUSH1 0x20 ADD SWAP1 DUP2 MSTORE PUSH1 0x20 ADD PUSH1 0x0 KECCAK256 PUSH1 0x40 MLOAD DUP1 PUSH1 0x80 ADD PUSH1 0x40 MSTORE SWAP1 DUP2 PUSH1 0x0 DUP3 ADD SLOAD DUP2 MSTORE PUSH1 0x20 ADD PUSH1 0x1 DUP3 ADD PUSH1 0x0 SWAP1 SLOAD SWAP1 PUSH2 0x100 EXP SWAP1 DIV PUSH20 0xFFFFFFFFFFFFFFFFFFFFFFFFFFFFFFFFFFFFFFFF AND PUSH20 0xFFFFFFFFFFFFFFFFFFFFFFFFFFFFFFFFFFFFFFFF AND PUSH20 0xFFFFFFFFFFFFFFFFFFFFFFFFFFFFFFFFFFFFFFFF AND DUP2 MSTORE PUSH1 0x20 ADD PUSH1 0x2 DUP3 ADD DUP1 SLOAD PUSH2 0xDA9 SWAP1 PUSH2 0x1B7B JUMP JUMPDEST DUP1 PUSH1 0x1F ADD PUSH1 0x20 DUP1 SWAP2 DIV MUL PUSH1 0x20 ADD PUSH1 0x40 MLOAD SWAP1 DUP2 ADD PUSH1 0x40 MSTORE DUP1 SWAP3 SWAP2 SWAP1 DUP2 DUP2 MSTORE PUSH1 0x20 ADD DUP3 DUP1 SLOAD PUSH2 0xDD5 SWAP1 PUSH2 0x1B7B JUMP JUMPDEST DUP1 ISZERO PUSH2 0xE22 JUMPI DUP1 PUSH1 0x1F LT PUSH2 0xDF7 JUMPI PUSH2 0x100 DUP1 DUP4 SLOAD DIV MUL DUP4 MSTORE SWAP2 PUSH1 0x20 ADD SWAP2 PUSH2 0xE22 JUMP JUMPDEST DUP3 ADD SWAP2 SWAP1 PUSH1 0x0 MSTORE PUSH1 0x20 PUSH1 0x0 KECCAK256 SWAP1 JUMPDEST DUP2 SLOAD DUP2 MSTORE SWAP1 PUSH1 0x1 ADD SWAP1 PUSH1 0x20 ADD DUP1 DUP4 GT PUSH2 0xE05 JUMPI DUP3 SWAP1 SUB PUSH1 0x1F AND DUP3 ADD SWAP2 JUMPDEST POP POP POP POP POP DUP2 MSTORE PUSH1 0x20 ADD PUSH1 0x3 DUP3 ADD SLOAD DUP2 MSTORE POP POP DUP4 DUP3 DUP2 MLOAD DUP2 LT PUSH2 0xE48 JUMPI PUSH2 0xE47 PUSH2 0x1BAC JUMP JUMPDEST JUMPDEST PUSH1 0x20 MUL PUSH1 0x20 ADD ADD DUP2 SWAP1 MSTORE POP DUP1 DUP1 PUSH2 0xE5E SWAP1 PUSH2 0x1BDB JUMP JUMPDEST SWAP2 POP POP PUSH2 0xCAE JUMP JUMPDEST POP DUP2 SWAP3 POP POP POP SWAP3 SWAP2 POP POP JUMP JUMPDEST PUSH1 0x3 PUSH1 0x0 DUP4 PUSH20 0xFFFFFFFFFFFFFFFFFFFFFFFFFFFFFFFFFFFFFFFF AND PUSH20 0xFFFFFFFFFFFFFFFFFFFFFFFFFFFFFFFFFFFFFFFF AND DUP2 MSTORE PUSH1 0x20 ADD SWAP1 DUP2 MSTORE PUSH1 0x20 ADD PUSH1 0x0 KECCAK256 PUSH1 0x0 CALLER PUSH20 0xFFFFFFFFFFFFFFFFFFFFFFFFFFFFFFFFFFFFFFFF AND PUSH20 0xFFFFFFFFFFFFFFFFFFFFFFFFFFFFFFFFFFFFFFFF AND DUP2 MSTORE PUSH1 0x20 ADD SWAP1 DUP2 MSTORE PUSH1 0x20 ADD PUSH1 0x0 KECCAK256 PUSH1 0x0 SWAP1 SLOAD SWAP1 PUSH2 0x100 EXP SWAP1 DIV PUSH1 0xFF AND PUSH2 0xF3B JUMPI PUSH1 0x40 MLOAD PUSH32 0x8C379A000000000000000000000000000000000000000000000000000000000 DUP2 MSTORE PUSH1 0x4 ADD PUSH2 0xF32 SWAP1 PUSH2 0x1A5D JUMP JUMPDEST PUSH1 0x40 MLOAD DUP1 SWAP2 SUB SWAP1 REVERT JUMPDEST PUSH2 0xF45 DUP3 DUP3 PUSH2 0x12BD JUMP JUMPDEST POP POP JUMP JUMPDEST PUSH1 0x7 PUSH1 0x0 SWAP1 SLOAD SWAP1 PUSH2 0x100 EXP SWAP1 DIV PUSH20 0xFFFFFFFFFFFFFFFFFFFFFFFFFFFFFFFFFFFFFFFF AND PUSH20 0xFFFFFFFFFFFFFFFFFFFFFFFFFFFFFFFFFFFFFFFF AND CALLER PUSH20 0xFFFFFFFFFFFFFFFFFFFFFFFFFFFFFFFFFFFFFFFF AND EQ PUSH2 0xFD9 JUMPI PUSH1 0x40 MLOAD PUSH32 0x8C379A000000000000000000000000000000000000000000000000000000000 DUP2 MSTORE PUSH1 0x4 ADD PUSH2 0xFD0 SWAP1 PUSH2 0x1A5D JUMP JUMPDEST PUSH1 0x40 MLOAD DUP1 SWAP2 SUB SWAP1 REVERT JUMPDEST PUSH2 0xFE4 CALLER DUP4 DUP4 PUSH2 0x1129 JUMP JUMPDEST POP POP JUMP JUMPDEST PUSH1 0x7 PUSH1 0x0 SWAP1 SLOAD SWAP1 PUSH2 0x100 EXP SWAP1 DIV PUSH20 0xFFFFFFFFFFFFFFFFFFFFFFFFFFFFFFFFFFFFFFFF AND PUSH20 0xFFFFFFFFFFFFFFFFFFFFFFFFFFFFFFFFFFFFFFFF AND CALLER PUSH20 0xFFFFFFFFFFFFFFFFFFFFFFFFFFFFFFFFFFFFFFFF AND EQ PUSH2 0x1078 JUMPI PUSH1 0x40 MLOAD PUSH32 0x8C379A000000000000000000000000000000000000000000000000000000000 DUP2 MSTORE PUSH1 0x4 ADD PUSH2 0x106F SWAP1 PUSH2 0x1A5D JUMP JUMPDEST PUSH1 0x40 MLOAD DUP1 SWAP2 SUB SWAP1 REVERT JUMPDEST PUSH2 0x1082 CALLER DUP3 PUSH2 0x12BD JUMP JUMPDEST POP JUMP JUMPDEST PUSH1 0x4 PUSH1 0x0 DUP4 PUSH20 0xFFFFFFFFFFFFFFFFFFFFFFFFFFFFFFFFFFFFFFFF AND PUSH20 0xFFFFFFFFFFFFFFFFFFFFFFFFFFFFFFFFFFFFFFFF AND DUP2 MSTORE PUSH1 0x20 ADD SWAP1 DUP2 MSTORE PUSH1 0x20 ADD PUSH1 0x0 KECCAK256 DUP2 SWAP1 DUP1 PUSH1 0x1 DUP2 SLOAD ADD DUP1 DUP3 SSTORE DUP1 SWAP2 POP POP PUSH1 0x1 SWAP1 SUB SWAP1 PUSH1 0x0 MSTORE PUSH1 0x20 PUSH1 0x0 KECCAK256 ADD PUSH1 0x0 SWAP1 SWAP2 SWAP1 SWAP2 SWAP1 SWAP2 PUSH2 0x100 EXP DUP2 SLOAD DUP2 PUSH20 0xFFFFFFFFFFFFFFFFFFFFFFFFFFFFFFFFFFFFFFFF MUL NOT AND SWAP1 DUP4 PUSH20 0xFFFFFFFFFFFFFFFFFFFFFFFFFFFFFFFFFFFFFFFF AND MUL OR SWAP1 SSTORE POP POP POP JUMP JUMPDEST PUSH1 0x2 PUSH1 0x0 DUP5 PUSH20 0xFFFFFFFFFFFFFFFFFFFFFFFFFFFFFFFFFFFFFFFF AND PUSH20 0xFFFFFFFFFFFFFFFFFFFFFFFFFFFFFFFFFFFFFFFF AND DUP2 MSTORE PUSH1 0x20 ADD SWAP1 DUP2 MSTORE PUSH1 0x20 ADD PUSH1 0x0 KECCAK256 PUSH1 0x40 MLOAD DUP1 PUSH1 0xA0 ADD PUSH1 0x40 MSTORE DUP1 PUSH1 0x6 SLOAD DUP2 MSTORE PUSH1 0x20 ADD DUP6 PUSH20 0xFFFFFFFFFFFFFFFFFFFFFFFFFFFFFFFFFFFFFFFF AND DUP2 MSTORE PUSH1 0x20 ADD DUP5 PUSH20 0xFFFFFFFFFFFFFFFFFFFFFFFFFFFFFFFFFFFFFFFF AND DUP2 MSTORE PUSH1 0x20 ADD DUP4 DUP2 MSTORE PUSH1 0x20 ADD TIMESTAMP DUP2 MSTORE POP SWAP1 DUP1 PUSH1 0x1 DUP2 SLOAD ADD DUP1 DUP3 SSTORE DUP1 SWAP2 POP POP PUSH1 0x1 SWAP1 SUB SWAP1 PUSH1 0x0 MSTORE PUSH1 0x20 PUSH1 0x0 KECCAK256 SWAP1 PUSH1 0x5 MUL ADD PUSH1 0x0 SWAP1 SWAP2 SWAP1 SWAP2 SWAP1 SWAP2 POP PUSH1 0x0 DUP3 ADD MLOAD DUP2 PUSH1 0x0 ADD SSTORE PUSH1 0x20 DUP3 ADD MLOAD DUP2 PUSH1 0x1 ADD PUSH1 0x0 PUSH2 0x100 EXP DUP2 SLOAD DUP2 PUSH20 0xFFFFFFFFFFFFFFFFFFFFFFFFFFFFFFFFFFFFFFFF MUL NOT AND SWAP1 DUP4 PUSH20 0xFFFFFFFFFFFFFFFFFFFFFFFFFFFFFFFFFFFFFFFF AND MUL OR SWAP1 SSTORE POP PUSH1 0x40 DUP3 ADD MLOAD DUP2 PUSH1 0x2 ADD PUSH1 0x0 PUSH2 0x100 EXP DUP2 SLOAD DUP2 PUSH20 0xFFFFFFFFFFFFFFFFFFFFFFFFFFFFFFFFFFFFFFFF MUL NOT AND SWAP1 DUP4 PUSH20 0xFFFFFFFFFFFFFFFFFFFFFFFFFFFFFFFFFFFFFFFF AND MUL OR SWAP1 SSTORE POP PUSH1 0x60 DUP3 ADD MLOAD DUP2 PUSH1 0x3 ADD SWAP1 DUP2 PUSH2 0x1293 SWAP2 SWAP1 PUSH2 0x1E3B JUMP JUMPDEST POP PUSH1 0x80 DUP3 ADD MLOAD DUP2 PUSH1 0x4 ADD SSTORE POP POP PUSH1 0x6 PUSH1 0x0 DUP2 SLOAD DUP1 SWAP3 SWAP2 SWAP1 PUSH2 0x12B3 SWAP1 PUSH2 0x1BDB JUMP JUMPDEST SWAP2 SWAP1 POP SSTORE POP POP POP POP JUMP JUMPDEST PUSH1 0x40 MLOAD DUP1 PUSH1 0x80 ADD PUSH1 0x40 MSTORE DUP1 PUSH1 0x5 SLOAD DUP2 MSTORE PUSH1 0x20 ADD DUP4 PUSH20 0xFFFFFFFFFFFFFFFFFFFFFFFFFFFFFFFFFFFFFFFF AND DUP2 MSTORE PUSH1 0x20 ADD DUP3 DUP2 MSTORE PUSH1 0x20 ADD TIMESTAMP DUP2 MSTORE POP PUSH1 0x0 DUP1 PUSH1 0x5 SLOAD DUP2 MSTORE PUSH1 0x20 ADD SWAP1 DUP2 MSTORE PUSH1 0x20 ADD PUSH1 0x0 KECCAK256 PUSH1 0x0 DUP3 ADD MLOAD DUP2 PUSH1 0x0 ADD SSTORE PUSH1 0x20 DUP3 ADD MLOAD DUP2 PUSH1 0x1 ADD PUSH1 0x0 PUSH2 0x100 EXP DUP2 SLOAD DUP2 PUSH20 0xFFFFFFFFFFFFFFFFFFFFFFFFFFFFFFFFFFFFFFFF MUL NOT AND SWAP1 DUP4 PUSH20 0xFFFFFFFFFFFFFFFFFFFFFFFFFFFFFFFFFFFFFFFF AND MUL OR SWAP1 SSTORE POP PUSH1 0x40 DUP3 ADD MLOAD DUP2 PUSH1 0x2 ADD SWAP1 DUP2 PUSH2 0x1370 SWAP2 SWAP1 PUSH2 0x1E3B JUMP JUMPDEST POP PUSH1 0x60 DUP3 ADD MLOAD DUP2 PUSH1 0x3 ADD SSTORE SWAP1 POP POP PUSH1 0x1 PUSH1 0x0 DUP4 PUSH20 0xFFFFFFFFFFFFFFFFFFFFFFFFFFFFFFFFFFFFFFFF AND PUSH20 0xFFFFFFFFFFFFFFFFFFFFFFFFFFFFFFFFFFFFFFFF AND DUP2 MSTORE PUSH1 0x20 ADD SWAP1 DUP2 MSTORE PUSH1 0x20 ADD PUSH1 0x0 KECCAK256 PUSH1 0x5 SLOAD SWAP1 DUP1 PUSH1 0x1 DUP2 SLOAD ADD DUP1 DUP3 SSTORE DUP1 SWAP2 POP POP PUSH1 0x1 SWAP1 SUB SWAP1 PUSH1 0x0 MSTORE PUSH1 0x20 PUSH1 0x0 KECCAK256 ADD PUSH1 0x0 SWAP1 SWAP2 SWAP1 SWAP2 SWAP1 SWAP2 POP SSTORE PUSH1 0x5 PUSH1 0x0 DUP2 SLOAD DUP1 SWAP3 SWAP2 SWAP1 PUSH2 0x13F9 SWAP1 PUSH2 0x1BDB JUMP JUMPDEST SWAP2 SWAP1 POP SSTORE POP POP POP JUMP JUMPDEST PUSH1 0x40 MLOAD DUP1 PUSH1 0x80 ADD PUSH1 0x40 MSTORE DUP1 PUSH1 0x0 DUP2 MSTORE PUSH1 0x20 ADD PUSH1 0x0 PUSH20 0xFFFFFFFFFFFFFFFFFFFFFFFFFFFFFFFFFFFFFFFF AND DUP2 MSTORE PUSH1 0x20 ADD PUSH1 0x60 DUP2 MSTORE PUSH1 0x20 ADD PUSH1 0x0 DUP2 MSTORE POP SWAP1 JUMP JUMPDEST PUSH1 0x0 PUSH1 0x40 MLOAD SWAP1 POP SWAP1 JUMP JUMPDEST PUSH1 0x0 DUP1 REVERT JUMPDEST PUSH1 0x0 DUP1 REVERT JUMPDEST PUSH1 0x0 PUSH20 0xFFFFFFFFFFFFFFFFFFFFFFFFFFFFFFFFFFFFFFFF DUP3 AND SWAP1 POP SWAP2 SWAP1 POP JUMP JUMPDEST PUSH1 0x0 PUSH2 0x147F DUP3 PUSH2 0x1454 JUMP JUMPDEST SWAP1 POP SWAP2 SWAP1 POP JUMP JUMPDEST PUSH2 0x148F DUP2 PUSH2 0x1474 JUMP JUMPDEST DUP2 EQ PUSH2 0x149A JUMPI PUSH1 0x0 DUP1 REVERT JUMPDEST POP JUMP JUMPDEST PUSH1 0x0 DUP2 CALLDATALOAD SWAP1 POP PUSH2 0x14AC DUP2 PUSH2 0x1486 JUMP JUMPDEST SWAP3 SWAP2 POP POP JUMP JUMPDEST PUSH1 0x0 PUSH1 0x20 DUP3 DUP5 SUB SLT ISZERO PUSH2 0x14C8 JUMPI PUSH2 0x14C7 PUSH2 0x144A JUMP JUMPDEST JUMPDEST PUSH1 0x0 PUSH2 0x14D6 DUP5 DUP3 DUP6 ADD PUSH2 0x149D JUMP JUMPDEST SWAP2 POP POP SWAP3 SWAP2 POP POP JUMP JUMPDEST PUSH1 0x0 DUP2 SWAP1 POP SWAP2 SWAP1 POP JUMP JUMPDEST PUSH2 0x14F2 DUP2 PUSH2 0x14DF JUMP JUMPDEST DUP2 EQ PUSH2 0x14FD JUMPI PUSH1 0x0 DUP1 REVERT JUMPDEST POP JUMP JUMPDEST PUSH1 0x0 DUP2 CALLDATALOAD SWAP1 POP PUSH2 0x150F DUP2 PUSH2 0x14E9 JUMP JUMPDEST SWAP3 SWAP2 POP POP JUMP JUMPDEST PUSH1 0x0 PUSH1 0x20 DUP3 DUP5 SUB SLT ISZERO PUSH2 0x152B JUMPI PUSH2 0x152A PUSH2 0x144A JUMP JUMPDEST JUMPDEST PUSH1 0x0 PUSH2 0x1539 DUP5 DUP3 DUP6 ADD PUSH2 0x1500 JUMP JUMPDEST SWAP2 POP POP SWAP3 SWAP2 POP POP JUMP JUMPDEST PUSH1 0x0 DUP2 MLOAD SWAP1 POP SWAP2 SWAP1 POP JUMP JUMPDEST PUSH1 0x0 DUP3 DUP3 MSTORE PUSH1 0x20 DUP3 ADD SWAP1 POP SWAP3 SWAP2 POP POP JUMP JUMPDEST PUSH1 0x0 DUP2 SWAP1 POP PUSH1 0x20 DUP3 ADD SWAP1 POP SWAP2 SWAP1 POP JUMP JUMPDEST PUSH2 0x1577 DUP2 PUSH2 0x14DF JUMP JUMPDEST DUP3 MSTORE POP POP JUMP JUMPDEST PUSH2 0x1586 DUP2 PUSH2 0x1474 JUMP JUMPDEST DUP3 MSTORE POP POP JUMP JUMPDEST PUSH1 0x0 DUP2 MLOAD SWAP1 POP SWAP2 SWAP1 POP JUMP JUMPDEST PUSH1 0x0 DUP3 DUP3 MSTORE PUSH1 0x20 DUP3 ADD SWAP1 POP SWAP3 SWAP2 POP POP JUMP JUMPDEST PUSH1 0x0 JUMPDEST DUP4 DUP2 LT ISZERO PUSH2 0x15C6 JUMPI DUP1 DUP3 ADD MLOAD DUP2 DUP5 ADD MSTORE PUSH1 0x20 DUP2 ADD SWAP1 POP PUSH2 0x15AB JUMP JUMPDEST PUSH1 0x0 DUP5 DUP5 ADD MSTORE POP POP POP POP JUMP JUMPDEST PUSH1 0x0 PUSH1 0x1F NOT PUSH1 0x1F DUP4 ADD AND SWAP1 POP SWAP2 SWAP1 POP JUMP JUMPDEST PUSH1 0x0 PUSH2 0x15EE DUP3 PUSH2 0x158C JUMP JUMPDEST PUSH2 0x15F8 DUP2 DUP6 PUSH2 0x1597 JUMP JUMPDEST SWAP4 POP PUSH2 0x1608 DUP2 DUP6 PUSH1 0x20 DUP7 ADD PUSH2 0x15A8 JUMP JUMPDEST PUSH2 0x1611 DUP2 PUSH2 0x15D2 JUMP JUMPDEST DUP5 ADD SWAP2 POP POP SWAP3 SWAP2 POP POP JUMP JUMPDEST PUSH1 0x0 PUSH1 0x80 DUP4 ADD PUSH1 0x0 DUP4 ADD MLOAD PUSH2 0x1634 PUSH1 0x0 DUP7 ADD DUP3 PUSH2 0x156E JUMP JUMPDEST POP PUSH1 0x20 DUP4 ADD MLOAD PUSH2 0x1647 PUSH1 0x20 DUP7 ADD DUP3 PUSH2 0x157D JUMP JUMPDEST POP PUSH1 0x40 DUP4 ADD MLOAD DUP5 DUP3 SUB PUSH1 0x40 DUP7 ADD MSTORE PUSH2 0x165F DUP3 DUP3 PUSH2 0x15E3 JUMP JUMPDEST SWAP2 POP POP PUSH1 0x60 DUP4 ADD MLOAD PUSH2 0x1674 PUSH1 0x60 DUP7 ADD DUP3 PUSH2 0x156E JUMP JUMPDEST POP DUP1 SWAP2 POP POP SWAP3 SWAP2 POP POP JUMP JUMPDEST PUSH1 0x0 PUSH2 0x168B DUP4 DUP4 PUSH2 0x161C JUMP JUMPDEST SWAP1 POP SWAP3 SWAP2 POP POP JUMP JUMPDEST PUSH1 0x0 PUSH1 0x20 DUP3 ADD SWAP1 POP SWAP2 SWAP1 POP JUMP JUMPDEST PUSH1 0x0 PUSH2 0x16AB DUP3 PUSH2 0x1542 JUMP JUMPDEST PUSH2 0x16B5 DUP2 DUP6 PUSH2 0x154D JUMP JUMPDEST SWAP4 POP DUP4 PUSH1 0x20 DUP3 MUL DUP6 ADD PUSH2 0x16C7 DUP6 PUSH2 0x155E JUMP JUMPDEST DUP1 PUSH1 0x0 JUMPDEST DUP6 DUP2 LT ISZERO PUSH2 0x1703 JUMPI DUP5 DUP5 SUB DUP10 MSTORE DUP2 MLOAD PUSH2 0x16E4 DUP6 DUP3 PUSH2 0x167F JUMP JUMPDEST SWAP5 POP PUSH2 0x16EF DUP4 PUSH2 0x1693 JUMP JUMPDEST SWAP3 POP PUSH1 0x20 DUP11 ADD SWAP10 POP POP PUSH1 0x1 DUP2 ADD SWAP1 POP PUSH2 0x16CB JUMP JUMPDEST POP DUP3 SWAP8 POP DUP8 SWAP6 POP POP POP POP POP POP SWAP3 SWAP2 POP POP JUMP JUMPDEST PUSH1 0x0 PUSH1 0x20 DUP3 ADD SWAP1 POP DUP2 DUP2 SUB PUSH1 0x0 DUP4 ADD MSTORE PUSH2 0x172F DUP2 DUP5 PUSH2 0x16A0 JUMP JUMPDEST SWAP1 POP SWAP3 SWAP2 POP POP JUMP JUMPDEST PUSH1 0x0 DUP1 PUSH1 0x40 DUP4 DUP6 SUB SLT ISZERO PUSH2 0x174E JUMPI PUSH2 0x174D PUSH2 0x144A JUMP JUMPDEST JUMPDEST PUSH1 0x0 PUSH2 0x175C DUP6 DUP3 DUP7 ADD PUSH2 0x149D JUMP JUMPDEST SWAP3 POP POP PUSH1 0x20 PUSH2 0x176D DUP6 DUP3 DUP7 ADD PUSH2 0x149D JUMP JUMPDEST SWAP2 POP POP SWAP3 POP SWAP3 SWAP1 POP JUMP JUMPDEST PUSH1 0x0 DUP1 REVERT JUMPDEST PUSH1 0x0 DUP1 REVERT JUMPDEST PUSH32 0x4E487B7100000000000000000000000000000000000000000000000000000000 PUSH1 0x0 MSTORE PUSH1 0x41 PUSH1 0x4 MSTORE PUSH1 0x24 PUSH1 0x0 REVERT JUMPDEST PUSH2 0x17B9 DUP3 PUSH2 0x15D2 JUMP JUMPDEST DUP2 ADD DUP2 DUP2 LT PUSH8 0xFFFFFFFFFFFFFFFF DUP3 GT OR ISZERO PUSH2 0x17D8 JUMPI PUSH2 0x17D7 PUSH2 0x1781 JUMP JUMPDEST JUMPDEST DUP1 PUSH1 0x40 MSTORE POP POP POP JUMP JUMPDEST PUSH1 0x0 PUSH2 0x17EB PUSH2 0x1440 JUMP JUMPDEST SWAP1 POP PUSH2 0x17F7 DUP3 DUP3 PUSH2 0x17B0 JUMP JUMPDEST SWAP2 SWAP1 POP JUMP JUMPDEST PUSH1 0x0 PUSH8 0xFFFFFFFFFFFFFFFF DUP3 GT ISZERO PUSH2 0x1817 JUMPI PUSH2 0x1816 PUSH2 0x1781 JUMP JUMPDEST JUMPDEST PUSH2 0x1820 DUP3 PUSH2 0x15D2 JUMP JUMPDEST SWAP1 POP PUSH1 0x20 DUP2 ADD SWAP1 POP SWAP2 SWAP1 POP JUMP JUMPDEST DUP3 DUP2 DUP4 CALLDATACOPY PUSH1 0x0 DUP4 DUP4 ADD MSTORE POP POP POP JUMP JUMPDEST PUSH1 0x0 PUSH2 0x184F PUSH2 0x184A DUP5 PUSH2 0x17FC JUMP JUMPDEST PUSH2 0x17E1 JUMP JUMPDEST SWAP1 POP DUP3 DUP2 MSTORE PUSH1 0x20 DUP2 ADD DUP5 DUP5 DUP5 ADD GT ISZERO PUSH2 0x186B JUMPI PUSH2 0x186A PUSH2 0x177C JUMP JUMPDEST JUMPDEST PUSH2 0x1876 DUP5 DUP3 DUP6 PUSH2 0x182D JUMP JUMPDEST POP SWAP4 SWAP3 POP POP POP JUMP JUMPDEST PUSH1 0x0 DUP3 PUSH1 0x1F DUP4 ADD SLT PUSH2 0x1893 JUMPI PUSH2 0x1892 PUSH2 0x1777 JUMP JUMPDEST JUMPDEST DUP2 CALLDATALOAD PUSH2 0x18A3 DUP5 DUP3 PUSH1 0x20 DUP7 ADD PUSH2 0x183C JUMP JUMPDEST SWAP2 POP POP SWAP3 SWAP2 POP POP JUMP JUMPDEST PUSH1 0x0 DUP1 PUSH1 0x0 PUSH1 0x60 DUP5 DUP7 SUB SLT ISZERO PUSH2 0x18C5 JUMPI PUSH2 0x18C4 PUSH2 0x144A JUMP JUMPDEST JUMPDEST PUSH1 0x0 PUSH2 0x18D3 DUP7 DUP3 DUP8 ADD PUSH2 0x149D JUMP JUMPDEST SWAP4 POP POP PUSH1 0x20 PUSH2 0x18E4 DUP7 DUP3 DUP8 ADD PUSH2 0x149D JUMP JUMPDEST SWAP3 POP POP PUSH1 0x40 DUP5 ADD CALLDATALOAD PUSH8 0xFFFFFFFFFFFFFFFF DUP2 GT ISZERO PUSH2 0x1905 JUMPI PUSH2 0x1904 PUSH2 0x144F JUMP JUMPDEST JUMPDEST PUSH2 0x1911 DUP7 DUP3 DUP8 ADD PUSH2 0x187E JUMP JUMPDEST SWAP2 POP POP SWAP3 POP SWAP3 POP SWAP3 JUMP JUMPDEST PUSH1 0x0 DUP1 PUSH1 0x40 DUP4 DUP6 SUB SLT ISZERO PUSH2 0x1932 JUMPI PUSH2 0x1931 PUSH2 0x144A JUMP JUMPDEST JUMPDEST PUSH1 0x0 PUSH2 0x1940 DUP6 DUP3 DUP7 ADD PUSH2 0x149D JUMP JUMPDEST SWAP3 POP POP PUSH1 0x20 PUSH2 0x1951 DUP6 DUP3 DUP7 ADD PUSH2 0x1500 JUMP JUMPDEST SWAP2 POP POP SWAP3 POP SWAP3 SWAP1 POP JUMP JUMPDEST PUSH1 0x0 DUP1 PUSH1 0x40 DUP4 DUP6 SUB SLT ISZERO PUSH2 0x1972 JUMPI PUSH2 0x1971 PUSH2 0x144A JUMP JUMPDEST JUMPDEST PUSH1 0x0 PUSH2 0x1980 DUP6 DUP3 DUP7 ADD PUSH2 0x149D JUMP JUMPDEST SWAP3 POP POP PUSH1 0x20 DUP4 ADD CALLDATALOAD PUSH8 0xFFFFFFFFFFFFFFFF DUP2 GT ISZERO PUSH2 0x19A1 JUMPI PUSH2 0x19A0 PUSH2 0x144F JUMP JUMPDEST JUMPDEST PUSH2 0x19AD DUP6 DUP3 DUP7 ADD PUSH2 0x187E JUMP JUMPDEST SWAP2 POP POP SWAP3 POP SWAP3 SWAP1 POP JUMP JUMPDEST PUSH1 0x0 PUSH1 0x20 DUP3 DUP5 SUB SLT ISZERO PUSH2 0x19CD JUMPI PUSH2 0x19CC PUSH2 0x144A JUMP JUMPDEST JUMPDEST PUSH1 0x0 DUP3 ADD CALLDATALOAD PUSH8 0xFFFFFFFFFFFFFFFF DUP2 GT ISZERO PUSH2 0x19EB JUMPI PUSH2 0x19EA PUSH2 0x144F JUMP JUMPDEST JUMPDEST PUSH2 0x19F7 DUP5 DUP3 DUP6 ADD PUSH2 0x187E JUMP JUMPDEST SWAP2 POP POP SWAP3 SWAP2 POP POP JUMP JUMPDEST PUSH1 0x0 DUP3 DUP3 MSTORE PUSH1 0x20 DUP3 ADD SWAP1 POP SWAP3 SWAP2 POP POP JUMP JUMPDEST PUSH32 0x416363657373206E6F7420616C6C6F7765640000000000000000000000000000 PUSH1 0x0 DUP3 ADD MSTORE POP JUMP JUMPDEST PUSH1 0x0 PUSH2 0x1A47 PUSH1 0x12 DUP4 PUSH2 0x1A00 JUMP JUMPDEST SWAP2 POP PUSH2 0x1A52 DUP3 PUSH2 0x1A11 JUMP JUMPDEST PUSH1 0x20 DUP3 ADD SWAP1 POP SWAP2 SWAP1 POP JUMP JUMPDEST PUSH1 0x0 PUSH1 0x20 DUP3 ADD SWAP1 POP DUP2 DUP2 SUB PUSH1 0x0 DUP4 ADD MSTORE PUSH2 0x1A76 DUP2 PUSH2 0x1A3A JUMP JUMPDEST SWAP1 POP SWAP2 SWAP1 POP JUMP JUMPDEST PUSH32 0x636F756E74206F7574206F6620626F756E640000000000000000000000000000 PUSH1 0x0 DUP3 ADD MSTORE POP JUMP JUMPDEST PUSH1 0x0 PUSH2 0x1AB3 PUSH1 0x12 DUP4 PUSH2 0x1A00 JUMP JUMPDEST SWAP2 POP PUSH2 0x1ABE DUP3 PUSH2 0x1A7D JUMP JUMPDEST PUSH1 0x20 DUP3 ADD SWAP1 POP SWAP2 SWAP1 POP JUMP JUMPDEST PUSH1 0x0 PUSH1 0x20 DUP3 ADD SWAP1 POP DUP2 DUP2 SUB PUSH1 0x0 DUP4 ADD MSTORE PUSH2 0x1AE2 DUP2 PUSH2 0x1AA6 JUMP JUMPDEST SWAP1 POP SWAP2 SWAP1 POP JUMP JUMPDEST PUSH32 0x4E487B7100000000000000000000000000000000000000000000000000000000 PUSH1 0x0 MSTORE PUSH1 0x11 PUSH1 0x4 MSTORE PUSH1 0x24 PUSH1 0x0 REVERT JUMPDEST PUSH1 0x0 PUSH2 0x1B23 DUP3 PUSH2 0x14DF JUMP JUMPDEST SWAP2 POP PUSH2 0x1B2E DUP4 PUSH2 0x14DF JUMP JUMPDEST SWAP3 POP DUP3 DUP3 SUB SWAP1 POP DUP2 DUP2 GT ISZERO PUSH2 0x1B46 JUMPI PUSH2 0x1B45 PUSH2 0x1AE9 JUMP JUMPDEST JUMPDEST SWAP3 SWAP2 POP POP JUMP JUMPDEST PUSH32 0x4E487B7100000000000000000000000000000000000000000000000000000000 PUSH1 0x0 MSTORE PUSH1 0x22 PUSH1 0x4 MSTORE PUSH1 0x24 PUSH1 0x0 REVERT JUMPDEST PUSH1 0x0 PUSH1 0x2 DUP3 DIV SWAP1 POP PUSH1 0x1 DUP3 AND DUP1 PUSH2 0x1B93 JUMPI PUSH1 0x7F DUP3 AND SWAP2 POP JUMPDEST PUSH1 0x20 DUP3 LT DUP2 SUB PUSH2 0x1BA6 JUMPI PUSH2 0x1BA5 PUSH2 0x1B4C JUMP JUMPDEST JUMPDEST POP SWAP2 SWAP1 POP JUMP JUMPDEST PUSH32 0x4E487B7100000000000000000000000000000000000000000000000000000000 PUSH1 0x0 MSTORE PUSH1 0x32 PUSH1 0x4 MSTORE PUSH1 0x24 PUSH1 0x0 REVERT JUMPDEST PUSH1 0x0 PUSH2 0x1BE6 DUP3 PUSH2 0x14DF JUMP JUMPDEST SWAP2 POP PUSH32 0xFFFFFFFFFFFFFFFFFFFFFFFFFFFFFFFFFFFFFFFFFFFFFFFFFFFFFFFFFFFFFFFF DUP3 SUB PUSH2 0x1C18 JUMPI PUSH2 0x1C17 PUSH2 0x1AE9 JUMP JUMPDEST JUMPDEST PUSH1 0x1 DUP3 ADD SWAP1 POP SWAP2 SWAP1 POP JUMP JUMPDEST PUSH32 0x6E6F207477656574730000000000000000000000000000000000000000000000 PUSH1 0x0 DUP3 ADD MSTORE POP JUMP JUMPDEST PUSH1 0x0 PUSH2 0x1C59 PUSH1 0x9 DUP4 PUSH2 0x1A00 JUMP JUMPDEST SWAP2 POP PUSH2 0x1C64 DUP3 PUSH2 0x1C23 JUMP JUMPDEST PUSH1 0x20 DUP3 ADD SWAP1 POP SWAP2 SWAP1 POP JUMP JUMPDEST PUSH1 0x0 PUSH1 0x20 DUP3 ADD SWAP1 POP DUP2 DUP2 SUB PUSH1 0x0 DUP4 ADD MSTORE PUSH2 0x1C88 DUP2 PUSH2 0x1C4C JUMP JUMPDEST SWAP1 POP SWAP2 SWAP1 POP JUMP JUMPDEST PUSH1 0x0 DUP2 SWAP1 POP DUP2 PUSH1 0x0 MSTORE PUSH1 0x20 PUSH1 0x0 KECCAK256 SWAP1 POP SWAP2 SWAP1 POP JUMP JUMPDEST PUSH1 0x0 PUSH1 0x20 PUSH1 0x1F DUP4 ADD DIV SWAP1 POP SWAP2 SWAP1 POP JUMP JUMPDEST PUSH1 0x0 DUP3 DUP3 SHL SWAP1 POP SWAP3 SWAP2 POP POP JUMP JUMPDEST PUSH1 0x0 PUSH1 0x8 DUP4 MUL PUSH2 0x1CF1 PUSH32 0xFFFFFFFFFFFFFFFFFFFFFFFFFFFFFFFFFFFFFFFFFFFFFFFFFFFFFFFFFFFFFFFF DUP3 PUSH2 0x1CB4 JUMP JUMPDEST PUSH2 0x1CFB DUP7 DUP4 PUSH2 0x1CB4 JUMP JUMPDEST SWAP6 POP DUP1 NOT DUP5 AND SWAP4 POP DUP1 DUP7 AND DUP5 OR SWAP3 POP POP POP SWAP4 SWAP3 POP POP POP JUMP JUMPDEST PUSH1 0x0 DUP2 SWAP1 POP SWAP2 SWAP1 POP JUMP JUMPDEST PUSH1 0x0 PUSH2 0x1D38 PUSH2 0x1D33 PUSH2 0x1D2E DUP5 PUSH2 0x14DF JUMP JUMPDEST PUSH2 0x1D13 JUMP JUMPDEST PUSH2 0x14DF JUMP JUMPDEST SWAP1 POP SWAP2 SWAP1 POP JUMP JUMPDEST PUSH1 0x0 DUP2 SWAP1 POP SWAP2 SWAP1 POP JUMP JUMPDEST PUSH2 0x1D52 DUP4 PUSH2 0x1D1D JUMP JUMPDEST PUSH2 0x1D66 PUSH2 0x1D5E DUP3 PUSH2 0x1D3F JUMP JUMPDEST DUP5 DUP5 SLOAD PUSH2 0x1CC1 JUMP JUMPDEST DUP3 SSTORE POP POP POP POP JUMP JUMPDEST PUSH1 0x0 SWAP1 JUMP JUMPDEST PUSH2 0x1D7B PUSH2 0x1D6E JUMP JUMPDEST PUSH2 0x1D86 DUP2 DUP5 DUP5 PUSH2 0x1D49 JUMP JUMPDEST POP POP POP JUMP JUMPDEST JUMPDEST DUP2 DUP2 LT ISZERO PUSH2 0x1DAA JUMPI PUSH2 0x1D9F PUSH1 0x0 DUP3 PUSH2 0x1D73 JUMP JUMPDEST PUSH1 0x1 DUP2 ADD SWAP1 POP PUSH2 0x1D8C JUMP JUMPDEST POP POP JUMP JUMPDEST PUSH1 0x1F DUP3 GT ISZERO PUSH2 0x1DEF JUMPI PUSH2 0x1DC0 DUP2 PUSH2 0x1C8F JUMP JUMPDEST PUSH2 0x1DC9 DUP5 PUSH2 0x1CA4 JUMP JUMPDEST DUP2 ADD PUSH1 0x20 DUP6 LT ISZERO PUSH2 0x1DD8 JUMPI DUP2 SWAP1 POP JUMPDEST PUSH2 0x1DEC PUSH2 0x1DE4 DUP6 PUSH2 0x1CA4 JUMP JUMPDEST DUP4 ADD DUP3 PUSH2 0x1D8B JUMP JUMPDEST POP POP JUMPDEST POP POP POP JUMP JUMPDEST PUSH1 0x0 DUP3 DUP3 SHR SWAP1 POP SWAP3 SWAP2 POP POP JUMP JUMPDEST PUSH1 0x0 PUSH2 0x1E12 PUSH1 0x0 NOT DUP5 PUSH1 0x8 MUL PUSH2 0x1DF4 JUMP JUMPDEST NOT DUP1 DUP4 AND SWAP2 POP POP SWAP3 SWAP2 POP POP JUMP JUMPDEST PUSH1 0x0 PUSH2 0x1E2B DUP4 DUP4 PUSH2 0x1E01 JUMP JUMPDEST SWAP2 POP DUP3 PUSH1 0x2 MUL DUP3 OR SWAP1 POP SWAP3 SWAP2 POP POP JUMP JUMPDEST PUSH2 0x1E44 DUP3 PUSH2 0x158C JUMP JUMPDEST PUSH8 0xFFFFFFFFFFFFFFFF DUP2 GT ISZERO PUSH2 0x1E5D JUMPI PUSH2 0x1E5C PUSH2 0x1781 JUMP JUMPDEST JUMPDEST PUSH2 0x1E67 DUP3 SLOAD PUSH2 0x1B7B JUMP JUMPDEST PUSH2 0x1E72 DUP3 DUP3 DUP6 PUSH2 0x1DAE JUMP JUMPDEST PUSH1 0x0 PUSH1 0x20 SWAP1 POP PUSH1 0x1F DUP4 GT PUSH1 0x1 DUP2 EQ PUSH2 0x1EA5 JUMPI PUSH1 0x0 DUP5 ISZERO PUSH2 0x1E93 JUMPI DUP3 DUP8 ADD MLOAD SWAP1 POP JUMPDEST PUSH2 0x1E9D DUP6 DUP3 PUSH2 0x1E1F JUMP JUMPDEST DUP7 SSTORE POP PUSH2 0x1F05 JUMP JUMPDEST PUSH1 0x1F NOT DUP5 AND PUSH2 0x1EB3 DUP7 PUSH2 0x1C8F JUMP JUMPDEST PUSH1 0x0 JUMPDEST DUP3 DUP2 LT ISZERO PUSH2 0x1EDB JUMPI DUP5 DUP10 ADD MLOAD DUP3 SSTORE PUSH1 0x1 DUP3 ADD SWAP2 POP PUSH1 0x20 DUP6 ADD SWAP5 POP PUSH1 0x20 DUP2 ADD SWAP1 POP PUSH2 0x1EB6 JUMP JUMPDEST DUP7 DUP4 LT ISZERO PUSH2 0x1EF8 JUMPI DUP5 DUP10 ADD MLOAD PUSH2 0x1EF4 PUSH1 0x1F DUP10 AND DUP3 PUSH2 0x1E01 JUMP JUMPDEST DUP4 SSTORE POP JUMPDEST PUSH1 0x1 PUSH1 0x2 DUP9 MUL ADD DUP9 SSTORE POP POP POP JUMPDEST POP POP POP POP POP POP JUMP INVALID LOG2 PUSH5 0x6970667358 0x22 SLT KECCAK256 PREVRANDAO RETURNDATACOPY PUSH31 0x8231B4A13732937D30F5F0C933B1FB05E683CCA3A2164C1353A11FA5996473 PUSH16 0x6C634300081200330000000000000000 "
				},
				"gasEstimates": {
					"creation": {
						"codeDepositCost": "1600600",
						"executionCost": "25946",
						"totalCost": "1626546"
					},
					"external": {
						"allowAccess(address)": "27071",
						"follow(address)": "51328",
						"follow(address,address)": "infinite",
						"getLatestTweets(uint256)": "infinite",
						"getLatestTweetsOfUser(address,uint256)": "infinite",
						"removeAccess(address)": "27116",
						"sendMessage(address,address,string)": "infinite",
						"sendMessage(address,string)": "infinite",
						"tweet(address,string)": "infinite",
						"tweet(string)": "infinite"
					},
					"internal": {
						"_follow(address,address)": "48688",
						"_sendMessage(address,address,string memory)": "infinite",
						"_tweet(address,string memory)": "infinite"
					}
				},
				"methodIdentifiers": {
					"allowAccess(address)": "c4a85bc1",
					"follow(address)": "4dbf27cc",
					"follow(address,address)": "99d147c2",
					"getLatestTweets(uint256)": "4dc0a687",
					"getLatestTweetsOfUser(address,uint256)": "ce336dad",
					"removeAccess(address)": "8823da6c",
					"sendMessage(address,address,string)": "b88e318d",
					"sendMessage(address,string)": "de6f24bb",
					"tweet(address,string)": "d21d1596",
					"tweet(string)": "fb46d4c5"
				}
			},
			"storageLayout": {
				"storage": [
					{
						"astId": 26,
						"contract": "contracts/1_Twitter.sol:Twitter",
						"label": "tweets",
						"offset": 0,
						"slot": "0",
						"type": "t_mapping(t_uint256,t_struct(Tweet)10_storage)"
					},
					{
						"astId": 31,
						"contract": "contracts/1_Twitter.sol:Twitter",
						"label": "tweetsOf",
						"offset": 0,
						"slot": "1",
						"type": "t_mapping(t_address,t_array(t_uint256)dyn_storage)"
					},
					{
						"astId": 37,
						"contract": "contracts/1_Twitter.sol:Twitter",
						"label": "conversations",
						"offset": 0,
						"slot": "2",
						"type": "t_mapping(t_address,t_array(t_struct(Message)21_storage)dyn_storage)"
					},
					{
						"astId": 43,
						"contract": "contracts/1_Twitter.sol:Twitter",
						"label": "operators",
						"offset": 0,
						"slot": "3",
						"type": "t_mapping(t_address,t_mapping(t_address,t_bool))"
					},
					{
						"astId": 48,
						"contract": "contracts/1_Twitter.sol:Twitter",
						"label": "followings",
						"offset": 0,
						"slot": "4",
						"type": "t_mapping(t_address,t_array(t_address)dyn_storage)"
					},
					{
						"astId": 50,
						"contract": "contracts/1_Twitter.sol:Twitter",
						"label": "nextId",
						"offset": 0,
						"slot": "5",
						"type": "t_uint256"
					},
					{
						"astId": 52,
						"contract": "contracts/1_Twitter.sol:Twitter",
						"label": "nextMessageId",
						"offset": 0,
						"slot": "6",
						"type": "t_uint256"
					},
					{
						"astId": 56,
						"contract": "contracts/1_Twitter.sol:Twitter",
						"label": "owner",
						"offset": 0,
						"slot": "7",
						"type": "t_address"
					}
				],
				"types": {
					"t_address": {
						"encoding": "inplace",
						"label": "address",
						"numberOfBytes": "20"
					},
					"t_array(t_address)dyn_storage": {
						"base": "t_address",
						"encoding": "dynamic_array",
						"label": "address[]",
						"numberOfBytes": "32"
					},
					"t_array(t_struct(Message)21_storage)dyn_storage": {
						"base": "t_struct(Message)21_storage",
						"encoding": "dynamic_array",
						"label": "struct Twitter.Message[]",
						"numberOfBytes": "32"
					},
					"t_array(t_uint256)dyn_storage": {
						"base": "t_uint256",
						"encoding": "dynamic_array",
						"label": "uint256[]",
						"numberOfBytes": "32"
					},
					"t_bool": {
						"encoding": "inplace",
						"label": "bool",
						"numberOfBytes": "1"
					},
					"t_mapping(t_address,t_array(t_address)dyn_storage)": {
						"encoding": "mapping",
						"key": "t_address",
						"label": "mapping(address => address[])",
						"numberOfBytes": "32",
						"value": "t_array(t_address)dyn_storage"
					},
					"t_mapping(t_address,t_array(t_struct(Message)21_storage)dyn_storage)": {
						"encoding": "mapping",
						"key": "t_address",
						"label": "mapping(address => struct Twitter.Message[])",
						"numberOfBytes": "32",
						"value": "t_array(t_struct(Message)21_storage)dyn_storage"
					},
					"t_mapping(t_address,t_array(t_uint256)dyn_storage)": {
						"encoding": "mapping",
						"key": "t_address",
						"label": "mapping(address => uint256[])",
						"numberOfBytes": "32",
						"value": "t_array(t_uint256)dyn_storage"
					},
					"t_mapping(t_address,t_bool)": {
						"encoding": "mapping",
						"key": "t_address",
						"label": "mapping(address => bool)",
						"numberOfBytes": "32",
						"value": "t_bool"
					},
					"t_mapping(t_address,t_mapping(t_address,t_bool))": {
						"encoding": "mapping",
						"key": "t_address",
						"label": "mapping(address => mapping(address => bool))",
						"numberOfBytes": "32",
						"value": "t_mapping(t_address,t_bool)"
					},
					"t_mapping(t_uint256,t_struct(Tweet)10_storage)": {
						"encoding": "mapping",
						"key": "t_uint256",
						"label": "mapping(uint256 => struct Twitter.Tweet)",
						"numberOfBytes": "32",
						"value": "t_struct(Tweet)10_storage"
					},
					"t_string_storage": {
						"encoding": "bytes",
						"label": "string",
						"numberOfBytes": "32"
					},
					"t_struct(Message)21_storage": {
						"encoding": "inplace",
						"label": "struct Twitter.Message",
						"members": [
							{
								"astId": 12,
								"contract": "contracts/1_Twitter.sol:Twitter",
								"label": "id",
								"offset": 0,
								"slot": "0",
								"type": "t_uint256"
							},
							{
								"astId": 14,
								"contract": "contracts/1_Twitter.sol:Twitter",
								"label": "from",
								"offset": 0,
								"slot": "1",
								"type": "t_address"
							},
							{
								"astId": 16,
								"contract": "contracts/1_Twitter.sol:Twitter",
								"label": "to",
								"offset": 0,
								"slot": "2",
								"type": "t_address"
							},
							{
								"astId": 18,
								"contract": "contracts/1_Twitter.sol:Twitter",
								"label": "mssg",
								"offset": 0,
								"slot": "3",
								"type": "t_string_storage"
							},
							{
								"astId": 20,
								"contract": "contracts/1_Twitter.sol:Twitter",
								"label": "createdAt",
								"offset": 0,
								"slot": "4",
								"type": "t_uint256"
							}
						],
						"numberOfBytes": "160"
					},
					"t_struct(Tweet)10_storage": {
						"encoding": "inplace",
						"label": "struct Twitter.Tweet",
						"members": [
							{
								"astId": 3,
								"contract": "contracts/1_Twitter.sol:Twitter",
								"label": "id",
								"offset": 0,
								"slot": "0",
								"type": "t_uint256"
							},
							{
								"astId": 5,
								"contract": "contracts/1_Twitter.sol:Twitter",
								"label": "author",
								"offset": 0,
								"slot": "1",
								"type": "t_address"
							},
							{
								"astId": 7,
								"contract": "contracts/1_Twitter.sol:Twitter",
								"label": "content",
								"offset": 0,
								"slot": "2",
								"type": "t_string_storage"
							},
							{
								"astId": 9,
								"contract": "contracts/1_Twitter.sol:Twitter",
								"label": "createdAt",
								"offset": 0,
								"slot": "3",
								"type": "t_uint256"
							}
						],
						"numberOfBytes": "128"
					},
					"t_uint256": {
						"encoding": "inplace",
						"label": "uint256",
						"numberOfBytes": "32"
					}
				}
			},
			"userdoc": {
				"kind": "user",
				"methods": {},
				"version": 1
			}
		}
	}
}