{
	"contracts/1_Twitter.sol": {
		"Twitter": {
			"abi": [
				{
					"inputs": [
						{
							"internalType": "address",
							"name": "operator",
							"type": "address"
						}
					],
					"name": "allowAccess",
					"outputs": [],
					"stateMutability": "nonpayable",
					"type": "function"
				},
				{
					"inputs": [
						{
							"internalType": "address",
							"name": "",
							"type": "address"
						},
						{
							"internalType": "uint256",
							"name": "",
							"type": "uint256"
						}
					],
					"name": "conversations",
					"outputs": [
						{
							"internalType": "uint256",
							"name": "id",
							"type": "uint256"
						},
						{
							"internalType": "address",
							"name": "from",
							"type": "address"
						},
						{
							"internalType": "address",
							"name": "to",
							"type": "address"
						},
						{
							"internalType": "string",
							"name": "mssg",
							"type": "string"
						},
						{
							"internalType": "uint256",
							"name": "createdAt",
							"type": "uint256"
						}
					],
					"stateMutability": "view",
					"type": "function"
				},
				{
					"inputs": [
						{
							"internalType": "uint256",
							"name": "count",
							"type": "uint256"
						}
					],
					"name": "fetchLatestTweets",
					"outputs": [
						{
							"components": [
								{
									"internalType": "uint256",
									"name": "id",
									"type": "uint256"
								},
								{
									"internalType": "address",
									"name": "author",
									"type": "address"
								},
								{
									"internalType": "string",
									"name": "content",
									"type": "string"
								},
								{
									"internalType": "uint256",
									"name": "createdAt",
									"type": "uint256"
								}
							],
							"internalType": "struct Twitter.Tweet[]",
							"name": "",
							"type": "tuple[]"
						}
					],
					"stateMutability": "view",
					"type": "function"
				},
				{
					"inputs": [
						{
							"internalType": "address",
							"name": "followed",
							"type": "address"
						}
					],
					"name": "follow",
					"outputs": [],
					"stateMutability": "nonpayable",
					"type": "function"
				},
				{
					"inputs": [
						{
							"internalType": "address",
							"name": "user",
							"type": "address"
						},
						{
							"internalType": "address",
							"name": "followed",
							"type": "address"
						}
					],
					"name": "follow",
					"outputs": [],
					"stateMutability": "nonpayable",
					"type": "function"
				},
				{
					"inputs": [
						{
							"internalType": "address",
							"name": "",
							"type": "address"
						},
						{
							"internalType": "uint256",
							"name": "",
							"type": "uint256"
						}
					],
					"name": "followings",
					"outputs": [
						{
							"internalType": "address",
							"name": "",
							"type": "address"
						}
					],
					"stateMutability": "view",
					"type": "function"
				},
				{
					"inputs": [
						{
							"internalType": "address",
							"name": "",
							"type": "address"
						},
						{
							"internalType": "address",
							"name": "",
							"type": "address"
						}
					],
					"name": "operators",
					"outputs": [
						{
							"internalType": "bool",
							"name": "",
							"type": "bool"
						}
					],
					"stateMutability": "view",
					"type": "function"
				},
				{
					"inputs": [
						{
							"internalType": "address",
							"name": "operator",
							"type": "address"
						}
					],
					"name": "removeAccess",
					"outputs": [],
					"stateMutability": "nonpayable",
					"type": "function"
				},
				{
					"inputs": [
						{
							"internalType": "address",
							"name": "user",
							"type": "address"
						},
						{
							"internalType": "address",
							"name": "to",
							"type": "address"
						},
						{
							"internalType": "string",
							"name": "mssg",
							"type": "string"
						}
					],
					"name": "sendMessage",
					"outputs": [],
					"stateMutability": "nonpayable",
					"type": "function"
				},
				{
					"inputs": [
						{
							"internalType": "address",
							"name": "to",
							"type": "address"
						},
						{
							"internalType": "string",
							"name": "mssg",
							"type": "string"
						}
					],
					"name": "sendMessage",
					"outputs": [],
					"stateMutability": "nonpayable",
					"type": "function"
				},
				{
					"inputs": [
						{
							"internalType": "address",
							"name": "user",
							"type": "address"
						},
						{
							"internalType": "string",
							"name": "content",
							"type": "string"
						}
					],
					"name": "tweet",
					"outputs": [],
					"stateMutability": "nonpayable",
					"type": "function"
				},
				{
					"inputs": [
						{
							"internalType": "string",
							"name": "content",
							"type": "string"
						}
					],
					"name": "tweet",
					"outputs": [],
					"stateMutability": "nonpayable",
					"type": "function"
				},
				{
					"inputs": [
						{
							"internalType": "uint256",
							"name": "",
							"type": "uint256"
						}
					],
					"name": "tweets",
					"outputs": [
						{
							"internalType": "uint256",
							"name": "id",
							"type": "uint256"
						},
						{
							"internalType": "address",
							"name": "author",
							"type": "address"
						},
						{
							"internalType": "string",
							"name": "content",
							"type": "string"
						},
						{
							"internalType": "uint256",
							"name": "createdAt",
							"type": "uint256"
						}
					],
					"stateMutability": "view",
					"type": "function"
				},
				{
					"inputs": [
						{
							"internalType": "address",
							"name": "",
							"type": "address"
						},
						{
							"internalType": "uint256",
							"name": "",
							"type": "uint256"
						}
					],
					"name": "tweetsOf",
					"outputs": [
						{
							"internalType": "uint256",
							"name": "",
							"type": "uint256"
						}
					],
					"stateMutability": "view",
					"type": "function"
				}
			],
			"devdoc": {
				"kind": "dev",
				"methods": {},
				"version": 1
			},
			"evm": {
				"assembly": "    /* \"contracts/1_Twitter.sol\":70:3055  contract Twitter {... */\n  mstore(0x40, 0x80)\n  callvalue\n  dup1\n  iszero\n  tag_1\n  jumpi\n  0x00\n  dup1\n  revert\ntag_1:\n  pop\n  dataSize(sub_0)\n  dup1\n  dataOffset(sub_0)\n  0x00\n  codecopy\n  0x00\n  return\nstop\n\nsub_0: assembly {\n        /* \"contracts/1_Twitter.sol\":70:3055  contract Twitter {... */\n      mstore(0x40, 0x80)\n      callvalue\n      dup1\n      iszero\n      tag_1\n      jumpi\n      0x00\n      dup1\n      revert\n    tag_1:\n      pop\n      jumpi(tag_2, lt(calldatasize, 0x04))\n      shr(0xe0, calldataload(0x00))\n      dup1\n      0xb88e318d\n      gt\n      tag_17\n      jumpi\n      dup1\n      0xde6f24bb\n      gt\n      tag_18\n      jumpi\n      dup1\n      0xde6f24bb\n      eq\n      tag_13\n      jumpi\n      dup1\n      0xdedf1b4a\n      eq\n      tag_14\n      jumpi\n      dup1\n      0xe8d857b0\n      eq\n      tag_15\n      jumpi\n      dup1\n      0xfb46d4c5\n      eq\n      tag_16\n      jumpi\n      jump(tag_2)\n    tag_18:\n      dup1\n      0xb88e318d\n      eq\n      tag_10\n      jumpi\n      dup1\n      0xc4a85bc1\n      eq\n      tag_11\n      jumpi\n      dup1\n      0xd21d1596\n      eq\n      tag_12\n      jumpi\n      jump(tag_2)\n    tag_17:\n      dup1\n      0x7c8965e0\n      gt\n      tag_19\n      jumpi\n      dup1\n      0x7c8965e0\n      eq\n      tag_6\n      jumpi\n      dup1\n      0x8823da6c\n      eq\n      tag_7\n      jumpi\n      dup1\n      0x99d147c2\n      eq\n      tag_8\n      jumpi\n      dup1\n      0xaf22bf94\n      eq\n      tag_9\n      jumpi\n      jump(tag_2)\n    tag_19:\n      dup1\n      0x2637588e\n      eq\n      tag_3\n      jumpi\n      dup1\n      0x3befea09\n      eq\n      tag_4\n      jumpi\n      dup1\n      0x4dbf27cc\n      eq\n      tag_5\n      jumpi\n    tag_2:\n      0x00\n      dup1\n      revert\n        /* \"contracts/1_Twitter.sol\":504:565  mapping(address => mapping(address => bool)) public operators */\n    tag_3:\n      tag_20\n      0x04\n      dup1\n      calldatasize\n      sub\n      dup2\n      add\n      swap1\n      tag_21\n      swap2\n      swap1\n      tag_22\n      jump\t// in\n    tag_21:\n      tag_23\n      jump\t// in\n    tag_20:\n      mload(0x40)\n      tag_24\n      swap2\n      swap1\n      tag_25\n      jump\t// in\n    tag_24:\n      mload(0x40)\n      dup1\n      swap2\n      sub\n      swap1\n      return\n        /* \"contracts/1_Twitter.sol\":448:498  mapping(address => Message[]) public conversations */\n    tag_4:\n      tag_26\n      0x04\n      dup1\n      calldatasize\n      sub\n      dup2\n      add\n      swap1\n      tag_27\n      swap2\n      swap1\n      tag_28\n      jump\t// in\n    tag_27:\n      tag_29\n      jump\t// in\n    tag_26:\n      mload(0x40)\n      tag_30\n      swap6\n      swap5\n      swap4\n      swap3\n      swap2\n      swap1\n      tag_31\n      jump\t// in\n    tag_30:\n      mload(0x40)\n      dup1\n      swap2\n      sub\n      swap1\n      return\n        /* \"contracts/1_Twitter.sol\":2089:2176  function follow(address followed) public {... */\n    tag_5:\n      tag_32\n      0x04\n      dup1\n      calldatasize\n      sub\n      dup2\n      add\n      swap1\n      tag_33\n      swap2\n      swap1\n      tag_34\n      jump\t// in\n    tag_33:\n      tag_35\n      jump\t// in\n    tag_32:\n      stop\n        /* \"contracts/1_Twitter.sol\":2626:3053  function fetchLatestTweets(uint256 count)... */\n    tag_6:\n      tag_36\n      0x04\n      dup1\n      calldatasize\n      sub\n      dup2\n      add\n      swap1\n      tag_37\n      swap2\n      swap1\n      tag_38\n      jump\t// in\n    tag_37:\n      tag_39\n      jump\t// in\n    tag_36:\n      mload(0x40)\n      tag_40\n      swap2\n      swap1\n      tag_41\n      jump\t// in\n    tag_40:\n      mload(0x40)\n      dup1\n      swap2\n      sub\n      swap1\n      return\n        /* \"contracts/1_Twitter.sol\":2517:2620  function removeAccess(address operator) public {... */\n    tag_7:\n      tag_42\n      0x04\n      dup1\n      calldatasize\n      sub\n      dup2\n      add\n      swap1\n      tag_43\n      swap2\n      swap1\n      tag_34\n      jump\t// in\n    tag_43:\n      tag_44\n      jump\t// in\n    tag_42:\n      stop\n        /* \"contracts/1_Twitter.sol\":2251:2346  function follow(address user, address followed) public {... */\n    tag_8:\n      tag_45\n      0x04\n      dup1\n      calldatasize\n      sub\n      dup2\n      add\n      swap1\n      tag_46\n      swap2\n      swap1\n      tag_22\n      jump\t// in\n    tag_46:\n      tag_47\n      jump\t// in\n    tag_45:\n      stop\n        /* \"contracts/1_Twitter.sol\":397:442  mapping(address => uint256[]) public tweetsOf */\n    tag_9:\n      tag_48\n      0x04\n      dup1\n      calldatasize\n      sub\n      dup2\n      add\n      swap1\n      tag_49\n      swap2\n      swap1\n      tag_28\n      jump\t// in\n    tag_49:\n      tag_50\n      jump\t// in\n    tag_48:\n      mload(0x40)\n      tag_51\n      swap2\n      swap1\n      tag_52\n      jump\t// in\n    tag_51:\n      mload(0x40)\n      dup1\n      swap2\n      sub\n      swap1\n      return\n        /* \"contracts/1_Twitter.sol\":1758:1907  function sendMessage(... */\n    tag_10:\n      tag_53\n      0x04\n      dup1\n      calldatasize\n      sub\n      dup2\n      add\n      swap1\n      tag_54\n      swap2\n      swap1\n      tag_55\n      jump\t// in\n    tag_54:\n      tag_56\n      jump\t// in\n    tag_53:\n      stop\n        /* \"contracts/1_Twitter.sol\":2381:2482  function allowAccess(address operator) public {... */\n    tag_11:\n      tag_57\n      0x04\n      dup1\n      calldatasize\n      sub\n      dup2\n      add\n      swap1\n      tag_58\n      swap2\n      swap1\n      tag_34\n      jump\t// in\n    tag_58:\n      tag_59\n      jump\t// in\n    tag_57:\n      stop\n        /* \"contracts/1_Twitter.sol\":1145:1242  function tweet(address user, string memory content) public {... */\n    tag_12:\n      tag_60\n      0x04\n      dup1\n      calldatasize\n      sub\n      dup2\n      add\n      swap1\n      tag_61\n      swap2\n      swap1\n      tag_62\n      jump\t// in\n    tag_61:\n      tag_63\n      jump\t// in\n    tag_60:\n      stop\n        /* \"contracts/1_Twitter.sol\":1571:1682  function sendMessage(address to, string memory mssg) public {... */\n    tag_13:\n      tag_64\n      0x04\n      dup1\n      calldatasize\n      sub\n      dup2\n      add\n      swap1\n      tag_65\n      swap2\n      swap1\n      tag_62\n      jump\t// in\n    tag_65:\n      tag_66\n      jump\t// in\n    tag_64:\n      stop\n        /* \"contracts/1_Twitter.sol\":571:618  mapping(address => address[]) public followings */\n    tag_14:\n      tag_67\n      0x04\n      dup1\n      calldatasize\n      sub\n      dup2\n      add\n      swap1\n      tag_68\n      swap2\n      swap1\n      tag_28\n      jump\t// in\n    tag_68:\n      tag_69\n      jump\t// in\n    tag_67:\n      mload(0x40)\n      tag_70\n      swap2\n      swap1\n      tag_71\n      jump\t// in\n    tag_70:\n      mload(0x40)\n      dup1\n      swap2\n      sub\n      swap1\n      return\n        /* \"contracts/1_Twitter.sol\":352:391  mapping(uint256 => Tweet) public tweets */\n    tag_15:\n      tag_72\n      0x04\n      dup1\n      calldatasize\n      sub\n      dup2\n      add\n      swap1\n      tag_73\n      swap2\n      swap1\n      tag_38\n      jump\t// in\n    tag_73:\n      tag_74\n      jump\t// in\n    tag_72:\n      mload(0x40)\n      tag_75\n      swap5\n      swap4\n      swap3\n      swap2\n      swap1\n      tag_76\n      jump\t// in\n    tag_75:\n      mload(0x40)\n      dup1\n      swap2\n      sub\n      swap1\n      return\n        /* \"contracts/1_Twitter.sol\":993:1082  function tweet(string memory content) public {... */\n    tag_16:\n      tag_77\n      0x04\n      dup1\n      calldatasize\n      sub\n      dup2\n      add\n      swap1\n      tag_78\n      swap2\n      swap1\n      tag_79\n      jump\t// in\n    tag_78:\n      tag_80\n      jump\t// in\n    tag_77:\n      stop\n        /* \"contracts/1_Twitter.sol\":504:565  mapping(address => mapping(address => bool)) public operators */\n    tag_23:\n      mstore(0x20, 0x03)\n      dup2\n      0x00\n      mstore\n      mstore(0x20, keccak256(0x00, 0x40))\n      dup1\n      0x00\n      mstore\n      keccak256(0x00, 0x40)\n      0x00\n      swap2\n      pop\n      swap2\n      pop\n      swap1\n      sload\n      swap1\n      0x0100\n      exp\n      swap1\n      div\n      0xff\n      and\n      dup2\n      jump\t// out\n        /* \"contracts/1_Twitter.sol\":448:498  mapping(address => Message[]) public conversations */\n    tag_29:\n      mstore(0x20, 0x02)\n      dup2\n      0x00\n      mstore\n      keccak256(0x00, 0x40)\n      dup2\n      dup2\n      sload\n      dup2\n      lt\n      tag_81\n      jumpi\n      0x00\n      dup1\n      revert\n    tag_81:\n      swap1\n      0x00\n      mstore\n      keccak256(0x00, 0x20)\n      swap1\n      0x05\n      mul\n      add\n      0x00\n      swap2\n      pop\n      swap2\n      pop\n      pop\n      dup1\n      0x00\n      add\n      sload\n      swap1\n      dup1\n      0x01\n      add\n      0x00\n      swap1\n      sload\n      swap1\n      0x0100\n      exp\n      swap1\n      div\n      0xffffffffffffffffffffffffffffffffffffffff\n      and\n      swap1\n      dup1\n      0x02\n      add\n      0x00\n      swap1\n      sload\n      swap1\n      0x0100\n      exp\n      swap1\n      div\n      0xffffffffffffffffffffffffffffffffffffffff\n      and\n      swap1\n      dup1\n      0x03\n      add\n      dup1\n      sload\n      tag_83\n      swap1\n      tag_84\n      jump\t// in\n    tag_83:\n      dup1\n      0x1f\n      add\n      0x20\n      dup1\n      swap2\n      div\n      mul\n      0x20\n      add\n      mload(0x40)\n      swap1\n      dup2\n      add\n      0x40\n      mstore\n      dup1\n      swap3\n      swap2\n      swap1\n      dup2\n      dup2\n      mstore\n      0x20\n      add\n      dup3\n      dup1\n      sload\n      tag_85\n      swap1\n      tag_84\n      jump\t// in\n    tag_85:\n      dup1\n      iszero\n      tag_86\n      jumpi\n      dup1\n      0x1f\n      lt\n      tag_87\n      jumpi\n      0x0100\n      dup1\n      dup4\n      sload\n      div\n      mul\n      dup4\n      mstore\n      swap2\n      0x20\n      add\n      swap2\n      jump(tag_86)\n    tag_87:\n      dup3\n      add\n      swap2\n      swap1\n      0x00\n      mstore\n      keccak256(0x00, 0x20)\n      swap1\n    tag_88:\n      dup2\n      sload\n      dup2\n      mstore\n      swap1\n      0x01\n      add\n      swap1\n      0x20\n      add\n      dup1\n      dup4\n      gt\n      tag_88\n      jumpi\n      dup3\n      swap1\n      sub\n      0x1f\n      and\n      dup3\n      add\n      swap2\n    tag_86:\n      pop\n      pop\n      pop\n      pop\n      pop\n      swap1\n      dup1\n      0x04\n      add\n      sload\n      swap1\n      pop\n      dup6\n      jump\t// out\n        /* \"contracts/1_Twitter.sol\":2089:2176  function follow(address followed) public {... */\n    tag_35:\n        /* \"contracts/1_Twitter.sol\":2140:2169  _follow(msg.sender, followed) */\n      tag_90\n        /* \"contracts/1_Twitter.sol\":2148:2158  msg.sender */\n      caller\n        /* \"contracts/1_Twitter.sol\":2160:2168  followed */\n      dup3\n        /* \"contracts/1_Twitter.sol\":2140:2147  _follow */\n      tag_91\n        /* \"contracts/1_Twitter.sol\":2140:2169  _follow(msg.sender, followed) */\n      jump\t// in\n    tag_90:\n        /* \"contracts/1_Twitter.sol\":2089:2176  function follow(address followed) public {... */\n      pop\n      jump\t// out\n        /* \"contracts/1_Twitter.sol\":2626:3053  function fetchLatestTweets(uint256 count)... */\n    tag_39:\n        /* \"contracts/1_Twitter.sol\":2713:2727  Tweet[] memory */\n      0x60\n        /* \"contracts/1_Twitter.sol\":2759:2760  0 */\n      0x00\n        /* \"contracts/1_Twitter.sol\":2751:2756  count */\n      dup3\n        /* \"contracts/1_Twitter.sol\":2751:2760  count > 0 */\n      gt\n        /* \"contracts/1_Twitter.sol\":2751:2778  count > 0 && count < nextId */\n      dup1\n      iszero\n      tag_93\n      jumpi\n      pop\n        /* \"contracts/1_Twitter.sol\":2772:2778  nextId */\n      sload(0x05)\n        /* \"contracts/1_Twitter.sol\":2764:2769  count */\n      dup3\n        /* \"contracts/1_Twitter.sol\":2764:2778  count < nextId */\n      lt\n        /* \"contracts/1_Twitter.sol\":2751:2778  count > 0 && count < nextId */\n    tag_93:\n        /* \"contracts/1_Twitter.sol\":2743:2801  require(count > 0 && count < nextId, \"count out of bound\") */\n      tag_94\n      jumpi\n      mload(0x40)\n      0x08c379a000000000000000000000000000000000000000000000000000000000\n      dup2\n      mstore\n      0x04\n      add\n      tag_95\n      swap1\n      tag_96\n      jump\t// in\n    tag_95:\n      mload(0x40)\n      dup1\n      swap2\n      sub\n      swap1\n      revert\n    tag_94:\n        /* \"contracts/1_Twitter.sol\":2811:2838  Tweet[] memory latestTweets */\n      0x60\n        /* \"contracts/1_Twitter.sol\":2930:2939  uint256 i */\n      0x00\n        /* \"contracts/1_Twitter.sol\":2925:3018  for (uint256 i; i < count; i++) {... */\n    tag_97:\n        /* \"contracts/1_Twitter.sol\":2945:2950  count */\n      dup4\n        /* \"contracts/1_Twitter.sol\":2941:2942  i */\n      dup2\n        /* \"contracts/1_Twitter.sol\":2941:2950  i < count */\n      lt\n        /* \"contracts/1_Twitter.sol\":2925:3018  for (uint256 i; i < count; i++) {... */\n      iszero\n      tag_98\n      jumpi\n        /* \"contracts/1_Twitter.sol\":2989:2995  tweets */\n      0x00\n        /* \"contracts/1_Twitter.sol\":2989:3007  tweets[nextId - i] */\n      dup1\n        /* \"contracts/1_Twitter.sol\":3005:3006  i */\n      dup3\n        /* \"contracts/1_Twitter.sol\":2996:3002  nextId */\n      sload(0x05)\n        /* \"contracts/1_Twitter.sol\":2996:3006  nextId - i */\n      tag_100\n      swap2\n      swap1\n      tag_101\n      jump\t// in\n    tag_100:\n        /* \"contracts/1_Twitter.sol\":2989:3007  tweets[nextId - i] */\n      dup2\n      mstore\n      0x20\n      add\n      swap1\n      dup2\n      mstore\n      0x20\n      add\n      0x00\n      keccak256\n        /* \"contracts/1_Twitter.sol\":2971:3007  latestTweets[0] = tweets[nextId - i] */\n      mload(0x40)\n      dup1\n      0x80\n      add\n      0x40\n      mstore\n      swap1\n      dup2\n      0x00\n      dup3\n      add\n      sload\n      dup2\n      mstore\n      0x20\n      add\n      0x01\n      dup3\n      add\n      0x00\n      swap1\n      sload\n      swap1\n      0x0100\n      exp\n      swap1\n      div\n      0xffffffffffffffffffffffffffffffffffffffff\n      and\n      0xffffffffffffffffffffffffffffffffffffffff\n      and\n      0xffffffffffffffffffffffffffffffffffffffff\n      and\n      dup2\n      mstore\n      0x20\n      add\n      0x02\n      dup3\n      add\n      dup1\n      sload\n      tag_102\n      swap1\n      tag_84\n      jump\t// in\n    tag_102:\n      dup1\n      0x1f\n      add\n      0x20\n      dup1\n      swap2\n      div\n      mul\n      0x20\n      add\n      mload(0x40)\n      swap1\n      dup2\n      add\n      0x40\n      mstore\n      dup1\n      swap3\n      swap2\n      swap1\n      dup2\n      dup2\n      mstore\n      0x20\n      add\n      dup3\n      dup1\n      sload\n      tag_103\n      swap1\n      tag_84\n      jump\t// in\n    tag_103:\n      dup1\n      iszero\n      tag_104\n      jumpi\n      dup1\n      0x1f\n      lt\n      tag_105\n      jumpi\n      0x0100\n      dup1\n      dup4\n      sload\n      div\n      mul\n      dup4\n      mstore\n      swap2\n      0x20\n      add\n      swap2\n      jump(tag_104)\n    tag_105:\n      dup3\n      add\n      swap2\n      swap1\n      0x00\n      mstore\n      keccak256(0x00, 0x20)\n      swap1\n    tag_106:\n      dup2\n      sload\n      dup2\n      mstore\n      swap1\n      0x01\n      add\n      swap1\n      0x20\n      add\n      dup1\n      dup4\n      gt\n      tag_106\n      jumpi\n      dup3\n      swap1\n      sub\n      0x1f\n      and\n      dup3\n      add\n      swap2\n    tag_104:\n      pop\n      pop\n      pop\n      pop\n      pop\n      dup2\n      mstore\n      0x20\n      add\n      0x03\n      dup3\n      add\n      sload\n      dup2\n      mstore\n      pop\n      pop\n        /* \"contracts/1_Twitter.sol\":2971:2983  latestTweets */\n      dup3\n        /* \"contracts/1_Twitter.sol\":2984:2985  0 */\n      0x00\n        /* \"contracts/1_Twitter.sol\":2971:2986  latestTweets[0] */\n      dup2\n      mload\n      dup2\n      lt\n      tag_107\n      jumpi\n      tag_108\n      tag_109\n      jump\t// in\n    tag_108:\n    tag_107:\n      0x20\n      mul\n      0x20\n      add\n      add\n        /* \"contracts/1_Twitter.sol\":2971:3007  latestTweets[0] = tweets[nextId - i] */\n      dup2\n      swap1\n      mstore\n      pop\n        /* \"contracts/1_Twitter.sol\":2952:2955  i++ */\n      dup1\n      dup1\n      tag_110\n      swap1\n      tag_111\n      jump\t// in\n    tag_110:\n      swap2\n      pop\n      pop\n        /* \"contracts/1_Twitter.sol\":2925:3018  for (uint256 i; i < count; i++) {... */\n      jump(tag_97)\n    tag_98:\n      pop\n        /* \"contracts/1_Twitter.sol\":3034:3046  latestTweets */\n      dup1\n        /* \"contracts/1_Twitter.sol\":3027:3046  return latestTweets */\n      swap2\n      pop\n      pop\n        /* \"contracts/1_Twitter.sol\":2626:3053  function fetchLatestTweets(uint256 count)... */\n      swap2\n      swap1\n      pop\n      jump\t// out\n        /* \"contracts/1_Twitter.sol\":2517:2620  function removeAccess(address operator) public {... */\n    tag_44:\n        /* \"contracts/1_Twitter.sol\":2608:2613  false */\n      0x00\n        /* \"contracts/1_Twitter.sol\":2574:2583  operators */\n      0x03\n        /* \"contracts/1_Twitter.sol\":2574:2595  operators[msg.sender] */\n      0x00\n        /* \"contracts/1_Twitter.sol\":2584:2594  msg.sender */\n      caller\n        /* \"contracts/1_Twitter.sol\":2574:2595  operators[msg.sender] */\n      0xffffffffffffffffffffffffffffffffffffffff\n      and\n      0xffffffffffffffffffffffffffffffffffffffff\n      and\n      dup2\n      mstore\n      0x20\n      add\n      swap1\n      dup2\n      mstore\n      0x20\n      add\n      0x00\n      keccak256\n        /* \"contracts/1_Twitter.sol\":2574:2605  operators[msg.sender][operator] */\n      0x00\n        /* \"contracts/1_Twitter.sol\":2596:2604  operator */\n      dup4\n        /* \"contracts/1_Twitter.sol\":2574:2605  operators[msg.sender][operator] */\n      0xffffffffffffffffffffffffffffffffffffffff\n      and\n      0xffffffffffffffffffffffffffffffffffffffff\n      and\n      dup2\n      mstore\n      0x20\n      add\n      swap1\n      dup2\n      mstore\n      0x20\n      add\n      0x00\n      keccak256\n      0x00\n        /* \"contracts/1_Twitter.sol\":2574:2613  operators[msg.sender][operator] = false */\n      0x0100\n      exp\n      dup2\n      sload\n      dup2\n      0xff\n      mul\n      not\n      and\n      swap1\n      dup4\n      iszero\n      iszero\n      mul\n      or\n      swap1\n      sstore\n      pop\n        /* \"contracts/1_Twitter.sol\":2517:2620  function removeAccess(address operator) public {... */\n      pop\n      jump\t// out\n        /* \"contracts/1_Twitter.sol\":2251:2346  function follow(address user, address followed) public {... */\n    tag_47:\n        /* \"contracts/1_Twitter.sol\":2316:2339  _follow(user, followed) */\n      tag_114\n        /* \"contracts/1_Twitter.sol\":2324:2328  user */\n      dup3\n        /* \"contracts/1_Twitter.sol\":2330:2338  followed */\n      dup3\n        /* \"contracts/1_Twitter.sol\":2316:2323  _follow */\n      tag_91\n        /* \"contracts/1_Twitter.sol\":2316:2339  _follow(user, followed) */\n      jump\t// in\n    tag_114:\n        /* \"contracts/1_Twitter.sol\":2251:2346  function follow(address user, address followed) public {... */\n      pop\n      pop\n      jump\t// out\n        /* \"contracts/1_Twitter.sol\":397:442  mapping(address => uint256[]) public tweetsOf */\n    tag_50:\n      mstore(0x20, 0x01)\n      dup2\n      0x00\n      mstore\n      keccak256(0x00, 0x40)\n      dup2\n      dup2\n      sload\n      dup2\n      lt\n      tag_115\n      jumpi\n      0x00\n      dup1\n      revert\n    tag_115:\n      swap1\n      0x00\n      mstore\n      keccak256(0x00, 0x20)\n      add\n      0x00\n      swap2\n      pop\n      swap2\n      pop\n      pop\n      sload\n      dup2\n      jump\t// out\n        /* \"contracts/1_Twitter.sol\":1758:1907  function sendMessage(... */\n    tag_56:\n        /* \"contracts/1_Twitter.sol\":1872:1900  _sendMessage(user, to, mssg) */\n      tag_118\n        /* \"contracts/1_Twitter.sol\":1885:1889  user */\n      dup4\n        /* \"contracts/1_Twitter.sol\":1891:1893  to */\n      dup4\n        /* \"contracts/1_Twitter.sol\":1895:1899  mssg */\n      dup4\n        /* \"contracts/1_Twitter.sol\":1872:1884  _sendMessage */\n      tag_119\n        /* \"contracts/1_Twitter.sol\":1872:1900  _sendMessage(user, to, mssg) */\n      jump\t// in\n    tag_118:\n        /* \"contracts/1_Twitter.sol\":1758:1907  function sendMessage(... */\n      pop\n      pop\n      pop\n      jump\t// out\n        /* \"contracts/1_Twitter.sol\":2381:2482  function allowAccess(address operator) public {... */\n    tag_59:\n        /* \"contracts/1_Twitter.sol\":2471:2475  true */\n      0x01\n        /* \"contracts/1_Twitter.sol\":2437:2446  operators */\n      0x03\n        /* \"contracts/1_Twitter.sol\":2437:2458  operators[msg.sender] */\n      0x00\n        /* \"contracts/1_Twitter.sol\":2447:2457  msg.sender */\n      caller\n        /* \"contracts/1_Twitter.sol\":2437:2458  operators[msg.sender] */\n      0xffffffffffffffffffffffffffffffffffffffff\n      and\n      0xffffffffffffffffffffffffffffffffffffffff\n      and\n      dup2\n      mstore\n      0x20\n      add\n      swap1\n      dup2\n      mstore\n      0x20\n      add\n      0x00\n      keccak256\n        /* \"contracts/1_Twitter.sol\":2437:2468  operators[msg.sender][operator] */\n      0x00\n        /* \"contracts/1_Twitter.sol\":2459:2467  operator */\n      dup4\n        /* \"contracts/1_Twitter.sol\":2437:2468  operators[msg.sender][operator] */\n      0xffffffffffffffffffffffffffffffffffffffff\n      and\n      0xffffffffffffffffffffffffffffffffffffffff\n      and\n      dup2\n      mstore\n      0x20\n      add\n      swap1\n      dup2\n      mstore\n      0x20\n      add\n      0x00\n      keccak256\n      0x00\n        /* \"contracts/1_Twitter.sol\":2437:2475  operators[msg.sender][operator] = true */\n      0x0100\n      exp\n      dup2\n      sload\n      dup2\n      0xff\n      mul\n      not\n      and\n      swap1\n      dup4\n      iszero\n      iszero\n      mul\n      or\n      swap1\n      sstore\n      pop\n        /* \"contracts/1_Twitter.sol\":2381:2482  function allowAccess(address operator) public {... */\n      pop\n      jump\t// out\n        /* \"contracts/1_Twitter.sol\":1145:1242  function tweet(address user, string memory content) public {... */\n    tag_63:\n        /* \"contracts/1_Twitter.sol\":1214:1235  _tweet(user, content) */\n      tag_122\n        /* \"contracts/1_Twitter.sol\":1221:1225  user */\n      dup3\n        /* \"contracts/1_Twitter.sol\":1227:1234  content */\n      dup3\n        /* \"contracts/1_Twitter.sol\":1214:1220  _tweet */\n      tag_123\n        /* \"contracts/1_Twitter.sol\":1214:1235  _tweet(user, content) */\n      jump\t// in\n    tag_122:\n        /* \"contracts/1_Twitter.sol\":1145:1242  function tweet(address user, string memory content) public {... */\n      pop\n      pop\n      jump\t// out\n        /* \"contracts/1_Twitter.sol\":1571:1682  function sendMessage(address to, string memory mssg) public {... */\n    tag_66:\n        /* \"contracts/1_Twitter.sol\":1641:1675  _sendMessage(msg.sender, to, mssg) */\n      tag_125\n        /* \"contracts/1_Twitter.sol\":1654:1664  msg.sender */\n      caller\n        /* \"contracts/1_Twitter.sol\":1666:1668  to */\n      dup4\n        /* \"contracts/1_Twitter.sol\":1670:1674  mssg */\n      dup4\n        /* \"contracts/1_Twitter.sol\":1641:1653  _sendMessage */\n      tag_119\n        /* \"contracts/1_Twitter.sol\":1641:1675  _sendMessage(msg.sender, to, mssg) */\n      jump\t// in\n    tag_125:\n        /* \"contracts/1_Twitter.sol\":1571:1682  function sendMessage(address to, string memory mssg) public {... */\n      pop\n      pop\n      jump\t// out\n        /* \"contracts/1_Twitter.sol\":571:618  mapping(address => address[]) public followings */\n    tag_69:\n      mstore(0x20, 0x04)\n      dup2\n      0x00\n      mstore\n      keccak256(0x00, 0x40)\n      dup2\n      dup2\n      sload\n      dup2\n      lt\n      tag_126\n      jumpi\n      0x00\n      dup1\n      revert\n    tag_126:\n      swap1\n      0x00\n      mstore\n      keccak256(0x00, 0x20)\n      add\n      0x00\n      swap2\n      pop\n      swap2\n      pop\n      swap1\n      sload\n      swap1\n      0x0100\n      exp\n      swap1\n      div\n      0xffffffffffffffffffffffffffffffffffffffff\n      and\n      dup2\n      jump\t// out\n        /* \"contracts/1_Twitter.sol\":352:391  mapping(uint256 => Tweet) public tweets */\n    tag_74:\n      mstore(0x20, 0x00)\n      dup1\n      0x00\n      mstore\n      keccak256(0x00, 0x40)\n      0x00\n      swap2\n      pop\n      swap1\n      pop\n      dup1\n      0x00\n      add\n      sload\n      swap1\n      dup1\n      0x01\n      add\n      0x00\n      swap1\n      sload\n      swap1\n      0x0100\n      exp\n      swap1\n      div\n      0xffffffffffffffffffffffffffffffffffffffff\n      and\n      swap1\n      dup1\n      0x02\n      add\n      dup1\n      sload\n      tag_128\n      swap1\n      tag_84\n      jump\t// in\n    tag_128:\n      dup1\n      0x1f\n      add\n      0x20\n      dup1\n      swap2\n      div\n      mul\n      0x20\n      add\n      mload(0x40)\n      swap1\n      dup2\n      add\n      0x40\n      mstore\n      dup1\n      swap3\n      swap2\n      swap1\n      dup2\n      dup2\n      mstore\n      0x20\n      add\n      dup3\n      dup1\n      sload\n      tag_129\n      swap1\n      tag_84\n      jump\t// in\n    tag_129:\n      dup1\n      iszero\n      tag_130\n      jumpi\n      dup1\n      0x1f\n      lt\n      tag_131\n      jumpi\n      0x0100\n      dup1\n      dup4\n      sload\n      div\n      mul\n      dup4\n      mstore\n      swap2\n      0x20\n      add\n      swap2\n      jump(tag_130)\n    tag_131:\n      dup3\n      add\n      swap2\n      swap1\n      0x00\n      mstore\n      keccak256(0x00, 0x20)\n      swap1\n    tag_132:\n      dup2\n      sload\n      dup2\n      mstore\n      swap1\n      0x01\n      add\n      swap1\n      0x20\n      add\n      dup1\n      dup4\n      gt\n      tag_132\n      jumpi\n      dup3\n      swap1\n      sub\n      0x1f\n      and\n      dup3\n      add\n      swap2\n    tag_130:\n      pop\n      pop\n      pop\n      pop\n      pop\n      swap1\n      dup1\n      0x03\n      add\n      sload\n      swap1\n      pop\n      dup5\n      jump\t// out\n        /* \"contracts/1_Twitter.sol\":993:1082  function tweet(string memory content) public {... */\n    tag_80:\n        /* \"contracts/1_Twitter.sol\":1048:1075  _tweet(msg.sender, content) */\n      tag_134\n        /* \"contracts/1_Twitter.sol\":1055:1065  msg.sender */\n      caller\n        /* \"contracts/1_Twitter.sol\":1067:1074  content */\n      dup3\n        /* \"contracts/1_Twitter.sol\":1048:1054  _tweet */\n      tag_123\n        /* \"contracts/1_Twitter.sol\":1048:1075  _tweet(msg.sender, content) */\n      jump\t// in\n    tag_134:\n        /* \"contracts/1_Twitter.sol\":993:1082  function tweet(string memory content) public {... */\n      pop\n      jump\t// out\n        /* \"contracts/1_Twitter.sol\":1913:2019  function _follow(address user, address followed) internal {... */\n    tag_91:\n        /* \"contracts/1_Twitter.sol\":1981:1991  followings */\n      0x04\n        /* \"contracts/1_Twitter.sol\":1981:1997  followings[user] */\n      0x00\n        /* \"contracts/1_Twitter.sol\":1992:1996  user */\n      dup4\n        /* \"contracts/1_Twitter.sol\":1981:1997  followings[user] */\n      0xffffffffffffffffffffffffffffffffffffffff\n      and\n      0xffffffffffffffffffffffffffffffffffffffff\n      and\n      dup2\n      mstore\n      0x20\n      add\n      swap1\n      dup2\n      mstore\n      0x20\n      add\n      0x00\n      keccak256\n        /* \"contracts/1_Twitter.sol\":2003:2011  followed */\n      dup2\n        /* \"contracts/1_Twitter.sol\":1981:2012  followings[user].push(followed) */\n      swap1\n      dup1\n      0x01\n      dup2\n      sload\n      add\n      dup1\n      dup3\n      sstore\n      dup1\n      swap2\n      pop\n      pop\n      0x01\n      swap1\n      sub\n      swap1\n      0x00\n      mstore\n      keccak256(0x00, 0x20)\n      add\n      0x00\n      swap1\n      swap2\n      swap1\n      swap2\n      swap1\n      swap2\n      0x0100\n      exp\n      dup2\n      sload\n      dup2\n      0xffffffffffffffffffffffffffffffffffffffff\n      mul\n      not\n      and\n      swap1\n      dup4\n      0xffffffffffffffffffffffffffffffffffffffff\n      and\n      mul\n      or\n      swap1\n      sstore\n      pop\n        /* \"contracts/1_Twitter.sol\":1913:2019  function _follow(address user, address followed) internal {... */\n      pop\n      pop\n      jump\t// out\n        /* \"contracts/1_Twitter.sol\":1248:1500  function _sendMessage(... */\n    tag_119:\n        /* \"contracts/1_Twitter.sol\":1365:1378  conversations */\n      0x02\n        /* \"contracts/1_Twitter.sol\":1365:1384  conversations[user] */\n      0x00\n        /* \"contracts/1_Twitter.sol\":1379:1383  user */\n      dup5\n        /* \"contracts/1_Twitter.sol\":1365:1384  conversations[user] */\n      0xffffffffffffffffffffffffffffffffffffffff\n      and\n      0xffffffffffffffffffffffffffffffffffffffff\n      and\n      dup2\n      mstore\n      0x20\n      add\n      swap1\n      dup2\n      mstore\n      0x20\n      add\n      0x00\n      keccak256\n        /* \"contracts/1_Twitter.sol\":1403:1458  Message(nextMessageId, user, to, mssg, block.timestamp) */\n      mload(0x40)\n      dup1\n      0xa0\n      add\n      0x40\n      mstore\n      dup1\n        /* \"contracts/1_Twitter.sol\":1411:1424  nextMessageId */\n      sload(0x06)\n        /* \"contracts/1_Twitter.sol\":1403:1458  Message(nextMessageId, user, to, mssg, block.timestamp) */\n      dup2\n      mstore\n      0x20\n      add\n        /* \"contracts/1_Twitter.sol\":1426:1430  user */\n      dup6\n        /* \"contracts/1_Twitter.sol\":1403:1458  Message(nextMessageId, user, to, mssg, block.timestamp) */\n      0xffffffffffffffffffffffffffffffffffffffff\n      and\n      dup2\n      mstore\n      0x20\n      add\n        /* \"contracts/1_Twitter.sol\":1432:1434  to */\n      dup5\n        /* \"contracts/1_Twitter.sol\":1403:1458  Message(nextMessageId, user, to, mssg, block.timestamp) */\n      0xffffffffffffffffffffffffffffffffffffffff\n      and\n      dup2\n      mstore\n      0x20\n      add\n        /* \"contracts/1_Twitter.sol\":1436:1440  mssg */\n      dup4\n        /* \"contracts/1_Twitter.sol\":1403:1458  Message(nextMessageId, user, to, mssg, block.timestamp) */\n      dup2\n      mstore\n      0x20\n      add\n        /* \"contracts/1_Twitter.sol\":1442:1457  block.timestamp */\n      timestamp\n        /* \"contracts/1_Twitter.sol\":1403:1458  Message(nextMessageId, user, to, mssg, block.timestamp) */\n      dup2\n      mstore\n      pop\n        /* \"contracts/1_Twitter.sol\":1365:1468  conversations[user].push(... */\n      swap1\n      dup1\n      0x01\n      dup2\n      sload\n      add\n      dup1\n      dup3\n      sstore\n      dup1\n      swap2\n      pop\n      pop\n      0x01\n      swap1\n      sub\n      swap1\n      0x00\n      mstore\n      keccak256(0x00, 0x20)\n      swap1\n      0x05\n      mul\n      add\n      0x00\n      swap1\n      swap2\n      swap1\n      swap2\n      swap1\n      swap2\n      pop\n      0x00\n      dup3\n      add\n      mload\n      dup2\n      0x00\n      add\n      sstore\n      0x20\n      dup3\n      add\n      mload\n      dup2\n      0x01\n      add\n      exp(0x0100, 0x00)\n      dup2\n      sload\n      dup2\n      0xffffffffffffffffffffffffffffffffffffffff\n      mul\n      not\n      and\n      swap1\n      dup4\n      0xffffffffffffffffffffffffffffffffffffffff\n      and\n      mul\n      or\n      swap1\n      sstore\n      pop\n      0x40\n      dup3\n      add\n      mload\n      dup2\n      0x02\n      add\n      exp(0x0100, 0x00)\n      dup2\n      sload\n      dup2\n      0xffffffffffffffffffffffffffffffffffffffff\n      mul\n      not\n      and\n      swap1\n      dup4\n      0xffffffffffffffffffffffffffffffffffffffff\n      and\n      mul\n      or\n      swap1\n      sstore\n      pop\n      0x60\n      dup3\n      add\n      mload\n      dup2\n      0x03\n      add\n      swap1\n      dup2\n      tag_139\n      swap2\n      swap1\n      tag_140\n      jump\t// in\n    tag_139:\n      pop\n      0x80\n      dup3\n      add\n      mload\n      dup2\n      0x04\n      add\n      sstore\n      pop\n      pop\n        /* \"contracts/1_Twitter.sol\":1478:1491  nextMessageId */\n      0x06\n      0x00\n        /* \"contracts/1_Twitter.sol\":1478:1493  nextMessageId++ */\n      dup2\n      sload\n      dup1\n      swap3\n      swap2\n      swap1\n      tag_141\n      swap1\n      tag_111\n      jump\t// in\n    tag_141:\n      swap2\n      swap1\n      pop\n      sstore\n      pop\n        /* \"contracts/1_Twitter.sol\":1248:1500  function _sendMessage(... */\n      pop\n      pop\n      pop\n      jump\t// out\n        /* \"contracts/1_Twitter.sol\":728:924  function _tweet(address user, string memory content) internal {... */\n    tag_123:\n        /* \"contracts/1_Twitter.sol\":817:862  Tweet(nextId, user, content, block.timestamp) */\n      mload(0x40)\n      dup1\n      0x80\n      add\n      0x40\n      mstore\n      dup1\n        /* \"contracts/1_Twitter.sol\":823:829  nextId */\n      sload(0x05)\n        /* \"contracts/1_Twitter.sol\":817:862  Tweet(nextId, user, content, block.timestamp) */\n      dup2\n      mstore\n      0x20\n      add\n        /* \"contracts/1_Twitter.sol\":831:835  user */\n      dup4\n        /* \"contracts/1_Twitter.sol\":817:862  Tweet(nextId, user, content, block.timestamp) */\n      0xffffffffffffffffffffffffffffffffffffffff\n      and\n      dup2\n      mstore\n      0x20\n      add\n        /* \"contracts/1_Twitter.sol\":837:844  content */\n      dup3\n        /* \"contracts/1_Twitter.sol\":817:862  Tweet(nextId, user, content, block.timestamp) */\n      dup2\n      mstore\n      0x20\n      add\n        /* \"contracts/1_Twitter.sol\":846:861  block.timestamp */\n      timestamp\n        /* \"contracts/1_Twitter.sol\":817:862  Tweet(nextId, user, content, block.timestamp) */\n      dup2\n      mstore\n      pop\n        /* \"contracts/1_Twitter.sol\":800:806  tweets */\n      0x00\n        /* \"contracts/1_Twitter.sol\":800:814  tweets[nextId] */\n      dup1\n        /* \"contracts/1_Twitter.sol\":807:813  nextId */\n      sload(0x05)\n        /* \"contracts/1_Twitter.sol\":800:814  tweets[nextId] */\n      dup2\n      mstore\n      0x20\n      add\n      swap1\n      dup2\n      mstore\n      0x20\n      add\n      0x00\n      keccak256\n        /* \"contracts/1_Twitter.sol\":800:862  tweets[nextId] = Tweet(nextId, user, content, block.timestamp) */\n      0x00\n      dup3\n      add\n      mload\n      dup2\n      0x00\n      add\n      sstore\n      0x20\n      dup3\n      add\n      mload\n      dup2\n      0x01\n      add\n      exp(0x0100, 0x00)\n      dup2\n      sload\n      dup2\n      0xffffffffffffffffffffffffffffffffffffffff\n      mul\n      not\n      and\n      swap1\n      dup4\n      0xffffffffffffffffffffffffffffffffffffffff\n      and\n      mul\n      or\n      swap1\n      sstore\n      pop\n      0x40\n      dup3\n      add\n      mload\n      dup2\n      0x02\n      add\n      swap1\n      dup2\n      tag_143\n      swap2\n      swap1\n      tag_140\n      jump\t// in\n    tag_143:\n      pop\n      0x60\n      dup3\n      add\n      mload\n      dup2\n      0x03\n      add\n      sstore\n      swap1\n      pop\n      pop\n        /* \"contracts/1_Twitter.sol\":872:880  tweetsOf */\n      0x01\n        /* \"contracts/1_Twitter.sol\":872:886  tweetsOf[user] */\n      0x00\n        /* \"contracts/1_Twitter.sol\":881:885  user */\n      dup4\n        /* \"contracts/1_Twitter.sol\":872:886  tweetsOf[user] */\n      0xffffffffffffffffffffffffffffffffffffffff\n      and\n      0xffffffffffffffffffffffffffffffffffffffff\n      and\n      dup2\n      mstore\n      0x20\n      add\n      swap1\n      dup2\n      mstore\n      0x20\n      add\n      0x00\n      keccak256\n        /* \"contracts/1_Twitter.sol\":892:898  nextId */\n      sload(0x05)\n        /* \"contracts/1_Twitter.sol\":872:899  tweetsOf[user].push(nextId) */\n      swap1\n      dup1\n      0x01\n      dup2\n      sload\n      add\n      dup1\n      dup3\n      sstore\n      dup1\n      swap2\n      pop\n      pop\n      0x01\n      swap1\n      sub\n      swap1\n      0x00\n      mstore\n      keccak256(0x00, 0x20)\n      add\n      0x00\n      swap1\n      swap2\n      swap1\n      swap2\n      swap1\n      swap2\n      pop\n      sstore\n        /* \"contracts/1_Twitter.sol\":909:915  nextId */\n      0x05\n      0x00\n        /* \"contracts/1_Twitter.sol\":909:917  nextId++ */\n      dup2\n      sload\n      dup1\n      swap3\n      swap2\n      swap1\n      tag_145\n      swap1\n      tag_111\n      jump\t// in\n    tag_145:\n      swap2\n      swap1\n      pop\n      sstore\n      pop\n        /* \"contracts/1_Twitter.sol\":728:924  function _tweet(address user, string memory content) internal {... */\n      pop\n      pop\n      jump\t// out\n        /* \"#utility.yul\":7:82   */\n    tag_146:\n        /* \"#utility.yul\":40:46   */\n      0x00\n        /* \"#utility.yul\":73:75   */\n      0x40\n        /* \"#utility.yul\":67:76   */\n      mload\n        /* \"#utility.yul\":57:76   */\n      swap1\n      pop\n        /* \"#utility.yul\":7:82   */\n      swap1\n      jump\t// out\n        /* \"#utility.yul\":88:205   */\n    tag_147:\n        /* \"#utility.yul\":197:198   */\n      0x00\n        /* \"#utility.yul\":194:195   */\n      dup1\n        /* \"#utility.yul\":187:199   */\n      revert\n        /* \"#utility.yul\":211:328   */\n    tag_148:\n        /* \"#utility.yul\":320:321   */\n      0x00\n        /* \"#utility.yul\":317:318   */\n      dup1\n        /* \"#utility.yul\":310:322   */\n      revert\n        /* \"#utility.yul\":334:460   */\n    tag_149:\n        /* \"#utility.yul\":371:378   */\n      0x00\n        /* \"#utility.yul\":411:453   */\n      0xffffffffffffffffffffffffffffffffffffffff\n        /* \"#utility.yul\":404:409   */\n      dup3\n        /* \"#utility.yul\":400:454   */\n      and\n        /* \"#utility.yul\":389:454   */\n      swap1\n      pop\n        /* \"#utility.yul\":334:460   */\n      swap2\n      swap1\n      pop\n      jump\t// out\n        /* \"#utility.yul\":466:562   */\n    tag_150:\n        /* \"#utility.yul\":503:510   */\n      0x00\n        /* \"#utility.yul\":532:556   */\n      tag_210\n        /* \"#utility.yul\":550:555   */\n      dup3\n        /* \"#utility.yul\":532:556   */\n      tag_149\n      jump\t// in\n    tag_210:\n        /* \"#utility.yul\":521:556   */\n      swap1\n      pop\n        /* \"#utility.yul\":466:562   */\n      swap2\n      swap1\n      pop\n      jump\t// out\n        /* \"#utility.yul\":568:690   */\n    tag_151:\n        /* \"#utility.yul\":641:665   */\n      tag_212\n        /* \"#utility.yul\":659:664   */\n      dup2\n        /* \"#utility.yul\":641:665   */\n      tag_150\n      jump\t// in\n    tag_212:\n        /* \"#utility.yul\":634:639   */\n      dup2\n        /* \"#utility.yul\":631:666   */\n      eq\n        /* \"#utility.yul\":621:684   */\n      tag_213\n      jumpi\n        /* \"#utility.yul\":680:681   */\n      0x00\n        /* \"#utility.yul\":677:678   */\n      dup1\n        /* \"#utility.yul\":670:682   */\n      revert\n        /* \"#utility.yul\":621:684   */\n    tag_213:\n        /* \"#utility.yul\":568:690   */\n      pop\n      jump\t// out\n        /* \"#utility.yul\":696:835   */\n    tag_152:\n        /* \"#utility.yul\":742:747   */\n      0x00\n        /* \"#utility.yul\":780:786   */\n      dup2\n        /* \"#utility.yul\":767:787   */\n      calldataload\n        /* \"#utility.yul\":758:787   */\n      swap1\n      pop\n        /* \"#utility.yul\":796:829   */\n      tag_215\n        /* \"#utility.yul\":823:828   */\n      dup2\n        /* \"#utility.yul\":796:829   */\n      tag_151\n      jump\t// in\n    tag_215:\n        /* \"#utility.yul\":696:835   */\n      swap3\n      swap2\n      pop\n      pop\n      jump\t// out\n        /* \"#utility.yul\":841:1315   */\n    tag_22:\n        /* \"#utility.yul\":909:915   */\n      0x00\n        /* \"#utility.yul\":917:923   */\n      dup1\n        /* \"#utility.yul\":966:968   */\n      0x40\n        /* \"#utility.yul\":954:963   */\n      dup4\n        /* \"#utility.yul\":945:952   */\n      dup6\n        /* \"#utility.yul\":941:964   */\n      sub\n        /* \"#utility.yul\":937:969   */\n      slt\n        /* \"#utility.yul\":934:1053   */\n      iszero\n      tag_217\n      jumpi\n        /* \"#utility.yul\":972:1051   */\n      tag_218\n      tag_147\n      jump\t// in\n    tag_218:\n        /* \"#utility.yul\":934:1053   */\n    tag_217:\n        /* \"#utility.yul\":1092:1093   */\n      0x00\n        /* \"#utility.yul\":1117:1170   */\n      tag_219\n        /* \"#utility.yul\":1162:1169   */\n      dup6\n        /* \"#utility.yul\":1153:1159   */\n      dup3\n        /* \"#utility.yul\":1142:1151   */\n      dup7\n        /* \"#utility.yul\":1138:1160   */\n      add\n        /* \"#utility.yul\":1117:1170   */\n      tag_152\n      jump\t// in\n    tag_219:\n        /* \"#utility.yul\":1107:1170   */\n      swap3\n      pop\n        /* \"#utility.yul\":1063:1180   */\n      pop\n        /* \"#utility.yul\":1219:1221   */\n      0x20\n        /* \"#utility.yul\":1245:1298   */\n      tag_220\n        /* \"#utility.yul\":1290:1297   */\n      dup6\n        /* \"#utility.yul\":1281:1287   */\n      dup3\n        /* \"#utility.yul\":1270:1279   */\n      dup7\n        /* \"#utility.yul\":1266:1288   */\n      add\n        /* \"#utility.yul\":1245:1298   */\n      tag_152\n      jump\t// in\n    tag_220:\n        /* \"#utility.yul\":1235:1298   */\n      swap2\n      pop\n        /* \"#utility.yul\":1190:1308   */\n      pop\n        /* \"#utility.yul\":841:1315   */\n      swap3\n      pop\n      swap3\n      swap1\n      pop\n      jump\t// out\n        /* \"#utility.yul\":1321:1411   */\n    tag_153:\n        /* \"#utility.yul\":1355:1362   */\n      0x00\n        /* \"#utility.yul\":1398:1403   */\n      dup2\n        /* \"#utility.yul\":1391:1404   */\n      iszero\n        /* \"#utility.yul\":1384:1405   */\n      iszero\n        /* \"#utility.yul\":1373:1405   */\n      swap1\n      pop\n        /* \"#utility.yul\":1321:1411   */\n      swap2\n      swap1\n      pop\n      jump\t// out\n        /* \"#utility.yul\":1417:1526   */\n    tag_154:\n        /* \"#utility.yul\":1498:1519   */\n      tag_223\n        /* \"#utility.yul\":1513:1518   */\n      dup2\n        /* \"#utility.yul\":1498:1519   */\n      tag_153\n      jump\t// in\n    tag_223:\n        /* \"#utility.yul\":1493:1496   */\n      dup3\n        /* \"#utility.yul\":1486:1520   */\n      mstore\n        /* \"#utility.yul\":1417:1526   */\n      pop\n      pop\n      jump\t// out\n        /* \"#utility.yul\":1532:1742   */\n    tag_25:\n        /* \"#utility.yul\":1619:1623   */\n      0x00\n        /* \"#utility.yul\":1657:1659   */\n      0x20\n        /* \"#utility.yul\":1646:1655   */\n      dup3\n        /* \"#utility.yul\":1642:1660   */\n      add\n        /* \"#utility.yul\":1634:1660   */\n      swap1\n      pop\n        /* \"#utility.yul\":1670:1735   */\n      tag_225\n        /* \"#utility.yul\":1732:1733   */\n      0x00\n        /* \"#utility.yul\":1721:1730   */\n      dup4\n        /* \"#utility.yul\":1717:1734   */\n      add\n        /* \"#utility.yul\":1708:1714   */\n      dup5\n        /* \"#utility.yul\":1670:1735   */\n      tag_154\n      jump\t// in\n    tag_225:\n        /* \"#utility.yul\":1532:1742   */\n      swap3\n      swap2\n      pop\n      pop\n      jump\t// out\n        /* \"#utility.yul\":1748:1825   */\n    tag_155:\n        /* \"#utility.yul\":1785:1792   */\n      0x00\n        /* \"#utility.yul\":1814:1819   */\n      dup2\n        /* \"#utility.yul\":1803:1819   */\n      swap1\n      pop\n        /* \"#utility.yul\":1748:1825   */\n      swap2\n      swap1\n      pop\n      jump\t// out\n        /* \"#utility.yul\":1831:1953   */\n    tag_156:\n        /* \"#utility.yul\":1904:1928   */\n      tag_228\n        /* \"#utility.yul\":1922:1927   */\n      dup2\n        /* \"#utility.yul\":1904:1928   */\n      tag_155\n      jump\t// in\n    tag_228:\n        /* \"#utility.yul\":1897:1902   */\n      dup2\n        /* \"#utility.yul\":1894:1929   */\n      eq\n        /* \"#utility.yul\":1884:1947   */\n      tag_229\n      jumpi\n        /* \"#utility.yul\":1943:1944   */\n      0x00\n        /* \"#utility.yul\":1940:1941   */\n      dup1\n        /* \"#utility.yul\":1933:1945   */\n      revert\n        /* \"#utility.yul\":1884:1947   */\n    tag_229:\n        /* \"#utility.yul\":1831:1953   */\n      pop\n      jump\t// out\n        /* \"#utility.yul\":1959:2098   */\n    tag_157:\n        /* \"#utility.yul\":2005:2010   */\n      0x00\n        /* \"#utility.yul\":2043:2049   */\n      dup2\n        /* \"#utility.yul\":2030:2050   */\n      calldataload\n        /* \"#utility.yul\":2021:2050   */\n      swap1\n      pop\n        /* \"#utility.yul\":2059:2092   */\n      tag_231\n        /* \"#utility.yul\":2086:2091   */\n      dup2\n        /* \"#utility.yul\":2059:2092   */\n      tag_156\n      jump\t// in\n    tag_231:\n        /* \"#utility.yul\":1959:2098   */\n      swap3\n      swap2\n      pop\n      pop\n      jump\t// out\n        /* \"#utility.yul\":2104:2578   */\n    tag_28:\n        /* \"#utility.yul\":2172:2178   */\n      0x00\n        /* \"#utility.yul\":2180:2186   */\n      dup1\n        /* \"#utility.yul\":2229:2231   */\n      0x40\n        /* \"#utility.yul\":2217:2226   */\n      dup4\n        /* \"#utility.yul\":2208:2215   */\n      dup6\n        /* \"#utility.yul\":2204:2227   */\n      sub\n        /* \"#utility.yul\":2200:2232   */\n      slt\n        /* \"#utility.yul\":2197:2316   */\n      iszero\n      tag_233\n      jumpi\n        /* \"#utility.yul\":2235:2314   */\n      tag_234\n      tag_147\n      jump\t// in\n    tag_234:\n        /* \"#utility.yul\":2197:2316   */\n    tag_233:\n        /* \"#utility.yul\":2355:2356   */\n      0x00\n        /* \"#utility.yul\":2380:2433   */\n      tag_235\n        /* \"#utility.yul\":2425:2432   */\n      dup6\n        /* \"#utility.yul\":2416:2422   */\n      dup3\n        /* \"#utility.yul\":2405:2414   */\n      dup7\n        /* \"#utility.yul\":2401:2423   */\n      add\n        /* \"#utility.yul\":2380:2433   */\n      tag_152\n      jump\t// in\n    tag_235:\n        /* \"#utility.yul\":2370:2433   */\n      swap3\n      pop\n        /* \"#utility.yul\":2326:2443   */\n      pop\n        /* \"#utility.yul\":2482:2484   */\n      0x20\n        /* \"#utility.yul\":2508:2561   */\n      tag_236\n        /* \"#utility.yul\":2553:2560   */\n      dup6\n        /* \"#utility.yul\":2544:2550   */\n      dup3\n        /* \"#utility.yul\":2533:2542   */\n      dup7\n        /* \"#utility.yul\":2529:2551   */\n      add\n        /* \"#utility.yul\":2508:2561   */\n      tag_157\n      jump\t// in\n    tag_236:\n        /* \"#utility.yul\":2498:2561   */\n      swap2\n      pop\n        /* \"#utility.yul\":2453:2571   */\n      pop\n        /* \"#utility.yul\":2104:2578   */\n      swap3\n      pop\n      swap3\n      swap1\n      pop\n      jump\t// out\n        /* \"#utility.yul\":2584:2702   */\n    tag_158:\n        /* \"#utility.yul\":2671:2695   */\n      tag_238\n        /* \"#utility.yul\":2689:2694   */\n      dup2\n        /* \"#utility.yul\":2671:2695   */\n      tag_155\n      jump\t// in\n    tag_238:\n        /* \"#utility.yul\":2666:2669   */\n      dup3\n        /* \"#utility.yul\":2659:2696   */\n      mstore\n        /* \"#utility.yul\":2584:2702   */\n      pop\n      pop\n      jump\t// out\n        /* \"#utility.yul\":2708:2826   */\n    tag_159:\n        /* \"#utility.yul\":2795:2819   */\n      tag_240\n        /* \"#utility.yul\":2813:2818   */\n      dup2\n        /* \"#utility.yul\":2795:2819   */\n      tag_150\n      jump\t// in\n    tag_240:\n        /* \"#utility.yul\":2790:2793   */\n      dup3\n        /* \"#utility.yul\":2783:2820   */\n      mstore\n        /* \"#utility.yul\":2708:2826   */\n      pop\n      pop\n      jump\t// out\n        /* \"#utility.yul\":2832:2931   */\n    tag_160:\n        /* \"#utility.yul\":2884:2890   */\n      0x00\n        /* \"#utility.yul\":2918:2923   */\n      dup2\n        /* \"#utility.yul\":2912:2924   */\n      mload\n        /* \"#utility.yul\":2902:2924   */\n      swap1\n      pop\n        /* \"#utility.yul\":2832:2931   */\n      swap2\n      swap1\n      pop\n      jump\t// out\n        /* \"#utility.yul\":2937:3106   */\n    tag_161:\n        /* \"#utility.yul\":3021:3032   */\n      0x00\n        /* \"#utility.yul\":3055:3061   */\n      dup3\n        /* \"#utility.yul\":3050:3053   */\n      dup3\n        /* \"#utility.yul\":3043:3062   */\n      mstore\n        /* \"#utility.yul\":3095:3099   */\n      0x20\n        /* \"#utility.yul\":3090:3093   */\n      dup3\n        /* \"#utility.yul\":3086:3100   */\n      add\n        /* \"#utility.yul\":3071:3100   */\n      swap1\n      pop\n        /* \"#utility.yul\":2937:3106   */\n      swap3\n      swap2\n      pop\n      pop\n      jump\t// out\n        /* \"#utility.yul\":3112:3358   */\n    tag_162:\n        /* \"#utility.yul\":3193:3194   */\n      0x00\n        /* \"#utility.yul\":3203:3316   */\n    tag_244:\n        /* \"#utility.yul\":3217:3223   */\n      dup4\n        /* \"#utility.yul\":3214:3215   */\n      dup2\n        /* \"#utility.yul\":3211:3224   */\n      lt\n        /* \"#utility.yul\":3203:3316   */\n      iszero\n      tag_246\n      jumpi\n        /* \"#utility.yul\":3302:3303   */\n      dup1\n        /* \"#utility.yul\":3297:3300   */\n      dup3\n        /* \"#utility.yul\":3293:3304   */\n      add\n        /* \"#utility.yul\":3287:3305   */\n      mload\n        /* \"#utility.yul\":3283:3284   */\n      dup2\n        /* \"#utility.yul\":3278:3281   */\n      dup5\n        /* \"#utility.yul\":3274:3285   */\n      add\n        /* \"#utility.yul\":3267:3306   */\n      mstore\n        /* \"#utility.yul\":3239:3241   */\n      0x20\n        /* \"#utility.yul\":3236:3237   */\n      dup2\n        /* \"#utility.yul\":3232:3242   */\n      add\n        /* \"#utility.yul\":3227:3242   */\n      swap1\n      pop\n        /* \"#utility.yul\":3203:3316   */\n      jump(tag_244)\n    tag_246:\n        /* \"#utility.yul\":3350:3351   */\n      0x00\n        /* \"#utility.yul\":3341:3347   */\n      dup5\n        /* \"#utility.yul\":3336:3339   */\n      dup5\n        /* \"#utility.yul\":3332:3348   */\n      add\n        /* \"#utility.yul\":3325:3352   */\n      mstore\n        /* \"#utility.yul\":3174:3358   */\n      pop\n        /* \"#utility.yul\":3112:3358   */\n      pop\n      pop\n      pop\n      jump\t// out\n        /* \"#utility.yul\":3364:3466   */\n    tag_163:\n        /* \"#utility.yul\":3405:3411   */\n      0x00\n        /* \"#utility.yul\":3456:3458   */\n      0x1f\n        /* \"#utility.yul\":3452:3459   */\n      not\n        /* \"#utility.yul\":3447:3449   */\n      0x1f\n        /* \"#utility.yul\":3440:3445   */\n      dup4\n        /* \"#utility.yul\":3436:3450   */\n      add\n        /* \"#utility.yul\":3432:3460   */\n      and\n        /* \"#utility.yul\":3422:3460   */\n      swap1\n      pop\n        /* \"#utility.yul\":3364:3466   */\n      swap2\n      swap1\n      pop\n      jump\t// out\n        /* \"#utility.yul\":3472:3849   */\n    tag_164:\n        /* \"#utility.yul\":3560:3563   */\n      0x00\n        /* \"#utility.yul\":3588:3627   */\n      tag_249\n        /* \"#utility.yul\":3621:3626   */\n      dup3\n        /* \"#utility.yul\":3588:3627   */\n      tag_160\n      jump\t// in\n    tag_249:\n        /* \"#utility.yul\":3643:3714   */\n      tag_250\n        /* \"#utility.yul\":3707:3713   */\n      dup2\n        /* \"#utility.yul\":3702:3705   */\n      dup6\n        /* \"#utility.yul\":3643:3714   */\n      tag_161\n      jump\t// in\n    tag_250:\n        /* \"#utility.yul\":3636:3714   */\n      swap4\n      pop\n        /* \"#utility.yul\":3723:3788   */\n      tag_251\n        /* \"#utility.yul\":3781:3787   */\n      dup2\n        /* \"#utility.yul\":3776:3779   */\n      dup6\n        /* \"#utility.yul\":3769:3773   */\n      0x20\n        /* \"#utility.yul\":3762:3767   */\n      dup7\n        /* \"#utility.yul\":3758:3774   */\n      add\n        /* \"#utility.yul\":3723:3788   */\n      tag_162\n      jump\t// in\n    tag_251:\n        /* \"#utility.yul\":3813:3842   */\n      tag_252\n        /* \"#utility.yul\":3835:3841   */\n      dup2\n        /* \"#utility.yul\":3813:3842   */\n      tag_163\n      jump\t// in\n    tag_252:\n        /* \"#utility.yul\":3808:3811   */\n      dup5\n        /* \"#utility.yul\":3804:3843   */\n      add\n        /* \"#utility.yul\":3797:3843   */\n      swap2\n      pop\n        /* \"#utility.yul\":3564:3849   */\n      pop\n        /* \"#utility.yul\":3472:3849   */\n      swap3\n      swap2\n      pop\n      pop\n      jump\t// out\n        /* \"#utility.yul\":3855:4610   */\n    tag_31:\n        /* \"#utility.yul\":4080:4084   */\n      0x00\n        /* \"#utility.yul\":4118:4121   */\n      0xa0\n        /* \"#utility.yul\":4107:4116   */\n      dup3\n        /* \"#utility.yul\":4103:4122   */\n      add\n        /* \"#utility.yul\":4095:4122   */\n      swap1\n      pop\n        /* \"#utility.yul\":4132:4203   */\n      tag_254\n        /* \"#utility.yul\":4200:4201   */\n      0x00\n        /* \"#utility.yul\":4189:4198   */\n      dup4\n        /* \"#utility.yul\":4185:4202   */\n      add\n        /* \"#utility.yul\":4176:4182   */\n      dup9\n        /* \"#utility.yul\":4132:4203   */\n      tag_158\n      jump\t// in\n    tag_254:\n        /* \"#utility.yul\":4213:4285   */\n      tag_255\n        /* \"#utility.yul\":4281:4283   */\n      0x20\n        /* \"#utility.yul\":4270:4279   */\n      dup4\n        /* \"#utility.yul\":4266:4284   */\n      add\n        /* \"#utility.yul\":4257:4263   */\n      dup8\n        /* \"#utility.yul\":4213:4285   */\n      tag_159\n      jump\t// in\n    tag_255:\n        /* \"#utility.yul\":4295:4367   */\n      tag_256\n        /* \"#utility.yul\":4363:4365   */\n      0x40\n        /* \"#utility.yul\":4352:4361   */\n      dup4\n        /* \"#utility.yul\":4348:4366   */\n      add\n        /* \"#utility.yul\":4339:4345   */\n      dup7\n        /* \"#utility.yul\":4295:4367   */\n      tag_159\n      jump\t// in\n    tag_256:\n        /* \"#utility.yul\":4414:4423   */\n      dup2\n        /* \"#utility.yul\":4408:4412   */\n      dup2\n        /* \"#utility.yul\":4404:4424   */\n      sub\n        /* \"#utility.yul\":4399:4401   */\n      0x60\n        /* \"#utility.yul\":4388:4397   */\n      dup4\n        /* \"#utility.yul\":4384:4402   */\n      add\n        /* \"#utility.yul\":4377:4425   */\n      mstore\n        /* \"#utility.yul\":4442:4520   */\n      tag_257\n        /* \"#utility.yul\":4515:4519   */\n      dup2\n        /* \"#utility.yul\":4506:4512   */\n      dup6\n        /* \"#utility.yul\":4442:4520   */\n      tag_164\n      jump\t// in\n    tag_257:\n        /* \"#utility.yul\":4434:4520   */\n      swap1\n      pop\n        /* \"#utility.yul\":4530:4603   */\n      tag_258\n        /* \"#utility.yul\":4598:4601   */\n      0x80\n        /* \"#utility.yul\":4587:4596   */\n      dup4\n        /* \"#utility.yul\":4583:4602   */\n      add\n        /* \"#utility.yul\":4574:4580   */\n      dup5\n        /* \"#utility.yul\":4530:4603   */\n      tag_158\n      jump\t// in\n    tag_258:\n        /* \"#utility.yul\":3855:4610   */\n      swap7\n      swap6\n      pop\n      pop\n      pop\n      pop\n      pop\n      pop\n      jump\t// out\n        /* \"#utility.yul\":4616:4945   */\n    tag_34:\n        /* \"#utility.yul\":4675:4681   */\n      0x00\n        /* \"#utility.yul\":4724:4726   */\n      0x20\n        /* \"#utility.yul\":4712:4721   */\n      dup3\n        /* \"#utility.yul\":4703:4710   */\n      dup5\n        /* \"#utility.yul\":4699:4722   */\n      sub\n        /* \"#utility.yul\":4695:4727   */\n      slt\n        /* \"#utility.yul\":4692:4811   */\n      iszero\n      tag_260\n      jumpi\n        /* \"#utility.yul\":4730:4809   */\n      tag_261\n      tag_147\n      jump\t// in\n    tag_261:\n        /* \"#utility.yul\":4692:4811   */\n    tag_260:\n        /* \"#utility.yul\":4850:4851   */\n      0x00\n        /* \"#utility.yul\":4875:4928   */\n      tag_262\n        /* \"#utility.yul\":4920:4927   */\n      dup5\n        /* \"#utility.yul\":4911:4917   */\n      dup3\n        /* \"#utility.yul\":4900:4909   */\n      dup6\n        /* \"#utility.yul\":4896:4918   */\n      add\n        /* \"#utility.yul\":4875:4928   */\n      tag_152\n      jump\t// in\n    tag_262:\n        /* \"#utility.yul\":4865:4928   */\n      swap2\n      pop\n        /* \"#utility.yul\":4821:4938   */\n      pop\n        /* \"#utility.yul\":4616:4945   */\n      swap3\n      swap2\n      pop\n      pop\n      jump\t// out\n        /* \"#utility.yul\":4951:5280   */\n    tag_38:\n        /* \"#utility.yul\":5010:5016   */\n      0x00\n        /* \"#utility.yul\":5059:5061   */\n      0x20\n        /* \"#utility.yul\":5047:5056   */\n      dup3\n        /* \"#utility.yul\":5038:5045   */\n      dup5\n        /* \"#utility.yul\":5034:5057   */\n      sub\n        /* \"#utility.yul\":5030:5062   */\n      slt\n        /* \"#utility.yul\":5027:5146   */\n      iszero\n      tag_264\n      jumpi\n        /* \"#utility.yul\":5065:5144   */\n      tag_265\n      tag_147\n      jump\t// in\n    tag_265:\n        /* \"#utility.yul\":5027:5146   */\n    tag_264:\n        /* \"#utility.yul\":5185:5186   */\n      0x00\n        /* \"#utility.yul\":5210:5263   */\n      tag_266\n        /* \"#utility.yul\":5255:5262   */\n      dup5\n        /* \"#utility.yul\":5246:5252   */\n      dup3\n        /* \"#utility.yul\":5235:5244   */\n      dup6\n        /* \"#utility.yul\":5231:5253   */\n      add\n        /* \"#utility.yul\":5210:5263   */\n      tag_157\n      jump\t// in\n    tag_266:\n        /* \"#utility.yul\":5200:5263   */\n      swap2\n      pop\n        /* \"#utility.yul\":5156:5273   */\n      pop\n        /* \"#utility.yul\":4951:5280   */\n      swap3\n      swap2\n      pop\n      pop\n      jump\t// out\n        /* \"#utility.yul\":5286:5421   */\n    tag_165:\n        /* \"#utility.yul\":5374:5380   */\n      0x00\n        /* \"#utility.yul\":5408:5413   */\n      dup2\n        /* \"#utility.yul\":5402:5414   */\n      mload\n        /* \"#utility.yul\":5392:5414   */\n      swap1\n      pop\n        /* \"#utility.yul\":5286:5421   */\n      swap2\n      swap1\n      pop\n      jump\t// out\n        /* \"#utility.yul\":5427:5632   */\n    tag_166:\n        /* \"#utility.yul\":5547:5558   */\n      0x00\n        /* \"#utility.yul\":5581:5587   */\n      dup3\n        /* \"#utility.yul\":5576:5579   */\n      dup3\n        /* \"#utility.yul\":5569:5588   */\n      mstore\n        /* \"#utility.yul\":5621:5625   */\n      0x20\n        /* \"#utility.yul\":5616:5619   */\n      dup3\n        /* \"#utility.yul\":5612:5626   */\n      add\n        /* \"#utility.yul\":5597:5626   */\n      swap1\n      pop\n        /* \"#utility.yul\":5427:5632   */\n      swap3\n      swap2\n      pop\n      pop\n      jump\t// out\n        /* \"#utility.yul\":5638:5791   */\n    tag_167:\n        /* \"#utility.yul\":5726:5730   */\n      0x00\n        /* \"#utility.yul\":5749:5752   */\n      dup2\n        /* \"#utility.yul\":5741:5752   */\n      swap1\n      pop\n        /* \"#utility.yul\":5779:5783   */\n      0x20\n        /* \"#utility.yul\":5774:5777   */\n      dup3\n        /* \"#utility.yul\":5770:5784   */\n      add\n        /* \"#utility.yul\":5762:5784   */\n      swap1\n      pop\n        /* \"#utility.yul\":5638:5791   */\n      swap2\n      swap1\n      pop\n      jump\t// out\n        /* \"#utility.yul\":5797:5905   */\n    tag_168:\n        /* \"#utility.yul\":5874:5898   */\n      tag_271\n        /* \"#utility.yul\":5892:5897   */\n      dup2\n        /* \"#utility.yul\":5874:5898   */\n      tag_155\n      jump\t// in\n    tag_271:\n        /* \"#utility.yul\":5869:5872   */\n      dup3\n        /* \"#utility.yul\":5862:5899   */\n      mstore\n        /* \"#utility.yul\":5797:5905   */\n      pop\n      pop\n      jump\t// out\n        /* \"#utility.yul\":5911:6019   */\n    tag_169:\n        /* \"#utility.yul\":5988:6012   */\n      tag_273\n        /* \"#utility.yul\":6006:6011   */\n      dup2\n        /* \"#utility.yul\":5988:6012   */\n      tag_150\n      jump\t// in\n    tag_273:\n        /* \"#utility.yul\":5983:5986   */\n      dup3\n        /* \"#utility.yul\":5976:6013   */\n      mstore\n        /* \"#utility.yul\":5911:6019   */\n      pop\n      pop\n      jump\t// out\n        /* \"#utility.yul\":6025:6184   */\n    tag_170:\n        /* \"#utility.yul\":6099:6110   */\n      0x00\n        /* \"#utility.yul\":6133:6139   */\n      dup3\n        /* \"#utility.yul\":6128:6131   */\n      dup3\n        /* \"#utility.yul\":6121:6140   */\n      mstore\n        /* \"#utility.yul\":6173:6177   */\n      0x20\n        /* \"#utility.yul\":6168:6171   */\n      dup3\n        /* \"#utility.yul\":6164:6178   */\n      add\n        /* \"#utility.yul\":6149:6178   */\n      swap1\n      pop\n        /* \"#utility.yul\":6025:6184   */\n      swap3\n      swap2\n      pop\n      pop\n      jump\t// out\n        /* \"#utility.yul\":6190:6547   */\n    tag_171:\n        /* \"#utility.yul\":6268:6271   */\n      0x00\n        /* \"#utility.yul\":6296:6335   */\n      tag_276\n        /* \"#utility.yul\":6329:6334   */\n      dup3\n        /* \"#utility.yul\":6296:6335   */\n      tag_160\n      jump\t// in\n    tag_276:\n        /* \"#utility.yul\":6351:6412   */\n      tag_277\n        /* \"#utility.yul\":6405:6411   */\n      dup2\n        /* \"#utility.yul\":6400:6403   */\n      dup6\n        /* \"#utility.yul\":6351:6412   */\n      tag_170\n      jump\t// in\n    tag_277:\n        /* \"#utility.yul\":6344:6412   */\n      swap4\n      pop\n        /* \"#utility.yul\":6421:6486   */\n      tag_278\n        /* \"#utility.yul\":6479:6485   */\n      dup2\n        /* \"#utility.yul\":6474:6477   */\n      dup6\n        /* \"#utility.yul\":6467:6471   */\n      0x20\n        /* \"#utility.yul\":6460:6465   */\n      dup7\n        /* \"#utility.yul\":6456:6472   */\n      add\n        /* \"#utility.yul\":6421:6486   */\n      tag_162\n      jump\t// in\n    tag_278:\n        /* \"#utility.yul\":6511:6540   */\n      tag_279\n        /* \"#utility.yul\":6533:6539   */\n      dup2\n        /* \"#utility.yul\":6511:6540   */\n      tag_163\n      jump\t// in\n    tag_279:\n        /* \"#utility.yul\":6506:6509   */\n      dup5\n        /* \"#utility.yul\":6502:6541   */\n      add\n        /* \"#utility.yul\":6495:6541   */\n      swap2\n      pop\n        /* \"#utility.yul\":6272:6547   */\n      pop\n        /* \"#utility.yul\":6190:6547   */\n      swap3\n      swap2\n      pop\n      pop\n      jump\t// out\n        /* \"#utility.yul\":6605:7549   */\n    tag_172:\n        /* \"#utility.yul\":6706:6709   */\n      0x00\n        /* \"#utility.yul\":6742:6746   */\n      0x80\n        /* \"#utility.yul\":6737:6740   */\n      dup4\n        /* \"#utility.yul\":6733:6747   */\n      add\n        /* \"#utility.yul\":6827:6831   */\n      0x00\n        /* \"#utility.yul\":6820:6825   */\n      dup4\n        /* \"#utility.yul\":6816:6832   */\n      add\n        /* \"#utility.yul\":6810:6833   */\n      mload\n        /* \"#utility.yul\":6846:6909   */\n      tag_281\n        /* \"#utility.yul\":6903:6907   */\n      0x00\n        /* \"#utility.yul\":6898:6901   */\n      dup7\n        /* \"#utility.yul\":6894:6908   */\n      add\n        /* \"#utility.yul\":6880:6892   */\n      dup3\n        /* \"#utility.yul\":6846:6909   */\n      tag_168\n      jump\t// in\n    tag_281:\n        /* \"#utility.yul\":6757:6919   */\n      pop\n        /* \"#utility.yul\":7003:7007   */\n      0x20\n        /* \"#utility.yul\":6996:7001   */\n      dup4\n        /* \"#utility.yul\":6992:7008   */\n      add\n        /* \"#utility.yul\":6986:7009   */\n      mload\n        /* \"#utility.yul\":7022:7085   */\n      tag_282\n        /* \"#utility.yul\":7079:7083   */\n      0x20\n        /* \"#utility.yul\":7074:7077   */\n      dup7\n        /* \"#utility.yul\":7070:7084   */\n      add\n        /* \"#utility.yul\":7056:7068   */\n      dup3\n        /* \"#utility.yul\":7022:7085   */\n      tag_169\n      jump\t// in\n    tag_282:\n        /* \"#utility.yul\":6929:7095   */\n      pop\n        /* \"#utility.yul\":7180:7184   */\n      0x40\n        /* \"#utility.yul\":7173:7178   */\n      dup4\n        /* \"#utility.yul\":7169:7185   */\n      add\n        /* \"#utility.yul\":7163:7186   */\n      mload\n        /* \"#utility.yul\":7233:7236   */\n      dup5\n        /* \"#utility.yul\":7227:7231   */\n      dup3\n        /* \"#utility.yul\":7223:7237   */\n      sub\n        /* \"#utility.yul\":7216:7220   */\n      0x40\n        /* \"#utility.yul\":7211:7214   */\n      dup7\n        /* \"#utility.yul\":7207:7221   */\n      add\n        /* \"#utility.yul\":7200:7238   */\n      mstore\n        /* \"#utility.yul\":7259:7332   */\n      tag_283\n        /* \"#utility.yul\":7327:7331   */\n      dup3\n        /* \"#utility.yul\":7313:7325   */\n      dup3\n        /* \"#utility.yul\":7259:7332   */\n      tag_171\n      jump\t// in\n    tag_283:\n        /* \"#utility.yul\":7251:7332   */\n      swap2\n      pop\n        /* \"#utility.yul\":7105:7343   */\n      pop\n        /* \"#utility.yul\":7430:7434   */\n      0x60\n        /* \"#utility.yul\":7423:7428   */\n      dup4\n        /* \"#utility.yul\":7419:7435   */\n      add\n        /* \"#utility.yul\":7413:7436   */\n      mload\n        /* \"#utility.yul\":7449:7512   */\n      tag_284\n        /* \"#utility.yul\":7506:7510   */\n      0x60\n        /* \"#utility.yul\":7501:7504   */\n      dup7\n        /* \"#utility.yul\":7497:7511   */\n      add\n        /* \"#utility.yul\":7483:7495   */\n      dup3\n        /* \"#utility.yul\":7449:7512   */\n      tag_168\n      jump\t// in\n    tag_284:\n        /* \"#utility.yul\":7353:7522   */\n      pop\n        /* \"#utility.yul\":7539:7543   */\n      dup1\n        /* \"#utility.yul\":7532:7543   */\n      swap2\n      pop\n        /* \"#utility.yul\":6711:7549   */\n      pop\n        /* \"#utility.yul\":6605:7549   */\n      swap3\n      swap2\n      pop\n      pop\n      jump\t// out\n        /* \"#utility.yul\":7555:7795   */\n    tag_173:\n        /* \"#utility.yul\":7666:7676   */\n      0x00\n        /* \"#utility.yul\":7701:7789   */\n      tag_286\n        /* \"#utility.yul\":7785:7788   */\n      dup4\n        /* \"#utility.yul\":7777:7783   */\n      dup4\n        /* \"#utility.yul\":7701:7789   */\n      tag_172\n      jump\t// in\n    tag_286:\n        /* \"#utility.yul\":7687:7789   */\n      swap1\n      pop\n        /* \"#utility.yul\":7555:7795   */\n      swap3\n      swap2\n      pop\n      pop\n      jump\t// out\n        /* \"#utility.yul\":7801:7935   */\n    tag_174:\n        /* \"#utility.yul\":7892:7896   */\n      0x00\n        /* \"#utility.yul\":7924:7928   */\n      0x20\n        /* \"#utility.yul\":7919:7922   */\n      dup3\n        /* \"#utility.yul\":7915:7929   */\n      add\n        /* \"#utility.yul\":7907:7929   */\n      swap1\n      pop\n        /* \"#utility.yul\":7801:7935   */\n      swap2\n      swap1\n      pop\n      jump\t// out\n        /* \"#utility.yul\":7997:9076   */\n    tag_175:\n        /* \"#utility.yul\":8158:8161   */\n      0x00\n        /* \"#utility.yul\":8187:8262   */\n      tag_289\n        /* \"#utility.yul\":8256:8261   */\n      dup3\n        /* \"#utility.yul\":8187:8262   */\n      tag_165\n      jump\t// in\n    tag_289:\n        /* \"#utility.yul\":8278:8385   */\n      tag_290\n        /* \"#utility.yul\":8378:8384   */\n      dup2\n        /* \"#utility.yul\":8373:8376   */\n      dup6\n        /* \"#utility.yul\":8278:8385   */\n      tag_166\n      jump\t// in\n    tag_290:\n        /* \"#utility.yul\":8271:8385   */\n      swap4\n      pop\n        /* \"#utility.yul\":8411:8414   */\n      dup4\n        /* \"#utility.yul\":8456:8460   */\n      0x20\n        /* \"#utility.yul\":8448:8454   */\n      dup3\n        /* \"#utility.yul\":8444:8461   */\n      mul\n        /* \"#utility.yul\":8439:8442   */\n      dup6\n        /* \"#utility.yul\":8435:8462   */\n      add\n        /* \"#utility.yul\":8486:8563   */\n      tag_291\n        /* \"#utility.yul\":8557:8562   */\n      dup6\n        /* \"#utility.yul\":8486:8563   */\n      tag_167\n      jump\t// in\n    tag_291:\n        /* \"#utility.yul\":8586:8593   */\n      dup1\n        /* \"#utility.yul\":8617:8618   */\n      0x00\n        /* \"#utility.yul\":8602:9031   */\n    tag_292:\n        /* \"#utility.yul\":8627:8633   */\n      dup6\n        /* \"#utility.yul\":8624:8625   */\n      dup2\n        /* \"#utility.yul\":8621:8634   */\n      lt\n        /* \"#utility.yul\":8602:9031   */\n      iszero\n      tag_294\n      jumpi\n        /* \"#utility.yul\":8698:8707   */\n      dup5\n        /* \"#utility.yul\":8692:8696   */\n      dup5\n        /* \"#utility.yul\":8688:8708   */\n      sub\n        /* \"#utility.yul\":8683:8686   */\n      dup10\n        /* \"#utility.yul\":8676:8709   */\n      mstore\n        /* \"#utility.yul\":8749:8755   */\n      dup2\n        /* \"#utility.yul\":8743:8756   */\n      mload\n        /* \"#utility.yul\":8777:8883   */\n      tag_295\n        /* \"#utility.yul\":8878:8882   */\n      dup6\n        /* \"#utility.yul\":8863:8876   */\n      dup3\n        /* \"#utility.yul\":8777:8883   */\n      tag_173\n      jump\t// in\n    tag_295:\n        /* \"#utility.yul\":8769:8883   */\n      swap5\n      pop\n        /* \"#utility.yul\":8906:8987   */\n      tag_296\n        /* \"#utility.yul\":8980:8986   */\n      dup4\n        /* \"#utility.yul\":8906:8987   */\n      tag_174\n      jump\t// in\n    tag_296:\n        /* \"#utility.yul\":8896:8987   */\n      swap3\n      pop\n        /* \"#utility.yul\":9016:9020   */\n      0x20\n        /* \"#utility.yul\":9011:9014   */\n      dup11\n        /* \"#utility.yul\":9007:9021   */\n      add\n        /* \"#utility.yul\":9000:9021   */\n      swap10\n      pop\n        /* \"#utility.yul\":8662:9031   */\n      pop\n        /* \"#utility.yul\":8649:8650   */\n      0x01\n        /* \"#utility.yul\":8646:8647   */\n      dup2\n        /* \"#utility.yul\":8642:8651   */\n      add\n        /* \"#utility.yul\":8637:8651   */\n      swap1\n      pop\n        /* \"#utility.yul\":8602:9031   */\n      jump(tag_292)\n    tag_294:\n        /* \"#utility.yul\":8606:8620   */\n      pop\n        /* \"#utility.yul\":9047:9051   */\n      dup3\n        /* \"#utility.yul\":9040:9051   */\n      swap8\n      pop\n        /* \"#utility.yul\":9067:9070   */\n      dup8\n        /* \"#utility.yul\":9060:9070   */\n      swap6\n      pop\n        /* \"#utility.yul\":8163:9076   */\n      pop\n      pop\n      pop\n      pop\n      pop\n        /* \"#utility.yul\":7997:9076   */\n      swap3\n      swap2\n      pop\n      pop\n      jump\t// out\n        /* \"#utility.yul\":9082:9539   */\n    tag_41:\n        /* \"#utility.yul\":9267:9271   */\n      0x00\n        /* \"#utility.yul\":9305:9307   */\n      0x20\n        /* \"#utility.yul\":9294:9303   */\n      dup3\n        /* \"#utility.yul\":9290:9308   */\n      add\n        /* \"#utility.yul\":9282:9308   */\n      swap1\n      pop\n        /* \"#utility.yul\":9354:9363   */\n      dup2\n        /* \"#utility.yul\":9348:9352   */\n      dup2\n        /* \"#utility.yul\":9344:9364   */\n      sub\n        /* \"#utility.yul\":9340:9341   */\n      0x00\n        /* \"#utility.yul\":9329:9338   */\n      dup4\n        /* \"#utility.yul\":9325:9342   */\n      add\n        /* \"#utility.yul\":9318:9365   */\n      mstore\n        /* \"#utility.yul\":9382:9532   */\n      tag_298\n        /* \"#utility.yul\":9527:9531   */\n      dup2\n        /* \"#utility.yul\":9518:9524   */\n      dup5\n        /* \"#utility.yul\":9382:9532   */\n      tag_175\n      jump\t// in\n    tag_298:\n        /* \"#utility.yul\":9374:9532   */\n      swap1\n      pop\n        /* \"#utility.yul\":9082:9539   */\n      swap3\n      swap2\n      pop\n      pop\n      jump\t// out\n        /* \"#utility.yul\":9545:9767   */\n    tag_52:\n        /* \"#utility.yul\":9638:9642   */\n      0x00\n        /* \"#utility.yul\":9676:9678   */\n      0x20\n        /* \"#utility.yul\":9665:9674   */\n      dup3\n        /* \"#utility.yul\":9661:9679   */\n      add\n        /* \"#utility.yul\":9653:9679   */\n      swap1\n      pop\n        /* \"#utility.yul\":9689:9760   */\n      tag_300\n        /* \"#utility.yul\":9757:9758   */\n      0x00\n        /* \"#utility.yul\":9746:9755   */\n      dup4\n        /* \"#utility.yul\":9742:9759   */\n      add\n        /* \"#utility.yul\":9733:9739   */\n      dup5\n        /* \"#utility.yul\":9689:9760   */\n      tag_158\n      jump\t// in\n    tag_300:\n        /* \"#utility.yul\":9545:9767   */\n      swap3\n      swap2\n      pop\n      pop\n      jump\t// out\n        /* \"#utility.yul\":9773:9890   */\n    tag_176:\n        /* \"#utility.yul\":9882:9883   */\n      0x00\n        /* \"#utility.yul\":9879:9880   */\n      dup1\n        /* \"#utility.yul\":9872:9884   */\n      revert\n        /* \"#utility.yul\":9896:10013   */\n    tag_177:\n        /* \"#utility.yul\":10005:10006   */\n      0x00\n        /* \"#utility.yul\":10002:10003   */\n      dup1\n        /* \"#utility.yul\":9995:10007   */\n      revert\n        /* \"#utility.yul\":10019:10199   */\n    tag_178:\n        /* \"#utility.yul\":10067:10144   */\n      0x4e487b7100000000000000000000000000000000000000000000000000000000\n        /* \"#utility.yul\":10064:10065   */\n      0x00\n        /* \"#utility.yul\":10057:10145   */\n      mstore\n        /* \"#utility.yul\":10164:10168   */\n      0x41\n        /* \"#utility.yul\":10161:10162   */\n      0x04\n        /* \"#utility.yul\":10154:10169   */\n      mstore\n        /* \"#utility.yul\":10188:10192   */\n      0x24\n        /* \"#utility.yul\":10185:10186   */\n      0x00\n        /* \"#utility.yul\":10178:10193   */\n      revert\n        /* \"#utility.yul\":10205:10486   */\n    tag_179:\n        /* \"#utility.yul\":10288:10315   */\n      tag_305\n        /* \"#utility.yul\":10310:10314   */\n      dup3\n        /* \"#utility.yul\":10288:10315   */\n      tag_163\n      jump\t// in\n    tag_305:\n        /* \"#utility.yul\":10280:10286   */\n      dup2\n        /* \"#utility.yul\":10276:10316   */\n      add\n        /* \"#utility.yul\":10418:10424   */\n      dup2\n        /* \"#utility.yul\":10406:10416   */\n      dup2\n        /* \"#utility.yul\":10403:10425   */\n      lt\n        /* \"#utility.yul\":10382:10400   */\n      0xffffffffffffffff\n        /* \"#utility.yul\":10370:10380   */\n      dup3\n        /* \"#utility.yul\":10367:10401   */\n      gt\n        /* \"#utility.yul\":10364:10426   */\n      or\n        /* \"#utility.yul\":10361:10449   */\n      iszero\n      tag_306\n      jumpi\n        /* \"#utility.yul\":10429:10447   */\n      tag_307\n      tag_178\n      jump\t// in\n    tag_307:\n        /* \"#utility.yul\":10361:10449   */\n    tag_306:\n        /* \"#utility.yul\":10469:10479   */\n      dup1\n        /* \"#utility.yul\":10465:10467   */\n      0x40\n        /* \"#utility.yul\":10458:10480   */\n      mstore\n        /* \"#utility.yul\":10248:10486   */\n      pop\n        /* \"#utility.yul\":10205:10486   */\n      pop\n      pop\n      jump\t// out\n        /* \"#utility.yul\":10492:10621   */\n    tag_180:\n        /* \"#utility.yul\":10526:10532   */\n      0x00\n        /* \"#utility.yul\":10553:10573   */\n      tag_309\n      tag_146\n      jump\t// in\n    tag_309:\n        /* \"#utility.yul\":10543:10573   */\n      swap1\n      pop\n        /* \"#utility.yul\":10582:10615   */\n      tag_310\n        /* \"#utility.yul\":10610:10614   */\n      dup3\n        /* \"#utility.yul\":10602:10608   */\n      dup3\n        /* \"#utility.yul\":10582:10615   */\n      tag_179\n      jump\t// in\n    tag_310:\n        /* \"#utility.yul\":10492:10621   */\n      swap2\n      swap1\n      pop\n      jump\t// out\n        /* \"#utility.yul\":10627:10935   */\n    tag_181:\n        /* \"#utility.yul\":10689:10693   */\n      0x00\n        /* \"#utility.yul\":10779:10797   */\n      0xffffffffffffffff\n        /* \"#utility.yul\":10771:10777   */\n      dup3\n        /* \"#utility.yul\":10768:10798   */\n      gt\n        /* \"#utility.yul\":10765:10821   */\n      iszero\n      tag_312\n      jumpi\n        /* \"#utility.yul\":10801:10819   */\n      tag_313\n      tag_178\n      jump\t// in\n    tag_313:\n        /* \"#utility.yul\":10765:10821   */\n    tag_312:\n        /* \"#utility.yul\":10839:10868   */\n      tag_314\n        /* \"#utility.yul\":10861:10867   */\n      dup3\n        /* \"#utility.yul\":10839:10868   */\n      tag_163\n      jump\t// in\n    tag_314:\n        /* \"#utility.yul\":10831:10868   */\n      swap1\n      pop\n        /* \"#utility.yul\":10923:10927   */\n      0x20\n        /* \"#utility.yul\":10917:10921   */\n      dup2\n        /* \"#utility.yul\":10913:10928   */\n      add\n        /* \"#utility.yul\":10905:10928   */\n      swap1\n      pop\n        /* \"#utility.yul\":10627:10935   */\n      swap2\n      swap1\n      pop\n      jump\t// out\n        /* \"#utility.yul\":10941:11087   */\n    tag_182:\n        /* \"#utility.yul\":11038:11044   */\n      dup3\n        /* \"#utility.yul\":11033:11036   */\n      dup2\n        /* \"#utility.yul\":11028:11031   */\n      dup4\n        /* \"#utility.yul\":11015:11045   */\n      calldatacopy\n        /* \"#utility.yul\":11079:11080   */\n      0x00\n        /* \"#utility.yul\":11070:11076   */\n      dup4\n        /* \"#utility.yul\":11065:11068   */\n      dup4\n        /* \"#utility.yul\":11061:11077   */\n      add\n        /* \"#utility.yul\":11054:11081   */\n      mstore\n        /* \"#utility.yul\":10941:11087   */\n      pop\n      pop\n      pop\n      jump\t// out\n        /* \"#utility.yul\":11093:11518   */\n    tag_183:\n        /* \"#utility.yul\":11171:11176   */\n      0x00\n        /* \"#utility.yul\":11196:11262   */\n      tag_317\n        /* \"#utility.yul\":11212:11261   */\n      tag_318\n        /* \"#utility.yul\":11254:11260   */\n      dup5\n        /* \"#utility.yul\":11212:11261   */\n      tag_181\n      jump\t// in\n    tag_318:\n        /* \"#utility.yul\":11196:11262   */\n      tag_180\n      jump\t// in\n    tag_317:\n        /* \"#utility.yul\":11187:11262   */\n      swap1\n      pop\n        /* \"#utility.yul\":11285:11291   */\n      dup3\n        /* \"#utility.yul\":11278:11283   */\n      dup2\n        /* \"#utility.yul\":11271:11292   */\n      mstore\n        /* \"#utility.yul\":11323:11327   */\n      0x20\n        /* \"#utility.yul\":11316:11321   */\n      dup2\n        /* \"#utility.yul\":11312:11328   */\n      add\n        /* \"#utility.yul\":11361:11364   */\n      dup5\n        /* \"#utility.yul\":11352:11358   */\n      dup5\n        /* \"#utility.yul\":11347:11350   */\n      dup5\n        /* \"#utility.yul\":11343:11359   */\n      add\n        /* \"#utility.yul\":11340:11365   */\n      gt\n        /* \"#utility.yul\":11337:11449   */\n      iszero\n      tag_319\n      jumpi\n        /* \"#utility.yul\":11368:11447   */\n      tag_320\n      tag_177\n      jump\t// in\n    tag_320:\n        /* \"#utility.yul\":11337:11449   */\n    tag_319:\n        /* \"#utility.yul\":11458:11512   */\n      tag_321\n        /* \"#utility.yul\":11505:11511   */\n      dup5\n        /* \"#utility.yul\":11500:11503   */\n      dup3\n        /* \"#utility.yul\":11495:11498   */\n      dup6\n        /* \"#utility.yul\":11458:11512   */\n      tag_182\n      jump\t// in\n    tag_321:\n        /* \"#utility.yul\":11177:11518   */\n      pop\n        /* \"#utility.yul\":11093:11518   */\n      swap4\n      swap3\n      pop\n      pop\n      pop\n      jump\t// out\n        /* \"#utility.yul\":11538:11878   */\n    tag_184:\n        /* \"#utility.yul\":11594:11599   */\n      0x00\n        /* \"#utility.yul\":11643:11646   */\n      dup3\n        /* \"#utility.yul\":11636:11640   */\n      0x1f\n        /* \"#utility.yul\":11628:11634   */\n      dup4\n        /* \"#utility.yul\":11624:11641   */\n      add\n        /* \"#utility.yul\":11620:11647   */\n      slt\n        /* \"#utility.yul\":11610:11732   */\n      tag_323\n      jumpi\n        /* \"#utility.yul\":11651:11730   */\n      tag_324\n      tag_176\n      jump\t// in\n    tag_324:\n        /* \"#utility.yul\":11610:11732   */\n    tag_323:\n        /* \"#utility.yul\":11768:11774   */\n      dup2\n        /* \"#utility.yul\":11755:11775   */\n      calldataload\n        /* \"#utility.yul\":11793:11872   */\n      tag_325\n        /* \"#utility.yul\":11868:11871   */\n      dup5\n        /* \"#utility.yul\":11860:11866   */\n      dup3\n        /* \"#utility.yul\":11853:11857   */\n      0x20\n        /* \"#utility.yul\":11845:11851   */\n      dup7\n        /* \"#utility.yul\":11841:11858   */\n      add\n        /* \"#utility.yul\":11793:11872   */\n      tag_183\n      jump\t// in\n    tag_325:\n        /* \"#utility.yul\":11784:11872   */\n      swap2\n      pop\n        /* \"#utility.yul\":11600:11878   */\n      pop\n        /* \"#utility.yul\":11538:11878   */\n      swap3\n      swap2\n      pop\n      pop\n      jump\t// out\n        /* \"#utility.yul\":11884:12683   */\n    tag_55:\n        /* \"#utility.yul\":11971:11977   */\n      0x00\n        /* \"#utility.yul\":11979:11985   */\n      dup1\n        /* \"#utility.yul\":11987:11993   */\n      0x00\n        /* \"#utility.yul\":12036:12038   */\n      0x60\n        /* \"#utility.yul\":12024:12033   */\n      dup5\n        /* \"#utility.yul\":12015:12022   */\n      dup7\n        /* \"#utility.yul\":12011:12034   */\n      sub\n        /* \"#utility.yul\":12007:12039   */\n      slt\n        /* \"#utility.yul\":12004:12123   */\n      iszero\n      tag_327\n      jumpi\n        /* \"#utility.yul\":12042:12121   */\n      tag_328\n      tag_147\n      jump\t// in\n    tag_328:\n        /* \"#utility.yul\":12004:12123   */\n    tag_327:\n        /* \"#utility.yul\":12162:12163   */\n      0x00\n        /* \"#utility.yul\":12187:12240   */\n      tag_329\n        /* \"#utility.yul\":12232:12239   */\n      dup7\n        /* \"#utility.yul\":12223:12229   */\n      dup3\n        /* \"#utility.yul\":12212:12221   */\n      dup8\n        /* \"#utility.yul\":12208:12230   */\n      add\n        /* \"#utility.yul\":12187:12240   */\n      tag_152\n      jump\t// in\n    tag_329:\n        /* \"#utility.yul\":12177:12240   */\n      swap4\n      pop\n        /* \"#utility.yul\":12133:12250   */\n      pop\n        /* \"#utility.yul\":12289:12291   */\n      0x20\n        /* \"#utility.yul\":12315:12368   */\n      tag_330\n        /* \"#utility.yul\":12360:12367   */\n      dup7\n        /* \"#utility.yul\":12351:12357   */\n      dup3\n        /* \"#utility.yul\":12340:12349   */\n      dup8\n        /* \"#utility.yul\":12336:12358   */\n      add\n        /* \"#utility.yul\":12315:12368   */\n      tag_152\n      jump\t// in\n    tag_330:\n        /* \"#utility.yul\":12305:12368   */\n      swap3\n      pop\n        /* \"#utility.yul\":12260:12378   */\n      pop\n        /* \"#utility.yul\":12445:12447   */\n      0x40\n        /* \"#utility.yul\":12434:12443   */\n      dup5\n        /* \"#utility.yul\":12430:12448   */\n      add\n        /* \"#utility.yul\":12417:12449   */\n      calldataload\n        /* \"#utility.yul\":12476:12494   */\n      0xffffffffffffffff\n        /* \"#utility.yul\":12468:12474   */\n      dup2\n        /* \"#utility.yul\":12465:12495   */\n      gt\n        /* \"#utility.yul\":12462:12579   */\n      iszero\n      tag_331\n      jumpi\n        /* \"#utility.yul\":12498:12577   */\n      tag_332\n      tag_148\n      jump\t// in\n    tag_332:\n        /* \"#utility.yul\":12462:12579   */\n    tag_331:\n        /* \"#utility.yul\":12603:12666   */\n      tag_333\n        /* \"#utility.yul\":12658:12665   */\n      dup7\n        /* \"#utility.yul\":12649:12655   */\n      dup3\n        /* \"#utility.yul\":12638:12647   */\n      dup8\n        /* \"#utility.yul\":12634:12656   */\n      add\n        /* \"#utility.yul\":12603:12666   */\n      tag_184\n      jump\t// in\n    tag_333:\n        /* \"#utility.yul\":12593:12666   */\n      swap2\n      pop\n        /* \"#utility.yul\":12388:12676   */\n      pop\n        /* \"#utility.yul\":11884:12683   */\n      swap3\n      pop\n      swap3\n      pop\n      swap3\n      jump\t// out\n        /* \"#utility.yul\":12689:13343   */\n    tag_62:\n        /* \"#utility.yul\":12767:12773   */\n      0x00\n        /* \"#utility.yul\":12775:12781   */\n      dup1\n        /* \"#utility.yul\":12824:12826   */\n      0x40\n        /* \"#utility.yul\":12812:12821   */\n      dup4\n        /* \"#utility.yul\":12803:12810   */\n      dup6\n        /* \"#utility.yul\":12799:12822   */\n      sub\n        /* \"#utility.yul\":12795:12827   */\n      slt\n        /* \"#utility.yul\":12792:12911   */\n      iszero\n      tag_335\n      jumpi\n        /* \"#utility.yul\":12830:12909   */\n      tag_336\n      tag_147\n      jump\t// in\n    tag_336:\n        /* \"#utility.yul\":12792:12911   */\n    tag_335:\n        /* \"#utility.yul\":12950:12951   */\n      0x00\n        /* \"#utility.yul\":12975:13028   */\n      tag_337\n        /* \"#utility.yul\":13020:13027   */\n      dup6\n        /* \"#utility.yul\":13011:13017   */\n      dup3\n        /* \"#utility.yul\":13000:13009   */\n      dup7\n        /* \"#utility.yul\":12996:13018   */\n      add\n        /* \"#utility.yul\":12975:13028   */\n      tag_152\n      jump\t// in\n    tag_337:\n        /* \"#utility.yul\":12965:13028   */\n      swap3\n      pop\n        /* \"#utility.yul\":12921:13038   */\n      pop\n        /* \"#utility.yul\":13105:13107   */\n      0x20\n        /* \"#utility.yul\":13094:13103   */\n      dup4\n        /* \"#utility.yul\":13090:13108   */\n      add\n        /* \"#utility.yul\":13077:13109   */\n      calldataload\n        /* \"#utility.yul\":13136:13154   */\n      0xffffffffffffffff\n        /* \"#utility.yul\":13128:13134   */\n      dup2\n        /* \"#utility.yul\":13125:13155   */\n      gt\n        /* \"#utility.yul\":13122:13239   */\n      iszero\n      tag_338\n      jumpi\n        /* \"#utility.yul\":13158:13237   */\n      tag_339\n      tag_148\n      jump\t// in\n    tag_339:\n        /* \"#utility.yul\":13122:13239   */\n    tag_338:\n        /* \"#utility.yul\":13263:13326   */\n      tag_340\n        /* \"#utility.yul\":13318:13325   */\n      dup6\n        /* \"#utility.yul\":13309:13315   */\n      dup3\n        /* \"#utility.yul\":13298:13307   */\n      dup7\n        /* \"#utility.yul\":13294:13316   */\n      add\n        /* \"#utility.yul\":13263:13326   */\n      tag_184\n      jump\t// in\n    tag_340:\n        /* \"#utility.yul\":13253:13326   */\n      swap2\n      pop\n        /* \"#utility.yul\":13048:13336   */\n      pop\n        /* \"#utility.yul\":12689:13343   */\n      swap3\n      pop\n      swap3\n      swap1\n      pop\n      jump\t// out\n        /* \"#utility.yul\":13349:13571   */\n    tag_71:\n        /* \"#utility.yul\":13442:13446   */\n      0x00\n        /* \"#utility.yul\":13480:13482   */\n      0x20\n        /* \"#utility.yul\":13469:13478   */\n      dup3\n        /* \"#utility.yul\":13465:13483   */\n      add\n        /* \"#utility.yul\":13457:13483   */\n      swap1\n      pop\n        /* \"#utility.yul\":13493:13564   */\n      tag_342\n        /* \"#utility.yul\":13561:13562   */\n      0x00\n        /* \"#utility.yul\":13550:13559   */\n      dup4\n        /* \"#utility.yul\":13546:13563   */\n      add\n        /* \"#utility.yul\":13537:13543   */\n      dup5\n        /* \"#utility.yul\":13493:13564   */\n      tag_159\n      jump\t// in\n    tag_342:\n        /* \"#utility.yul\":13349:13571   */\n      swap3\n      swap2\n      pop\n      pop\n      jump\t// out\n        /* \"#utility.yul\":13577:14221   */\n    tag_76:\n        /* \"#utility.yul\":13774:13778   */\n      0x00\n        /* \"#utility.yul\":13812:13815   */\n      0x80\n        /* \"#utility.yul\":13801:13810   */\n      dup3\n        /* \"#utility.yul\":13797:13816   */\n      add\n        /* \"#utility.yul\":13789:13816   */\n      swap1\n      pop\n        /* \"#utility.yul\":13826:13897   */\n      tag_344\n        /* \"#utility.yul\":13894:13895   */\n      0x00\n        /* \"#utility.yul\":13883:13892   */\n      dup4\n        /* \"#utility.yul\":13879:13896   */\n      add\n        /* \"#utility.yul\":13870:13876   */\n      dup8\n        /* \"#utility.yul\":13826:13897   */\n      tag_158\n      jump\t// in\n    tag_344:\n        /* \"#utility.yul\":13907:13979   */\n      tag_345\n        /* \"#utility.yul\":13975:13977   */\n      0x20\n        /* \"#utility.yul\":13964:13973   */\n      dup4\n        /* \"#utility.yul\":13960:13978   */\n      add\n        /* \"#utility.yul\":13951:13957   */\n      dup7\n        /* \"#utility.yul\":13907:13979   */\n      tag_159\n      jump\t// in\n    tag_345:\n        /* \"#utility.yul\":14026:14035   */\n      dup2\n        /* \"#utility.yul\":14020:14024   */\n      dup2\n        /* \"#utility.yul\":14016:14036   */\n      sub\n        /* \"#utility.yul\":14011:14013   */\n      0x40\n        /* \"#utility.yul\":14000:14009   */\n      dup4\n        /* \"#utility.yul\":13996:14014   */\n      add\n        /* \"#utility.yul\":13989:14037   */\n      mstore\n        /* \"#utility.yul\":14054:14132   */\n      tag_346\n        /* \"#utility.yul\":14127:14131   */\n      dup2\n        /* \"#utility.yul\":14118:14124   */\n      dup6\n        /* \"#utility.yul\":14054:14132   */\n      tag_164\n      jump\t// in\n    tag_346:\n        /* \"#utility.yul\":14046:14132   */\n      swap1\n      pop\n        /* \"#utility.yul\":14142:14214   */\n      tag_347\n        /* \"#utility.yul\":14210:14212   */\n      0x60\n        /* \"#utility.yul\":14199:14208   */\n      dup4\n        /* \"#utility.yul\":14195:14213   */\n      add\n        /* \"#utility.yul\":14186:14192   */\n      dup5\n        /* \"#utility.yul\":14142:14214   */\n      tag_158\n      jump\t// in\n    tag_347:\n        /* \"#utility.yul\":13577:14221   */\n      swap6\n      swap5\n      pop\n      pop\n      pop\n      pop\n      pop\n      jump\t// out\n        /* \"#utility.yul\":14227:14736   */\n    tag_79:\n        /* \"#utility.yul\":14296:14302   */\n      0x00\n        /* \"#utility.yul\":14345:14347   */\n      0x20\n        /* \"#utility.yul\":14333:14342   */\n      dup3\n        /* \"#utility.yul\":14324:14331   */\n      dup5\n        /* \"#utility.yul\":14320:14343   */\n      sub\n        /* \"#utility.yul\":14316:14348   */\n      slt\n        /* \"#utility.yul\":14313:14432   */\n      iszero\n      tag_349\n      jumpi\n        /* \"#utility.yul\":14351:14430   */\n      tag_350\n      tag_147\n      jump\t// in\n    tag_350:\n        /* \"#utility.yul\":14313:14432   */\n    tag_349:\n        /* \"#utility.yul\":14499:14500   */\n      0x00\n        /* \"#utility.yul\":14488:14497   */\n      dup3\n        /* \"#utility.yul\":14484:14501   */\n      add\n        /* \"#utility.yul\":14471:14502   */\n      calldataload\n        /* \"#utility.yul\":14529:14547   */\n      0xffffffffffffffff\n        /* \"#utility.yul\":14521:14527   */\n      dup2\n        /* \"#utility.yul\":14518:14548   */\n      gt\n        /* \"#utility.yul\":14515:14632   */\n      iszero\n      tag_351\n      jumpi\n        /* \"#utility.yul\":14551:14630   */\n      tag_352\n      tag_148\n      jump\t// in\n    tag_352:\n        /* \"#utility.yul\":14515:14632   */\n    tag_351:\n        /* \"#utility.yul\":14656:14719   */\n      tag_353\n        /* \"#utility.yul\":14711:14718   */\n      dup5\n        /* \"#utility.yul\":14702:14708   */\n      dup3\n        /* \"#utility.yul\":14691:14700   */\n      dup6\n        /* \"#utility.yul\":14687:14709   */\n      add\n        /* \"#utility.yul\":14656:14719   */\n      tag_184\n      jump\t// in\n    tag_353:\n        /* \"#utility.yul\":14646:14719   */\n      swap2\n      pop\n        /* \"#utility.yul\":14442:14729   */\n      pop\n        /* \"#utility.yul\":14227:14736   */\n      swap3\n      swap2\n      pop\n      pop\n      jump\t// out\n        /* \"#utility.yul\":14742:14922   */\n    tag_185:\n        /* \"#utility.yul\":14790:14867   */\n      0x4e487b7100000000000000000000000000000000000000000000000000000000\n        /* \"#utility.yul\":14787:14788   */\n      0x00\n        /* \"#utility.yul\":14780:14868   */\n      mstore\n        /* \"#utility.yul\":14887:14891   */\n      0x22\n        /* \"#utility.yul\":14884:14885   */\n      0x04\n        /* \"#utility.yul\":14877:14892   */\n      mstore\n        /* \"#utility.yul\":14911:14915   */\n      0x24\n        /* \"#utility.yul\":14908:14909   */\n      0x00\n        /* \"#utility.yul\":14901:14916   */\n      revert\n        /* \"#utility.yul\":14928:15248   */\n    tag_84:\n        /* \"#utility.yul\":14972:14978   */\n      0x00\n        /* \"#utility.yul\":15009:15010   */\n      0x02\n        /* \"#utility.yul\":15003:15007   */\n      dup3\n        /* \"#utility.yul\":14999:15011   */\n      div\n        /* \"#utility.yul\":14989:15011   */\n      swap1\n      pop\n        /* \"#utility.yul\":15056:15057   */\n      0x01\n        /* \"#utility.yul\":15050:15054   */\n      dup3\n        /* \"#utility.yul\":15046:15058   */\n      and\n        /* \"#utility.yul\":15077:15095   */\n      dup1\n        /* \"#utility.yul\":15067:15148   */\n      tag_356\n      jumpi\n        /* \"#utility.yul\":15133:15137   */\n      0x7f\n        /* \"#utility.yul\":15125:15131   */\n      dup3\n        /* \"#utility.yul\":15121:15138   */\n      and\n        /* \"#utility.yul\":15111:15138   */\n      swap2\n      pop\n        /* \"#utility.yul\":15067:15148   */\n    tag_356:\n        /* \"#utility.yul\":15195:15197   */\n      0x20\n        /* \"#utility.yul\":15187:15193   */\n      dup3\n        /* \"#utility.yul\":15184:15198   */\n      lt\n        /* \"#utility.yul\":15164:15182   */\n      dup2\n        /* \"#utility.yul\":15161:15199   */\n      sub\n        /* \"#utility.yul\":15158:15242   */\n      tag_357\n      jumpi\n        /* \"#utility.yul\":15214:15232   */\n      tag_358\n      tag_185\n      jump\t// in\n    tag_358:\n        /* \"#utility.yul\":15158:15242   */\n    tag_357:\n        /* \"#utility.yul\":14979:15248   */\n      pop\n        /* \"#utility.yul\":14928:15248   */\n      swap2\n      swap1\n      pop\n      jump\t// out\n        /* \"#utility.yul\":15254:15422   */\n    tag_186:\n        /* \"#utility.yul\":15394:15414   */\n      0x636f756e74206f7574206f6620626f756e640000000000000000000000000000\n        /* \"#utility.yul\":15390:15391   */\n      0x00\n        /* \"#utility.yul\":15382:15388   */\n      dup3\n        /* \"#utility.yul\":15378:15392   */\n      add\n        /* \"#utility.yul\":15371:15415   */\n      mstore\n        /* \"#utility.yul\":15254:15422   */\n      pop\n      jump\t// out\n        /* \"#utility.yul\":15428:15794   */\n    tag_187:\n        /* \"#utility.yul\":15570:15573   */\n      0x00\n        /* \"#utility.yul\":15591:15658   */\n      tag_361\n        /* \"#utility.yul\":15655:15657   */\n      0x12\n        /* \"#utility.yul\":15650:15653   */\n      dup4\n        /* \"#utility.yul\":15591:15658   */\n      tag_161\n      jump\t// in\n    tag_361:\n        /* \"#utility.yul\":15584:15658   */\n      swap2\n      pop\n        /* \"#utility.yul\":15667:15760   */\n      tag_362\n        /* \"#utility.yul\":15756:15759   */\n      dup3\n        /* \"#utility.yul\":15667:15760   */\n      tag_186\n      jump\t// in\n    tag_362:\n        /* \"#utility.yul\":15785:15787   */\n      0x20\n        /* \"#utility.yul\":15780:15783   */\n      dup3\n        /* \"#utility.yul\":15776:15788   */\n      add\n        /* \"#utility.yul\":15769:15788   */\n      swap1\n      pop\n        /* \"#utility.yul\":15428:15794   */\n      swap2\n      swap1\n      pop\n      jump\t// out\n        /* \"#utility.yul\":15800:16219   */\n    tag_96:\n        /* \"#utility.yul\":15966:15970   */\n      0x00\n        /* \"#utility.yul\":16004:16006   */\n      0x20\n        /* \"#utility.yul\":15993:16002   */\n      dup3\n        /* \"#utility.yul\":15989:16007   */\n      add\n        /* \"#utility.yul\":15981:16007   */\n      swap1\n      pop\n        /* \"#utility.yul\":16053:16062   */\n      dup2\n        /* \"#utility.yul\":16047:16051   */\n      dup2\n        /* \"#utility.yul\":16043:16063   */\n      sub\n        /* \"#utility.yul\":16039:16040   */\n      0x00\n        /* \"#utility.yul\":16028:16037   */\n      dup4\n        /* \"#utility.yul\":16024:16041   */\n      add\n        /* \"#utility.yul\":16017:16064   */\n      mstore\n        /* \"#utility.yul\":16081:16212   */\n      tag_364\n        /* \"#utility.yul\":16207:16211   */\n      dup2\n        /* \"#utility.yul\":16081:16212   */\n      tag_187\n      jump\t// in\n    tag_364:\n        /* \"#utility.yul\":16073:16212   */\n      swap1\n      pop\n        /* \"#utility.yul\":15800:16219   */\n      swap2\n      swap1\n      pop\n      jump\t// out\n        /* \"#utility.yul\":16225:16405   */\n    tag_188:\n        /* \"#utility.yul\":16273:16350   */\n      0x4e487b7100000000000000000000000000000000000000000000000000000000\n        /* \"#utility.yul\":16270:16271   */\n      0x00\n        /* \"#utility.yul\":16263:16351   */\n      mstore\n        /* \"#utility.yul\":16370:16374   */\n      0x11\n        /* \"#utility.yul\":16367:16368   */\n      0x04\n        /* \"#utility.yul\":16360:16375   */\n      mstore\n        /* \"#utility.yul\":16394:16398   */\n      0x24\n        /* \"#utility.yul\":16391:16392   */\n      0x00\n        /* \"#utility.yul\":16384:16399   */\n      revert\n        /* \"#utility.yul\":16411:16605   */\n    tag_101:\n        /* \"#utility.yul\":16451:16455   */\n      0x00\n        /* \"#utility.yul\":16471:16491   */\n      tag_367\n        /* \"#utility.yul\":16489:16490   */\n      dup3\n        /* \"#utility.yul\":16471:16491   */\n      tag_155\n      jump\t// in\n    tag_367:\n        /* \"#utility.yul\":16466:16491   */\n      swap2\n      pop\n        /* \"#utility.yul\":16505:16525   */\n      tag_368\n        /* \"#utility.yul\":16523:16524   */\n      dup4\n        /* \"#utility.yul\":16505:16525   */\n      tag_155\n      jump\t// in\n    tag_368:\n        /* \"#utility.yul\":16500:16525   */\n      swap3\n      pop\n        /* \"#utility.yul\":16549:16550   */\n      dup3\n        /* \"#utility.yul\":16546:16547   */\n      dup3\n        /* \"#utility.yul\":16542:16551   */\n      sub\n        /* \"#utility.yul\":16534:16551   */\n      swap1\n      pop\n        /* \"#utility.yul\":16573:16574   */\n      dup2\n        /* \"#utility.yul\":16567:16571   */\n      dup2\n        /* \"#utility.yul\":16564:16575   */\n      gt\n        /* \"#utility.yul\":16561:16598   */\n      iszero\n      tag_369\n      jumpi\n        /* \"#utility.yul\":16578:16596   */\n      tag_370\n      tag_188\n      jump\t// in\n    tag_370:\n        /* \"#utility.yul\":16561:16598   */\n    tag_369:\n        /* \"#utility.yul\":16411:16605   */\n      swap3\n      swap2\n      pop\n      pop\n      jump\t// out\n        /* \"#utility.yul\":16611:16791   */\n    tag_109:\n        /* \"#utility.yul\":16659:16736   */\n      0x4e487b7100000000000000000000000000000000000000000000000000000000\n        /* \"#utility.yul\":16656:16657   */\n      0x00\n        /* \"#utility.yul\":16649:16737   */\n      mstore\n        /* \"#utility.yul\":16756:16760   */\n      0x32\n        /* \"#utility.yul\":16753:16754   */\n      0x04\n        /* \"#utility.yul\":16746:16761   */\n      mstore\n        /* \"#utility.yul\":16780:16784   */\n      0x24\n        /* \"#utility.yul\":16777:16778   */\n      0x00\n        /* \"#utility.yul\":16770:16785   */\n      revert\n        /* \"#utility.yul\":16797:17030   */\n    tag_111:\n        /* \"#utility.yul\":16836:16839   */\n      0x00\n        /* \"#utility.yul\":16859:16883   */\n      tag_373\n        /* \"#utility.yul\":16877:16882   */\n      dup3\n        /* \"#utility.yul\":16859:16883   */\n      tag_155\n      jump\t// in\n    tag_373:\n        /* \"#utility.yul\":16850:16883   */\n      swap2\n      pop\n        /* \"#utility.yul\":16905:16971   */\n      0xffffffffffffffffffffffffffffffffffffffffffffffffffffffffffffffff\n        /* \"#utility.yul\":16898:16903   */\n      dup3\n        /* \"#utility.yul\":16895:16972   */\n      sub\n        /* \"#utility.yul\":16892:16995   */\n      tag_374\n      jumpi\n        /* \"#utility.yul\":16975:16993   */\n      tag_375\n      tag_188\n      jump\t// in\n    tag_375:\n        /* \"#utility.yul\":16892:16995   */\n    tag_374:\n        /* \"#utility.yul\":17022:17023   */\n      0x01\n        /* \"#utility.yul\":17015:17020   */\n      dup3\n        /* \"#utility.yul\":17011:17024   */\n      add\n        /* \"#utility.yul\":17004:17024   */\n      swap1\n      pop\n        /* \"#utility.yul\":16797:17030   */\n      swap2\n      swap1\n      pop\n      jump\t// out\n        /* \"#utility.yul\":17036:17177   */\n    tag_189:\n        /* \"#utility.yul\":17085:17089   */\n      0x00\n        /* \"#utility.yul\":17108:17111   */\n      dup2\n        /* \"#utility.yul\":17100:17111   */\n      swap1\n      pop\n        /* \"#utility.yul\":17131:17134   */\n      dup2\n        /* \"#utility.yul\":17128:17129   */\n      0x00\n        /* \"#utility.yul\":17121:17135   */\n      mstore\n        /* \"#utility.yul\":17165:17169   */\n      0x20\n        /* \"#utility.yul\":17162:17163   */\n      0x00\n        /* \"#utility.yul\":17152:17170   */\n      keccak256\n        /* \"#utility.yul\":17144:17170   */\n      swap1\n      pop\n        /* \"#utility.yul\":17036:17177   */\n      swap2\n      swap1\n      pop\n      jump\t// out\n        /* \"#utility.yul\":17183:17276   */\n    tag_190:\n        /* \"#utility.yul\":17220:17226   */\n      0x00\n        /* \"#utility.yul\":17267:17269   */\n      0x20\n        /* \"#utility.yul\":17262:17264   */\n      0x1f\n        /* \"#utility.yul\":17255:17260   */\n      dup4\n        /* \"#utility.yul\":17251:17265   */\n      add\n        /* \"#utility.yul\":17247:17270   */\n      div\n        /* \"#utility.yul\":17237:17270   */\n      swap1\n      pop\n        /* \"#utility.yul\":17183:17276   */\n      swap2\n      swap1\n      pop\n      jump\t// out\n        /* \"#utility.yul\":17282:17389   */\n    tag_191:\n        /* \"#utility.yul\":17326:17334   */\n      0x00\n        /* \"#utility.yul\":17376:17381   */\n      dup3\n        /* \"#utility.yul\":17370:17374   */\n      dup3\n        /* \"#utility.yul\":17366:17382   */\n      shl\n        /* \"#utility.yul\":17345:17382   */\n      swap1\n      pop\n        /* \"#utility.yul\":17282:17389   */\n      swap3\n      swap2\n      pop\n      pop\n      jump\t// out\n        /* \"#utility.yul\":17395:17788   */\n    tag_192:\n        /* \"#utility.yul\":17464:17470   */\n      0x00\n        /* \"#utility.yul\":17514:17515   */\n      0x08\n        /* \"#utility.yul\":17502:17512   */\n      dup4\n        /* \"#utility.yul\":17498:17516   */\n      mul\n        /* \"#utility.yul\":17537:17634   */\n      tag_380\n        /* \"#utility.yul\":17567:17633   */\n      0xffffffffffffffffffffffffffffffffffffffffffffffffffffffffffffffff\n        /* \"#utility.yul\":17556:17565   */\n      dup3\n        /* \"#utility.yul\":17537:17634   */\n      tag_191\n      jump\t// in\n    tag_380:\n        /* \"#utility.yul\":17655:17694   */\n      tag_381\n        /* \"#utility.yul\":17685:17693   */\n      dup7\n        /* \"#utility.yul\":17674:17683   */\n      dup4\n        /* \"#utility.yul\":17655:17694   */\n      tag_191\n      jump\t// in\n    tag_381:\n        /* \"#utility.yul\":17643:17694   */\n      swap6\n      pop\n        /* \"#utility.yul\":17727:17731   */\n      dup1\n        /* \"#utility.yul\":17723:17732   */\n      not\n        /* \"#utility.yul\":17716:17721   */\n      dup5\n        /* \"#utility.yul\":17712:17733   */\n      and\n        /* \"#utility.yul\":17703:17733   */\n      swap4\n      pop\n        /* \"#utility.yul\":17776:17780   */\n      dup1\n        /* \"#utility.yul\":17766:17774   */\n      dup7\n        /* \"#utility.yul\":17762:17781   */\n      and\n        /* \"#utility.yul\":17755:17760   */\n      dup5\n        /* \"#utility.yul\":17752:17782   */\n      or\n        /* \"#utility.yul\":17742:17782   */\n      swap3\n      pop\n        /* \"#utility.yul\":17471:17788   */\n      pop\n      pop\n        /* \"#utility.yul\":17395:17788   */\n      swap4\n      swap3\n      pop\n      pop\n      pop\n      jump\t// out\n        /* \"#utility.yul\":17794:17854   */\n    tag_193:\n        /* \"#utility.yul\":17822:17825   */\n      0x00\n        /* \"#utility.yul\":17843:17848   */\n      dup2\n        /* \"#utility.yul\":17836:17848   */\n      swap1\n      pop\n        /* \"#utility.yul\":17794:17854   */\n      swap2\n      swap1\n      pop\n      jump\t// out\n        /* \"#utility.yul\":17860:18002   */\n    tag_194:\n        /* \"#utility.yul\":17910:17919   */\n      0x00\n        /* \"#utility.yul\":17943:17996   */\n      tag_384\n        /* \"#utility.yul\":17961:17995   */\n      tag_385\n        /* \"#utility.yul\":17970:17994   */\n      tag_386\n        /* \"#utility.yul\":17988:17993   */\n      dup5\n        /* \"#utility.yul\":17970:17994   */\n      tag_155\n      jump\t// in\n    tag_386:\n        /* \"#utility.yul\":17961:17995   */\n      tag_193\n      jump\t// in\n    tag_385:\n        /* \"#utility.yul\":17943:17996   */\n      tag_155\n      jump\t// in\n    tag_384:\n        /* \"#utility.yul\":17930:17996   */\n      swap1\n      pop\n        /* \"#utility.yul\":17860:18002   */\n      swap2\n      swap1\n      pop\n      jump\t// out\n        /* \"#utility.yul\":18008:18083   */\n    tag_195:\n        /* \"#utility.yul\":18051:18054   */\n      0x00\n        /* \"#utility.yul\":18072:18077   */\n      dup2\n        /* \"#utility.yul\":18065:18077   */\n      swap1\n      pop\n        /* \"#utility.yul\":18008:18083   */\n      swap2\n      swap1\n      pop\n      jump\t// out\n        /* \"#utility.yul\":18089:18358   */\n    tag_196:\n        /* \"#utility.yul\":18199:18238   */\n      tag_389\n        /* \"#utility.yul\":18230:18237   */\n      dup4\n        /* \"#utility.yul\":18199:18238   */\n      tag_194\n      jump\t// in\n    tag_389:\n        /* \"#utility.yul\":18260:18351   */\n      tag_390\n        /* \"#utility.yul\":18309:18350   */\n      tag_391\n        /* \"#utility.yul\":18333:18349   */\n      dup3\n        /* \"#utility.yul\":18309:18350   */\n      tag_195\n      jump\t// in\n    tag_391:\n        /* \"#utility.yul\":18301:18307   */\n      dup5\n        /* \"#utility.yul\":18294:18298   */\n      dup5\n        /* \"#utility.yul\":18288:18299   */\n      sload\n        /* \"#utility.yul\":18260:18351   */\n      tag_192\n      jump\t// in\n    tag_390:\n        /* \"#utility.yul\":18254:18258   */\n      dup3\n        /* \"#utility.yul\":18247:18352   */\n      sstore\n        /* \"#utility.yul\":18165:18358   */\n      pop\n        /* \"#utility.yul\":18089:18358   */\n      pop\n      pop\n      pop\n      jump\t// out\n        /* \"#utility.yul\":18364:18437   */\n    tag_197:\n        /* \"#utility.yul\":18409:18412   */\n      0x00\n        /* \"#utility.yul\":18364:18437   */\n      swap1\n      jump\t// out\n        /* \"#utility.yul\":18443:18632   */\n    tag_198:\n        /* \"#utility.yul\":18520:18552   */\n      tag_394\n      tag_197\n      jump\t// in\n    tag_394:\n        /* \"#utility.yul\":18561:18626   */\n      tag_395\n        /* \"#utility.yul\":18619:18625   */\n      dup2\n        /* \"#utility.yul\":18611:18617   */\n      dup5\n        /* \"#utility.yul\":18605:18609   */\n      dup5\n        /* \"#utility.yul\":18561:18626   */\n      tag_196\n      jump\t// in\n    tag_395:\n        /* \"#utility.yul\":18496:18632   */\n      pop\n        /* \"#utility.yul\":18443:18632   */\n      pop\n      pop\n      jump\t// out\n        /* \"#utility.yul\":18638:18824   */\n    tag_199:\n        /* \"#utility.yul\":18698:18818   */\n    tag_397:\n        /* \"#utility.yul\":18715:18718   */\n      dup2\n        /* \"#utility.yul\":18708:18713   */\n      dup2\n        /* \"#utility.yul\":18705:18719   */\n      lt\n        /* \"#utility.yul\":18698:18818   */\n      iszero\n      tag_399\n      jumpi\n        /* \"#utility.yul\":18769:18808   */\n      tag_400\n        /* \"#utility.yul\":18806:18807   */\n      0x00\n        /* \"#utility.yul\":18799:18804   */\n      dup3\n        /* \"#utility.yul\":18769:18808   */\n      tag_198\n      jump\t// in\n    tag_400:\n        /* \"#utility.yul\":18742:18743   */\n      0x01\n        /* \"#utility.yul\":18735:18740   */\n      dup2\n        /* \"#utility.yul\":18731:18744   */\n      add\n        /* \"#utility.yul\":18722:18744   */\n      swap1\n      pop\n        /* \"#utility.yul\":18698:18818   */\n      jump(tag_397)\n    tag_399:\n        /* \"#utility.yul\":18638:18824   */\n      pop\n      pop\n      jump\t// out\n        /* \"#utility.yul\":18830:19373   */\n    tag_200:\n        /* \"#utility.yul\":18931:18933   */\n      0x1f\n        /* \"#utility.yul\":18926:18929   */\n      dup3\n        /* \"#utility.yul\":18923:18934   */\n      gt\n        /* \"#utility.yul\":18920:19366   */\n      iszero\n      tag_402\n      jumpi\n        /* \"#utility.yul\":18965:19003   */\n      tag_403\n        /* \"#utility.yul\":18997:19002   */\n      dup2\n        /* \"#utility.yul\":18965:19003   */\n      tag_189\n      jump\t// in\n    tag_403:\n        /* \"#utility.yul\":19049:19078   */\n      tag_404\n        /* \"#utility.yul\":19067:19077   */\n      dup5\n        /* \"#utility.yul\":19049:19078   */\n      tag_190\n      jump\t// in\n    tag_404:\n        /* \"#utility.yul\":19039:19047   */\n      dup2\n        /* \"#utility.yul\":19035:19079   */\n      add\n        /* \"#utility.yul\":19232:19234   */\n      0x20\n        /* \"#utility.yul\":19220:19230   */\n      dup6\n        /* \"#utility.yul\":19217:19235   */\n      lt\n        /* \"#utility.yul\":19214:19263   */\n      iszero\n      tag_405\n      jumpi\n        /* \"#utility.yul\":19253:19261   */\n      dup2\n        /* \"#utility.yul\":19238:19261   */\n      swap1\n      pop\n        /* \"#utility.yul\":19214:19263   */\n    tag_405:\n        /* \"#utility.yul\":19276:19356   */\n      tag_406\n        /* \"#utility.yul\":19332:19354   */\n      tag_407\n        /* \"#utility.yul\":19350:19353   */\n      dup6\n        /* \"#utility.yul\":19332:19354   */\n      tag_190\n      jump\t// in\n    tag_407:\n        /* \"#utility.yul\":19322:19330   */\n      dup4\n        /* \"#utility.yul\":19318:19355   */\n      add\n        /* \"#utility.yul\":19305:19316   */\n      dup3\n        /* \"#utility.yul\":19276:19356   */\n      tag_199\n      jump\t// in\n    tag_406:\n        /* \"#utility.yul\":18935:19366   */\n      pop\n      pop\n        /* \"#utility.yul\":18920:19366   */\n    tag_402:\n        /* \"#utility.yul\":18830:19373   */\n      pop\n      pop\n      pop\n      jump\t// out\n        /* \"#utility.yul\":19379:19496   */\n    tag_201:\n        /* \"#utility.yul\":19433:19441   */\n      0x00\n        /* \"#utility.yul\":19483:19488   */\n      dup3\n        /* \"#utility.yul\":19477:19481   */\n      dup3\n        /* \"#utility.yul\":19473:19489   */\n      shr\n        /* \"#utility.yul\":19452:19489   */\n      swap1\n      pop\n        /* \"#utility.yul\":19379:19496   */\n      swap3\n      swap2\n      pop\n      pop\n      jump\t// out\n        /* \"#utility.yul\":19502:19671   */\n    tag_202:\n        /* \"#utility.yul\":19546:19552   */\n      0x00\n        /* \"#utility.yul\":19579:19630   */\n      tag_410\n        /* \"#utility.yul\":19627:19628   */\n      0x00\n        /* \"#utility.yul\":19623:19629   */\n      not\n        /* \"#utility.yul\":19615:19620   */\n      dup5\n        /* \"#utility.yul\":19612:19613   */\n      0x08\n        /* \"#utility.yul\":19608:19621   */\n      mul\n        /* \"#utility.yul\":19579:19630   */\n      tag_201\n      jump\t// in\n    tag_410:\n        /* \"#utility.yul\":19575:19631   */\n      not\n        /* \"#utility.yul\":19660:19664   */\n      dup1\n        /* \"#utility.yul\":19654:19658   */\n      dup4\n        /* \"#utility.yul\":19650:19665   */\n      and\n        /* \"#utility.yul\":19640:19665   */\n      swap2\n      pop\n        /* \"#utility.yul\":19553:19671   */\n      pop\n        /* \"#utility.yul\":19502:19671   */\n      swap3\n      swap2\n      pop\n      pop\n      jump\t// out\n        /* \"#utility.yul\":19676:19971   */\n    tag_203:\n        /* \"#utility.yul\":19752:19756   */\n      0x00\n        /* \"#utility.yul\":19898:19927   */\n      tag_412\n        /* \"#utility.yul\":19923:19926   */\n      dup4\n        /* \"#utility.yul\":19917:19921   */\n      dup4\n        /* \"#utility.yul\":19898:19927   */\n      tag_202\n      jump\t// in\n    tag_412:\n        /* \"#utility.yul\":19890:19927   */\n      swap2\n      pop\n        /* \"#utility.yul\":19960:19963   */\n      dup3\n        /* \"#utility.yul\":19957:19958   */\n      0x02\n        /* \"#utility.yul\":19953:19964   */\n      mul\n        /* \"#utility.yul\":19947:19951   */\n      dup3\n        /* \"#utility.yul\":19944:19965   */\n      or\n        /* \"#utility.yul\":19936:19965   */\n      swap1\n      pop\n        /* \"#utility.yul\":19676:19971   */\n      swap3\n      swap2\n      pop\n      pop\n      jump\t// out\n        /* \"#utility.yul\":19976:21371   */\n    tag_140:\n        /* \"#utility.yul\":20093:20130   */\n      tag_414\n        /* \"#utility.yul\":20126:20129   */\n      dup3\n        /* \"#utility.yul\":20093:20130   */\n      tag_160\n      jump\t// in\n    tag_414:\n        /* \"#utility.yul\":20195:20213   */\n      0xffffffffffffffff\n        /* \"#utility.yul\":20187:20193   */\n      dup2\n        /* \"#utility.yul\":20184:20214   */\n      gt\n        /* \"#utility.yul\":20181:20237   */\n      iszero\n      tag_415\n      jumpi\n        /* \"#utility.yul\":20217:20235   */\n      tag_416\n      tag_178\n      jump\t// in\n    tag_416:\n        /* \"#utility.yul\":20181:20237   */\n    tag_415:\n        /* \"#utility.yul\":20261:20299   */\n      tag_417\n        /* \"#utility.yul\":20293:20297   */\n      dup3\n        /* \"#utility.yul\":20287:20298   */\n      sload\n        /* \"#utility.yul\":20261:20299   */\n      tag_84\n      jump\t// in\n    tag_417:\n        /* \"#utility.yul\":20346:20413   */\n      tag_418\n        /* \"#utility.yul\":20406:20412   */\n      dup3\n        /* \"#utility.yul\":20398:20404   */\n      dup3\n        /* \"#utility.yul\":20392:20396   */\n      dup6\n        /* \"#utility.yul\":20346:20413   */\n      tag_200\n      jump\t// in\n    tag_418:\n        /* \"#utility.yul\":20440:20441   */\n      0x00\n        /* \"#utility.yul\":20464:20468   */\n      0x20\n        /* \"#utility.yul\":20451:20468   */\n      swap1\n      pop\n        /* \"#utility.yul\":20496:20498   */\n      0x1f\n        /* \"#utility.yul\":20488:20494   */\n      dup4\n        /* \"#utility.yul\":20485:20499   */\n      gt\n        /* \"#utility.yul\":20513:20514   */\n      0x01\n        /* \"#utility.yul\":20508:21126   */\n      dup2\n      eq\n      tag_420\n      jumpi\n        /* \"#utility.yul\":21170:21171   */\n      0x00\n        /* \"#utility.yul\":21187:21193   */\n      dup5\n        /* \"#utility.yul\":21184:21261   */\n      iszero\n      tag_421\n      jumpi\n        /* \"#utility.yul\":21236:21245   */\n      dup3\n        /* \"#utility.yul\":21231:21234   */\n      dup8\n        /* \"#utility.yul\":21227:21246   */\n      add\n        /* \"#utility.yul\":21221:21247   */\n      mload\n        /* \"#utility.yul\":21212:21247   */\n      swap1\n      pop\n        /* \"#utility.yul\":21184:21261   */\n    tag_421:\n        /* \"#utility.yul\":21287:21354   */\n      tag_422\n        /* \"#utility.yul\":21347:21353   */\n      dup6\n        /* \"#utility.yul\":21340:21345   */\n      dup3\n        /* \"#utility.yul\":21287:21354   */\n      tag_203\n      jump\t// in\n    tag_422:\n        /* \"#utility.yul\":21281:21285   */\n      dup7\n        /* \"#utility.yul\":21274:21355   */\n      sstore\n        /* \"#utility.yul\":21143:21365   */\n      pop\n        /* \"#utility.yul\":20478:21365   */\n      jump(tag_419)\n        /* \"#utility.yul\":20508:21126   */\n    tag_420:\n        /* \"#utility.yul\":20560:20564   */\n      0x1f\n        /* \"#utility.yul\":20556:20565   */\n      not\n        /* \"#utility.yul\":20548:20554   */\n      dup5\n        /* \"#utility.yul\":20544:20566   */\n      and\n        /* \"#utility.yul\":20594:20631   */\n      tag_423\n        /* \"#utility.yul\":20626:20630   */\n      dup7\n        /* \"#utility.yul\":20594:20631   */\n      tag_189\n      jump\t// in\n    tag_423:\n        /* \"#utility.yul\":20653:20654   */\n      0x00\n        /* \"#utility.yul\":20667:20875   */\n    tag_424:\n        /* \"#utility.yul\":20681:20688   */\n      dup3\n        /* \"#utility.yul\":20678:20679   */\n      dup2\n        /* \"#utility.yul\":20675:20689   */\n      lt\n        /* \"#utility.yul\":20667:20875   */\n      iszero\n      tag_426\n      jumpi\n        /* \"#utility.yul\":20760:20769   */\n      dup5\n        /* \"#utility.yul\":20755:20758   */\n      dup10\n        /* \"#utility.yul\":20751:20770   */\n      add\n        /* \"#utility.yul\":20745:20771   */\n      mload\n        /* \"#utility.yul\":20737:20743   */\n      dup3\n        /* \"#utility.yul\":20730:20772   */\n      sstore\n        /* \"#utility.yul\":20811:20812   */\n      0x01\n        /* \"#utility.yul\":20803:20809   */\n      dup3\n        /* \"#utility.yul\":20799:20813   */\n      add\n        /* \"#utility.yul\":20789:20813   */\n      swap2\n      pop\n        /* \"#utility.yul\":20858:20860   */\n      0x20\n        /* \"#utility.yul\":20847:20856   */\n      dup6\n        /* \"#utility.yul\":20843:20861   */\n      add\n        /* \"#utility.yul\":20830:20861   */\n      swap5\n      pop\n        /* \"#utility.yul\":20704:20708   */\n      0x20\n        /* \"#utility.yul\":20701:20702   */\n      dup2\n        /* \"#utility.yul\":20697:20709   */\n      add\n        /* \"#utility.yul\":20692:20709   */\n      swap1\n      pop\n        /* \"#utility.yul\":20667:20875   */\n      jump(tag_424)\n    tag_426:\n        /* \"#utility.yul\":20903:20909   */\n      dup7\n        /* \"#utility.yul\":20894:20901   */\n      dup4\n        /* \"#utility.yul\":20891:20910   */\n      lt\n        /* \"#utility.yul\":20888:21067   */\n      iszero\n      tag_427\n      jumpi\n        /* \"#utility.yul\":20961:20970   */\n      dup5\n        /* \"#utility.yul\":20956:20959   */\n      dup10\n        /* \"#utility.yul\":20952:20971   */\n      add\n        /* \"#utility.yul\":20946:20972   */\n      mload\n        /* \"#utility.yul\":21004:21052   */\n      tag_428\n        /* \"#utility.yul\":21046:21050   */\n      0x1f\n        /* \"#utility.yul\":21038:21044   */\n      dup10\n        /* \"#utility.yul\":21034:21051   */\n      and\n        /* \"#utility.yul\":21023:21032   */\n      dup3\n        /* \"#utility.yul\":21004:21052   */\n      tag_202\n      jump\t// in\n    tag_428:\n        /* \"#utility.yul\":20996:21002   */\n      dup4\n        /* \"#utility.yul\":20989:21053   */\n      sstore\n        /* \"#utility.yul\":20911:21067   */\n      pop\n        /* \"#utility.yul\":20888:21067   */\n    tag_427:\n        /* \"#utility.yul\":21113:21114   */\n      0x01\n        /* \"#utility.yul\":21109:21110   */\n      0x02\n        /* \"#utility.yul\":21101:21107   */\n      dup9\n        /* \"#utility.yul\":21097:21111   */\n      mul\n        /* \"#utility.yul\":21093:21115   */\n      add\n        /* \"#utility.yul\":21087:21091   */\n      dup9\n        /* \"#utility.yul\":21080:21116   */\n      sstore\n        /* \"#utility.yul\":20515:21126   */\n      pop\n      pop\n      pop\n        /* \"#utility.yul\":20478:21365   */\n    tag_419:\n      pop\n        /* \"#utility.yul\":20068:21371   */\n      pop\n      pop\n      pop\n        /* \"#utility.yul\":19976:21371   */\n      pop\n      pop\n      jump\t// out\n\n    auxdata: 0xa2646970667358221220df7d6f8f6a9ed3f6dc837b2b6097f53c7c2e458d832f06dde7f9a465444b644864736f6c63430008120033\n}\n",
				"bytecode": {
					"linkReferences": {},
					"object": "608060405234801561001057600080fd5b506117ee806100206000396000f3fe608060405234801561001057600080fd5b50600436106100ea5760003560e01c8063b88e318d1161008c578063de6f24bb11610066578063de6f24bb1461025b578063dedf1b4a14610277578063e8d857b0146102a7578063fb46d4c5146102da576100ea565b8063b88e318d14610207578063c4a85bc114610223578063d21d15961461023f576100ea565b80637c8965e0116100c85780637c8965e01461016f5780638823da6c1461019f57806399d147c2146101bb578063af22bf94146101d7576100ea565b80632637588e146100ef5780633befea091461011f5780634dbf27cc14610153575b600080fd5b61010960048036038101906101049190610ccc565b6102f6565b6040516101169190610d27565b60405180910390f35b61013960048036038101906101349190610d78565b610325565b60405161014a959493929190610e66565b60405180910390f35b61016d60048036038101906101689190610ec0565b610440565b005b61018960048036038101906101849190610eed565b61044d565b60405161019691906110a7565b60405180910390f35b6101b960048036038101906101b49190610ec0565b61060e565b005b6101d560048036038101906101d09190610ccc565b6106a6565b005b6101f160048036038101906101ec9190610d78565b6106b4565b6040516101fe91906110c9565b60405180910390f35b610221600480360381019061021c9190611219565b6106e5565b005b61023d60048036038101906102389190610ec0565b6106f5565b005b61025960048036038101906102549190611288565b61078d565b005b61027560048036038101906102709190611288565b61079b565b005b610291600480360381019061028c9190610d78565b6107aa565b60405161029e91906112e4565b60405180910390f35b6102c160048036038101906102bc9190610eed565b6107f8565b6040516102d194939291906112ff565b60405180910390f35b6102f460048036038101906102ef919061134b565b6108d0565b005b60036020528160005260406000206020528060005260406000206000915091509054906101000a900460ff1681565b6002602052816000526040600020818154811061034157600080fd5b9060005260206000209060050201600091509150508060000154908060010160009054906101000a900473ffffffffffffffffffffffffffffffffffffffff16908060020160009054906101000a900473ffffffffffffffffffffffffffffffffffffffff16908060030180546103b7906113c3565b80601f01602080910402602001604051908101604052809291908181526020018280546103e3906113c3565b80156104305780601f1061040557610100808354040283529160200191610430565b820191906000526020600020905b81548152906001019060200180831161041357829003601f168201915b5050505050908060040154905085565b61044a33826108dd565b50565b6060600082118015610460575060055482105b61049f576040517f08c379a000000000000000000000000000000000000000000000000000000000815260040161049690611440565b60405180910390fd5b606060005b8381101561060457600080826005546104bd919061148f565b8152602001908152602001600020604051806080016040529081600082015481526020016001820160009054906101000a900473ffffffffffffffffffffffffffffffffffffffff1673ffffffffffffffffffffffffffffffffffffffff1673ffffffffffffffffffffffffffffffffffffffff168152602001600282018054610546906113c3565b80601f0160208091040260200160405190810160405280929190818152602001828054610572906113c3565b80156105bf5780601f10610594576101008083540402835291602001916105bf565b820191906000526020600020905b8154815290600101906020018083116105a257829003601f168201915b50505050508152602001600382015481525050826000815181106105e6576105e56114c3565b5b602002602001018190525080806105fc906114f2565b9150506104a4565b5080915050919050565b6000600360003373ffffffffffffffffffffffffffffffffffffffff1673ffffffffffffffffffffffffffffffffffffffff16815260200190815260200160002060008373ffffffffffffffffffffffffffffffffffffffff1673ffffffffffffffffffffffffffffffffffffffff16815260200190815260200160002060006101000a81548160ff02191690831515021790555050565b6106b082826108dd565b5050565b600160205281600052604060002081815481106106d057600080fd5b90600052602060002001600091509150505481565b6106f0838383610981565b505050565b6001600360003373ffffffffffffffffffffffffffffffffffffffff1673ffffffffffffffffffffffffffffffffffffffff16815260200190815260200160002060008373ffffffffffffffffffffffffffffffffffffffff1673ffffffffffffffffffffffffffffffffffffffff16815260200190815260200160002060006101000a81548160ff02191690831515021790555050565b6107978282610b15565b5050565b6107a6338383610981565b5050565b600460205281600052604060002081815481106107c657600080fd5b906000526020600020016000915091509054906101000a900473ffffffffffffffffffffffffffffffffffffffff1681565b60006020528060005260406000206000915090508060000154908060010160009054906101000a900473ffffffffffffffffffffffffffffffffffffffff1690806002018054610847906113c3565b80601f0160208091040260200160405190810160405280929190818152602001828054610873906113c3565b80156108c05780601f10610895576101008083540402835291602001916108c0565b820191906000526020600020905b8154815290600101906020018083116108a357829003601f168201915b5050505050908060030154905084565b6108da3382610b15565b50565b600460008373ffffffffffffffffffffffffffffffffffffffff1673ffffffffffffffffffffffffffffffffffffffff168152602001908152602001600020819080600181540180825580915050600190039060005260206000200160009091909190916101000a81548173ffffffffffffffffffffffffffffffffffffffff021916908373ffffffffffffffffffffffffffffffffffffffff1602179055505050565b600260008473ffffffffffffffffffffffffffffffffffffffff1673ffffffffffffffffffffffffffffffffffffffff1681526020019081526020016000206040518060a0016040528060065481526020018573ffffffffffffffffffffffffffffffffffffffff1681526020018473ffffffffffffffffffffffffffffffffffffffff1681526020018381526020014281525090806001815401808255809150506001900390600052602060002090600502016000909190919091506000820151816000015560208201518160010160006101000a81548173ffffffffffffffffffffffffffffffffffffffff021916908373ffffffffffffffffffffffffffffffffffffffff16021790555060408201518160020160006101000a81548173ffffffffffffffffffffffffffffffffffffffff021916908373ffffffffffffffffffffffffffffffffffffffff1602179055506060820151816003019081610aeb91906116e6565b5060808201518160040155505060066000815480929190610b0b906114f2565b9190505550505050565b604051806080016040528060055481526020018373ffffffffffffffffffffffffffffffffffffffff1681526020018281526020014281525060008060055481526020019081526020016000206000820151816000015560208201518160010160006101000a81548173ffffffffffffffffffffffffffffffffffffffff021916908373ffffffffffffffffffffffffffffffffffffffff1602179055506040820151816002019081610bc891906116e6565b5060608201518160030155905050600160008373ffffffffffffffffffffffffffffffffffffffff1673ffffffffffffffffffffffffffffffffffffffff168152602001908152602001600020600554908060018154018082558091505060019003906000526020600020016000909190919091505560056000815480929190610c51906114f2565b91905055505050565b6000604051905090565b600080fd5b600080fd5b600073ffffffffffffffffffffffffffffffffffffffff82169050919050565b6000610c9982610c6e565b9050919050565b610ca981610c8e565b8114610cb457600080fd5b50565b600081359050610cc681610ca0565b92915050565b60008060408385031215610ce357610ce2610c64565b5b6000610cf185828601610cb7565b9250506020610d0285828601610cb7565b9150509250929050565b60008115159050919050565b610d2181610d0c565b82525050565b6000602082019050610d3c6000830184610d18565b92915050565b6000819050919050565b610d5581610d42565b8114610d6057600080fd5b50565b600081359050610d7281610d4c565b92915050565b60008060408385031215610d8f57610d8e610c64565b5b6000610d9d85828601610cb7565b9250506020610dae85828601610d63565b9150509250929050565b610dc181610d42565b82525050565b610dd081610c8e565b82525050565b600081519050919050565b600082825260208201905092915050565b60005b83811015610e10578082015181840152602081019050610df5565b60008484015250505050565b6000601f19601f8301169050919050565b6000610e3882610dd6565b610e428185610de1565b9350610e52818560208601610df2565b610e5b81610e1c565b840191505092915050565b600060a082019050610e7b6000830188610db8565b610e886020830187610dc7565b610e956040830186610dc7565b8181036060830152610ea78185610e2d565b9050610eb66080830184610db8565b9695505050505050565b600060208284031215610ed657610ed5610c64565b5b6000610ee484828501610cb7565b91505092915050565b600060208284031215610f0357610f02610c64565b5b6000610f1184828501610d63565b91505092915050565b600081519050919050565b600082825260208201905092915050565b6000819050602082019050919050565b610f4f81610d42565b82525050565b610f5e81610c8e565b82525050565b600082825260208201905092915050565b6000610f8082610dd6565b610f8a8185610f64565b9350610f9a818560208601610df2565b610fa381610e1c565b840191505092915050565b6000608083016000830151610fc66000860182610f46565b506020830151610fd96020860182610f55565b5060408301518482036040860152610ff18282610f75565b91505060608301516110066060860182610f46565b508091505092915050565b600061101d8383610fae565b905092915050565b6000602082019050919050565b600061103d82610f1a565b6110478185610f25565b93508360208202850161105985610f36565b8060005b8581101561109557848403895281516110768582611011565b945061108183611025565b925060208a0199505060018101905061105d565b50829750879550505050505092915050565b600060208201905081810360008301526110c18184611032565b905092915050565b60006020820190506110de6000830184610db8565b92915050565b600080fd5b600080fd5b7f4e487b7100000000000000000000000000000000000000000000000000000000600052604160045260246000fd5b61112682610e1c565b810181811067ffffffffffffffff82111715611145576111446110ee565b5b80604052505050565b6000611158610c5a565b9050611164828261111d565b919050565b600067ffffffffffffffff821115611184576111836110ee565b5b61118d82610e1c565b9050602081019050919050565b82818337600083830152505050565b60006111bc6111b784611169565b61114e565b9050828152602081018484840111156111d8576111d76110e9565b5b6111e384828561119a565b509392505050565b600082601f830112611200576111ff6110e4565b5b81356112108482602086016111a9565b91505092915050565b60008060006060848603121561123257611231610c64565b5b600061124086828701610cb7565b935050602061125186828701610cb7565b925050604084013567ffffffffffffffff81111561127257611271610c69565b5b61127e868287016111eb565b9150509250925092565b6000806040838503121561129f5761129e610c64565b5b60006112ad85828601610cb7565b925050602083013567ffffffffffffffff8111156112ce576112cd610c69565b5b6112da858286016111eb565b9150509250929050565b60006020820190506112f96000830184610dc7565b92915050565b60006080820190506113146000830187610db8565b6113216020830186610dc7565b81810360408301526113338185610e2d565b90506113426060830184610db8565b95945050505050565b60006020828403121561136157611360610c64565b5b600082013567ffffffffffffffff81111561137f5761137e610c69565b5b61138b848285016111eb565b91505092915050565b7f4e487b7100000000000000000000000000000000000000000000000000000000600052602260045260246000fd5b600060028204905060018216806113db57607f821691505b6020821081036113ee576113ed611394565b5b50919050565b7f636f756e74206f7574206f6620626f756e640000000000000000000000000000600082015250565b600061142a601283610de1565b9150611435826113f4565b602082019050919050565b600060208201905081810360008301526114598161141d565b9050919050565b7f4e487b7100000000000000000000000000000000000000000000000000000000600052601160045260246000fd5b600061149a82610d42565b91506114a583610d42565b92508282039050818111156114bd576114bc611460565b5b92915050565b7f4e487b7100000000000000000000000000000000000000000000000000000000600052603260045260246000fd5b60006114fd82610d42565b91507fffffffffffffffffffffffffffffffffffffffffffffffffffffffffffffffff820361152f5761152e611460565b5b600182019050919050565b60008190508160005260206000209050919050565b60006020601f8301049050919050565b600082821b905092915050565b60006008830261159c7fffffffffffffffffffffffffffffffffffffffffffffffffffffffffffffffff8261155f565b6115a6868361155f565b95508019841693508086168417925050509392505050565b6000819050919050565b60006115e36115de6115d984610d42565b6115be565b610d42565b9050919050565b6000819050919050565b6115fd836115c8565b611611611609826115ea565b84845461156c565b825550505050565b600090565b611626611619565b6116318184846115f4565b505050565b5b818110156116555761164a60008261161e565b600181019050611637565b5050565b601f82111561169a5761166b8161153a565b6116748461154f565b81016020851015611683578190505b61169761168f8561154f565b830182611636565b50505b505050565b600082821c905092915050565b60006116bd6000198460080261169f565b1980831691505092915050565b60006116d683836116ac565b9150826002028217905092915050565b6116ef82610dd6565b67ffffffffffffffff811115611708576117076110ee565b5b61171282546113c3565b61171d828285611659565b600060209050601f831160018114611750576000841561173e578287015190505b61174885826116ca565b8655506117b0565b601f19841661175e8661153a565b60005b8281101561178657848901518255600182019150602085019450602081019050611761565b868310156117a3578489015161179f601f8916826116ac565b8355505b6001600288020188555050505b50505050505056fea2646970667358221220df7d6f8f6a9ed3f6dc837b2b6097f53c7c2e458d832f06dde7f9a465444b644864736f6c63430008120033",
					"opcodes": "PUSH1 0x80 PUSH1 0x40 MSTORE CALLVALUE DUP1 ISZERO PUSH2 0x10 JUMPI PUSH1 0x0 DUP1 REVERT JUMPDEST POP PUSH2 0x17EE DUP1 PUSH2 0x20 PUSH1 0x0 CODECOPY PUSH1 0x0 RETURN INVALID PUSH1 0x80 PUSH1 0x40 MSTORE CALLVALUE DUP1 ISZERO PUSH2 0x10 JUMPI PUSH1 0x0 DUP1 REVERT JUMPDEST POP PUSH1 0x4 CALLDATASIZE LT PUSH2 0xEA JUMPI PUSH1 0x0 CALLDATALOAD PUSH1 0xE0 SHR DUP1 PUSH4 0xB88E318D GT PUSH2 0x8C JUMPI DUP1 PUSH4 0xDE6F24BB GT PUSH2 0x66 JUMPI DUP1 PUSH4 0xDE6F24BB EQ PUSH2 0x25B JUMPI DUP1 PUSH4 0xDEDF1B4A EQ PUSH2 0x277 JUMPI DUP1 PUSH4 0xE8D857B0 EQ PUSH2 0x2A7 JUMPI DUP1 PUSH4 0xFB46D4C5 EQ PUSH2 0x2DA JUMPI PUSH2 0xEA JUMP JUMPDEST DUP1 PUSH4 0xB88E318D EQ PUSH2 0x207 JUMPI DUP1 PUSH4 0xC4A85BC1 EQ PUSH2 0x223 JUMPI DUP1 PUSH4 0xD21D1596 EQ PUSH2 0x23F JUMPI PUSH2 0xEA JUMP JUMPDEST DUP1 PUSH4 0x7C8965E0 GT PUSH2 0xC8 JUMPI DUP1 PUSH4 0x7C8965E0 EQ PUSH2 0x16F JUMPI DUP1 PUSH4 0x8823DA6C EQ PUSH2 0x19F JUMPI DUP1 PUSH4 0x99D147C2 EQ PUSH2 0x1BB JUMPI DUP1 PUSH4 0xAF22BF94 EQ PUSH2 0x1D7 JUMPI PUSH2 0xEA JUMP JUMPDEST DUP1 PUSH4 0x2637588E EQ PUSH2 0xEF JUMPI DUP1 PUSH4 0x3BEFEA09 EQ PUSH2 0x11F JUMPI DUP1 PUSH4 0x4DBF27CC EQ PUSH2 0x153 JUMPI JUMPDEST PUSH1 0x0 DUP1 REVERT JUMPDEST PUSH2 0x109 PUSH1 0x4 DUP1 CALLDATASIZE SUB DUP2 ADD SWAP1 PUSH2 0x104 SWAP2 SWAP1 PUSH2 0xCCC JUMP JUMPDEST PUSH2 0x2F6 JUMP JUMPDEST PUSH1 0x40 MLOAD PUSH2 0x116 SWAP2 SWAP1 PUSH2 0xD27 JUMP JUMPDEST PUSH1 0x40 MLOAD DUP1 SWAP2 SUB SWAP1 RETURN JUMPDEST PUSH2 0x139 PUSH1 0x4 DUP1 CALLDATASIZE SUB DUP2 ADD SWAP1 PUSH2 0x134 SWAP2 SWAP1 PUSH2 0xD78 JUMP JUMPDEST PUSH2 0x325 JUMP JUMPDEST PUSH1 0x40 MLOAD PUSH2 0x14A SWAP6 SWAP5 SWAP4 SWAP3 SWAP2 SWAP1 PUSH2 0xE66 JUMP JUMPDEST PUSH1 0x40 MLOAD DUP1 SWAP2 SUB SWAP1 RETURN JUMPDEST PUSH2 0x16D PUSH1 0x4 DUP1 CALLDATASIZE SUB DUP2 ADD SWAP1 PUSH2 0x168 SWAP2 SWAP1 PUSH2 0xEC0 JUMP JUMPDEST PUSH2 0x440 JUMP JUMPDEST STOP JUMPDEST PUSH2 0x189 PUSH1 0x4 DUP1 CALLDATASIZE SUB DUP2 ADD SWAP1 PUSH2 0x184 SWAP2 SWAP1 PUSH2 0xEED JUMP JUMPDEST PUSH2 0x44D JUMP JUMPDEST PUSH1 0x40 MLOAD PUSH2 0x196 SWAP2 SWAP1 PUSH2 0x10A7 JUMP JUMPDEST PUSH1 0x40 MLOAD DUP1 SWAP2 SUB SWAP1 RETURN JUMPDEST PUSH2 0x1B9 PUSH1 0x4 DUP1 CALLDATASIZE SUB DUP2 ADD SWAP1 PUSH2 0x1B4 SWAP2 SWAP1 PUSH2 0xEC0 JUMP JUMPDEST PUSH2 0x60E JUMP JUMPDEST STOP JUMPDEST PUSH2 0x1D5 PUSH1 0x4 DUP1 CALLDATASIZE SUB DUP2 ADD SWAP1 PUSH2 0x1D0 SWAP2 SWAP1 PUSH2 0xCCC JUMP JUMPDEST PUSH2 0x6A6 JUMP JUMPDEST STOP JUMPDEST PUSH2 0x1F1 PUSH1 0x4 DUP1 CALLDATASIZE SUB DUP2 ADD SWAP1 PUSH2 0x1EC SWAP2 SWAP1 PUSH2 0xD78 JUMP JUMPDEST PUSH2 0x6B4 JUMP JUMPDEST PUSH1 0x40 MLOAD PUSH2 0x1FE SWAP2 SWAP1 PUSH2 0x10C9 JUMP JUMPDEST PUSH1 0x40 MLOAD DUP1 SWAP2 SUB SWAP1 RETURN JUMPDEST PUSH2 0x221 PUSH1 0x4 DUP1 CALLDATASIZE SUB DUP2 ADD SWAP1 PUSH2 0x21C SWAP2 SWAP1 PUSH2 0x1219 JUMP JUMPDEST PUSH2 0x6E5 JUMP JUMPDEST STOP JUMPDEST PUSH2 0x23D PUSH1 0x4 DUP1 CALLDATASIZE SUB DUP2 ADD SWAP1 PUSH2 0x238 SWAP2 SWAP1 PUSH2 0xEC0 JUMP JUMPDEST PUSH2 0x6F5 JUMP JUMPDEST STOP JUMPDEST PUSH2 0x259 PUSH1 0x4 DUP1 CALLDATASIZE SUB DUP2 ADD SWAP1 PUSH2 0x254 SWAP2 SWAP1 PUSH2 0x1288 JUMP JUMPDEST PUSH2 0x78D JUMP JUMPDEST STOP JUMPDEST PUSH2 0x275 PUSH1 0x4 DUP1 CALLDATASIZE SUB DUP2 ADD SWAP1 PUSH2 0x270 SWAP2 SWAP1 PUSH2 0x1288 JUMP JUMPDEST PUSH2 0x79B JUMP JUMPDEST STOP JUMPDEST PUSH2 0x291 PUSH1 0x4 DUP1 CALLDATASIZE SUB DUP2 ADD SWAP1 PUSH2 0x28C SWAP2 SWAP1 PUSH2 0xD78 JUMP JUMPDEST PUSH2 0x7AA JUMP JUMPDEST PUSH1 0x40 MLOAD PUSH2 0x29E SWAP2 SWAP1 PUSH2 0x12E4 JUMP JUMPDEST PUSH1 0x40 MLOAD DUP1 SWAP2 SUB SWAP1 RETURN JUMPDEST PUSH2 0x2C1 PUSH1 0x4 DUP1 CALLDATASIZE SUB DUP2 ADD SWAP1 PUSH2 0x2BC SWAP2 SWAP1 PUSH2 0xEED JUMP JUMPDEST PUSH2 0x7F8 JUMP JUMPDEST PUSH1 0x40 MLOAD PUSH2 0x2D1 SWAP5 SWAP4 SWAP3 SWAP2 SWAP1 PUSH2 0x12FF JUMP JUMPDEST PUSH1 0x40 MLOAD DUP1 SWAP2 SUB SWAP1 RETURN JUMPDEST PUSH2 0x2F4 PUSH1 0x4 DUP1 CALLDATASIZE SUB DUP2 ADD SWAP1 PUSH2 0x2EF SWAP2 SWAP1 PUSH2 0x134B JUMP JUMPDEST PUSH2 0x8D0 JUMP JUMPDEST STOP JUMPDEST PUSH1 0x3 PUSH1 0x20 MSTORE DUP2 PUSH1 0x0 MSTORE PUSH1 0x40 PUSH1 0x0 KECCAK256 PUSH1 0x20 MSTORE DUP1 PUSH1 0x0 MSTORE PUSH1 0x40 PUSH1 0x0 KECCAK256 PUSH1 0x0 SWAP2 POP SWAP2 POP SWAP1 SLOAD SWAP1 PUSH2 0x100 EXP SWAP1 DIV PUSH1 0xFF AND DUP2 JUMP JUMPDEST PUSH1 0x2 PUSH1 0x20 MSTORE DUP2 PUSH1 0x0 MSTORE PUSH1 0x40 PUSH1 0x0 KECCAK256 DUP2 DUP2 SLOAD DUP2 LT PUSH2 0x341 JUMPI PUSH1 0x0 DUP1 REVERT JUMPDEST SWAP1 PUSH1 0x0 MSTORE PUSH1 0x20 PUSH1 0x0 KECCAK256 SWAP1 PUSH1 0x5 MUL ADD PUSH1 0x0 SWAP2 POP SWAP2 POP POP DUP1 PUSH1 0x0 ADD SLOAD SWAP1 DUP1 PUSH1 0x1 ADD PUSH1 0x0 SWAP1 SLOAD SWAP1 PUSH2 0x100 EXP SWAP1 DIV PUSH20 0xFFFFFFFFFFFFFFFFFFFFFFFFFFFFFFFFFFFFFFFF AND SWAP1 DUP1 PUSH1 0x2 ADD PUSH1 0x0 SWAP1 SLOAD SWAP1 PUSH2 0x100 EXP SWAP1 DIV PUSH20 0xFFFFFFFFFFFFFFFFFFFFFFFFFFFFFFFFFFFFFFFF AND SWAP1 DUP1 PUSH1 0x3 ADD DUP1 SLOAD PUSH2 0x3B7 SWAP1 PUSH2 0x13C3 JUMP JUMPDEST DUP1 PUSH1 0x1F ADD PUSH1 0x20 DUP1 SWAP2 DIV MUL PUSH1 0x20 ADD PUSH1 0x40 MLOAD SWAP1 DUP2 ADD PUSH1 0x40 MSTORE DUP1 SWAP3 SWAP2 SWAP1 DUP2 DUP2 MSTORE PUSH1 0x20 ADD DUP3 DUP1 SLOAD PUSH2 0x3E3 SWAP1 PUSH2 0x13C3 JUMP JUMPDEST DUP1 ISZERO PUSH2 0x430 JUMPI DUP1 PUSH1 0x1F LT PUSH2 0x405 JUMPI PUSH2 0x100 DUP1 DUP4 SLOAD DIV MUL DUP4 MSTORE SWAP2 PUSH1 0x20 ADD SWAP2 PUSH2 0x430 JUMP JUMPDEST DUP3 ADD SWAP2 SWAP1 PUSH1 0x0 MSTORE PUSH1 0x20 PUSH1 0x0 KECCAK256 SWAP1 JUMPDEST DUP2 SLOAD DUP2 MSTORE SWAP1 PUSH1 0x1 ADD SWAP1 PUSH1 0x20 ADD DUP1 DUP4 GT PUSH2 0x413 JUMPI DUP3 SWAP1 SUB PUSH1 0x1F AND DUP3 ADD SWAP2 JUMPDEST POP POP POP POP POP SWAP1 DUP1 PUSH1 0x4 ADD SLOAD SWAP1 POP DUP6 JUMP JUMPDEST PUSH2 0x44A CALLER DUP3 PUSH2 0x8DD JUMP JUMPDEST POP JUMP JUMPDEST PUSH1 0x60 PUSH1 0x0 DUP3 GT DUP1 ISZERO PUSH2 0x460 JUMPI POP PUSH1 0x5 SLOAD DUP3 LT JUMPDEST PUSH2 0x49F JUMPI PUSH1 0x40 MLOAD PUSH32 0x8C379A000000000000000000000000000000000000000000000000000000000 DUP2 MSTORE PUSH1 0x4 ADD PUSH2 0x496 SWAP1 PUSH2 0x1440 JUMP JUMPDEST PUSH1 0x40 MLOAD DUP1 SWAP2 SUB SWAP1 REVERT JUMPDEST PUSH1 0x60 PUSH1 0x0 JUMPDEST DUP4 DUP2 LT ISZERO PUSH2 0x604 JUMPI PUSH1 0x0 DUP1 DUP3 PUSH1 0x5 SLOAD PUSH2 0x4BD SWAP2 SWAP1 PUSH2 0x148F JUMP JUMPDEST DUP2 MSTORE PUSH1 0x20 ADD SWAP1 DUP2 MSTORE PUSH1 0x20 ADD PUSH1 0x0 KECCAK256 PUSH1 0x40 MLOAD DUP1 PUSH1 0x80 ADD PUSH1 0x40 MSTORE SWAP1 DUP2 PUSH1 0x0 DUP3 ADD SLOAD DUP2 MSTORE PUSH1 0x20 ADD PUSH1 0x1 DUP3 ADD PUSH1 0x0 SWAP1 SLOAD SWAP1 PUSH2 0x100 EXP SWAP1 DIV PUSH20 0xFFFFFFFFFFFFFFFFFFFFFFFFFFFFFFFFFFFFFFFF AND PUSH20 0xFFFFFFFFFFFFFFFFFFFFFFFFFFFFFFFFFFFFFFFF AND PUSH20 0xFFFFFFFFFFFFFFFFFFFFFFFFFFFFFFFFFFFFFFFF AND DUP2 MSTORE PUSH1 0x20 ADD PUSH1 0x2 DUP3 ADD DUP1 SLOAD PUSH2 0x546 SWAP1 PUSH2 0x13C3 JUMP JUMPDEST DUP1 PUSH1 0x1F ADD PUSH1 0x20 DUP1 SWAP2 DIV MUL PUSH1 0x20 ADD PUSH1 0x40 MLOAD SWAP1 DUP2 ADD PUSH1 0x40 MSTORE DUP1 SWAP3 SWAP2 SWAP1 DUP2 DUP2 MSTORE PUSH1 0x20 ADD DUP3 DUP1 SLOAD PUSH2 0x572 SWAP1 PUSH2 0x13C3 JUMP JUMPDEST DUP1 ISZERO PUSH2 0x5BF JUMPI DUP1 PUSH1 0x1F LT PUSH2 0x594 JUMPI PUSH2 0x100 DUP1 DUP4 SLOAD DIV MUL DUP4 MSTORE SWAP2 PUSH1 0x20 ADD SWAP2 PUSH2 0x5BF JUMP JUMPDEST DUP3 ADD SWAP2 SWAP1 PUSH1 0x0 MSTORE PUSH1 0x20 PUSH1 0x0 KECCAK256 SWAP1 JUMPDEST DUP2 SLOAD DUP2 MSTORE SWAP1 PUSH1 0x1 ADD SWAP1 PUSH1 0x20 ADD DUP1 DUP4 GT PUSH2 0x5A2 JUMPI DUP3 SWAP1 SUB PUSH1 0x1F AND DUP3 ADD SWAP2 JUMPDEST POP POP POP POP POP DUP2 MSTORE PUSH1 0x20 ADD PUSH1 0x3 DUP3 ADD SLOAD DUP2 MSTORE POP POP DUP3 PUSH1 0x0 DUP2 MLOAD DUP2 LT PUSH2 0x5E6 JUMPI PUSH2 0x5E5 PUSH2 0x14C3 JUMP JUMPDEST JUMPDEST PUSH1 0x20 MUL PUSH1 0x20 ADD ADD DUP2 SWAP1 MSTORE POP DUP1 DUP1 PUSH2 0x5FC SWAP1 PUSH2 0x14F2 JUMP JUMPDEST SWAP2 POP POP PUSH2 0x4A4 JUMP JUMPDEST POP DUP1 SWAP2 POP POP SWAP2 SWAP1 POP JUMP JUMPDEST PUSH1 0x0 PUSH1 0x3 PUSH1 0x0 CALLER PUSH20 0xFFFFFFFFFFFFFFFFFFFFFFFFFFFFFFFFFFFFFFFF AND PUSH20 0xFFFFFFFFFFFFFFFFFFFFFFFFFFFFFFFFFFFFFFFF AND DUP2 MSTORE PUSH1 0x20 ADD SWAP1 DUP2 MSTORE PUSH1 0x20 ADD PUSH1 0x0 KECCAK256 PUSH1 0x0 DUP4 PUSH20 0xFFFFFFFFFFFFFFFFFFFFFFFFFFFFFFFFFFFFFFFF AND PUSH20 0xFFFFFFFFFFFFFFFFFFFFFFFFFFFFFFFFFFFFFFFF AND DUP2 MSTORE PUSH1 0x20 ADD SWAP1 DUP2 MSTORE PUSH1 0x20 ADD PUSH1 0x0 KECCAK256 PUSH1 0x0 PUSH2 0x100 EXP DUP2 SLOAD DUP2 PUSH1 0xFF MUL NOT AND SWAP1 DUP4 ISZERO ISZERO MUL OR SWAP1 SSTORE POP POP JUMP JUMPDEST PUSH2 0x6B0 DUP3 DUP3 PUSH2 0x8DD JUMP JUMPDEST POP POP JUMP JUMPDEST PUSH1 0x1 PUSH1 0x20 MSTORE DUP2 PUSH1 0x0 MSTORE PUSH1 0x40 PUSH1 0x0 KECCAK256 DUP2 DUP2 SLOAD DUP2 LT PUSH2 0x6D0 JUMPI PUSH1 0x0 DUP1 REVERT JUMPDEST SWAP1 PUSH1 0x0 MSTORE PUSH1 0x20 PUSH1 0x0 KECCAK256 ADD PUSH1 0x0 SWAP2 POP SWAP2 POP POP SLOAD DUP2 JUMP JUMPDEST PUSH2 0x6F0 DUP4 DUP4 DUP4 PUSH2 0x981 JUMP JUMPDEST POP POP POP JUMP JUMPDEST PUSH1 0x1 PUSH1 0x3 PUSH1 0x0 CALLER PUSH20 0xFFFFFFFFFFFFFFFFFFFFFFFFFFFFFFFFFFFFFFFF AND PUSH20 0xFFFFFFFFFFFFFFFFFFFFFFFFFFFFFFFFFFFFFFFF AND DUP2 MSTORE PUSH1 0x20 ADD SWAP1 DUP2 MSTORE PUSH1 0x20 ADD PUSH1 0x0 KECCAK256 PUSH1 0x0 DUP4 PUSH20 0xFFFFFFFFFFFFFFFFFFFFFFFFFFFFFFFFFFFFFFFF AND PUSH20 0xFFFFFFFFFFFFFFFFFFFFFFFFFFFFFFFFFFFFFFFF AND DUP2 MSTORE PUSH1 0x20 ADD SWAP1 DUP2 MSTORE PUSH1 0x20 ADD PUSH1 0x0 KECCAK256 PUSH1 0x0 PUSH2 0x100 EXP DUP2 SLOAD DUP2 PUSH1 0xFF MUL NOT AND SWAP1 DUP4 ISZERO ISZERO MUL OR SWAP1 SSTORE POP POP JUMP JUMPDEST PUSH2 0x797 DUP3 DUP3 PUSH2 0xB15 JUMP JUMPDEST POP POP JUMP JUMPDEST PUSH2 0x7A6 CALLER DUP4 DUP4 PUSH2 0x981 JUMP JUMPDEST POP POP JUMP JUMPDEST PUSH1 0x4 PUSH1 0x20 MSTORE DUP2 PUSH1 0x0 MSTORE PUSH1 0x40 PUSH1 0x0 KECCAK256 DUP2 DUP2 SLOAD DUP2 LT PUSH2 0x7C6 JUMPI PUSH1 0x0 DUP1 REVERT JUMPDEST SWAP1 PUSH1 0x0 MSTORE PUSH1 0x20 PUSH1 0x0 KECCAK256 ADD PUSH1 0x0 SWAP2 POP SWAP2 POP SWAP1 SLOAD SWAP1 PUSH2 0x100 EXP SWAP1 DIV PUSH20 0xFFFFFFFFFFFFFFFFFFFFFFFFFFFFFFFFFFFFFFFF AND DUP2 JUMP JUMPDEST PUSH1 0x0 PUSH1 0x20 MSTORE DUP1 PUSH1 0x0 MSTORE PUSH1 0x40 PUSH1 0x0 KECCAK256 PUSH1 0x0 SWAP2 POP SWAP1 POP DUP1 PUSH1 0x0 ADD SLOAD SWAP1 DUP1 PUSH1 0x1 ADD PUSH1 0x0 SWAP1 SLOAD SWAP1 PUSH2 0x100 EXP SWAP1 DIV PUSH20 0xFFFFFFFFFFFFFFFFFFFFFFFFFFFFFFFFFFFFFFFF AND SWAP1 DUP1 PUSH1 0x2 ADD DUP1 SLOAD PUSH2 0x847 SWAP1 PUSH2 0x13C3 JUMP JUMPDEST DUP1 PUSH1 0x1F ADD PUSH1 0x20 DUP1 SWAP2 DIV MUL PUSH1 0x20 ADD PUSH1 0x40 MLOAD SWAP1 DUP2 ADD PUSH1 0x40 MSTORE DUP1 SWAP3 SWAP2 SWAP1 DUP2 DUP2 MSTORE PUSH1 0x20 ADD DUP3 DUP1 SLOAD PUSH2 0x873 SWAP1 PUSH2 0x13C3 JUMP JUMPDEST DUP1 ISZERO PUSH2 0x8C0 JUMPI DUP1 PUSH1 0x1F LT PUSH2 0x895 JUMPI PUSH2 0x100 DUP1 DUP4 SLOAD DIV MUL DUP4 MSTORE SWAP2 PUSH1 0x20 ADD SWAP2 PUSH2 0x8C0 JUMP JUMPDEST DUP3 ADD SWAP2 SWAP1 PUSH1 0x0 MSTORE PUSH1 0x20 PUSH1 0x0 KECCAK256 SWAP1 JUMPDEST DUP2 SLOAD DUP2 MSTORE SWAP1 PUSH1 0x1 ADD SWAP1 PUSH1 0x20 ADD DUP1 DUP4 GT PUSH2 0x8A3 JUMPI DUP3 SWAP1 SUB PUSH1 0x1F AND DUP3 ADD SWAP2 JUMPDEST POP POP POP POP POP SWAP1 DUP1 PUSH1 0x3 ADD SLOAD SWAP1 POP DUP5 JUMP JUMPDEST PUSH2 0x8DA CALLER DUP3 PUSH2 0xB15 JUMP JUMPDEST POP JUMP JUMPDEST PUSH1 0x4 PUSH1 0x0 DUP4 PUSH20 0xFFFFFFFFFFFFFFFFFFFFFFFFFFFFFFFFFFFFFFFF AND PUSH20 0xFFFFFFFFFFFFFFFFFFFFFFFFFFFFFFFFFFFFFFFF AND DUP2 MSTORE PUSH1 0x20 ADD SWAP1 DUP2 MSTORE PUSH1 0x20 ADD PUSH1 0x0 KECCAK256 DUP2 SWAP1 DUP1 PUSH1 0x1 DUP2 SLOAD ADD DUP1 DUP3 SSTORE DUP1 SWAP2 POP POP PUSH1 0x1 SWAP1 SUB SWAP1 PUSH1 0x0 MSTORE PUSH1 0x20 PUSH1 0x0 KECCAK256 ADD PUSH1 0x0 SWAP1 SWAP2 SWAP1 SWAP2 SWAP1 SWAP2 PUSH2 0x100 EXP DUP2 SLOAD DUP2 PUSH20 0xFFFFFFFFFFFFFFFFFFFFFFFFFFFFFFFFFFFFFFFF MUL NOT AND SWAP1 DUP4 PUSH20 0xFFFFFFFFFFFFFFFFFFFFFFFFFFFFFFFFFFFFFFFF AND MUL OR SWAP1 SSTORE POP POP POP JUMP JUMPDEST PUSH1 0x2 PUSH1 0x0 DUP5 PUSH20 0xFFFFFFFFFFFFFFFFFFFFFFFFFFFFFFFFFFFFFFFF AND PUSH20 0xFFFFFFFFFFFFFFFFFFFFFFFFFFFFFFFFFFFFFFFF AND DUP2 MSTORE PUSH1 0x20 ADD SWAP1 DUP2 MSTORE PUSH1 0x20 ADD PUSH1 0x0 KECCAK256 PUSH1 0x40 MLOAD DUP1 PUSH1 0xA0 ADD PUSH1 0x40 MSTORE DUP1 PUSH1 0x6 SLOAD DUP2 MSTORE PUSH1 0x20 ADD DUP6 PUSH20 0xFFFFFFFFFFFFFFFFFFFFFFFFFFFFFFFFFFFFFFFF AND DUP2 MSTORE PUSH1 0x20 ADD DUP5 PUSH20 0xFFFFFFFFFFFFFFFFFFFFFFFFFFFFFFFFFFFFFFFF AND DUP2 MSTORE PUSH1 0x20 ADD DUP4 DUP2 MSTORE PUSH1 0x20 ADD TIMESTAMP DUP2 MSTORE POP SWAP1 DUP1 PUSH1 0x1 DUP2 SLOAD ADD DUP1 DUP3 SSTORE DUP1 SWAP2 POP POP PUSH1 0x1 SWAP1 SUB SWAP1 PUSH1 0x0 MSTORE PUSH1 0x20 PUSH1 0x0 KECCAK256 SWAP1 PUSH1 0x5 MUL ADD PUSH1 0x0 SWAP1 SWAP2 SWAP1 SWAP2 SWAP1 SWAP2 POP PUSH1 0x0 DUP3 ADD MLOAD DUP2 PUSH1 0x0 ADD SSTORE PUSH1 0x20 DUP3 ADD MLOAD DUP2 PUSH1 0x1 ADD PUSH1 0x0 PUSH2 0x100 EXP DUP2 SLOAD DUP2 PUSH20 0xFFFFFFFFFFFFFFFFFFFFFFFFFFFFFFFFFFFFFFFF MUL NOT AND SWAP1 DUP4 PUSH20 0xFFFFFFFFFFFFFFFFFFFFFFFFFFFFFFFFFFFFFFFF AND MUL OR SWAP1 SSTORE POP PUSH1 0x40 DUP3 ADD MLOAD DUP2 PUSH1 0x2 ADD PUSH1 0x0 PUSH2 0x100 EXP DUP2 SLOAD DUP2 PUSH20 0xFFFFFFFFFFFFFFFFFFFFFFFFFFFFFFFFFFFFFFFF MUL NOT AND SWAP1 DUP4 PUSH20 0xFFFFFFFFFFFFFFFFFFFFFFFFFFFFFFFFFFFFFFFF AND MUL OR SWAP1 SSTORE POP PUSH1 0x60 DUP3 ADD MLOAD DUP2 PUSH1 0x3 ADD SWAP1 DUP2 PUSH2 0xAEB SWAP2 SWAP1 PUSH2 0x16E6 JUMP JUMPDEST POP PUSH1 0x80 DUP3 ADD MLOAD DUP2 PUSH1 0x4 ADD SSTORE POP POP PUSH1 0x6 PUSH1 0x0 DUP2 SLOAD DUP1 SWAP3 SWAP2 SWAP1 PUSH2 0xB0B SWAP1 PUSH2 0x14F2 JUMP JUMPDEST SWAP2 SWAP1 POP SSTORE POP POP POP POP JUMP JUMPDEST PUSH1 0x40 MLOAD DUP1 PUSH1 0x80 ADD PUSH1 0x40 MSTORE DUP1 PUSH1 0x5 SLOAD DUP2 MSTORE PUSH1 0x20 ADD DUP4 PUSH20 0xFFFFFFFFFFFFFFFFFFFFFFFFFFFFFFFFFFFFFFFF AND DUP2 MSTORE PUSH1 0x20 ADD DUP3 DUP2 MSTORE PUSH1 0x20 ADD TIMESTAMP DUP2 MSTORE POP PUSH1 0x0 DUP1 PUSH1 0x5 SLOAD DUP2 MSTORE PUSH1 0x20 ADD SWAP1 DUP2 MSTORE PUSH1 0x20 ADD PUSH1 0x0 KECCAK256 PUSH1 0x0 DUP3 ADD MLOAD DUP2 PUSH1 0x0 ADD SSTORE PUSH1 0x20 DUP3 ADD MLOAD DUP2 PUSH1 0x1 ADD PUSH1 0x0 PUSH2 0x100 EXP DUP2 SLOAD DUP2 PUSH20 0xFFFFFFFFFFFFFFFFFFFFFFFFFFFFFFFFFFFFFFFF MUL NOT AND SWAP1 DUP4 PUSH20 0xFFFFFFFFFFFFFFFFFFFFFFFFFFFFFFFFFFFFFFFF AND MUL OR SWAP1 SSTORE POP PUSH1 0x40 DUP3 ADD MLOAD DUP2 PUSH1 0x2 ADD SWAP1 DUP2 PUSH2 0xBC8 SWAP2 SWAP1 PUSH2 0x16E6 JUMP JUMPDEST POP PUSH1 0x60 DUP3 ADD MLOAD DUP2 PUSH1 0x3 ADD SSTORE SWAP1 POP POP PUSH1 0x1 PUSH1 0x0 DUP4 PUSH20 0xFFFFFFFFFFFFFFFFFFFFFFFFFFFFFFFFFFFFFFFF AND PUSH20 0xFFFFFFFFFFFFFFFFFFFFFFFFFFFFFFFFFFFFFFFF AND DUP2 MSTORE PUSH1 0x20 ADD SWAP1 DUP2 MSTORE PUSH1 0x20 ADD PUSH1 0x0 KECCAK256 PUSH1 0x5 SLOAD SWAP1 DUP1 PUSH1 0x1 DUP2 SLOAD ADD DUP1 DUP3 SSTORE DUP1 SWAP2 POP POP PUSH1 0x1 SWAP1 SUB SWAP1 PUSH1 0x0 MSTORE PUSH1 0x20 PUSH1 0x0 KECCAK256 ADD PUSH1 0x0 SWAP1 SWAP2 SWAP1 SWAP2 SWAP1 SWAP2 POP SSTORE PUSH1 0x5 PUSH1 0x0 DUP2 SLOAD DUP1 SWAP3 SWAP2 SWAP1 PUSH2 0xC51 SWAP1 PUSH2 0x14F2 JUMP JUMPDEST SWAP2 SWAP1 POP SSTORE POP POP POP JUMP JUMPDEST PUSH1 0x0 PUSH1 0x40 MLOAD SWAP1 POP SWAP1 JUMP JUMPDEST PUSH1 0x0 DUP1 REVERT JUMPDEST PUSH1 0x0 DUP1 REVERT JUMPDEST PUSH1 0x0 PUSH20 0xFFFFFFFFFFFFFFFFFFFFFFFFFFFFFFFFFFFFFFFF DUP3 AND SWAP1 POP SWAP2 SWAP1 POP JUMP JUMPDEST PUSH1 0x0 PUSH2 0xC99 DUP3 PUSH2 0xC6E JUMP JUMPDEST SWAP1 POP SWAP2 SWAP1 POP JUMP JUMPDEST PUSH2 0xCA9 DUP2 PUSH2 0xC8E JUMP JUMPDEST DUP2 EQ PUSH2 0xCB4 JUMPI PUSH1 0x0 DUP1 REVERT JUMPDEST POP JUMP JUMPDEST PUSH1 0x0 DUP2 CALLDATALOAD SWAP1 POP PUSH2 0xCC6 DUP2 PUSH2 0xCA0 JUMP JUMPDEST SWAP3 SWAP2 POP POP JUMP JUMPDEST PUSH1 0x0 DUP1 PUSH1 0x40 DUP4 DUP6 SUB SLT ISZERO PUSH2 0xCE3 JUMPI PUSH2 0xCE2 PUSH2 0xC64 JUMP JUMPDEST JUMPDEST PUSH1 0x0 PUSH2 0xCF1 DUP6 DUP3 DUP7 ADD PUSH2 0xCB7 JUMP JUMPDEST SWAP3 POP POP PUSH1 0x20 PUSH2 0xD02 DUP6 DUP3 DUP7 ADD PUSH2 0xCB7 JUMP JUMPDEST SWAP2 POP POP SWAP3 POP SWAP3 SWAP1 POP JUMP JUMPDEST PUSH1 0x0 DUP2 ISZERO ISZERO SWAP1 POP SWAP2 SWAP1 POP JUMP JUMPDEST PUSH2 0xD21 DUP2 PUSH2 0xD0C JUMP JUMPDEST DUP3 MSTORE POP POP JUMP JUMPDEST PUSH1 0x0 PUSH1 0x20 DUP3 ADD SWAP1 POP PUSH2 0xD3C PUSH1 0x0 DUP4 ADD DUP5 PUSH2 0xD18 JUMP JUMPDEST SWAP3 SWAP2 POP POP JUMP JUMPDEST PUSH1 0x0 DUP2 SWAP1 POP SWAP2 SWAP1 POP JUMP JUMPDEST PUSH2 0xD55 DUP2 PUSH2 0xD42 JUMP JUMPDEST DUP2 EQ PUSH2 0xD60 JUMPI PUSH1 0x0 DUP1 REVERT JUMPDEST POP JUMP JUMPDEST PUSH1 0x0 DUP2 CALLDATALOAD SWAP1 POP PUSH2 0xD72 DUP2 PUSH2 0xD4C JUMP JUMPDEST SWAP3 SWAP2 POP POP JUMP JUMPDEST PUSH1 0x0 DUP1 PUSH1 0x40 DUP4 DUP6 SUB SLT ISZERO PUSH2 0xD8F JUMPI PUSH2 0xD8E PUSH2 0xC64 JUMP JUMPDEST JUMPDEST PUSH1 0x0 PUSH2 0xD9D DUP6 DUP3 DUP7 ADD PUSH2 0xCB7 JUMP JUMPDEST SWAP3 POP POP PUSH1 0x20 PUSH2 0xDAE DUP6 DUP3 DUP7 ADD PUSH2 0xD63 JUMP JUMPDEST SWAP2 POP POP SWAP3 POP SWAP3 SWAP1 POP JUMP JUMPDEST PUSH2 0xDC1 DUP2 PUSH2 0xD42 JUMP JUMPDEST DUP3 MSTORE POP POP JUMP JUMPDEST PUSH2 0xDD0 DUP2 PUSH2 0xC8E JUMP JUMPDEST DUP3 MSTORE POP POP JUMP JUMPDEST PUSH1 0x0 DUP2 MLOAD SWAP1 POP SWAP2 SWAP1 POP JUMP JUMPDEST PUSH1 0x0 DUP3 DUP3 MSTORE PUSH1 0x20 DUP3 ADD SWAP1 POP SWAP3 SWAP2 POP POP JUMP JUMPDEST PUSH1 0x0 JUMPDEST DUP4 DUP2 LT ISZERO PUSH2 0xE10 JUMPI DUP1 DUP3 ADD MLOAD DUP2 DUP5 ADD MSTORE PUSH1 0x20 DUP2 ADD SWAP1 POP PUSH2 0xDF5 JUMP JUMPDEST PUSH1 0x0 DUP5 DUP5 ADD MSTORE POP POP POP POP JUMP JUMPDEST PUSH1 0x0 PUSH1 0x1F NOT PUSH1 0x1F DUP4 ADD AND SWAP1 POP SWAP2 SWAP1 POP JUMP JUMPDEST PUSH1 0x0 PUSH2 0xE38 DUP3 PUSH2 0xDD6 JUMP JUMPDEST PUSH2 0xE42 DUP2 DUP6 PUSH2 0xDE1 JUMP JUMPDEST SWAP4 POP PUSH2 0xE52 DUP2 DUP6 PUSH1 0x20 DUP7 ADD PUSH2 0xDF2 JUMP JUMPDEST PUSH2 0xE5B DUP2 PUSH2 0xE1C JUMP JUMPDEST DUP5 ADD SWAP2 POP POP SWAP3 SWAP2 POP POP JUMP JUMPDEST PUSH1 0x0 PUSH1 0xA0 DUP3 ADD SWAP1 POP PUSH2 0xE7B PUSH1 0x0 DUP4 ADD DUP9 PUSH2 0xDB8 JUMP JUMPDEST PUSH2 0xE88 PUSH1 0x20 DUP4 ADD DUP8 PUSH2 0xDC7 JUMP JUMPDEST PUSH2 0xE95 PUSH1 0x40 DUP4 ADD DUP7 PUSH2 0xDC7 JUMP JUMPDEST DUP2 DUP2 SUB PUSH1 0x60 DUP4 ADD MSTORE PUSH2 0xEA7 DUP2 DUP6 PUSH2 0xE2D JUMP JUMPDEST SWAP1 POP PUSH2 0xEB6 PUSH1 0x80 DUP4 ADD DUP5 PUSH2 0xDB8 JUMP JUMPDEST SWAP7 SWAP6 POP POP POP POP POP POP JUMP JUMPDEST PUSH1 0x0 PUSH1 0x20 DUP3 DUP5 SUB SLT ISZERO PUSH2 0xED6 JUMPI PUSH2 0xED5 PUSH2 0xC64 JUMP JUMPDEST JUMPDEST PUSH1 0x0 PUSH2 0xEE4 DUP5 DUP3 DUP6 ADD PUSH2 0xCB7 JUMP JUMPDEST SWAP2 POP POP SWAP3 SWAP2 POP POP JUMP JUMPDEST PUSH1 0x0 PUSH1 0x20 DUP3 DUP5 SUB SLT ISZERO PUSH2 0xF03 JUMPI PUSH2 0xF02 PUSH2 0xC64 JUMP JUMPDEST JUMPDEST PUSH1 0x0 PUSH2 0xF11 DUP5 DUP3 DUP6 ADD PUSH2 0xD63 JUMP JUMPDEST SWAP2 POP POP SWAP3 SWAP2 POP POP JUMP JUMPDEST PUSH1 0x0 DUP2 MLOAD SWAP1 POP SWAP2 SWAP1 POP JUMP JUMPDEST PUSH1 0x0 DUP3 DUP3 MSTORE PUSH1 0x20 DUP3 ADD SWAP1 POP SWAP3 SWAP2 POP POP JUMP JUMPDEST PUSH1 0x0 DUP2 SWAP1 POP PUSH1 0x20 DUP3 ADD SWAP1 POP SWAP2 SWAP1 POP JUMP JUMPDEST PUSH2 0xF4F DUP2 PUSH2 0xD42 JUMP JUMPDEST DUP3 MSTORE POP POP JUMP JUMPDEST PUSH2 0xF5E DUP2 PUSH2 0xC8E JUMP JUMPDEST DUP3 MSTORE POP POP JUMP JUMPDEST PUSH1 0x0 DUP3 DUP3 MSTORE PUSH1 0x20 DUP3 ADD SWAP1 POP SWAP3 SWAP2 POP POP JUMP JUMPDEST PUSH1 0x0 PUSH2 0xF80 DUP3 PUSH2 0xDD6 JUMP JUMPDEST PUSH2 0xF8A DUP2 DUP6 PUSH2 0xF64 JUMP JUMPDEST SWAP4 POP PUSH2 0xF9A DUP2 DUP6 PUSH1 0x20 DUP7 ADD PUSH2 0xDF2 JUMP JUMPDEST PUSH2 0xFA3 DUP2 PUSH2 0xE1C JUMP JUMPDEST DUP5 ADD SWAP2 POP POP SWAP3 SWAP2 POP POP JUMP JUMPDEST PUSH1 0x0 PUSH1 0x80 DUP4 ADD PUSH1 0x0 DUP4 ADD MLOAD PUSH2 0xFC6 PUSH1 0x0 DUP7 ADD DUP3 PUSH2 0xF46 JUMP JUMPDEST POP PUSH1 0x20 DUP4 ADD MLOAD PUSH2 0xFD9 PUSH1 0x20 DUP7 ADD DUP3 PUSH2 0xF55 JUMP JUMPDEST POP PUSH1 0x40 DUP4 ADD MLOAD DUP5 DUP3 SUB PUSH1 0x40 DUP7 ADD MSTORE PUSH2 0xFF1 DUP3 DUP3 PUSH2 0xF75 JUMP JUMPDEST SWAP2 POP POP PUSH1 0x60 DUP4 ADD MLOAD PUSH2 0x1006 PUSH1 0x60 DUP7 ADD DUP3 PUSH2 0xF46 JUMP JUMPDEST POP DUP1 SWAP2 POP POP SWAP3 SWAP2 POP POP JUMP JUMPDEST PUSH1 0x0 PUSH2 0x101D DUP4 DUP4 PUSH2 0xFAE JUMP JUMPDEST SWAP1 POP SWAP3 SWAP2 POP POP JUMP JUMPDEST PUSH1 0x0 PUSH1 0x20 DUP3 ADD SWAP1 POP SWAP2 SWAP1 POP JUMP JUMPDEST PUSH1 0x0 PUSH2 0x103D DUP3 PUSH2 0xF1A JUMP JUMPDEST PUSH2 0x1047 DUP2 DUP6 PUSH2 0xF25 JUMP JUMPDEST SWAP4 POP DUP4 PUSH1 0x20 DUP3 MUL DUP6 ADD PUSH2 0x1059 DUP6 PUSH2 0xF36 JUMP JUMPDEST DUP1 PUSH1 0x0 JUMPDEST DUP6 DUP2 LT ISZERO PUSH2 0x1095 JUMPI DUP5 DUP5 SUB DUP10 MSTORE DUP2 MLOAD PUSH2 0x1076 DUP6 DUP3 PUSH2 0x1011 JUMP JUMPDEST SWAP5 POP PUSH2 0x1081 DUP4 PUSH2 0x1025 JUMP JUMPDEST SWAP3 POP PUSH1 0x20 DUP11 ADD SWAP10 POP POP PUSH1 0x1 DUP2 ADD SWAP1 POP PUSH2 0x105D JUMP JUMPDEST POP DUP3 SWAP8 POP DUP8 SWAP6 POP POP POP POP POP POP SWAP3 SWAP2 POP POP JUMP JUMPDEST PUSH1 0x0 PUSH1 0x20 DUP3 ADD SWAP1 POP DUP2 DUP2 SUB PUSH1 0x0 DUP4 ADD MSTORE PUSH2 0x10C1 DUP2 DUP5 PUSH2 0x1032 JUMP JUMPDEST SWAP1 POP SWAP3 SWAP2 POP POP JUMP JUMPDEST PUSH1 0x0 PUSH1 0x20 DUP3 ADD SWAP1 POP PUSH2 0x10DE PUSH1 0x0 DUP4 ADD DUP5 PUSH2 0xDB8 JUMP JUMPDEST SWAP3 SWAP2 POP POP JUMP JUMPDEST PUSH1 0x0 DUP1 REVERT JUMPDEST PUSH1 0x0 DUP1 REVERT JUMPDEST PUSH32 0x4E487B7100000000000000000000000000000000000000000000000000000000 PUSH1 0x0 MSTORE PUSH1 0x41 PUSH1 0x4 MSTORE PUSH1 0x24 PUSH1 0x0 REVERT JUMPDEST PUSH2 0x1126 DUP3 PUSH2 0xE1C JUMP JUMPDEST DUP2 ADD DUP2 DUP2 LT PUSH8 0xFFFFFFFFFFFFFFFF DUP3 GT OR ISZERO PUSH2 0x1145 JUMPI PUSH2 0x1144 PUSH2 0x10EE JUMP JUMPDEST JUMPDEST DUP1 PUSH1 0x40 MSTORE POP POP POP JUMP JUMPDEST PUSH1 0x0 PUSH2 0x1158 PUSH2 0xC5A JUMP JUMPDEST SWAP1 POP PUSH2 0x1164 DUP3 DUP3 PUSH2 0x111D JUMP JUMPDEST SWAP2 SWAP1 POP JUMP JUMPDEST PUSH1 0x0 PUSH8 0xFFFFFFFFFFFFFFFF DUP3 GT ISZERO PUSH2 0x1184 JUMPI PUSH2 0x1183 PUSH2 0x10EE JUMP JUMPDEST JUMPDEST PUSH2 0x118D DUP3 PUSH2 0xE1C JUMP JUMPDEST SWAP1 POP PUSH1 0x20 DUP2 ADD SWAP1 POP SWAP2 SWAP1 POP JUMP JUMPDEST DUP3 DUP2 DUP4 CALLDATACOPY PUSH1 0x0 DUP4 DUP4 ADD MSTORE POP POP POP JUMP JUMPDEST PUSH1 0x0 PUSH2 0x11BC PUSH2 0x11B7 DUP5 PUSH2 0x1169 JUMP JUMPDEST PUSH2 0x114E JUMP JUMPDEST SWAP1 POP DUP3 DUP2 MSTORE PUSH1 0x20 DUP2 ADD DUP5 DUP5 DUP5 ADD GT ISZERO PUSH2 0x11D8 JUMPI PUSH2 0x11D7 PUSH2 0x10E9 JUMP JUMPDEST JUMPDEST PUSH2 0x11E3 DUP5 DUP3 DUP6 PUSH2 0x119A JUMP JUMPDEST POP SWAP4 SWAP3 POP POP POP JUMP JUMPDEST PUSH1 0x0 DUP3 PUSH1 0x1F DUP4 ADD SLT PUSH2 0x1200 JUMPI PUSH2 0x11FF PUSH2 0x10E4 JUMP JUMPDEST JUMPDEST DUP2 CALLDATALOAD PUSH2 0x1210 DUP5 DUP3 PUSH1 0x20 DUP7 ADD PUSH2 0x11A9 JUMP JUMPDEST SWAP2 POP POP SWAP3 SWAP2 POP POP JUMP JUMPDEST PUSH1 0x0 DUP1 PUSH1 0x0 PUSH1 0x60 DUP5 DUP7 SUB SLT ISZERO PUSH2 0x1232 JUMPI PUSH2 0x1231 PUSH2 0xC64 JUMP JUMPDEST JUMPDEST PUSH1 0x0 PUSH2 0x1240 DUP7 DUP3 DUP8 ADD PUSH2 0xCB7 JUMP JUMPDEST SWAP4 POP POP PUSH1 0x20 PUSH2 0x1251 DUP7 DUP3 DUP8 ADD PUSH2 0xCB7 JUMP JUMPDEST SWAP3 POP POP PUSH1 0x40 DUP5 ADD CALLDATALOAD PUSH8 0xFFFFFFFFFFFFFFFF DUP2 GT ISZERO PUSH2 0x1272 JUMPI PUSH2 0x1271 PUSH2 0xC69 JUMP JUMPDEST JUMPDEST PUSH2 0x127E DUP7 DUP3 DUP8 ADD PUSH2 0x11EB JUMP JUMPDEST SWAP2 POP POP SWAP3 POP SWAP3 POP SWAP3 JUMP JUMPDEST PUSH1 0x0 DUP1 PUSH1 0x40 DUP4 DUP6 SUB SLT ISZERO PUSH2 0x129F JUMPI PUSH2 0x129E PUSH2 0xC64 JUMP JUMPDEST JUMPDEST PUSH1 0x0 PUSH2 0x12AD DUP6 DUP3 DUP7 ADD PUSH2 0xCB7 JUMP JUMPDEST SWAP3 POP POP PUSH1 0x20 DUP4 ADD CALLDATALOAD PUSH8 0xFFFFFFFFFFFFFFFF DUP2 GT ISZERO PUSH2 0x12CE JUMPI PUSH2 0x12CD PUSH2 0xC69 JUMP JUMPDEST JUMPDEST PUSH2 0x12DA DUP6 DUP3 DUP7 ADD PUSH2 0x11EB JUMP JUMPDEST SWAP2 POP POP SWAP3 POP SWAP3 SWAP1 POP JUMP JUMPDEST PUSH1 0x0 PUSH1 0x20 DUP3 ADD SWAP1 POP PUSH2 0x12F9 PUSH1 0x0 DUP4 ADD DUP5 PUSH2 0xDC7 JUMP JUMPDEST SWAP3 SWAP2 POP POP JUMP JUMPDEST PUSH1 0x0 PUSH1 0x80 DUP3 ADD SWAP1 POP PUSH2 0x1314 PUSH1 0x0 DUP4 ADD DUP8 PUSH2 0xDB8 JUMP JUMPDEST PUSH2 0x1321 PUSH1 0x20 DUP4 ADD DUP7 PUSH2 0xDC7 JUMP JUMPDEST DUP2 DUP2 SUB PUSH1 0x40 DUP4 ADD MSTORE PUSH2 0x1333 DUP2 DUP6 PUSH2 0xE2D JUMP JUMPDEST SWAP1 POP PUSH2 0x1342 PUSH1 0x60 DUP4 ADD DUP5 PUSH2 0xDB8 JUMP JUMPDEST SWAP6 SWAP5 POP POP POP POP POP JUMP JUMPDEST PUSH1 0x0 PUSH1 0x20 DUP3 DUP5 SUB SLT ISZERO PUSH2 0x1361 JUMPI PUSH2 0x1360 PUSH2 0xC64 JUMP JUMPDEST JUMPDEST PUSH1 0x0 DUP3 ADD CALLDATALOAD PUSH8 0xFFFFFFFFFFFFFFFF DUP2 GT ISZERO PUSH2 0x137F JUMPI PUSH2 0x137E PUSH2 0xC69 JUMP JUMPDEST JUMPDEST PUSH2 0x138B DUP5 DUP3 DUP6 ADD PUSH2 0x11EB JUMP JUMPDEST SWAP2 POP POP SWAP3 SWAP2 POP POP JUMP JUMPDEST PUSH32 0x4E487B7100000000000000000000000000000000000000000000000000000000 PUSH1 0x0 MSTORE PUSH1 0x22 PUSH1 0x4 MSTORE PUSH1 0x24 PUSH1 0x0 REVERT JUMPDEST PUSH1 0x0 PUSH1 0x2 DUP3 DIV SWAP1 POP PUSH1 0x1 DUP3 AND DUP1 PUSH2 0x13DB JUMPI PUSH1 0x7F DUP3 AND SWAP2 POP JUMPDEST PUSH1 0x20 DUP3 LT DUP2 SUB PUSH2 0x13EE JUMPI PUSH2 0x13ED PUSH2 0x1394 JUMP JUMPDEST JUMPDEST POP SWAP2 SWAP1 POP JUMP JUMPDEST PUSH32 0x636F756E74206F7574206F6620626F756E640000000000000000000000000000 PUSH1 0x0 DUP3 ADD MSTORE POP JUMP JUMPDEST PUSH1 0x0 PUSH2 0x142A PUSH1 0x12 DUP4 PUSH2 0xDE1 JUMP JUMPDEST SWAP2 POP PUSH2 0x1435 DUP3 PUSH2 0x13F4 JUMP JUMPDEST PUSH1 0x20 DUP3 ADD SWAP1 POP SWAP2 SWAP1 POP JUMP JUMPDEST PUSH1 0x0 PUSH1 0x20 DUP3 ADD SWAP1 POP DUP2 DUP2 SUB PUSH1 0x0 DUP4 ADD MSTORE PUSH2 0x1459 DUP2 PUSH2 0x141D JUMP JUMPDEST SWAP1 POP SWAP2 SWAP1 POP JUMP JUMPDEST PUSH32 0x4E487B7100000000000000000000000000000000000000000000000000000000 PUSH1 0x0 MSTORE PUSH1 0x11 PUSH1 0x4 MSTORE PUSH1 0x24 PUSH1 0x0 REVERT JUMPDEST PUSH1 0x0 PUSH2 0x149A DUP3 PUSH2 0xD42 JUMP JUMPDEST SWAP2 POP PUSH2 0x14A5 DUP4 PUSH2 0xD42 JUMP JUMPDEST SWAP3 POP DUP3 DUP3 SUB SWAP1 POP DUP2 DUP2 GT ISZERO PUSH2 0x14BD JUMPI PUSH2 0x14BC PUSH2 0x1460 JUMP JUMPDEST JUMPDEST SWAP3 SWAP2 POP POP JUMP JUMPDEST PUSH32 0x4E487B7100000000000000000000000000000000000000000000000000000000 PUSH1 0x0 MSTORE PUSH1 0x32 PUSH1 0x4 MSTORE PUSH1 0x24 PUSH1 0x0 REVERT JUMPDEST PUSH1 0x0 PUSH2 0x14FD DUP3 PUSH2 0xD42 JUMP JUMPDEST SWAP2 POP PUSH32 0xFFFFFFFFFFFFFFFFFFFFFFFFFFFFFFFFFFFFFFFFFFFFFFFFFFFFFFFFFFFFFFFF DUP3 SUB PUSH2 0x152F JUMPI PUSH2 0x152E PUSH2 0x1460 JUMP JUMPDEST JUMPDEST PUSH1 0x1 DUP3 ADD SWAP1 POP SWAP2 SWAP1 POP JUMP JUMPDEST PUSH1 0x0 DUP2 SWAP1 POP DUP2 PUSH1 0x0 MSTORE PUSH1 0x20 PUSH1 0x0 KECCAK256 SWAP1 POP SWAP2 SWAP1 POP JUMP JUMPDEST PUSH1 0x0 PUSH1 0x20 PUSH1 0x1F DUP4 ADD DIV SWAP1 POP SWAP2 SWAP1 POP JUMP JUMPDEST PUSH1 0x0 DUP3 DUP3 SHL SWAP1 POP SWAP3 SWAP2 POP POP JUMP JUMPDEST PUSH1 0x0 PUSH1 0x8 DUP4 MUL PUSH2 0x159C PUSH32 0xFFFFFFFFFFFFFFFFFFFFFFFFFFFFFFFFFFFFFFFFFFFFFFFFFFFFFFFFFFFFFFFF DUP3 PUSH2 0x155F JUMP JUMPDEST PUSH2 0x15A6 DUP7 DUP4 PUSH2 0x155F JUMP JUMPDEST SWAP6 POP DUP1 NOT DUP5 AND SWAP4 POP DUP1 DUP7 AND DUP5 OR SWAP3 POP POP POP SWAP4 SWAP3 POP POP POP JUMP JUMPDEST PUSH1 0x0 DUP2 SWAP1 POP SWAP2 SWAP1 POP JUMP JUMPDEST PUSH1 0x0 PUSH2 0x15E3 PUSH2 0x15DE PUSH2 0x15D9 DUP5 PUSH2 0xD42 JUMP JUMPDEST PUSH2 0x15BE JUMP JUMPDEST PUSH2 0xD42 JUMP JUMPDEST SWAP1 POP SWAP2 SWAP1 POP JUMP JUMPDEST PUSH1 0x0 DUP2 SWAP1 POP SWAP2 SWAP1 POP JUMP JUMPDEST PUSH2 0x15FD DUP4 PUSH2 0x15C8 JUMP JUMPDEST PUSH2 0x1611 PUSH2 0x1609 DUP3 PUSH2 0x15EA JUMP JUMPDEST DUP5 DUP5 SLOAD PUSH2 0x156C JUMP JUMPDEST DUP3 SSTORE POP POP POP POP JUMP JUMPDEST PUSH1 0x0 SWAP1 JUMP JUMPDEST PUSH2 0x1626 PUSH2 0x1619 JUMP JUMPDEST PUSH2 0x1631 DUP2 DUP5 DUP5 PUSH2 0x15F4 JUMP JUMPDEST POP POP POP JUMP JUMPDEST JUMPDEST DUP2 DUP2 LT ISZERO PUSH2 0x1655 JUMPI PUSH2 0x164A PUSH1 0x0 DUP3 PUSH2 0x161E JUMP JUMPDEST PUSH1 0x1 DUP2 ADD SWAP1 POP PUSH2 0x1637 JUMP JUMPDEST POP POP JUMP JUMPDEST PUSH1 0x1F DUP3 GT ISZERO PUSH2 0x169A JUMPI PUSH2 0x166B DUP2 PUSH2 0x153A JUMP JUMPDEST PUSH2 0x1674 DUP5 PUSH2 0x154F JUMP JUMPDEST DUP2 ADD PUSH1 0x20 DUP6 LT ISZERO PUSH2 0x1683 JUMPI DUP2 SWAP1 POP JUMPDEST PUSH2 0x1697 PUSH2 0x168F DUP6 PUSH2 0x154F JUMP JUMPDEST DUP4 ADD DUP3 PUSH2 0x1636 JUMP JUMPDEST POP POP JUMPDEST POP POP POP JUMP JUMPDEST PUSH1 0x0 DUP3 DUP3 SHR SWAP1 POP SWAP3 SWAP2 POP POP JUMP JUMPDEST PUSH1 0x0 PUSH2 0x16BD PUSH1 0x0 NOT DUP5 PUSH1 0x8 MUL PUSH2 0x169F JUMP JUMPDEST NOT DUP1 DUP4 AND SWAP2 POP POP SWAP3 SWAP2 POP POP JUMP JUMPDEST PUSH1 0x0 PUSH2 0x16D6 DUP4 DUP4 PUSH2 0x16AC JUMP JUMPDEST SWAP2 POP DUP3 PUSH1 0x2 MUL DUP3 OR SWAP1 POP SWAP3 SWAP2 POP POP JUMP JUMPDEST PUSH2 0x16EF DUP3 PUSH2 0xDD6 JUMP JUMPDEST PUSH8 0xFFFFFFFFFFFFFFFF DUP2 GT ISZERO PUSH2 0x1708 JUMPI PUSH2 0x1707 PUSH2 0x10EE JUMP JUMPDEST JUMPDEST PUSH2 0x1712 DUP3 SLOAD PUSH2 0x13C3 JUMP JUMPDEST PUSH2 0x171D DUP3 DUP3 DUP6 PUSH2 0x1659 JUMP JUMPDEST PUSH1 0x0 PUSH1 0x20 SWAP1 POP PUSH1 0x1F DUP4 GT PUSH1 0x1 DUP2 EQ PUSH2 0x1750 JUMPI PUSH1 0x0 DUP5 ISZERO PUSH2 0x173E JUMPI DUP3 DUP8 ADD MLOAD SWAP1 POP JUMPDEST PUSH2 0x1748 DUP6 DUP3 PUSH2 0x16CA JUMP JUMPDEST DUP7 SSTORE POP PUSH2 0x17B0 JUMP JUMPDEST PUSH1 0x1F NOT DUP5 AND PUSH2 0x175E DUP7 PUSH2 0x153A JUMP JUMPDEST PUSH1 0x0 JUMPDEST DUP3 DUP2 LT ISZERO PUSH2 0x1786 JUMPI DUP5 DUP10 ADD MLOAD DUP3 SSTORE PUSH1 0x1 DUP3 ADD SWAP2 POP PUSH1 0x20 DUP6 ADD SWAP5 POP PUSH1 0x20 DUP2 ADD SWAP1 POP PUSH2 0x1761 JUMP JUMPDEST DUP7 DUP4 LT ISZERO PUSH2 0x17A3 JUMPI DUP5 DUP10 ADD MLOAD PUSH2 0x179F PUSH1 0x1F DUP10 AND DUP3 PUSH2 0x16AC JUMP JUMPDEST DUP4 SSTORE POP JUMPDEST PUSH1 0x1 PUSH1 0x2 DUP9 MUL ADD DUP9 SSTORE POP POP POP JUMPDEST POP POP POP POP POP POP JUMP INVALID LOG2 PUSH5 0x6970667358 0x22 SLT KECCAK256 0xDF PUSH30 0x6F8F6A9ED3F6DC837B2B6097F53C7C2E458D832F06DDE7F9A465444B6448 PUSH5 0x736F6C6343 STOP ADDMOD SLT STOP CALLER "
				},
				"gasEstimates": {
					"creation": {
						"codeDepositCost": "1225200",
						"executionCost": "1275",
						"totalCost": "1226475"
					},
					"external": {
						"allowAccess(address)": "24946",
						"conversations(address,uint256)": "infinite",
						"fetchLatestTweets(uint256)": "infinite",
						"follow(address)": "49225",
						"follow(address,address)": "infinite",
						"followings(address,uint256)": "infinite",
						"operators(address,address)": "infinite",
						"removeAccess(address)": "24946",
						"sendMessage(address,address,string)": "infinite",
						"sendMessage(address,string)": "infinite",
						"tweet(address,string)": "infinite",
						"tweet(string)": "infinite",
						"tweets(uint256)": "infinite",
						"tweetsOf(address,uint256)": "infinite"
					},
					"internal": {
						"_follow(address,address)": "48688",
						"_sendMessage(address,address,string memory)": "infinite",
						"_tweet(address,string memory)": "infinite"
					}
				},
				"methodIdentifiers": {
					"allowAccess(address)": "c4a85bc1",
					"conversations(address,uint256)": "3befea09",
					"fetchLatestTweets(uint256)": "7c8965e0",
					"follow(address)": "4dbf27cc",
					"follow(address,address)": "99d147c2",
					"followings(address,uint256)": "dedf1b4a",
					"operators(address,address)": "2637588e",
					"removeAccess(address)": "8823da6c",
					"sendMessage(address,address,string)": "b88e318d",
					"sendMessage(address,string)": "de6f24bb",
					"tweet(address,string)": "d21d1596",
					"tweet(string)": "fb46d4c5",
					"tweets(uint256)": "e8d857b0",
					"tweetsOf(address,uint256)": "af22bf94"
				}
			},
			"storageLayout": {
				"storage": [
					{
						"astId": 26,
						"contract": "contracts/1_Twitter.sol:Twitter",
						"label": "tweets",
						"offset": 0,
						"slot": "0",
						"type": "t_mapping(t_uint256,t_struct(Tweet)10_storage)"
					},
					{
						"astId": 31,
						"contract": "contracts/1_Twitter.sol:Twitter",
						"label": "tweetsOf",
						"offset": 0,
						"slot": "1",
						"type": "t_mapping(t_address,t_array(t_uint256)dyn_storage)"
					},
					{
						"astId": 37,
						"contract": "contracts/1_Twitter.sol:Twitter",
						"label": "conversations",
						"offset": 0,
						"slot": "2",
						"type": "t_mapping(t_address,t_array(t_struct(Message)21_storage)dyn_storage)"
					},
					{
						"astId": 43,
						"contract": "contracts/1_Twitter.sol:Twitter",
						"label": "operators",
						"offset": 0,
						"slot": "3",
						"type": "t_mapping(t_address,t_mapping(t_address,t_bool))"
					},
					{
						"astId": 48,
						"contract": "contracts/1_Twitter.sol:Twitter",
						"label": "followings",
						"offset": 0,
						"slot": "4",
						"type": "t_mapping(t_address,t_array(t_address)dyn_storage)"
					},
					{
						"astId": 50,
						"contract": "contracts/1_Twitter.sol:Twitter",
						"label": "nextId",
						"offset": 0,
						"slot": "5",
						"type": "t_uint256"
					},
					{
						"astId": 52,
						"contract": "contracts/1_Twitter.sol:Twitter",
						"label": "nextMessageId",
						"offset": 0,
						"slot": "6",
						"type": "t_uint256"
					}
				],
				"types": {
					"t_address": {
						"encoding": "inplace",
						"label": "address",
						"numberOfBytes": "20"
					},
					"t_array(t_address)dyn_storage": {
						"base": "t_address",
						"encoding": "dynamic_array",
						"label": "address[]",
						"numberOfBytes": "32"
					},
					"t_array(t_struct(Message)21_storage)dyn_storage": {
						"base": "t_struct(Message)21_storage",
						"encoding": "dynamic_array",
						"label": "struct Twitter.Message[]",
						"numberOfBytes": "32"
					},
					"t_array(t_uint256)dyn_storage": {
						"base": "t_uint256",
						"encoding": "dynamic_array",
						"label": "uint256[]",
						"numberOfBytes": "32"
					},
					"t_bool": {
						"encoding": "inplace",
						"label": "bool",
						"numberOfBytes": "1"
					},
					"t_mapping(t_address,t_array(t_address)dyn_storage)": {
						"encoding": "mapping",
						"key": "t_address",
						"label": "mapping(address => address[])",
						"numberOfBytes": "32",
						"value": "t_array(t_address)dyn_storage"
					},
					"t_mapping(t_address,t_array(t_struct(Message)21_storage)dyn_storage)": {
						"encoding": "mapping",
						"key": "t_address",
						"label": "mapping(address => struct Twitter.Message[])",
						"numberOfBytes": "32",
						"value": "t_array(t_struct(Message)21_storage)dyn_storage"
					},
					"t_mapping(t_address,t_array(t_uint256)dyn_storage)": {
						"encoding": "mapping",
						"key": "t_address",
						"label": "mapping(address => uint256[])",
						"numberOfBytes": "32",
						"value": "t_array(t_uint256)dyn_storage"
					},
					"t_mapping(t_address,t_bool)": {
						"encoding": "mapping",
						"key": "t_address",
						"label": "mapping(address => bool)",
						"numberOfBytes": "32",
						"value": "t_bool"
					},
					"t_mapping(t_address,t_mapping(t_address,t_bool))": {
						"encoding": "mapping",
						"key": "t_address",
						"label": "mapping(address => mapping(address => bool))",
						"numberOfBytes": "32",
						"value": "t_mapping(t_address,t_bool)"
					},
					"t_mapping(t_uint256,t_struct(Tweet)10_storage)": {
						"encoding": "mapping",
						"key": "t_uint256",
						"label": "mapping(uint256 => struct Twitter.Tweet)",
						"numberOfBytes": "32",
						"value": "t_struct(Tweet)10_storage"
					},
					"t_string_storage": {
						"encoding": "bytes",
						"label": "string",
						"numberOfBytes": "32"
					},
					"t_struct(Message)21_storage": {
						"encoding": "inplace",
						"label": "struct Twitter.Message",
						"members": [
							{
								"astId": 12,
								"contract": "contracts/1_Twitter.sol:Twitter",
								"label": "id",
								"offset": 0,
								"slot": "0",
								"type": "t_uint256"
							},
							{
								"astId": 14,
								"contract": "contracts/1_Twitter.sol:Twitter",
								"label": "from",
								"offset": 0,
								"slot": "1",
								"type": "t_address"
							},
							{
								"astId": 16,
								"contract": "contracts/1_Twitter.sol:Twitter",
								"label": "to",
								"offset": 0,
								"slot": "2",
								"type": "t_address"
							},
							{
								"astId": 18,
								"contract": "contracts/1_Twitter.sol:Twitter",
								"label": "mssg",
								"offset": 0,
								"slot": "3",
								"type": "t_string_storage"
							},
							{
								"astId": 20,
								"contract": "contracts/1_Twitter.sol:Twitter",
								"label": "createdAt",
								"offset": 0,
								"slot": "4",
								"type": "t_uint256"
							}
						],
						"numberOfBytes": "160"
					},
					"t_struct(Tweet)10_storage": {
						"encoding": "inplace",
						"label": "struct Twitter.Tweet",
						"members": [
							{
								"astId": 3,
								"contract": "contracts/1_Twitter.sol:Twitter",
								"label": "id",
								"offset": 0,
								"slot": "0",
								"type": "t_uint256"
							},
							{
								"astId": 5,
								"contract": "contracts/1_Twitter.sol:Twitter",
								"label": "author",
								"offset": 0,
								"slot": "1",
								"type": "t_address"
							},
							{
								"astId": 7,
								"contract": "contracts/1_Twitter.sol:Twitter",
								"label": "content",
								"offset": 0,
								"slot": "2",
								"type": "t_string_storage"
							},
							{
								"astId": 9,
								"contract": "contracts/1_Twitter.sol:Twitter",
								"label": "createdAt",
								"offset": 0,
								"slot": "3",
								"type": "t_uint256"
							}
						],
						"numberOfBytes": "128"
					},
					"t_uint256": {
						"encoding": "inplace",
						"label": "uint256",
						"numberOfBytes": "32"
					}
				}
			},
			"userdoc": {
				"kind": "user",
				"methods": {},
				"version": 1
			}
		}
	}
}